{
	"data": {
		"bytecode": {
			"linkReferences": {
				"SolRsaVerify/src/RsaVerify.sol": {
					"RsaVerify": [
						{
							"length": 20,
							"start": 2357
						}
					]
				}
			},
			"object": "60806040526040518061012001604052806101008152602001611f5361010091396003908161002e9190610522565b505f600460146101000a81548160ff0219169083151502179055506040518060c001604052806040518060400160405280600281526020017f505000000000000000000000000000000000000000000000000000000000000081525081526020016040518060400160405280600481526020017f50534f450000000000000000000000000000000000000000000000000000000081525081526020016040518060400160405280600381526020017f566f78000000000000000000000000000000000000000000000000000000000081525081526020016040518060400160405280600581526020017f53756d617200000000000000000000000000000000000000000000000000000081525081526020016040518060400160405280600781526020017f506f64656d6f730000000000000000000000000000000000000000000000000081525081526020016040518060400160405280600a81526020017f436975646164616e6f730000000000000000000000000000000000000000000081525081525060059060066101c4929190610216565b503480156101d0575f80fd5b503360045f6101000a81548173ffffffffffffffffffffffffffffffffffffffff021916908373ffffffffffffffffffffffffffffffffffffffff1602179055506105f1565b828054828255905f5260205f2090810192821561025c579160200282015b8281111561025b57825182908161024b9190610522565b5091602001919060010190610234565b5b509050610269919061026d565b5090565b5b8082111561028c575f81816102839190610290565b5060010161026e565b5090565b50805461029c9061034c565b5f825580601f106102ad57506102ca565b601f0160209004905f5260205f20908101906102c991906102cd565b5b50565b5b808211156102e4575f815f9055506001016102ce565b5090565b5f81519050919050565b7f4e487b71000000000000000000000000000000000000000000000000000000005f52604160045260245ffd5b7f4e487b71000000000000000000000000000000000000000000000000000000005f52602260045260245ffd5b5f600282049050600182168061036357607f821691505b6020821081036103765761037561031f565b5b50919050565b5f819050815f5260205f209050919050565b5f6020601f8301049050919050565b5f82821b905092915050565b5f600883026103d87fffffffffffffffffffffffffffffffffffffffffffffffffffffffffffffffff8261039d565b6103e2868361039d565b95508019841693508086168417925050509392505050565b5f819050919050565b5f819050919050565b5f61042661042161041c846103fa565b610403565b6103fa565b9050919050565b5f819050919050565b61043f8361040c565b61045361044b8261042d565b8484546103a9565b825550505050565b5f90565b61046761045b565b610472818484610436565b505050565b5b818110156104955761048a5f8261045f565b600181019050610478565b5050565b601f8211156104da576104ab8161037c565b6104b48461038e565b810160208510156104c3578190505b6104d76104cf8561038e565b830182610477565b50505b505050565b5f82821c905092915050565b5f6104fa5f19846008026104df565b1980831691505092915050565b5f61051283836104eb565b9150826002028217905092915050565b61052b826102e8565b67ffffffffffffffff811115610544576105436102f2565b5b61054e825461034c565b610559828285610499565b5f60209050601f83116001811461058a575f8415610578578287015190505b6105828582610507565b8655506105e9565b601f1984166105988661037c565b5f5b828110156105bf5784890151825560018201915060208501945060208101905061059a565b868310156105dc57848901516105d8601f8916826104eb565b8355505b6001600288020188555050505b505050505050565b611955806105fe5f395ff3fe608060405234801561000f575f80fd5b506004361061003f575f3560e01c80630dc960151461004357806395f59fe114610062578063f909430314610092575b5f80fd5b61004b61009c565b604051610059929190610f24565b60405180910390f35b61007c60048036038101906100779190611096565b610297565b6040516100899190611182565b60405180910390f35b61009a6105c2565b005b60608060045f9054906101000a900473ffffffffffffffffffffffffffffffffffffffff1673ffffffffffffffffffffffffffffffffffffffff163373ffffffffffffffffffffffffffffffffffffffff16146100f7575f80fd5b5f60018054905067ffffffffffffffff81111561011757610116610f72565b5b6040519080825280602002602001820160405280156101455781602001602082028036833780820191505090505b5090505f5b6001805490508110156101bc575f6001828154811061016c5761016b6111a2565b5b905f5260205f200160405161018191906112c8565b9081526020016040518091039020548282815181106101a3576101a26111a2565b5b602002602001018181525050808060010191505061014a565b5060018181805480602002602001604051908101604052809291908181526020015f905b82821015610288578382905f5260205f200180546101fd906111fc565b80601f0160208091040260200160405190810160405280929190818152602001828054610229906111fc565b80156102745780601f1061024b57610100808354040283529160200191610274565b820191905f5260205f20905b81548152906001019060200180831161025757829003601f168201915b5050505050815260200190600101906101e0565b50505050915092509250509091565b6060600460149054906101000a900460ff16156102eb576040518060400160405280600d81526020017f566f74652046696e69736865640000000000000000000000000000000000000081525090506105bb565b6102f484610637565b610335576040518060400160405280601381526020017f496e76616c696420766f7465206f7074696f6e0000000000000000000000000081525090506105bb565b73__$e231e4c09a57f4229a7d07a317ef2026bc$__631e8dc88885610359866106d9565b6103ea60038054610369906111fc565b80601f0160208091040260200160405190810160405280929190818152602001828054610395906111fc565b80156103e05780601f106103b7576101008083540402835291602001916103e0565b820191905f5260205f20905b8154815290600101906020018083116103c357829003601f168201915b50505050506106d9565b6103f3876106d9565b6040518563ffffffff1660e01b81526004016104129493929190611330565b602060405180830381865af415801561042d573d5f803e3d5ffd5b505050506040513d601f19601f8201168201806040525081019061045191906113c4565b156105825761045f84610851565b8015610471575061046f826108f3565b155b156104af5760015f85604051610487919061141f565b90815260200160405180910390205f8282546104a39190611462565b92505081905550610545565b6104b8826108f3565b6105445760015f856040516104cd919061141f565b908152602001604051809103902081905550600282908060018154018082558091505060019003905f5260205f20015f9091909190915090816105109190611637565b50600184908060018154018082558091505060019003905f5260205f20015f9091909190915090816105429190611637565b505b5b6040518060400160405280600281526020017f4f4b00000000000000000000000000000000000000000000000000000000000081525090506105bb565b6040518060400160405280600681526020017f4e6f74204f4b000000000000000000000000000000000000000000000000000081525090505b9392505050565b60045f9054906101000a900473ffffffffffffffffffffffffffffffffffffffff1673ffffffffffffffffffffffffffffffffffffffff163373ffffffffffffffffffffffffffffffffffffffff161461061a575f80fd5b6001600460146101000a81548160ff021916908315150217905550565b5f805f90505b6005805490508110156106cf578260405160200161065b919061141f565b6040516020818303038152906040528051906020012060058281548110610685576106846111a2565b5b905f5260205f200160405160200161069d91906112c8565b60405160208183030381529060405280519060200120036106c25760019150506106d4565b808060010191505061063d565b505f90505b919050565b60605f8290505f600282516106ee9190611733565b146106f7575f80fd5b5f600282516107069190611763565b67ffffffffffffffff81111561071f5761071e610f72565b5b6040519080825280601f01601f1916602001820160405280156107515781602001600182028036833780820191505090505b5090505f5b600283516107649190611763565b811015610846576107ac83600183600261077e9190611793565b61078891906117d4565b81518110610799576107986111a2565b5b602001015160f81c60f81b60f81c610995565b60106107e3858460026107bf9190611793565b815181106107d0576107cf6111a2565b5b602001015160f81c60f81b60f81c610995565b6107ed9190611813565b6107f7919061184f565b60f81b82828151811061080d5761080c6111a2565b5b60200101907effffffffffffffffffffffffffffffffffffffffffffffffffffffffffffff191690815f1a905350806001019050610756565b508092505050919050565b5f805f90505b6001805490508110156108e95782604051602001610875919061141f565b604051602081830303815290604052805190602001206001828154811061089f5761089e6111a2565b5b905f5260205f20016040516020016108b791906112c8565b60405160208183030381529060405280519060200120036108dc5760019150506108ee565b8080600101915050610857565b505f90505b919050565b5f805f90505b60018054905081101561098b5782604051602001610917919061141f565b6040516020818303038152906040528051906020012060028281548110610941576109406111a2565b5b905f5260205f200160405160200161095991906112c8565b604051602081830303815290604052805190602001200361097e576001915050610990565b80806001019150506108f9565b505f90505b919050565b5f7f30000000000000000000000000000000000000000000000000000000000000007effffffffffffffffffffffffffffffffffffffffffffffffffffffffffffff19168260f81b7effffffffffffffffffffffffffffffffffffffffffffffffffffffffffffff191610158015610a7457507f39000000000000000000000000000000000000000000000000000000000000007effffffffffffffffffffffffffffffffffffffffffffffffffffffffffffff19168260f81b7effffffffffffffffffffffffffffffffffffffffffffffffffffffffffffff191611155b15610aaf577f300000000000000000000000000000000000000000000000000000000000000060f81c82610aa89190611883565b9050610d34565b7f61000000000000000000000000000000000000000000000000000000000000007effffffffffffffffffffffffffffffffffffffffffffffffffffffffffffff19168260f81b7effffffffffffffffffffffffffffffffffffffffffffffffffffffffffffff191610158015610b8d57507f66000000000000000000000000000000000000000000000000000000000000007effffffffffffffffffffffffffffffffffffffffffffffffffffffffffffff19168260f81b7effffffffffffffffffffffffffffffffffffffffffffffffffffffffffffff191611155b15610bd4577f610000000000000000000000000000000000000000000000000000000000000060f81c82600a610bc3919061184f565b610bcd9190611883565b9050610d34565b7f41000000000000000000000000000000000000000000000000000000000000007effffffffffffffffffffffffffffffffffffffffffffffffffffffffffffff19168260f81b7effffffffffffffffffffffffffffffffffffffffffffffffffffffffffffff191610158015610cb257507f46000000000000000000000000000000000000000000000000000000000000007effffffffffffffffffffffffffffffffffffffffffffffffffffffffffffff19168260f81b7effffffffffffffffffffffffffffffffffffffffffffffffffffffffffffff191611155b15610cf9577f410000000000000000000000000000000000000000000000000000000000000060f81c82600a610ce8919061184f565b610cf29190611883565b9050610d34565b6040517f08c379a0000000000000000000000000000000000000000000000000000000008152600401610d2b90611901565b60405180910390fd5b919050565b5f81519050919050565b5f82825260208201905092915050565b5f819050602082019050919050565b5f81519050919050565b5f82825260208201905092915050565b8281835e5f83830152505050565b5f601f19601f8301169050919050565b5f610da482610d62565b610dae8185610d6c565b9350610dbe818560208601610d7c565b610dc781610d8a565b840191505092915050565b5f610ddd8383610d9a565b905092915050565b5f602082019050919050565b5f610dfb82610d39565b610e058185610d43565b935083602082028501610e1785610d53565b805f5b85811015610e525784840389528151610e338582610dd2565b9450610e3e83610de5565b925060208a01995050600181019050610e1a565b50829750879550505050505092915050565b5f81519050919050565b5f82825260208201905092915050565b5f819050602082019050919050565b5f819050919050565b610e9f81610e8d565b82525050565b5f610eb08383610e96565b60208301905092915050565b5f602082019050919050565b5f610ed282610e64565b610edc8185610e6e565b9350610ee783610e7e565b805f5b83811015610f17578151610efe8882610ea5565b9750610f0983610ebc565b925050600181019050610eea565b5085935050505092915050565b5f6040820190508181035f830152610f3c8185610df1565b90508181036020830152610f508184610ec8565b90509392505050565b5f604051905090565b5f80fd5b5f80fd5b5f80fd5b5f80fd5b7f4e487b71000000000000000000000000000000000000000000000000000000005f52604160045260245ffd5b610fa882610d8a565b810181811067ffffffffffffffff82111715610fc757610fc6610f72565b5b80604052505050565b5f610fd9610f59565b9050610fe58282610f9f565b919050565b5f67ffffffffffffffff82111561100457611003610f72565b5b61100d82610d8a565b9050602081019050919050565b828183375f83830152505050565b5f61103a61103584610fea565b610fd0565b90508281526020810184848401111561105657611055610f6e565b5b61106184828561101a565b509392505050565b5f82601f83011261107d5761107c610f6a565b5b813561108d848260208601611028565b91505092915050565b5f805f606084860312156110ad576110ac610f62565b5b5f84013567ffffffffffffffff8111156110ca576110c9610f66565b5b6110d686828701611069565b935050602084013567ffffffffffffffff8111156110f7576110f6610f66565b5b61110386828701611069565b925050604084013567ffffffffffffffff81111561112457611123610f66565b5b61113086828701611069565b9150509250925092565b5f82825260208201905092915050565b5f61115482610d62565b61115e818561113a565b935061116e818560208601610d7c565b61117781610d8a565b840191505092915050565b5f6020820190508181035f83015261119a818461114a565b905092915050565b7f4e487b71000000000000000000000000000000000000000000000000000000005f52603260045260245ffd5b7f4e487b71000000000000000000000000000000000000000000000000000000005f52602260045260245ffd5b5f600282049050600182168061121357607f821691505b602082108103611226576112256111cf565b5b50919050565b5f81905092915050565b5f819050815f5260205f209050919050565b5f8154611254816111fc565b61125e818661122c565b9450600182165f8114611278576001811461128d576112bf565b60ff19831686528115158202860193506112bf565b61129685611236565b5f5b838110156112b757815481890152600182019150602081019050611298565b838801955050505b50505092915050565b5f6112d38284611248565b915081905092915050565b5f81519050919050565b5f82825260208201905092915050565b5f611302826112de565b61130c81856112e8565b935061131c818560208601610d7c565b61132581610d8a565b840191505092915050565b5f6080820190508181035f83015261134881876112f8565b9050818103602083015261135c81866112f8565b9050818103604083015261137081856112f8565b9050818103606083015261138481846112f8565b905095945050505050565b5f8115159050919050565b6113a38161138f565b81146113ad575f80fd5b50565b5f815190506113be8161139a565b92915050565b5f602082840312156113d9576113d8610f62565b5b5f6113e6848285016113b0565b91505092915050565b5f6113f982610d62565b611403818561122c565b9350611413818560208601610d7c565b80840191505092915050565b5f61142a82846113ef565b915081905092915050565b7f4e487b71000000000000000000000000000000000000000000000000000000005f52601160045260245ffd5b5f61146c82610e8d565b915061147783610e8d565b92508282019050828112155f8312168382125f84121516171561149d5761149c611435565b5b92915050565b5f6020601f8301049050919050565b5f82821b905092915050565b5f600883026114ed7fffffffffffffffffffffffffffffffffffffffffffffffffffffffffffffffff826114b2565b6114f786836114b2565b95508019841693508086168417925050509392505050565b5f819050919050565b5f819050919050565b5f61153b6115366115318461150f565b611518565b61150f565b9050919050565b5f819050919050565b61155483611521565b61156861156082611542565b8484546114be565b825550505050565b5f90565b61157c611570565b61158781848461154b565b505050565b5b818110156115aa5761159f5f82611574565b60018101905061158d565b5050565b601f8211156115ef576115c081611236565b6115c9846114a3565b810160208510156115d8578190505b6115ec6115e4856114a3565b83018261158c565b50505b505050565b5f82821c905092915050565b5f61160f5f19846008026115f4565b1980831691505092915050565b5f6116278383611600565b9150826002028217905092915050565b61164082610d62565b67ffffffffffffffff81111561165957611658610f72565b5b61166382546111fc565b61166e8282856115ae565b5f60209050601f83116001811461169f575f841561168d578287015190505b611697858261161c565b8655506116fe565b601f1984166116ad86611236565b5f5b828110156116d4578489015182556001820191506020850194506020810190506116af565b868310156116f157848901516116ed601f891682611600565b8355505b6001600288020188555050505b505050505050565b7f4e487b71000000000000000000000000000000000000000000000000000000005f52601260045260245ffd5b5f61173d8261150f565b91506117488361150f565b92508261175857611757611706565b5b828206905092915050565b5f61176d8261150f565b91506117788361150f565b92508261178857611787611706565b5b828204905092915050565b5f61179d8261150f565b91506117a88361150f565b92508282026117b68161150f565b915082820484148315176117cd576117cc611435565b5b5092915050565b5f6117de8261150f565b91506117e98361150f565b925082820190508082111561180157611800611435565b5b92915050565b5f60ff82169050919050565b5f61181d82611807565b915061182883611807565b925082820261183681611807565b915080821461184857611847611435565b5b5092915050565b5f61185982611807565b915061186483611807565b9250828201905060ff81111561187d5761187c611435565b5b92915050565b5f61188d82611807565b915061189883611807565b9250828203905060ff8111156118b1576118b0611435565b5b92915050565b7f6661696c000000000000000000000000000000000000000000000000000000005f82015250565b5f6118eb60048361113a565b91506118f6826118b7565b602082019050919050565b5f6020820190508181035f830152611918816118df565b905091905056fea264697066735822122080cc07c4b5f24a35ac8bf761606f6e7ea2a6f0e5ea6a1f817c09f9b83153d03e64736f6c6343000819003330303030303030303030303030303030303030303030303030303030303030303030303030303030303030303030303030303030303030303030303030303030303030303030303030303030303030303030303030303030303030303030303030303030303030303030303030303030303030303030303030303030303030303030303030303030303030303030303030303030303030303030303030303030303030303030303030303030303030303030303030303030303030303030303030303030303030303030303030303030303030303030303030303030303030303030303030303030303030303030303030303030303030303030303130303031",
			"opcodes": "PUSH1 0x80 PUSH1 0x40 MSTORE PUSH1 0x40 MLOAD DUP1 PUSH2 0x120 ADD PUSH1 0x40 MSTORE DUP1 PUSH2 0x100 DUP2 MSTORE PUSH1 0x20 ADD PUSH2 0x1F53 PUSH2 0x100 SWAP2 CODECOPY PUSH1 0x3 SWAP1 DUP2 PUSH2 0x2E SWAP2 SWAP1 PUSH2 0x522 JUMP JUMPDEST POP PUSH0 PUSH1 0x4 PUSH1 0x14 PUSH2 0x100 EXP DUP2 SLOAD DUP2 PUSH1 0xFF MUL NOT AND SWAP1 DUP4 ISZERO ISZERO MUL OR SWAP1 SSTORE POP PUSH1 0x40 MLOAD DUP1 PUSH1 0xC0 ADD PUSH1 0x40 MSTORE DUP1 PUSH1 0x40 MLOAD DUP1 PUSH1 0x40 ADD PUSH1 0x40 MSTORE DUP1 PUSH1 0x2 DUP2 MSTORE PUSH1 0x20 ADD PUSH32 0x5050000000000000000000000000000000000000000000000000000000000000 DUP2 MSTORE POP DUP2 MSTORE PUSH1 0x20 ADD PUSH1 0x40 MLOAD DUP1 PUSH1 0x40 ADD PUSH1 0x40 MSTORE DUP1 PUSH1 0x4 DUP2 MSTORE PUSH1 0x20 ADD PUSH32 0x50534F4500000000000000000000000000000000000000000000000000000000 DUP2 MSTORE POP DUP2 MSTORE PUSH1 0x20 ADD PUSH1 0x40 MLOAD DUP1 PUSH1 0x40 ADD PUSH1 0x40 MSTORE DUP1 PUSH1 0x3 DUP2 MSTORE PUSH1 0x20 ADD PUSH32 0x566F780000000000000000000000000000000000000000000000000000000000 DUP2 MSTORE POP DUP2 MSTORE PUSH1 0x20 ADD PUSH1 0x40 MLOAD DUP1 PUSH1 0x40 ADD PUSH1 0x40 MSTORE DUP1 PUSH1 0x5 DUP2 MSTORE PUSH1 0x20 ADD PUSH32 0x53756D6172000000000000000000000000000000000000000000000000000000 DUP2 MSTORE POP DUP2 MSTORE PUSH1 0x20 ADD PUSH1 0x40 MLOAD DUP1 PUSH1 0x40 ADD PUSH1 0x40 MSTORE DUP1 PUSH1 0x7 DUP2 MSTORE PUSH1 0x20 ADD PUSH32 0x506F64656D6F7300000000000000000000000000000000000000000000000000 DUP2 MSTORE POP DUP2 MSTORE PUSH1 0x20 ADD PUSH1 0x40 MLOAD DUP1 PUSH1 0x40 ADD PUSH1 0x40 MSTORE DUP1 PUSH1 0xA DUP2 MSTORE PUSH1 0x20 ADD PUSH32 0x436975646164616E6F7300000000000000000000000000000000000000000000 DUP2 MSTORE POP DUP2 MSTORE POP PUSH1 0x5 SWAP1 PUSH1 0x6 PUSH2 0x1C4 SWAP3 SWAP2 SWAP1 PUSH2 0x216 JUMP JUMPDEST POP CALLVALUE DUP1 ISZERO PUSH2 0x1D0 JUMPI PUSH0 DUP1 REVERT JUMPDEST POP CALLER PUSH1 0x4 PUSH0 PUSH2 0x100 EXP DUP2 SLOAD DUP2 PUSH20 0xFFFFFFFFFFFFFFFFFFFFFFFFFFFFFFFFFFFFFFFF MUL NOT AND SWAP1 DUP4 PUSH20 0xFFFFFFFFFFFFFFFFFFFFFFFFFFFFFFFFFFFFFFFF AND MUL OR SWAP1 SSTORE POP PUSH2 0x5F1 JUMP JUMPDEST DUP3 DUP1 SLOAD DUP3 DUP3 SSTORE SWAP1 PUSH0 MSTORE PUSH1 0x20 PUSH0 KECCAK256 SWAP1 DUP2 ADD SWAP3 DUP3 ISZERO PUSH2 0x25C JUMPI SWAP2 PUSH1 0x20 MUL DUP3 ADD JUMPDEST DUP3 DUP2 GT ISZERO PUSH2 0x25B JUMPI DUP3 MLOAD DUP3 SWAP1 DUP2 PUSH2 0x24B SWAP2 SWAP1 PUSH2 0x522 JUMP JUMPDEST POP SWAP2 PUSH1 0x20 ADD SWAP2 SWAP1 PUSH1 0x1 ADD SWAP1 PUSH2 0x234 JUMP JUMPDEST JUMPDEST POP SWAP1 POP PUSH2 0x269 SWAP2 SWAP1 PUSH2 0x26D JUMP JUMPDEST POP SWAP1 JUMP JUMPDEST JUMPDEST DUP1 DUP3 GT ISZERO PUSH2 0x28C JUMPI PUSH0 DUP2 DUP2 PUSH2 0x283 SWAP2 SWAP1 PUSH2 0x290 JUMP JUMPDEST POP PUSH1 0x1 ADD PUSH2 0x26E JUMP JUMPDEST POP SWAP1 JUMP JUMPDEST POP DUP1 SLOAD PUSH2 0x29C SWAP1 PUSH2 0x34C JUMP JUMPDEST PUSH0 DUP3 SSTORE DUP1 PUSH1 0x1F LT PUSH2 0x2AD JUMPI POP PUSH2 0x2CA JUMP JUMPDEST PUSH1 0x1F ADD PUSH1 0x20 SWAP1 DIV SWAP1 PUSH0 MSTORE PUSH1 0x20 PUSH0 KECCAK256 SWAP1 DUP2 ADD SWAP1 PUSH2 0x2C9 SWAP2 SWAP1 PUSH2 0x2CD JUMP JUMPDEST JUMPDEST POP JUMP JUMPDEST JUMPDEST DUP1 DUP3 GT ISZERO PUSH2 0x2E4 JUMPI PUSH0 DUP2 PUSH0 SWAP1 SSTORE POP PUSH1 0x1 ADD PUSH2 0x2CE JUMP JUMPDEST POP SWAP1 JUMP JUMPDEST PUSH0 DUP2 MLOAD SWAP1 POP SWAP2 SWAP1 POP JUMP JUMPDEST PUSH32 0x4E487B7100000000000000000000000000000000000000000000000000000000 PUSH0 MSTORE PUSH1 0x41 PUSH1 0x4 MSTORE PUSH1 0x24 PUSH0 REVERT JUMPDEST PUSH32 0x4E487B7100000000000000000000000000000000000000000000000000000000 PUSH0 MSTORE PUSH1 0x22 PUSH1 0x4 MSTORE PUSH1 0x24 PUSH0 REVERT JUMPDEST PUSH0 PUSH1 0x2 DUP3 DIV SWAP1 POP PUSH1 0x1 DUP3 AND DUP1 PUSH2 0x363 JUMPI PUSH1 0x7F DUP3 AND SWAP2 POP JUMPDEST PUSH1 0x20 DUP3 LT DUP2 SUB PUSH2 0x376 JUMPI PUSH2 0x375 PUSH2 0x31F JUMP JUMPDEST JUMPDEST POP SWAP2 SWAP1 POP JUMP JUMPDEST PUSH0 DUP2 SWAP1 POP DUP2 PUSH0 MSTORE PUSH1 0x20 PUSH0 KECCAK256 SWAP1 POP SWAP2 SWAP1 POP JUMP JUMPDEST PUSH0 PUSH1 0x20 PUSH1 0x1F DUP4 ADD DIV SWAP1 POP SWAP2 SWAP1 POP JUMP JUMPDEST PUSH0 DUP3 DUP3 SHL SWAP1 POP SWAP3 SWAP2 POP POP JUMP JUMPDEST PUSH0 PUSH1 0x8 DUP4 MUL PUSH2 0x3D8 PUSH32 0xFFFFFFFFFFFFFFFFFFFFFFFFFFFFFFFFFFFFFFFFFFFFFFFFFFFFFFFFFFFFFFFF DUP3 PUSH2 0x39D JUMP JUMPDEST PUSH2 0x3E2 DUP7 DUP4 PUSH2 0x39D JUMP JUMPDEST SWAP6 POP DUP1 NOT DUP5 AND SWAP4 POP DUP1 DUP7 AND DUP5 OR SWAP3 POP POP POP SWAP4 SWAP3 POP POP POP JUMP JUMPDEST PUSH0 DUP2 SWAP1 POP SWAP2 SWAP1 POP JUMP JUMPDEST PUSH0 DUP2 SWAP1 POP SWAP2 SWAP1 POP JUMP JUMPDEST PUSH0 PUSH2 0x426 PUSH2 0x421 PUSH2 0x41C DUP5 PUSH2 0x3FA JUMP JUMPDEST PUSH2 0x403 JUMP JUMPDEST PUSH2 0x3FA JUMP JUMPDEST SWAP1 POP SWAP2 SWAP1 POP JUMP JUMPDEST PUSH0 DUP2 SWAP1 POP SWAP2 SWAP1 POP JUMP JUMPDEST PUSH2 0x43F DUP4 PUSH2 0x40C JUMP JUMPDEST PUSH2 0x453 PUSH2 0x44B DUP3 PUSH2 0x42D JUMP JUMPDEST DUP5 DUP5 SLOAD PUSH2 0x3A9 JUMP JUMPDEST DUP3 SSTORE POP POP POP POP JUMP JUMPDEST PUSH0 SWAP1 JUMP JUMPDEST PUSH2 0x467 PUSH2 0x45B JUMP JUMPDEST PUSH2 0x472 DUP2 DUP5 DUP5 PUSH2 0x436 JUMP JUMPDEST POP POP POP JUMP JUMPDEST JUMPDEST DUP2 DUP2 LT ISZERO PUSH2 0x495 JUMPI PUSH2 0x48A PUSH0 DUP3 PUSH2 0x45F JUMP JUMPDEST PUSH1 0x1 DUP2 ADD SWAP1 POP PUSH2 0x478 JUMP JUMPDEST POP POP JUMP JUMPDEST PUSH1 0x1F DUP3 GT ISZERO PUSH2 0x4DA JUMPI PUSH2 0x4AB DUP2 PUSH2 0x37C JUMP JUMPDEST PUSH2 0x4B4 DUP5 PUSH2 0x38E JUMP JUMPDEST DUP2 ADD PUSH1 0x20 DUP6 LT ISZERO PUSH2 0x4C3 JUMPI DUP2 SWAP1 POP JUMPDEST PUSH2 0x4D7 PUSH2 0x4CF DUP6 PUSH2 0x38E JUMP JUMPDEST DUP4 ADD DUP3 PUSH2 0x477 JUMP JUMPDEST POP POP JUMPDEST POP POP POP JUMP JUMPDEST PUSH0 DUP3 DUP3 SHR SWAP1 POP SWAP3 SWAP2 POP POP JUMP JUMPDEST PUSH0 PUSH2 0x4FA PUSH0 NOT DUP5 PUSH1 0x8 MUL PUSH2 0x4DF JUMP JUMPDEST NOT DUP1 DUP4 AND SWAP2 POP POP SWAP3 SWAP2 POP POP JUMP JUMPDEST PUSH0 PUSH2 0x512 DUP4 DUP4 PUSH2 0x4EB JUMP JUMPDEST SWAP2 POP DUP3 PUSH1 0x2 MUL DUP3 OR SWAP1 POP SWAP3 SWAP2 POP POP JUMP JUMPDEST PUSH2 0x52B DUP3 PUSH2 0x2E8 JUMP JUMPDEST PUSH8 0xFFFFFFFFFFFFFFFF DUP2 GT ISZERO PUSH2 0x544 JUMPI PUSH2 0x543 PUSH2 0x2F2 JUMP JUMPDEST JUMPDEST PUSH2 0x54E DUP3 SLOAD PUSH2 0x34C JUMP JUMPDEST PUSH2 0x559 DUP3 DUP3 DUP6 PUSH2 0x499 JUMP JUMPDEST PUSH0 PUSH1 0x20 SWAP1 POP PUSH1 0x1F DUP4 GT PUSH1 0x1 DUP2 EQ PUSH2 0x58A JUMPI PUSH0 DUP5 ISZERO PUSH2 0x578 JUMPI DUP3 DUP8 ADD MLOAD SWAP1 POP JUMPDEST PUSH2 0x582 DUP6 DUP3 PUSH2 0x507 JUMP JUMPDEST DUP7 SSTORE POP PUSH2 0x5E9 JUMP JUMPDEST PUSH1 0x1F NOT DUP5 AND PUSH2 0x598 DUP7 PUSH2 0x37C JUMP JUMPDEST PUSH0 JUMPDEST DUP3 DUP2 LT ISZERO PUSH2 0x5BF JUMPI DUP5 DUP10 ADD MLOAD DUP3 SSTORE PUSH1 0x1 DUP3 ADD SWAP2 POP PUSH1 0x20 DUP6 ADD SWAP5 POP PUSH1 0x20 DUP2 ADD SWAP1 POP PUSH2 0x59A JUMP JUMPDEST DUP7 DUP4 LT ISZERO PUSH2 0x5DC JUMPI DUP5 DUP10 ADD MLOAD PUSH2 0x5D8 PUSH1 0x1F DUP10 AND DUP3 PUSH2 0x4EB JUMP JUMPDEST DUP4 SSTORE POP JUMPDEST PUSH1 0x1 PUSH1 0x2 DUP9 MUL ADD DUP9 SSTORE POP POP POP JUMPDEST POP POP POP POP POP POP JUMP JUMPDEST PUSH2 0x1955 DUP1 PUSH2 0x5FE PUSH0 CODECOPY PUSH0 RETURN INVALID PUSH1 0x80 PUSH1 0x40 MSTORE CALLVALUE DUP1 ISZERO PUSH2 0xF JUMPI PUSH0 DUP1 REVERT JUMPDEST POP PUSH1 0x4 CALLDATASIZE LT PUSH2 0x3F JUMPI PUSH0 CALLDATALOAD PUSH1 0xE0 SHR DUP1 PUSH4 0xDC96015 EQ PUSH2 0x43 JUMPI DUP1 PUSH4 0x95F59FE1 EQ PUSH2 0x62 JUMPI DUP1 PUSH4 0xF9094303 EQ PUSH2 0x92 JUMPI JUMPDEST PUSH0 DUP1 REVERT JUMPDEST PUSH2 0x4B PUSH2 0x9C JUMP JUMPDEST PUSH1 0x40 MLOAD PUSH2 0x59 SWAP3 SWAP2 SWAP1 PUSH2 0xF24 JUMP JUMPDEST PUSH1 0x40 MLOAD DUP1 SWAP2 SUB SWAP1 RETURN JUMPDEST PUSH2 0x7C PUSH1 0x4 DUP1 CALLDATASIZE SUB DUP2 ADD SWAP1 PUSH2 0x77 SWAP2 SWAP1 PUSH2 0x1096 JUMP JUMPDEST PUSH2 0x297 JUMP JUMPDEST PUSH1 0x40 MLOAD PUSH2 0x89 SWAP2 SWAP1 PUSH2 0x1182 JUMP JUMPDEST PUSH1 0x40 MLOAD DUP1 SWAP2 SUB SWAP1 RETURN JUMPDEST PUSH2 0x9A PUSH2 0x5C2 JUMP JUMPDEST STOP JUMPDEST PUSH1 0x60 DUP1 PUSH1 0x4 PUSH0 SWAP1 SLOAD SWAP1 PUSH2 0x100 EXP SWAP1 DIV PUSH20 0xFFFFFFFFFFFFFFFFFFFFFFFFFFFFFFFFFFFFFFFF AND PUSH20 0xFFFFFFFFFFFFFFFFFFFFFFFFFFFFFFFFFFFFFFFF AND CALLER PUSH20 0xFFFFFFFFFFFFFFFFFFFFFFFFFFFFFFFFFFFFFFFF AND EQ PUSH2 0xF7 JUMPI PUSH0 DUP1 REVERT JUMPDEST PUSH0 PUSH1 0x1 DUP1 SLOAD SWAP1 POP PUSH8 0xFFFFFFFFFFFFFFFF DUP2 GT ISZERO PUSH2 0x117 JUMPI PUSH2 0x116 PUSH2 0xF72 JUMP JUMPDEST JUMPDEST PUSH1 0x40 MLOAD SWAP1 DUP1 DUP3 MSTORE DUP1 PUSH1 0x20 MUL PUSH1 0x20 ADD DUP3 ADD PUSH1 0x40 MSTORE DUP1 ISZERO PUSH2 0x145 JUMPI DUP2 PUSH1 0x20 ADD PUSH1 0x20 DUP3 MUL DUP1 CALLDATASIZE DUP4 CALLDATACOPY DUP1 DUP3 ADD SWAP2 POP POP SWAP1 POP JUMPDEST POP SWAP1 POP PUSH0 JUMPDEST PUSH1 0x1 DUP1 SLOAD SWAP1 POP DUP2 LT ISZERO PUSH2 0x1BC JUMPI PUSH0 PUSH1 0x1 DUP3 DUP2 SLOAD DUP2 LT PUSH2 0x16C JUMPI PUSH2 0x16B PUSH2 0x11A2 JUMP JUMPDEST JUMPDEST SWAP1 PUSH0 MSTORE PUSH1 0x20 PUSH0 KECCAK256 ADD PUSH1 0x40 MLOAD PUSH2 0x181 SWAP2 SWAP1 PUSH2 0x12C8 JUMP JUMPDEST SWAP1 DUP2 MSTORE PUSH1 0x20 ADD PUSH1 0x40 MLOAD DUP1 SWAP2 SUB SWAP1 KECCAK256 SLOAD DUP3 DUP3 DUP2 MLOAD DUP2 LT PUSH2 0x1A3 JUMPI PUSH2 0x1A2 PUSH2 0x11A2 JUMP JUMPDEST JUMPDEST PUSH1 0x20 MUL PUSH1 0x20 ADD ADD DUP2 DUP2 MSTORE POP POP DUP1 DUP1 PUSH1 0x1 ADD SWAP2 POP POP PUSH2 0x14A JUMP JUMPDEST POP PUSH1 0x1 DUP2 DUP2 DUP1 SLOAD DUP1 PUSH1 0x20 MUL PUSH1 0x20 ADD PUSH1 0x40 MLOAD SWAP1 DUP2 ADD PUSH1 0x40 MSTORE DUP1 SWAP3 SWAP2 SWAP1 DUP2 DUP2 MSTORE PUSH1 0x20 ADD PUSH0 SWAP1 JUMPDEST DUP3 DUP3 LT ISZERO PUSH2 0x288 JUMPI DUP4 DUP3 SWAP1 PUSH0 MSTORE PUSH1 0x20 PUSH0 KECCAK256 ADD DUP1 SLOAD PUSH2 0x1FD SWAP1 PUSH2 0x11FC JUMP JUMPDEST DUP1 PUSH1 0x1F ADD PUSH1 0x20 DUP1 SWAP2 DIV MUL PUSH1 0x20 ADD PUSH1 0x40 MLOAD SWAP1 DUP2 ADD PUSH1 0x40 MSTORE DUP1 SWAP3 SWAP2 SWAP1 DUP2 DUP2 MSTORE PUSH1 0x20 ADD DUP3 DUP1 SLOAD PUSH2 0x229 SWAP1 PUSH2 0x11FC JUMP JUMPDEST DUP1 ISZERO PUSH2 0x274 JUMPI DUP1 PUSH1 0x1F LT PUSH2 0x24B JUMPI PUSH2 0x100 DUP1 DUP4 SLOAD DIV MUL DUP4 MSTORE SWAP2 PUSH1 0x20 ADD SWAP2 PUSH2 0x274 JUMP JUMPDEST DUP3 ADD SWAP2 SWAP1 PUSH0 MSTORE PUSH1 0x20 PUSH0 KECCAK256 SWAP1 JUMPDEST DUP2 SLOAD DUP2 MSTORE SWAP1 PUSH1 0x1 ADD SWAP1 PUSH1 0x20 ADD DUP1 DUP4 GT PUSH2 0x257 JUMPI DUP3 SWAP1 SUB PUSH1 0x1F AND DUP3 ADD SWAP2 JUMPDEST POP POP POP POP POP DUP2 MSTORE PUSH1 0x20 ADD SWAP1 PUSH1 0x1 ADD SWAP1 PUSH2 0x1E0 JUMP JUMPDEST POP POP POP POP SWAP2 POP SWAP3 POP SWAP3 POP POP SWAP1 SWAP2 JUMP JUMPDEST PUSH1 0x60 PUSH1 0x4 PUSH1 0x14 SWAP1 SLOAD SWAP1 PUSH2 0x100 EXP SWAP1 DIV PUSH1 0xFF AND ISZERO PUSH2 0x2EB JUMPI PUSH1 0x40 MLOAD DUP1 PUSH1 0x40 ADD PUSH1 0x40 MSTORE DUP1 PUSH1 0xD DUP2 MSTORE PUSH1 0x20 ADD PUSH32 0x566F74652046696E697368656400000000000000000000000000000000000000 DUP2 MSTORE POP SWAP1 POP PUSH2 0x5BB JUMP JUMPDEST PUSH2 0x2F4 DUP5 PUSH2 0x637 JUMP JUMPDEST PUSH2 0x335 JUMPI PUSH1 0x40 MLOAD DUP1 PUSH1 0x40 ADD PUSH1 0x40 MSTORE DUP1 PUSH1 0x13 DUP2 MSTORE PUSH1 0x20 ADD PUSH32 0x496E76616C696420766F7465206F7074696F6E00000000000000000000000000 DUP2 MSTORE POP SWAP1 POP PUSH2 0x5BB JUMP JUMPDEST PUSH20 0x0 PUSH4 0x1E8DC888 DUP6 PUSH2 0x359 DUP7 PUSH2 0x6D9 JUMP JUMPDEST PUSH2 0x3EA PUSH1 0x3 DUP1 SLOAD PUSH2 0x369 SWAP1 PUSH2 0x11FC JUMP JUMPDEST DUP1 PUSH1 0x1F ADD PUSH1 0x20 DUP1 SWAP2 DIV MUL PUSH1 0x20 ADD PUSH1 0x40 MLOAD SWAP1 DUP2 ADD PUSH1 0x40 MSTORE DUP1 SWAP3 SWAP2 SWAP1 DUP2 DUP2 MSTORE PUSH1 0x20 ADD DUP3 DUP1 SLOAD PUSH2 0x395 SWAP1 PUSH2 0x11FC JUMP JUMPDEST DUP1 ISZERO PUSH2 0x3E0 JUMPI DUP1 PUSH1 0x1F LT PUSH2 0x3B7 JUMPI PUSH2 0x100 DUP1 DUP4 SLOAD DIV MUL DUP4 MSTORE SWAP2 PUSH1 0x20 ADD SWAP2 PUSH2 0x3E0 JUMP JUMPDEST DUP3 ADD SWAP2 SWAP1 PUSH0 MSTORE PUSH1 0x20 PUSH0 KECCAK256 SWAP1 JUMPDEST DUP2 SLOAD DUP2 MSTORE SWAP1 PUSH1 0x1 ADD SWAP1 PUSH1 0x20 ADD DUP1 DUP4 GT PUSH2 0x3C3 JUMPI DUP3 SWAP1 SUB PUSH1 0x1F AND DUP3 ADD SWAP2 JUMPDEST POP POP POP POP POP PUSH2 0x6D9 JUMP JUMPDEST PUSH2 0x3F3 DUP8 PUSH2 0x6D9 JUMP JUMPDEST PUSH1 0x40 MLOAD DUP6 PUSH4 0xFFFFFFFF AND PUSH1 0xE0 SHL DUP2 MSTORE PUSH1 0x4 ADD PUSH2 0x412 SWAP5 SWAP4 SWAP3 SWAP2 SWAP1 PUSH2 0x1330 JUMP JUMPDEST PUSH1 0x20 PUSH1 0x40 MLOAD DUP1 DUP4 SUB DUP2 DUP7 GAS DELEGATECALL ISZERO DUP1 ISZERO PUSH2 0x42D JUMPI RETURNDATASIZE PUSH0 DUP1 RETURNDATACOPY RETURNDATASIZE PUSH0 REVERT JUMPDEST POP POP POP POP PUSH1 0x40 MLOAD RETURNDATASIZE PUSH1 0x1F NOT PUSH1 0x1F DUP3 ADD AND DUP3 ADD DUP1 PUSH1 0x40 MSTORE POP DUP2 ADD SWAP1 PUSH2 0x451 SWAP2 SWAP1 PUSH2 0x13C4 JUMP JUMPDEST ISZERO PUSH2 0x582 JUMPI PUSH2 0x45F DUP5 PUSH2 0x851 JUMP JUMPDEST DUP1 ISZERO PUSH2 0x471 JUMPI POP PUSH2 0x46F DUP3 PUSH2 0x8F3 JUMP JUMPDEST ISZERO JUMPDEST ISZERO PUSH2 0x4AF JUMPI PUSH1 0x1 PUSH0 DUP6 PUSH1 0x40 MLOAD PUSH2 0x487 SWAP2 SWAP1 PUSH2 0x141F JUMP JUMPDEST SWAP1 DUP2 MSTORE PUSH1 0x20 ADD PUSH1 0x40 MLOAD DUP1 SWAP2 SUB SWAP1 KECCAK256 PUSH0 DUP3 DUP3 SLOAD PUSH2 0x4A3 SWAP2 SWAP1 PUSH2 0x1462 JUMP JUMPDEST SWAP3 POP POP DUP2 SWAP1 SSTORE POP PUSH2 0x545 JUMP JUMPDEST PUSH2 0x4B8 DUP3 PUSH2 0x8F3 JUMP JUMPDEST PUSH2 0x544 JUMPI PUSH1 0x1 PUSH0 DUP6 PUSH1 0x40 MLOAD PUSH2 0x4CD SWAP2 SWAP1 PUSH2 0x141F JUMP JUMPDEST SWAP1 DUP2 MSTORE PUSH1 0x20 ADD PUSH1 0x40 MLOAD DUP1 SWAP2 SUB SWAP1 KECCAK256 DUP2 SWAP1 SSTORE POP PUSH1 0x2 DUP3 SWAP1 DUP1 PUSH1 0x1 DUP2 SLOAD ADD DUP1 DUP3 SSTORE DUP1 SWAP2 POP POP PUSH1 0x1 SWAP1 SUB SWAP1 PUSH0 MSTORE PUSH1 0x20 PUSH0 KECCAK256 ADD PUSH0 SWAP1 SWAP2 SWAP1 SWAP2 SWAP1 SWAP2 POP SWAP1 DUP2 PUSH2 0x510 SWAP2 SWAP1 PUSH2 0x1637 JUMP JUMPDEST POP PUSH1 0x1 DUP5 SWAP1 DUP1 PUSH1 0x1 DUP2 SLOAD ADD DUP1 DUP3 SSTORE DUP1 SWAP2 POP POP PUSH1 0x1 SWAP1 SUB SWAP1 PUSH0 MSTORE PUSH1 0x20 PUSH0 KECCAK256 ADD PUSH0 SWAP1 SWAP2 SWAP1 SWAP2 SWAP1 SWAP2 POP SWAP1 DUP2 PUSH2 0x542 SWAP2 SWAP1 PUSH2 0x1637 JUMP JUMPDEST POP JUMPDEST JUMPDEST PUSH1 0x40 MLOAD DUP1 PUSH1 0x40 ADD PUSH1 0x40 MSTORE DUP1 PUSH1 0x2 DUP2 MSTORE PUSH1 0x20 ADD PUSH32 0x4F4B000000000000000000000000000000000000000000000000000000000000 DUP2 MSTORE POP SWAP1 POP PUSH2 0x5BB JUMP JUMPDEST PUSH1 0x40 MLOAD DUP1 PUSH1 0x40 ADD PUSH1 0x40 MSTORE DUP1 PUSH1 0x6 DUP2 MSTORE PUSH1 0x20 ADD PUSH32 0x4E6F74204F4B0000000000000000000000000000000000000000000000000000 DUP2 MSTORE POP SWAP1 POP JUMPDEST SWAP4 SWAP3 POP POP POP JUMP JUMPDEST PUSH1 0x4 PUSH0 SWAP1 SLOAD SWAP1 PUSH2 0x100 EXP SWAP1 DIV PUSH20 0xFFFFFFFFFFFFFFFFFFFFFFFFFFFFFFFFFFFFFFFF AND PUSH20 0xFFFFFFFFFFFFFFFFFFFFFFFFFFFFFFFFFFFFFFFF AND CALLER PUSH20 0xFFFFFFFFFFFFFFFFFFFFFFFFFFFFFFFFFFFFFFFF AND EQ PUSH2 0x61A JUMPI PUSH0 DUP1 REVERT JUMPDEST PUSH1 0x1 PUSH1 0x4 PUSH1 0x14 PUSH2 0x100 EXP DUP2 SLOAD DUP2 PUSH1 0xFF MUL NOT AND SWAP1 DUP4 ISZERO ISZERO MUL OR SWAP1 SSTORE POP JUMP JUMPDEST PUSH0 DUP1 PUSH0 SWAP1 POP JUMPDEST PUSH1 0x5 DUP1 SLOAD SWAP1 POP DUP2 LT ISZERO PUSH2 0x6CF JUMPI DUP3 PUSH1 0x40 MLOAD PUSH1 0x20 ADD PUSH2 0x65B SWAP2 SWAP1 PUSH2 0x141F JUMP JUMPDEST PUSH1 0x40 MLOAD PUSH1 0x20 DUP2 DUP4 SUB SUB DUP2 MSTORE SWAP1 PUSH1 0x40 MSTORE DUP1 MLOAD SWAP1 PUSH1 0x20 ADD KECCAK256 PUSH1 0x5 DUP3 DUP2 SLOAD DUP2 LT PUSH2 0x685 JUMPI PUSH2 0x684 PUSH2 0x11A2 JUMP JUMPDEST JUMPDEST SWAP1 PUSH0 MSTORE PUSH1 0x20 PUSH0 KECCAK256 ADD PUSH1 0x40 MLOAD PUSH1 0x20 ADD PUSH2 0x69D SWAP2 SWAP1 PUSH2 0x12C8 JUMP JUMPDEST PUSH1 0x40 MLOAD PUSH1 0x20 DUP2 DUP4 SUB SUB DUP2 MSTORE SWAP1 PUSH1 0x40 MSTORE DUP1 MLOAD SWAP1 PUSH1 0x20 ADD KECCAK256 SUB PUSH2 0x6C2 JUMPI PUSH1 0x1 SWAP2 POP POP PUSH2 0x6D4 JUMP JUMPDEST DUP1 DUP1 PUSH1 0x1 ADD SWAP2 POP POP PUSH2 0x63D JUMP JUMPDEST POP PUSH0 SWAP1 POP JUMPDEST SWAP2 SWAP1 POP JUMP JUMPDEST PUSH1 0x60 PUSH0 DUP3 SWAP1 POP PUSH0 PUSH1 0x2 DUP3 MLOAD PUSH2 0x6EE SWAP2 SWAP1 PUSH2 0x1733 JUMP JUMPDEST EQ PUSH2 0x6F7 JUMPI PUSH0 DUP1 REVERT JUMPDEST PUSH0 PUSH1 0x2 DUP3 MLOAD PUSH2 0x706 SWAP2 SWAP1 PUSH2 0x1763 JUMP JUMPDEST PUSH8 0xFFFFFFFFFFFFFFFF DUP2 GT ISZERO PUSH2 0x71F JUMPI PUSH2 0x71E PUSH2 0xF72 JUMP JUMPDEST JUMPDEST PUSH1 0x40 MLOAD SWAP1 DUP1 DUP3 MSTORE DUP1 PUSH1 0x1F ADD PUSH1 0x1F NOT AND PUSH1 0x20 ADD DUP3 ADD PUSH1 0x40 MSTORE DUP1 ISZERO PUSH2 0x751 JUMPI DUP2 PUSH1 0x20 ADD PUSH1 0x1 DUP3 MUL DUP1 CALLDATASIZE DUP4 CALLDATACOPY DUP1 DUP3 ADD SWAP2 POP POP SWAP1 POP JUMPDEST POP SWAP1 POP PUSH0 JUMPDEST PUSH1 0x2 DUP4 MLOAD PUSH2 0x764 SWAP2 SWAP1 PUSH2 0x1763 JUMP JUMPDEST DUP2 LT ISZERO PUSH2 0x846 JUMPI PUSH2 0x7AC DUP4 PUSH1 0x1 DUP4 PUSH1 0x2 PUSH2 0x77E SWAP2 SWAP1 PUSH2 0x1793 JUMP JUMPDEST PUSH2 0x788 SWAP2 SWAP1 PUSH2 0x17D4 JUMP JUMPDEST DUP2 MLOAD DUP2 LT PUSH2 0x799 JUMPI PUSH2 0x798 PUSH2 0x11A2 JUMP JUMPDEST JUMPDEST PUSH1 0x20 ADD ADD MLOAD PUSH1 0xF8 SHR PUSH1 0xF8 SHL PUSH1 0xF8 SHR PUSH2 0x995 JUMP JUMPDEST PUSH1 0x10 PUSH2 0x7E3 DUP6 DUP5 PUSH1 0x2 PUSH2 0x7BF SWAP2 SWAP1 PUSH2 0x1793 JUMP JUMPDEST DUP2 MLOAD DUP2 LT PUSH2 0x7D0 JUMPI PUSH2 0x7CF PUSH2 0x11A2 JUMP JUMPDEST JUMPDEST PUSH1 0x20 ADD ADD MLOAD PUSH1 0xF8 SHR PUSH1 0xF8 SHL PUSH1 0xF8 SHR PUSH2 0x995 JUMP JUMPDEST PUSH2 0x7ED SWAP2 SWAP1 PUSH2 0x1813 JUMP JUMPDEST PUSH2 0x7F7 SWAP2 SWAP1 PUSH2 0x184F JUMP JUMPDEST PUSH1 0xF8 SHL DUP3 DUP3 DUP2 MLOAD DUP2 LT PUSH2 0x80D JUMPI PUSH2 0x80C PUSH2 0x11A2 JUMP JUMPDEST JUMPDEST PUSH1 0x20 ADD ADD SWAP1 PUSH31 0xFFFFFFFFFFFFFFFFFFFFFFFFFFFFFFFFFFFFFFFFFFFFFFFFFFFFFFFFFFFFFF NOT AND SWAP1 DUP2 PUSH0 BYTE SWAP1 MSTORE8 POP DUP1 PUSH1 0x1 ADD SWAP1 POP PUSH2 0x756 JUMP JUMPDEST POP DUP1 SWAP3 POP POP POP SWAP2 SWAP1 POP JUMP JUMPDEST PUSH0 DUP1 PUSH0 SWAP1 POP JUMPDEST PUSH1 0x1 DUP1 SLOAD SWAP1 POP DUP2 LT ISZERO PUSH2 0x8E9 JUMPI DUP3 PUSH1 0x40 MLOAD PUSH1 0x20 ADD PUSH2 0x875 SWAP2 SWAP1 PUSH2 0x141F JUMP JUMPDEST PUSH1 0x40 MLOAD PUSH1 0x20 DUP2 DUP4 SUB SUB DUP2 MSTORE SWAP1 PUSH1 0x40 MSTORE DUP1 MLOAD SWAP1 PUSH1 0x20 ADD KECCAK256 PUSH1 0x1 DUP3 DUP2 SLOAD DUP2 LT PUSH2 0x89F JUMPI PUSH2 0x89E PUSH2 0x11A2 JUMP JUMPDEST JUMPDEST SWAP1 PUSH0 MSTORE PUSH1 0x20 PUSH0 KECCAK256 ADD PUSH1 0x40 MLOAD PUSH1 0x20 ADD PUSH2 0x8B7 SWAP2 SWAP1 PUSH2 0x12C8 JUMP JUMPDEST PUSH1 0x40 MLOAD PUSH1 0x20 DUP2 DUP4 SUB SUB DUP2 MSTORE SWAP1 PUSH1 0x40 MSTORE DUP1 MLOAD SWAP1 PUSH1 0x20 ADD KECCAK256 SUB PUSH2 0x8DC JUMPI PUSH1 0x1 SWAP2 POP POP PUSH2 0x8EE JUMP JUMPDEST DUP1 DUP1 PUSH1 0x1 ADD SWAP2 POP POP PUSH2 0x857 JUMP JUMPDEST POP PUSH0 SWAP1 POP JUMPDEST SWAP2 SWAP1 POP JUMP JUMPDEST PUSH0 DUP1 PUSH0 SWAP1 POP JUMPDEST PUSH1 0x1 DUP1 SLOAD SWAP1 POP DUP2 LT ISZERO PUSH2 0x98B JUMPI DUP3 PUSH1 0x40 MLOAD PUSH1 0x20 ADD PUSH2 0x917 SWAP2 SWAP1 PUSH2 0x141F JUMP JUMPDEST PUSH1 0x40 MLOAD PUSH1 0x20 DUP2 DUP4 SUB SUB DUP2 MSTORE SWAP1 PUSH1 0x40 MSTORE DUP1 MLOAD SWAP1 PUSH1 0x20 ADD KECCAK256 PUSH1 0x2 DUP3 DUP2 SLOAD DUP2 LT PUSH2 0x941 JUMPI PUSH2 0x940 PUSH2 0x11A2 JUMP JUMPDEST JUMPDEST SWAP1 PUSH0 MSTORE PUSH1 0x20 PUSH0 KECCAK256 ADD PUSH1 0x40 MLOAD PUSH1 0x20 ADD PUSH2 0x959 SWAP2 SWAP1 PUSH2 0x12C8 JUMP JUMPDEST PUSH1 0x40 MLOAD PUSH1 0x20 DUP2 DUP4 SUB SUB DUP2 MSTORE SWAP1 PUSH1 0x40 MSTORE DUP1 MLOAD SWAP1 PUSH1 0x20 ADD KECCAK256 SUB PUSH2 0x97E JUMPI PUSH1 0x1 SWAP2 POP POP PUSH2 0x990 JUMP JUMPDEST DUP1 DUP1 PUSH1 0x1 ADD SWAP2 POP POP PUSH2 0x8F9 JUMP JUMPDEST POP PUSH0 SWAP1 POP JUMPDEST SWAP2 SWAP1 POP JUMP JUMPDEST PUSH0 PUSH32 0x3000000000000000000000000000000000000000000000000000000000000000 PUSH31 0xFFFFFFFFFFFFFFFFFFFFFFFFFFFFFFFFFFFFFFFFFFFFFFFFFFFFFFFFFFFFFF NOT AND DUP3 PUSH1 0xF8 SHL PUSH31 0xFFFFFFFFFFFFFFFFFFFFFFFFFFFFFFFFFFFFFFFFFFFFFFFFFFFFFFFFFFFFFF NOT AND LT ISZERO DUP1 ISZERO PUSH2 0xA74 JUMPI POP PUSH32 0x3900000000000000000000000000000000000000000000000000000000000000 PUSH31 0xFFFFFFFFFFFFFFFFFFFFFFFFFFFFFFFFFFFFFFFFFFFFFFFFFFFFFFFFFFFFFF NOT AND DUP3 PUSH1 0xF8 SHL PUSH31 0xFFFFFFFFFFFFFFFFFFFFFFFFFFFFFFFFFFFFFFFFFFFFFFFFFFFFFFFFFFFFFF NOT AND GT ISZERO JUMPDEST ISZERO PUSH2 0xAAF JUMPI PUSH32 0x3000000000000000000000000000000000000000000000000000000000000000 PUSH1 0xF8 SHR DUP3 PUSH2 0xAA8 SWAP2 SWAP1 PUSH2 0x1883 JUMP JUMPDEST SWAP1 POP PUSH2 0xD34 JUMP JUMPDEST PUSH32 0x6100000000000000000000000000000000000000000000000000000000000000 PUSH31 0xFFFFFFFFFFFFFFFFFFFFFFFFFFFFFFFFFFFFFFFFFFFFFFFFFFFFFFFFFFFFFF NOT AND DUP3 PUSH1 0xF8 SHL PUSH31 0xFFFFFFFFFFFFFFFFFFFFFFFFFFFFFFFFFFFFFFFFFFFFFFFFFFFFFFFFFFFFFF NOT AND LT ISZERO DUP1 ISZERO PUSH2 0xB8D JUMPI POP PUSH32 0x6600000000000000000000000000000000000000000000000000000000000000 PUSH31 0xFFFFFFFFFFFFFFFFFFFFFFFFFFFFFFFFFFFFFFFFFFFFFFFFFFFFFFFFFFFFFF NOT AND DUP3 PUSH1 0xF8 SHL PUSH31 0xFFFFFFFFFFFFFFFFFFFFFFFFFFFFFFFFFFFFFFFFFFFFFFFFFFFFFFFFFFFFFF NOT AND GT ISZERO JUMPDEST ISZERO PUSH2 0xBD4 JUMPI PUSH32 0x6100000000000000000000000000000000000000000000000000000000000000 PUSH1 0xF8 SHR DUP3 PUSH1 0xA PUSH2 0xBC3 SWAP2 SWAP1 PUSH2 0x184F JUMP JUMPDEST PUSH2 0xBCD SWAP2 SWAP1 PUSH2 0x1883 JUMP JUMPDEST SWAP1 POP PUSH2 0xD34 JUMP JUMPDEST PUSH32 0x4100000000000000000000000000000000000000000000000000000000000000 PUSH31 0xFFFFFFFFFFFFFFFFFFFFFFFFFFFFFFFFFFFFFFFFFFFFFFFFFFFFFFFFFFFFFF NOT AND DUP3 PUSH1 0xF8 SHL PUSH31 0xFFFFFFFFFFFFFFFFFFFFFFFFFFFFFFFFFFFFFFFFFFFFFFFFFFFFFFFFFFFFFF NOT AND LT ISZERO DUP1 ISZERO PUSH2 0xCB2 JUMPI POP PUSH32 0x4600000000000000000000000000000000000000000000000000000000000000 PUSH31 0xFFFFFFFFFFFFFFFFFFFFFFFFFFFFFFFFFFFFFFFFFFFFFFFFFFFFFFFFFFFFFF NOT AND DUP3 PUSH1 0xF8 SHL PUSH31 0xFFFFFFFFFFFFFFFFFFFFFFFFFFFFFFFFFFFFFFFFFFFFFFFFFFFFFFFFFFFFFF NOT AND GT ISZERO JUMPDEST ISZERO PUSH2 0xCF9 JUMPI PUSH32 0x4100000000000000000000000000000000000000000000000000000000000000 PUSH1 0xF8 SHR DUP3 PUSH1 0xA PUSH2 0xCE8 SWAP2 SWAP1 PUSH2 0x184F JUMP JUMPDEST PUSH2 0xCF2 SWAP2 SWAP1 PUSH2 0x1883 JUMP JUMPDEST SWAP1 POP PUSH2 0xD34 JUMP JUMPDEST PUSH1 0x40 MLOAD PUSH32 0x8C379A000000000000000000000000000000000000000000000000000000000 DUP2 MSTORE PUSH1 0x4 ADD PUSH2 0xD2B SWAP1 PUSH2 0x1901 JUMP JUMPDEST PUSH1 0x40 MLOAD DUP1 SWAP2 SUB SWAP1 REVERT JUMPDEST SWAP2 SWAP1 POP JUMP JUMPDEST PUSH0 DUP2 MLOAD SWAP1 POP SWAP2 SWAP1 POP JUMP JUMPDEST PUSH0 DUP3 DUP3 MSTORE PUSH1 0x20 DUP3 ADD SWAP1 POP SWAP3 SWAP2 POP POP JUMP JUMPDEST PUSH0 DUP2 SWAP1 POP PUSH1 0x20 DUP3 ADD SWAP1 POP SWAP2 SWAP1 POP JUMP JUMPDEST PUSH0 DUP2 MLOAD SWAP1 POP SWAP2 SWAP1 POP JUMP JUMPDEST PUSH0 DUP3 DUP3 MSTORE PUSH1 0x20 DUP3 ADD SWAP1 POP SWAP3 SWAP2 POP POP JUMP JUMPDEST DUP3 DUP2 DUP4 MCOPY PUSH0 DUP4 DUP4 ADD MSTORE POP POP POP JUMP JUMPDEST PUSH0 PUSH1 0x1F NOT PUSH1 0x1F DUP4 ADD AND SWAP1 POP SWAP2 SWAP1 POP JUMP JUMPDEST PUSH0 PUSH2 0xDA4 DUP3 PUSH2 0xD62 JUMP JUMPDEST PUSH2 0xDAE DUP2 DUP6 PUSH2 0xD6C JUMP JUMPDEST SWAP4 POP PUSH2 0xDBE DUP2 DUP6 PUSH1 0x20 DUP7 ADD PUSH2 0xD7C JUMP JUMPDEST PUSH2 0xDC7 DUP2 PUSH2 0xD8A JUMP JUMPDEST DUP5 ADD SWAP2 POP POP SWAP3 SWAP2 POP POP JUMP JUMPDEST PUSH0 PUSH2 0xDDD DUP4 DUP4 PUSH2 0xD9A JUMP JUMPDEST SWAP1 POP SWAP3 SWAP2 POP POP JUMP JUMPDEST PUSH0 PUSH1 0x20 DUP3 ADD SWAP1 POP SWAP2 SWAP1 POP JUMP JUMPDEST PUSH0 PUSH2 0xDFB DUP3 PUSH2 0xD39 JUMP JUMPDEST PUSH2 0xE05 DUP2 DUP6 PUSH2 0xD43 JUMP JUMPDEST SWAP4 POP DUP4 PUSH1 0x20 DUP3 MUL DUP6 ADD PUSH2 0xE17 DUP6 PUSH2 0xD53 JUMP JUMPDEST DUP1 PUSH0 JUMPDEST DUP6 DUP2 LT ISZERO PUSH2 0xE52 JUMPI DUP5 DUP5 SUB DUP10 MSTORE DUP2 MLOAD PUSH2 0xE33 DUP6 DUP3 PUSH2 0xDD2 JUMP JUMPDEST SWAP5 POP PUSH2 0xE3E DUP4 PUSH2 0xDE5 JUMP JUMPDEST SWAP3 POP PUSH1 0x20 DUP11 ADD SWAP10 POP POP PUSH1 0x1 DUP2 ADD SWAP1 POP PUSH2 0xE1A JUMP JUMPDEST POP DUP3 SWAP8 POP DUP8 SWAP6 POP POP POP POP POP POP SWAP3 SWAP2 POP POP JUMP JUMPDEST PUSH0 DUP2 MLOAD SWAP1 POP SWAP2 SWAP1 POP JUMP JUMPDEST PUSH0 DUP3 DUP3 MSTORE PUSH1 0x20 DUP3 ADD SWAP1 POP SWAP3 SWAP2 POP POP JUMP JUMPDEST PUSH0 DUP2 SWAP1 POP PUSH1 0x20 DUP3 ADD SWAP1 POP SWAP2 SWAP1 POP JUMP JUMPDEST PUSH0 DUP2 SWAP1 POP SWAP2 SWAP1 POP JUMP JUMPDEST PUSH2 0xE9F DUP2 PUSH2 0xE8D JUMP JUMPDEST DUP3 MSTORE POP POP JUMP JUMPDEST PUSH0 PUSH2 0xEB0 DUP4 DUP4 PUSH2 0xE96 JUMP JUMPDEST PUSH1 0x20 DUP4 ADD SWAP1 POP SWAP3 SWAP2 POP POP JUMP JUMPDEST PUSH0 PUSH1 0x20 DUP3 ADD SWAP1 POP SWAP2 SWAP1 POP JUMP JUMPDEST PUSH0 PUSH2 0xED2 DUP3 PUSH2 0xE64 JUMP JUMPDEST PUSH2 0xEDC DUP2 DUP6 PUSH2 0xE6E JUMP JUMPDEST SWAP4 POP PUSH2 0xEE7 DUP4 PUSH2 0xE7E JUMP JUMPDEST DUP1 PUSH0 JUMPDEST DUP4 DUP2 LT ISZERO PUSH2 0xF17 JUMPI DUP2 MLOAD PUSH2 0xEFE DUP9 DUP3 PUSH2 0xEA5 JUMP JUMPDEST SWAP8 POP PUSH2 0xF09 DUP4 PUSH2 0xEBC JUMP JUMPDEST SWAP3 POP POP PUSH1 0x1 DUP2 ADD SWAP1 POP PUSH2 0xEEA JUMP JUMPDEST POP DUP6 SWAP4 POP POP POP POP SWAP3 SWAP2 POP POP JUMP JUMPDEST PUSH0 PUSH1 0x40 DUP3 ADD SWAP1 POP DUP2 DUP2 SUB PUSH0 DUP4 ADD MSTORE PUSH2 0xF3C DUP2 DUP6 PUSH2 0xDF1 JUMP JUMPDEST SWAP1 POP DUP2 DUP2 SUB PUSH1 0x20 DUP4 ADD MSTORE PUSH2 0xF50 DUP2 DUP5 PUSH2 0xEC8 JUMP JUMPDEST SWAP1 POP SWAP4 SWAP3 POP POP POP JUMP JUMPDEST PUSH0 PUSH1 0x40 MLOAD SWAP1 POP SWAP1 JUMP JUMPDEST PUSH0 DUP1 REVERT JUMPDEST PUSH0 DUP1 REVERT JUMPDEST PUSH0 DUP1 REVERT JUMPDEST PUSH0 DUP1 REVERT JUMPDEST PUSH32 0x4E487B7100000000000000000000000000000000000000000000000000000000 PUSH0 MSTORE PUSH1 0x41 PUSH1 0x4 MSTORE PUSH1 0x24 PUSH0 REVERT JUMPDEST PUSH2 0xFA8 DUP3 PUSH2 0xD8A JUMP JUMPDEST DUP2 ADD DUP2 DUP2 LT PUSH8 0xFFFFFFFFFFFFFFFF DUP3 GT OR ISZERO PUSH2 0xFC7 JUMPI PUSH2 0xFC6 PUSH2 0xF72 JUMP JUMPDEST JUMPDEST DUP1 PUSH1 0x40 MSTORE POP POP POP JUMP JUMPDEST PUSH0 PUSH2 0xFD9 PUSH2 0xF59 JUMP JUMPDEST SWAP1 POP PUSH2 0xFE5 DUP3 DUP3 PUSH2 0xF9F JUMP JUMPDEST SWAP2 SWAP1 POP JUMP JUMPDEST PUSH0 PUSH8 0xFFFFFFFFFFFFFFFF DUP3 GT ISZERO PUSH2 0x1004 JUMPI PUSH2 0x1003 PUSH2 0xF72 JUMP JUMPDEST JUMPDEST PUSH2 0x100D DUP3 PUSH2 0xD8A JUMP JUMPDEST SWAP1 POP PUSH1 0x20 DUP2 ADD SWAP1 POP SWAP2 SWAP1 POP JUMP JUMPDEST DUP3 DUP2 DUP4 CALLDATACOPY PUSH0 DUP4 DUP4 ADD MSTORE POP POP POP JUMP JUMPDEST PUSH0 PUSH2 0x103A PUSH2 0x1035 DUP5 PUSH2 0xFEA JUMP JUMPDEST PUSH2 0xFD0 JUMP JUMPDEST SWAP1 POP DUP3 DUP2 MSTORE PUSH1 0x20 DUP2 ADD DUP5 DUP5 DUP5 ADD GT ISZERO PUSH2 0x1056 JUMPI PUSH2 0x1055 PUSH2 0xF6E JUMP JUMPDEST JUMPDEST PUSH2 0x1061 DUP5 DUP3 DUP6 PUSH2 0x101A JUMP JUMPDEST POP SWAP4 SWAP3 POP POP POP JUMP JUMPDEST PUSH0 DUP3 PUSH1 0x1F DUP4 ADD SLT PUSH2 0x107D JUMPI PUSH2 0x107C PUSH2 0xF6A JUMP JUMPDEST JUMPDEST DUP2 CALLDATALOAD PUSH2 0x108D DUP5 DUP3 PUSH1 0x20 DUP7 ADD PUSH2 0x1028 JUMP JUMPDEST SWAP2 POP POP SWAP3 SWAP2 POP POP JUMP JUMPDEST PUSH0 DUP1 PUSH0 PUSH1 0x60 DUP5 DUP7 SUB SLT ISZERO PUSH2 0x10AD JUMPI PUSH2 0x10AC PUSH2 0xF62 JUMP JUMPDEST JUMPDEST PUSH0 DUP5 ADD CALLDATALOAD PUSH8 0xFFFFFFFFFFFFFFFF DUP2 GT ISZERO PUSH2 0x10CA JUMPI PUSH2 0x10C9 PUSH2 0xF66 JUMP JUMPDEST JUMPDEST PUSH2 0x10D6 DUP7 DUP3 DUP8 ADD PUSH2 0x1069 JUMP JUMPDEST SWAP4 POP POP PUSH1 0x20 DUP5 ADD CALLDATALOAD PUSH8 0xFFFFFFFFFFFFFFFF DUP2 GT ISZERO PUSH2 0x10F7 JUMPI PUSH2 0x10F6 PUSH2 0xF66 JUMP JUMPDEST JUMPDEST PUSH2 0x1103 DUP7 DUP3 DUP8 ADD PUSH2 0x1069 JUMP JUMPDEST SWAP3 POP POP PUSH1 0x40 DUP5 ADD CALLDATALOAD PUSH8 0xFFFFFFFFFFFFFFFF DUP2 GT ISZERO PUSH2 0x1124 JUMPI PUSH2 0x1123 PUSH2 0xF66 JUMP JUMPDEST JUMPDEST PUSH2 0x1130 DUP7 DUP3 DUP8 ADD PUSH2 0x1069 JUMP JUMPDEST SWAP2 POP POP SWAP3 POP SWAP3 POP SWAP3 JUMP JUMPDEST PUSH0 DUP3 DUP3 MSTORE PUSH1 0x20 DUP3 ADD SWAP1 POP SWAP3 SWAP2 POP POP JUMP JUMPDEST PUSH0 PUSH2 0x1154 DUP3 PUSH2 0xD62 JUMP JUMPDEST PUSH2 0x115E DUP2 DUP6 PUSH2 0x113A JUMP JUMPDEST SWAP4 POP PUSH2 0x116E DUP2 DUP6 PUSH1 0x20 DUP7 ADD PUSH2 0xD7C JUMP JUMPDEST PUSH2 0x1177 DUP2 PUSH2 0xD8A JUMP JUMPDEST DUP5 ADD SWAP2 POP POP SWAP3 SWAP2 POP POP JUMP JUMPDEST PUSH0 PUSH1 0x20 DUP3 ADD SWAP1 POP DUP2 DUP2 SUB PUSH0 DUP4 ADD MSTORE PUSH2 0x119A DUP2 DUP5 PUSH2 0x114A JUMP JUMPDEST SWAP1 POP SWAP3 SWAP2 POP POP JUMP JUMPDEST PUSH32 0x4E487B7100000000000000000000000000000000000000000000000000000000 PUSH0 MSTORE PUSH1 0x32 PUSH1 0x4 MSTORE PUSH1 0x24 PUSH0 REVERT JUMPDEST PUSH32 0x4E487B7100000000000000000000000000000000000000000000000000000000 PUSH0 MSTORE PUSH1 0x22 PUSH1 0x4 MSTORE PUSH1 0x24 PUSH0 REVERT JUMPDEST PUSH0 PUSH1 0x2 DUP3 DIV SWAP1 POP PUSH1 0x1 DUP3 AND DUP1 PUSH2 0x1213 JUMPI PUSH1 0x7F DUP3 AND SWAP2 POP JUMPDEST PUSH1 0x20 DUP3 LT DUP2 SUB PUSH2 0x1226 JUMPI PUSH2 0x1225 PUSH2 0x11CF JUMP JUMPDEST JUMPDEST POP SWAP2 SWAP1 POP JUMP JUMPDEST PUSH0 DUP2 SWAP1 POP SWAP3 SWAP2 POP POP JUMP JUMPDEST PUSH0 DUP2 SWAP1 POP DUP2 PUSH0 MSTORE PUSH1 0x20 PUSH0 KECCAK256 SWAP1 POP SWAP2 SWAP1 POP JUMP JUMPDEST PUSH0 DUP2 SLOAD PUSH2 0x1254 DUP2 PUSH2 0x11FC JUMP JUMPDEST PUSH2 0x125E DUP2 DUP7 PUSH2 0x122C JUMP JUMPDEST SWAP5 POP PUSH1 0x1 DUP3 AND PUSH0 DUP2 EQ PUSH2 0x1278 JUMPI PUSH1 0x1 DUP2 EQ PUSH2 0x128D JUMPI PUSH2 0x12BF JUMP JUMPDEST PUSH1 0xFF NOT DUP4 AND DUP7 MSTORE DUP2 ISZERO ISZERO DUP3 MUL DUP7 ADD SWAP4 POP PUSH2 0x12BF JUMP JUMPDEST PUSH2 0x1296 DUP6 PUSH2 0x1236 JUMP JUMPDEST PUSH0 JUMPDEST DUP4 DUP2 LT ISZERO PUSH2 0x12B7 JUMPI DUP2 SLOAD DUP2 DUP10 ADD MSTORE PUSH1 0x1 DUP3 ADD SWAP2 POP PUSH1 0x20 DUP2 ADD SWAP1 POP PUSH2 0x1298 JUMP JUMPDEST DUP4 DUP9 ADD SWAP6 POP POP POP JUMPDEST POP POP POP SWAP3 SWAP2 POP POP JUMP JUMPDEST PUSH0 PUSH2 0x12D3 DUP3 DUP5 PUSH2 0x1248 JUMP JUMPDEST SWAP2 POP DUP2 SWAP1 POP SWAP3 SWAP2 POP POP JUMP JUMPDEST PUSH0 DUP2 MLOAD SWAP1 POP SWAP2 SWAP1 POP JUMP JUMPDEST PUSH0 DUP3 DUP3 MSTORE PUSH1 0x20 DUP3 ADD SWAP1 POP SWAP3 SWAP2 POP POP JUMP JUMPDEST PUSH0 PUSH2 0x1302 DUP3 PUSH2 0x12DE JUMP JUMPDEST PUSH2 0x130C DUP2 DUP6 PUSH2 0x12E8 JUMP JUMPDEST SWAP4 POP PUSH2 0x131C DUP2 DUP6 PUSH1 0x20 DUP7 ADD PUSH2 0xD7C JUMP JUMPDEST PUSH2 0x1325 DUP2 PUSH2 0xD8A JUMP JUMPDEST DUP5 ADD SWAP2 POP POP SWAP3 SWAP2 POP POP JUMP JUMPDEST PUSH0 PUSH1 0x80 DUP3 ADD SWAP1 POP DUP2 DUP2 SUB PUSH0 DUP4 ADD MSTORE PUSH2 0x1348 DUP2 DUP8 PUSH2 0x12F8 JUMP JUMPDEST SWAP1 POP DUP2 DUP2 SUB PUSH1 0x20 DUP4 ADD MSTORE PUSH2 0x135C DUP2 DUP7 PUSH2 0x12F8 JUMP JUMPDEST SWAP1 POP DUP2 DUP2 SUB PUSH1 0x40 DUP4 ADD MSTORE PUSH2 0x1370 DUP2 DUP6 PUSH2 0x12F8 JUMP JUMPDEST SWAP1 POP DUP2 DUP2 SUB PUSH1 0x60 DUP4 ADD MSTORE PUSH2 0x1384 DUP2 DUP5 PUSH2 0x12F8 JUMP JUMPDEST SWAP1 POP SWAP6 SWAP5 POP POP POP POP POP JUMP JUMPDEST PUSH0 DUP2 ISZERO ISZERO SWAP1 POP SWAP2 SWAP1 POP JUMP JUMPDEST PUSH2 0x13A3 DUP2 PUSH2 0x138F JUMP JUMPDEST DUP2 EQ PUSH2 0x13AD JUMPI PUSH0 DUP1 REVERT JUMPDEST POP JUMP JUMPDEST PUSH0 DUP2 MLOAD SWAP1 POP PUSH2 0x13BE DUP2 PUSH2 0x139A JUMP JUMPDEST SWAP3 SWAP2 POP POP JUMP JUMPDEST PUSH0 PUSH1 0x20 DUP3 DUP5 SUB SLT ISZERO PUSH2 0x13D9 JUMPI PUSH2 0x13D8 PUSH2 0xF62 JUMP JUMPDEST JUMPDEST PUSH0 PUSH2 0x13E6 DUP5 DUP3 DUP6 ADD PUSH2 0x13B0 JUMP JUMPDEST SWAP2 POP POP SWAP3 SWAP2 POP POP JUMP JUMPDEST PUSH0 PUSH2 0x13F9 DUP3 PUSH2 0xD62 JUMP JUMPDEST PUSH2 0x1403 DUP2 DUP6 PUSH2 0x122C JUMP JUMPDEST SWAP4 POP PUSH2 0x1413 DUP2 DUP6 PUSH1 0x20 DUP7 ADD PUSH2 0xD7C JUMP JUMPDEST DUP1 DUP5 ADD SWAP2 POP POP SWAP3 SWAP2 POP POP JUMP JUMPDEST PUSH0 PUSH2 0x142A DUP3 DUP5 PUSH2 0x13EF JUMP JUMPDEST SWAP2 POP DUP2 SWAP1 POP SWAP3 SWAP2 POP POP JUMP JUMPDEST PUSH32 0x4E487B7100000000000000000000000000000000000000000000000000000000 PUSH0 MSTORE PUSH1 0x11 PUSH1 0x4 MSTORE PUSH1 0x24 PUSH0 REVERT JUMPDEST PUSH0 PUSH2 0x146C DUP3 PUSH2 0xE8D JUMP JUMPDEST SWAP2 POP PUSH2 0x1477 DUP4 PUSH2 0xE8D JUMP JUMPDEST SWAP3 POP DUP3 DUP3 ADD SWAP1 POP DUP3 DUP2 SLT ISZERO PUSH0 DUP4 SLT AND DUP4 DUP3 SLT PUSH0 DUP5 SLT ISZERO AND OR ISZERO PUSH2 0x149D JUMPI PUSH2 0x149C PUSH2 0x1435 JUMP JUMPDEST JUMPDEST SWAP3 SWAP2 POP POP JUMP JUMPDEST PUSH0 PUSH1 0x20 PUSH1 0x1F DUP4 ADD DIV SWAP1 POP SWAP2 SWAP1 POP JUMP JUMPDEST PUSH0 DUP3 DUP3 SHL SWAP1 POP SWAP3 SWAP2 POP POP JUMP JUMPDEST PUSH0 PUSH1 0x8 DUP4 MUL PUSH2 0x14ED PUSH32 0xFFFFFFFFFFFFFFFFFFFFFFFFFFFFFFFFFFFFFFFFFFFFFFFFFFFFFFFFFFFFFFFF DUP3 PUSH2 0x14B2 JUMP JUMPDEST PUSH2 0x14F7 DUP7 DUP4 PUSH2 0x14B2 JUMP JUMPDEST SWAP6 POP DUP1 NOT DUP5 AND SWAP4 POP DUP1 DUP7 AND DUP5 OR SWAP3 POP POP POP SWAP4 SWAP3 POP POP POP JUMP JUMPDEST PUSH0 DUP2 SWAP1 POP SWAP2 SWAP1 POP JUMP JUMPDEST PUSH0 DUP2 SWAP1 POP SWAP2 SWAP1 POP JUMP JUMPDEST PUSH0 PUSH2 0x153B PUSH2 0x1536 PUSH2 0x1531 DUP5 PUSH2 0x150F JUMP JUMPDEST PUSH2 0x1518 JUMP JUMPDEST PUSH2 0x150F JUMP JUMPDEST SWAP1 POP SWAP2 SWAP1 POP JUMP JUMPDEST PUSH0 DUP2 SWAP1 POP SWAP2 SWAP1 POP JUMP JUMPDEST PUSH2 0x1554 DUP4 PUSH2 0x1521 JUMP JUMPDEST PUSH2 0x1568 PUSH2 0x1560 DUP3 PUSH2 0x1542 JUMP JUMPDEST DUP5 DUP5 SLOAD PUSH2 0x14BE JUMP JUMPDEST DUP3 SSTORE POP POP POP POP JUMP JUMPDEST PUSH0 SWAP1 JUMP JUMPDEST PUSH2 0x157C PUSH2 0x1570 JUMP JUMPDEST PUSH2 0x1587 DUP2 DUP5 DUP5 PUSH2 0x154B JUMP JUMPDEST POP POP POP JUMP JUMPDEST JUMPDEST DUP2 DUP2 LT ISZERO PUSH2 0x15AA JUMPI PUSH2 0x159F PUSH0 DUP3 PUSH2 0x1574 JUMP JUMPDEST PUSH1 0x1 DUP2 ADD SWAP1 POP PUSH2 0x158D JUMP JUMPDEST POP POP JUMP JUMPDEST PUSH1 0x1F DUP3 GT ISZERO PUSH2 0x15EF JUMPI PUSH2 0x15C0 DUP2 PUSH2 0x1236 JUMP JUMPDEST PUSH2 0x15C9 DUP5 PUSH2 0x14A3 JUMP JUMPDEST DUP2 ADD PUSH1 0x20 DUP6 LT ISZERO PUSH2 0x15D8 JUMPI DUP2 SWAP1 POP JUMPDEST PUSH2 0x15EC PUSH2 0x15E4 DUP6 PUSH2 0x14A3 JUMP JUMPDEST DUP4 ADD DUP3 PUSH2 0x158C JUMP JUMPDEST POP POP JUMPDEST POP POP POP JUMP JUMPDEST PUSH0 DUP3 DUP3 SHR SWAP1 POP SWAP3 SWAP2 POP POP JUMP JUMPDEST PUSH0 PUSH2 0x160F PUSH0 NOT DUP5 PUSH1 0x8 MUL PUSH2 0x15F4 JUMP JUMPDEST NOT DUP1 DUP4 AND SWAP2 POP POP SWAP3 SWAP2 POP POP JUMP JUMPDEST PUSH0 PUSH2 0x1627 DUP4 DUP4 PUSH2 0x1600 JUMP JUMPDEST SWAP2 POP DUP3 PUSH1 0x2 MUL DUP3 OR SWAP1 POP SWAP3 SWAP2 POP POP JUMP JUMPDEST PUSH2 0x1640 DUP3 PUSH2 0xD62 JUMP JUMPDEST PUSH8 0xFFFFFFFFFFFFFFFF DUP2 GT ISZERO PUSH2 0x1659 JUMPI PUSH2 0x1658 PUSH2 0xF72 JUMP JUMPDEST JUMPDEST PUSH2 0x1663 DUP3 SLOAD PUSH2 0x11FC JUMP JUMPDEST PUSH2 0x166E DUP3 DUP3 DUP6 PUSH2 0x15AE JUMP JUMPDEST PUSH0 PUSH1 0x20 SWAP1 POP PUSH1 0x1F DUP4 GT PUSH1 0x1 DUP2 EQ PUSH2 0x169F JUMPI PUSH0 DUP5 ISZERO PUSH2 0x168D JUMPI DUP3 DUP8 ADD MLOAD SWAP1 POP JUMPDEST PUSH2 0x1697 DUP6 DUP3 PUSH2 0x161C JUMP JUMPDEST DUP7 SSTORE POP PUSH2 0x16FE JUMP JUMPDEST PUSH1 0x1F NOT DUP5 AND PUSH2 0x16AD DUP7 PUSH2 0x1236 JUMP JUMPDEST PUSH0 JUMPDEST DUP3 DUP2 LT ISZERO PUSH2 0x16D4 JUMPI DUP5 DUP10 ADD MLOAD DUP3 SSTORE PUSH1 0x1 DUP3 ADD SWAP2 POP PUSH1 0x20 DUP6 ADD SWAP5 POP PUSH1 0x20 DUP2 ADD SWAP1 POP PUSH2 0x16AF JUMP JUMPDEST DUP7 DUP4 LT ISZERO PUSH2 0x16F1 JUMPI DUP5 DUP10 ADD MLOAD PUSH2 0x16ED PUSH1 0x1F DUP10 AND DUP3 PUSH2 0x1600 JUMP JUMPDEST DUP4 SSTORE POP JUMPDEST PUSH1 0x1 PUSH1 0x2 DUP9 MUL ADD DUP9 SSTORE POP POP POP JUMPDEST POP POP POP POP POP POP JUMP JUMPDEST PUSH32 0x4E487B7100000000000000000000000000000000000000000000000000000000 PUSH0 MSTORE PUSH1 0x12 PUSH1 0x4 MSTORE PUSH1 0x24 PUSH0 REVERT JUMPDEST PUSH0 PUSH2 0x173D DUP3 PUSH2 0x150F JUMP JUMPDEST SWAP2 POP PUSH2 0x1748 DUP4 PUSH2 0x150F JUMP JUMPDEST SWAP3 POP DUP3 PUSH2 0x1758 JUMPI PUSH2 0x1757 PUSH2 0x1706 JUMP JUMPDEST JUMPDEST DUP3 DUP3 MOD SWAP1 POP SWAP3 SWAP2 POP POP JUMP JUMPDEST PUSH0 PUSH2 0x176D DUP3 PUSH2 0x150F JUMP JUMPDEST SWAP2 POP PUSH2 0x1778 DUP4 PUSH2 0x150F JUMP JUMPDEST SWAP3 POP DUP3 PUSH2 0x1788 JUMPI PUSH2 0x1787 PUSH2 0x1706 JUMP JUMPDEST JUMPDEST DUP3 DUP3 DIV SWAP1 POP SWAP3 SWAP2 POP POP JUMP JUMPDEST PUSH0 PUSH2 0x179D DUP3 PUSH2 0x150F JUMP JUMPDEST SWAP2 POP PUSH2 0x17A8 DUP4 PUSH2 0x150F JUMP JUMPDEST SWAP3 POP DUP3 DUP3 MUL PUSH2 0x17B6 DUP2 PUSH2 0x150F JUMP JUMPDEST SWAP2 POP DUP3 DUP3 DIV DUP5 EQ DUP4 ISZERO OR PUSH2 0x17CD JUMPI PUSH2 0x17CC PUSH2 0x1435 JUMP JUMPDEST JUMPDEST POP SWAP3 SWAP2 POP POP JUMP JUMPDEST PUSH0 PUSH2 0x17DE DUP3 PUSH2 0x150F JUMP JUMPDEST SWAP2 POP PUSH2 0x17E9 DUP4 PUSH2 0x150F JUMP JUMPDEST SWAP3 POP DUP3 DUP3 ADD SWAP1 POP DUP1 DUP3 GT ISZERO PUSH2 0x1801 JUMPI PUSH2 0x1800 PUSH2 0x1435 JUMP JUMPDEST JUMPDEST SWAP3 SWAP2 POP POP JUMP JUMPDEST PUSH0 PUSH1 0xFF DUP3 AND SWAP1 POP SWAP2 SWAP1 POP JUMP JUMPDEST PUSH0 PUSH2 0x181D DUP3 PUSH2 0x1807 JUMP JUMPDEST SWAP2 POP PUSH2 0x1828 DUP4 PUSH2 0x1807 JUMP JUMPDEST SWAP3 POP DUP3 DUP3 MUL PUSH2 0x1836 DUP2 PUSH2 0x1807 JUMP JUMPDEST SWAP2 POP DUP1 DUP3 EQ PUSH2 0x1848 JUMPI PUSH2 0x1847 PUSH2 0x1435 JUMP JUMPDEST JUMPDEST POP SWAP3 SWAP2 POP POP JUMP JUMPDEST PUSH0 PUSH2 0x1859 DUP3 PUSH2 0x1807 JUMP JUMPDEST SWAP2 POP PUSH2 0x1864 DUP4 PUSH2 0x1807 JUMP JUMPDEST SWAP3 POP DUP3 DUP3 ADD SWAP1 POP PUSH1 0xFF DUP2 GT ISZERO PUSH2 0x187D JUMPI PUSH2 0x187C PUSH2 0x1435 JUMP JUMPDEST JUMPDEST SWAP3 SWAP2 POP POP JUMP JUMPDEST PUSH0 PUSH2 0x188D DUP3 PUSH2 0x1807 JUMP JUMPDEST SWAP2 POP PUSH2 0x1898 DUP4 PUSH2 0x1807 JUMP JUMPDEST SWAP3 POP DUP3 DUP3 SUB SWAP1 POP PUSH1 0xFF DUP2 GT ISZERO PUSH2 0x18B1 JUMPI PUSH2 0x18B0 PUSH2 0x1435 JUMP JUMPDEST JUMPDEST SWAP3 SWAP2 POP POP JUMP JUMPDEST PUSH32 0x6661696C00000000000000000000000000000000000000000000000000000000 PUSH0 DUP3 ADD MSTORE POP JUMP JUMPDEST PUSH0 PUSH2 0x18EB PUSH1 0x4 DUP4 PUSH2 0x113A JUMP JUMPDEST SWAP2 POP PUSH2 0x18F6 DUP3 PUSH2 0x18B7 JUMP JUMPDEST PUSH1 0x20 DUP3 ADD SWAP1 POP SWAP2 SWAP1 POP JUMP JUMPDEST PUSH0 PUSH1 0x20 DUP3 ADD SWAP1 POP DUP2 DUP2 SUB PUSH0 DUP4 ADD MSTORE PUSH2 0x1918 DUP2 PUSH2 0x18DF JUMP JUMPDEST SWAP1 POP SWAP2 SWAP1 POP JUMP INVALID LOG2 PUSH5 0x6970667358 0x22 SLT KECCAK256 DUP1 0xCC SMOD 0xC4 0xB5 CALLCODE BLOBBASEFEE CALLDATALOAD 0xAC DUP12 0xF7 PUSH2 0x606F PUSH15 0x7EA2A6F0E5EA6A1F817C09F9B83153 0xD0 RETURNDATACOPY PUSH5 0x736F6C6343 STOP ADDMOD NOT STOP CALLER ADDRESS ADDRESS ADDRESS ADDRESS ADDRESS ADDRESS ADDRESS ADDRESS ADDRESS ADDRESS ADDRESS ADDRESS ADDRESS ADDRESS ADDRESS ADDRESS ADDRESS ADDRESS ADDRESS ADDRESS ADDRESS ADDRESS ADDRESS ADDRESS ADDRESS ADDRESS ADDRESS ADDRESS ADDRESS ADDRESS ADDRESS ADDRESS ADDRESS ADDRESS ADDRESS ADDRESS ADDRESS ADDRESS ADDRESS ADDRESS ADDRESS ADDRESS ADDRESS ADDRESS ADDRESS ADDRESS ADDRESS ADDRESS ADDRESS ADDRESS ADDRESS ADDRESS ADDRESS ADDRESS ADDRESS ADDRESS ADDRESS ADDRESS ADDRESS ADDRESS ADDRESS ADDRESS ADDRESS ADDRESS ADDRESS ADDRESS ADDRESS ADDRESS ADDRESS ADDRESS ADDRESS ADDRESS ADDRESS ADDRESS ADDRESS ADDRESS ADDRESS ADDRESS ADDRESS ADDRESS ADDRESS ADDRESS ADDRESS ADDRESS ADDRESS ADDRESS ADDRESS ADDRESS ADDRESS ADDRESS ADDRESS ADDRESS ADDRESS ADDRESS ADDRESS ADDRESS ADDRESS ADDRESS ADDRESS ADDRESS ADDRESS ADDRESS ADDRESS ADDRESS ADDRESS ADDRESS ADDRESS ADDRESS ADDRESS ADDRESS ADDRESS ADDRESS ADDRESS ADDRESS ADDRESS ADDRESS ADDRESS ADDRESS ADDRESS ADDRESS ADDRESS ADDRESS ADDRESS ADDRESS ADDRESS ADDRESS ADDRESS ADDRESS ADDRESS ADDRESS ADDRESS ADDRESS ADDRESS ADDRESS ADDRESS ADDRESS ADDRESS ADDRESS ADDRESS ADDRESS ADDRESS ADDRESS ADDRESS ADDRESS ADDRESS ADDRESS ADDRESS ADDRESS ADDRESS ADDRESS ADDRESS ADDRESS ADDRESS ADDRESS ADDRESS ADDRESS ADDRESS ADDRESS ADDRESS ADDRESS ADDRESS ADDRESS ADDRESS ADDRESS ADDRESS ADDRESS ADDRESS ADDRESS ADDRESS ADDRESS ADDRESS ADDRESS ADDRESS ADDRESS ADDRESS ADDRESS ADDRESS ADDRESS ADDRESS ADDRESS ADDRESS ADDRESS ADDRESS ADDRESS ADDRESS ADDRESS ADDRESS ADDRESS ADDRESS ADDRESS ADDRESS ADDRESS ADDRESS ADDRESS ADDRESS ADDRESS ADDRESS ADDRESS ADDRESS ADDRESS ADDRESS ADDRESS ADDRESS ADDRESS ADDRESS ADDRESS ADDRESS ADDRESS ADDRESS ADDRESS ADDRESS ADDRESS ADDRESS ADDRESS ADDRESS ADDRESS ADDRESS ADDRESS ADDRESS ADDRESS ADDRESS ADDRESS ADDRESS ADDRESS ADDRESS ADDRESS ADDRESS ADDRESS ADDRESS ADDRESS ADDRESS ADDRESS ADDRESS ADDRESS ADDRESS ADDRESS ADDRESS ADDRESS ADDRESS ADDRESS ADDRESS ADDRESS ADDRESS ADDRESS ADDRESS ADDRESS ADDRESS ADDRESS ADDRESS ADDRESS ADDRESS BALANCE ADDRESS ADDRESS ADDRESS BALANCE "
		},
		"gasEstimates": {
			"creation": {
				"codeDepositCost": "1297000",
				"executionCost": "infinite",
				"totalCost": "infinite"
			},
			"external": {
				"finishVoting()": "26651",
				"getVotes()": "infinite",
				"vote(string,string,string)": "infinite"
			},
			"internal": {
				"fromHex(string memory)": "infinite",
				"fromHexChar(uint8)": "infinite",
				"isModulusExist(string memory)": "infinite",
				"isValidVote(string memory)": "infinite",
				"isVoteExist(string memory)": "infinite"
			}
		},
		"methodIdentifiers": {
			"finishVoting()": "f9094303",
			"getVotes()": "0dc96015",
			"vote(string,string,string)": "95f59fe1"
		}
	},
	"abi": [
		{
			"inputs": [],
			"stateMutability": "nonpayable",
			"type": "constructor"
		},
		{
			"inputs": [],
			"name": "finishVoting",
			"outputs": [],
			"stateMutability": "nonpayable",
			"type": "function"
		},
		{
			"inputs": [],
			"name": "getVotes",
			"outputs": [
				{
					"internalType": "string[]",
					"name": "",
					"type": "string[]"
				},
				{
					"internalType": "int256[]",
					"name": "",
					"type": "int256[]"
				}
			],
			"stateMutability": "view",
			"type": "function"
		},
		{
			"inputs": [
				{
					"internalType": "string",
					"name": "Message",
					"type": "string"
				},
				{
					"internalType": "string",
					"name": "_hexSignature",
					"type": "string"
				},
				{
					"internalType": "string",
					"name": "_hexModulus",
					"type": "string"
				}
			],
			"name": "vote",
			"outputs": [
				{
					"internalType": "string",
					"name": "",
					"type": "string"
				}
			],
			"stateMutability": "nonpayable",
			"type": "function"
		}
	]
}