{
	"data": {
		"bytecode": {
			"linkReferences": {
				"SolRsaVerify/src/RsaVerify.sol": {
					"RsaVerify": [
						{
							"length": 20,
							"start": 865
						}
					]
				}
			},
			"object": "6080604052348015600e575f80fd5b506117488061001c5f395ff3fe608060405234801561000f575f80fd5b506004361061003f575f3560e01c8063014ce13d146100435780630dc96015146100735780639b3bc15614610092575b5f80fd5b61005d60048036038101906100589190610c02565b6100c2565b60405161006a9190610ca9565b60405180910390f35b61007b61019e565b604051610089929190610e8c565b60405180910390f35b6100ac60048036038101906100a79190610ec1565b610341565b6040516100b99190610ca9565b60405180910390f35b60606100cd826104f7565b1561010b5760015f836040516100e39190610fcf565b90815260200160405180910390205f8282546100ff9190611012565b92505081905550610161565b60015f8360405161011c9190610fcf565b908152602001604051809103902081905550600182908060018154018082558091505060019003905f5260205f20015f90919091909150908161015f9190611256565b505b6040518060400160405280600281526020017f4f4b0000000000000000000000000000000000000000000000000000000000008152509050919050565b6060805f60018054905067ffffffffffffffff8111156101c1576101c0610ade565b5b6040519080825280602002602001820160405280156101ef5781602001602082028036833780820191505090505b5090505f5b600180549050811015610266575f6001828154811061021657610215611325565b5b905f5260205f200160405161022b91906113d2565b90815260200160405180910390205482828151811061024d5761024c611325565b5b60200260200101818152505080806001019150506101f4565b5060018181805480602002602001604051908101604052809291908181526020015f905b82821015610332578382905f5260205f200180546102a790611080565b80601f01602080910402602001604051908101604052809291908181526020018280546102d390611080565b801561031e5780601f106102f55761010080835404028352916020019161031e565b820191905f5260205f20905b81548152906001019060200180831161030157829003601f168201915b50505050508152602001906001019061028a565b50505050915092509250509091565b606073__$e231e4c09a57f4229a7d07a317ef2026bc$__631e8dc8888661036787610599565b61037087610599565b61037987610599565b6040518563ffffffff1660e01b8152600401610398949392919061143a565b602060405180830381865af41580156103b3573d5f803e3d5ffd5b505050506040513d601f19601f820116820180604052508101906103d791906114ce565b156104b6576103e5856104f7565b156104235760015f866040516103fb9190610fcf565b90815260200160405180910390205f8282546104179190611012565b92505081905550610479565b60015f866040516104349190610fcf565b908152602001604051809103902081905550600185908060018154018082558091505060019003905f5260205f20015f9091909190915090816104779190611256565b505b6040518060400160405280600281526020017f4f4b00000000000000000000000000000000000000000000000000000000000081525090506104ef565b6040518060400160405280600681526020017f4e6f74204f4b000000000000000000000000000000000000000000000000000081525090505b949350505050565b5f805f90505b60018054905081101561058f578260405160200161051b9190610fcf565b604051602081830303815290604052805190602001206001828154811061054557610544611325565b5b905f5260205f200160405160200161055d91906113d2565b6040516020818303038152906040528051906020012003610582576001915050610594565b80806001019150506104fd565b505f90505b919050565b60605f8290505f600282516105ae9190611526565b146105b7575f80fd5b5f600282516105c69190611556565b67ffffffffffffffff8111156105df576105de610ade565b5b6040519080825280601f01601f1916602001820160405280156106115781602001600182028036833780820191505090505b5090505f5b600283516106249190611556565b8110156107065761066c83600183600261063e9190611586565b61064891906115c7565b8151811061065957610658611325565b5b602001015160f81c60f81b60f81c610711565b60106106a38584600261067f9190611586565b815181106106905761068f611325565b5b602001015160f81c60f81b60f81c610711565b6106ad9190611606565b6106b79190611642565b60f81b8282815181106106cd576106cc611325565b5b60200101907effffffffffffffffffffffffffffffffffffffffffffffffffffffffffffff191690815f1a905350806001019050610616565b508092505050919050565b5f7f30000000000000000000000000000000000000000000000000000000000000007effffffffffffffffffffffffffffffffffffffffffffffffffffffffffffff19168260f81b7effffffffffffffffffffffffffffffffffffffffffffffffffffffffffffff1916101580156107f057507f39000000000000000000000000000000000000000000000000000000000000007effffffffffffffffffffffffffffffffffffffffffffffffffffffffffffff19168260f81b7effffffffffffffffffffffffffffffffffffffffffffffffffffffffffffff191611155b1561082b577f300000000000000000000000000000000000000000000000000000000000000060f81c826108249190611676565b9050610ab0565b7f61000000000000000000000000000000000000000000000000000000000000007effffffffffffffffffffffffffffffffffffffffffffffffffffffffffffff19168260f81b7effffffffffffffffffffffffffffffffffffffffffffffffffffffffffffff19161015801561090957507f66000000000000000000000000000000000000000000000000000000000000007effffffffffffffffffffffffffffffffffffffffffffffffffffffffffffff19168260f81b7effffffffffffffffffffffffffffffffffffffffffffffffffffffffffffff191611155b15610950577f610000000000000000000000000000000000000000000000000000000000000060f81c82600a61093f9190611642565b6109499190611676565b9050610ab0565b7f41000000000000000000000000000000000000000000000000000000000000007effffffffffffffffffffffffffffffffffffffffffffffffffffffffffffff19168260f81b7effffffffffffffffffffffffffffffffffffffffffffffffffffffffffffff191610158015610a2e57507f46000000000000000000000000000000000000000000000000000000000000007effffffffffffffffffffffffffffffffffffffffffffffffffffffffffffff19168260f81b7effffffffffffffffffffffffffffffffffffffffffffffffffffffffffffff191611155b15610a75577f410000000000000000000000000000000000000000000000000000000000000060f81c82600a610a649190611642565b610a6e9190611676565b9050610ab0565b6040517f08c379a0000000000000000000000000000000000000000000000000000000008152600401610aa7906116f4565b60405180910390fd5b919050565b5f604051905090565b5f80fd5b5f80fd5b5f80fd5b5f80fd5b5f601f19601f8301169050919050565b7f4e487b71000000000000000000000000000000000000000000000000000000005f52604160045260245ffd5b610b1482610ace565b810181811067ffffffffffffffff82111715610b3357610b32610ade565b5b80604052505050565b5f610b45610ab5565b9050610b518282610b0b565b919050565b5f67ffffffffffffffff821115610b7057610b6f610ade565b5b610b7982610ace565b9050602081019050919050565b828183375f83830152505050565b5f610ba6610ba184610b56565b610b3c565b905082815260208101848484011115610bc257610bc1610aca565b5b610bcd848285610b86565b509392505050565b5f82601f830112610be957610be8610ac6565b5b8135610bf9848260208601610b94565b91505092915050565b5f60208284031215610c1757610c16610abe565b5b5f82013567ffffffffffffffff811115610c3457610c33610ac2565b5b610c4084828501610bd5565b91505092915050565b5f81519050919050565b5f82825260208201905092915050565b8281835e5f83830152505050565b5f610c7b82610c49565b610c858185610c53565b9350610c95818560208601610c63565b610c9e81610ace565b840191505092915050565b5f6020820190508181035f830152610cc18184610c71565b905092915050565b5f81519050919050565b5f82825260208201905092915050565b5f819050602082019050919050565b5f82825260208201905092915050565b5f610d0c82610c49565b610d168185610cf2565b9350610d26818560208601610c63565b610d2f81610ace565b840191505092915050565b5f610d458383610d02565b905092915050565b5f602082019050919050565b5f610d6382610cc9565b610d6d8185610cd3565b935083602082028501610d7f85610ce3565b805f5b85811015610dba5784840389528151610d9b8582610d3a565b9450610da683610d4d565b925060208a01995050600181019050610d82565b50829750879550505050505092915050565b5f81519050919050565b5f82825260208201905092915050565b5f819050602082019050919050565b5f819050919050565b610e0781610df5565b82525050565b5f610e188383610dfe565b60208301905092915050565b5f602082019050919050565b5f610e3a82610dcc565b610e448185610dd6565b9350610e4f83610de6565b805f5b83811015610e7f578151610e668882610e0d565b9750610e7183610e24565b925050600181019050610e52565b5085935050505092915050565b5f6040820190508181035f830152610ea48185610d59565b90508181036020830152610eb88184610e30565b90509392505050565b5f805f8060808587031215610ed957610ed8610abe565b5b5f85013567ffffffffffffffff811115610ef657610ef5610ac2565b5b610f0287828801610bd5565b945050602085013567ffffffffffffffff811115610f2357610f22610ac2565b5b610f2f87828801610bd5565b935050604085013567ffffffffffffffff811115610f5057610f4f610ac2565b5b610f5c87828801610bd5565b925050606085013567ffffffffffffffff811115610f7d57610f7c610ac2565b5b610f8987828801610bd5565b91505092959194509250565b5f81905092915050565b5f610fa982610c49565b610fb38185610f95565b9350610fc3818560208601610c63565b80840191505092915050565b5f610fda8284610f9f565b915081905092915050565b7f4e487b71000000000000000000000000000000000000000000000000000000005f52601160045260245ffd5b5f61101c82610df5565b915061102783610df5565b92508282019050828112155f8312168382125f84121516171561104d5761104c610fe5565b5b92915050565b7f4e487b71000000000000000000000000000000000000000000000000000000005f52602260045260245ffd5b5f600282049050600182168061109757607f821691505b6020821081036110aa576110a9611053565b5b50919050565b5f819050815f5260205f209050919050565b5f6020601f8301049050919050565b5f82821b905092915050565b5f6008830261110c7fffffffffffffffffffffffffffffffffffffffffffffffffffffffffffffffff826110d1565b61111686836110d1565b95508019841693508086168417925050509392505050565b5f819050919050565b5f819050919050565b5f61115a6111556111508461112e565b611137565b61112e565b9050919050565b5f819050919050565b61117383611140565b61118761117f82611161565b8484546110dd565b825550505050565b5f90565b61119b61118f565b6111a681848461116a565b505050565b5b818110156111c9576111be5f82611193565b6001810190506111ac565b5050565b601f82111561120e576111df816110b0565b6111e8846110c2565b810160208510156111f7578190505b61120b611203856110c2565b8301826111ab565b50505b505050565b5f82821c905092915050565b5f61122e5f1984600802611213565b1980831691505092915050565b5f611246838361121f565b9150826002028217905092915050565b61125f82610c49565b67ffffffffffffffff81111561127857611277610ade565b5b6112828254611080565b61128d8282856111cd565b5f60209050601f8311600181146112be575f84156112ac578287015190505b6112b6858261123b565b86555061131d565b601f1984166112cc866110b0565b5f5b828110156112f3578489015182556001820191506020850194506020810190506112ce565b86831015611310578489015161130c601f89168261121f565b8355505b6001600288020188555050505b505050505050565b7f4e487b71000000000000000000000000000000000000000000000000000000005f52603260045260245ffd5b5f815461135e81611080565b6113688186610f95565b9450600182165f81146113825760018114611397576113c9565b60ff19831686528115158202860193506113c9565b6113a0856110b0565b5f5b838110156113c1578154818901526001820191506020810190506113a2565b838801955050505b50505092915050565b5f6113dd8284611352565b915081905092915050565b5f81519050919050565b5f82825260208201905092915050565b5f61140c826113e8565b61141681856113f2565b9350611426818560208601610c63565b61142f81610ace565b840191505092915050565b5f6080820190508181035f8301526114528187611402565b905081810360208301526114668186611402565b9050818103604083015261147a8185611402565b9050818103606083015261148e8184611402565b905095945050505050565b5f8115159050919050565b6114ad81611499565b81146114b7575f80fd5b50565b5f815190506114c8816114a4565b92915050565b5f602082840312156114e3576114e2610abe565b5b5f6114f0848285016114ba565b91505092915050565b7f4e487b71000000000000000000000000000000000000000000000000000000005f52601260045260245ffd5b5f6115308261112e565b915061153b8361112e565b92508261154b5761154a6114f9565b5b828206905092915050565b5f6115608261112e565b915061156b8361112e565b92508261157b5761157a6114f9565b5b828204905092915050565b5f6115908261112e565b915061159b8361112e565b92508282026115a98161112e565b915082820484148315176115c0576115bf610fe5565b5b5092915050565b5f6115d18261112e565b91506115dc8361112e565b92508282019050808211156115f4576115f3610fe5565b5b92915050565b5f60ff82169050919050565b5f611610826115fa565b915061161b836115fa565b9250828202611629816115fa565b915080821461163b5761163a610fe5565b5b5092915050565b5f61164c826115fa565b9150611657836115fa565b9250828201905060ff8111156116705761166f610fe5565b5b92915050565b5f611680826115fa565b915061168b836115fa565b9250828203905060ff8111156116a4576116a3610fe5565b5b92915050565b7f6661696c000000000000000000000000000000000000000000000000000000005f82015250565b5f6116de600483610c53565b91506116e9826116aa565b602082019050919050565b5f6020820190508181035f83015261170b816116d2565b905091905056fea26469706673582212208efefafd47d6aa24ca31d6bedfc35e1740b87aef760e3453c832eed4087fe5c064736f6c63430008190033",
			"opcodes": "PUSH1 0x80 PUSH1 0x40 MSTORE CALLVALUE DUP1 ISZERO PUSH1 0xE JUMPI PUSH0 DUP1 REVERT JUMPDEST POP PUSH2 0x1748 DUP1 PUSH2 0x1C PUSH0 CODECOPY PUSH0 RETURN INVALID PUSH1 0x80 PUSH1 0x40 MSTORE CALLVALUE DUP1 ISZERO PUSH2 0xF JUMPI PUSH0 DUP1 REVERT JUMPDEST POP PUSH1 0x4 CALLDATASIZE LT PUSH2 0x3F JUMPI PUSH0 CALLDATALOAD PUSH1 0xE0 SHR DUP1 PUSH4 0x14CE13D EQ PUSH2 0x43 JUMPI DUP1 PUSH4 0xDC96015 EQ PUSH2 0x73 JUMPI DUP1 PUSH4 0x9B3BC156 EQ PUSH2 0x92 JUMPI JUMPDEST PUSH0 DUP1 REVERT JUMPDEST PUSH2 0x5D PUSH1 0x4 DUP1 CALLDATASIZE SUB DUP2 ADD SWAP1 PUSH2 0x58 SWAP2 SWAP1 PUSH2 0xC02 JUMP JUMPDEST PUSH2 0xC2 JUMP JUMPDEST PUSH1 0x40 MLOAD PUSH2 0x6A SWAP2 SWAP1 PUSH2 0xCA9 JUMP JUMPDEST PUSH1 0x40 MLOAD DUP1 SWAP2 SUB SWAP1 RETURN JUMPDEST PUSH2 0x7B PUSH2 0x19E JUMP JUMPDEST PUSH1 0x40 MLOAD PUSH2 0x89 SWAP3 SWAP2 SWAP1 PUSH2 0xE8C JUMP JUMPDEST PUSH1 0x40 MLOAD DUP1 SWAP2 SUB SWAP1 RETURN JUMPDEST PUSH2 0xAC PUSH1 0x4 DUP1 CALLDATASIZE SUB DUP2 ADD SWAP1 PUSH2 0xA7 SWAP2 SWAP1 PUSH2 0xEC1 JUMP JUMPDEST PUSH2 0x341 JUMP JUMPDEST PUSH1 0x40 MLOAD PUSH2 0xB9 SWAP2 SWAP1 PUSH2 0xCA9 JUMP JUMPDEST PUSH1 0x40 MLOAD DUP1 SWAP2 SUB SWAP1 RETURN JUMPDEST PUSH1 0x60 PUSH2 0xCD DUP3 PUSH2 0x4F7 JUMP JUMPDEST ISZERO PUSH2 0x10B JUMPI PUSH1 0x1 PUSH0 DUP4 PUSH1 0x40 MLOAD PUSH2 0xE3 SWAP2 SWAP1 PUSH2 0xFCF JUMP JUMPDEST SWAP1 DUP2 MSTORE PUSH1 0x20 ADD PUSH1 0x40 MLOAD DUP1 SWAP2 SUB SWAP1 KECCAK256 PUSH0 DUP3 DUP3 SLOAD PUSH2 0xFF SWAP2 SWAP1 PUSH2 0x1012 JUMP JUMPDEST SWAP3 POP POP DUP2 SWAP1 SSTORE POP PUSH2 0x161 JUMP JUMPDEST PUSH1 0x1 PUSH0 DUP4 PUSH1 0x40 MLOAD PUSH2 0x11C SWAP2 SWAP1 PUSH2 0xFCF JUMP JUMPDEST SWAP1 DUP2 MSTORE PUSH1 0x20 ADD PUSH1 0x40 MLOAD DUP1 SWAP2 SUB SWAP1 KECCAK256 DUP2 SWAP1 SSTORE POP PUSH1 0x1 DUP3 SWAP1 DUP1 PUSH1 0x1 DUP2 SLOAD ADD DUP1 DUP3 SSTORE DUP1 SWAP2 POP POP PUSH1 0x1 SWAP1 SUB SWAP1 PUSH0 MSTORE PUSH1 0x20 PUSH0 KECCAK256 ADD PUSH0 SWAP1 SWAP2 SWAP1 SWAP2 SWAP1 SWAP2 POP SWAP1 DUP2 PUSH2 0x15F SWAP2 SWAP1 PUSH2 0x1256 JUMP JUMPDEST POP JUMPDEST PUSH1 0x40 MLOAD DUP1 PUSH1 0x40 ADD PUSH1 0x40 MSTORE DUP1 PUSH1 0x2 DUP2 MSTORE PUSH1 0x20 ADD PUSH32 0x4F4B000000000000000000000000000000000000000000000000000000000000 DUP2 MSTORE POP SWAP1 POP SWAP2 SWAP1 POP JUMP JUMPDEST PUSH1 0x60 DUP1 PUSH0 PUSH1 0x1 DUP1 SLOAD SWAP1 POP PUSH8 0xFFFFFFFFFFFFFFFF DUP2 GT ISZERO PUSH2 0x1C1 JUMPI PUSH2 0x1C0 PUSH2 0xADE JUMP JUMPDEST JUMPDEST PUSH1 0x40 MLOAD SWAP1 DUP1 DUP3 MSTORE DUP1 PUSH1 0x20 MUL PUSH1 0x20 ADD DUP3 ADD PUSH1 0x40 MSTORE DUP1 ISZERO PUSH2 0x1EF JUMPI DUP2 PUSH1 0x20 ADD PUSH1 0x20 DUP3 MUL DUP1 CALLDATASIZE DUP4 CALLDATACOPY DUP1 DUP3 ADD SWAP2 POP POP SWAP1 POP JUMPDEST POP SWAP1 POP PUSH0 JUMPDEST PUSH1 0x1 DUP1 SLOAD SWAP1 POP DUP2 LT ISZERO PUSH2 0x266 JUMPI PUSH0 PUSH1 0x1 DUP3 DUP2 SLOAD DUP2 LT PUSH2 0x216 JUMPI PUSH2 0x215 PUSH2 0x1325 JUMP JUMPDEST JUMPDEST SWAP1 PUSH0 MSTORE PUSH1 0x20 PUSH0 KECCAK256 ADD PUSH1 0x40 MLOAD PUSH2 0x22B SWAP2 SWAP1 PUSH2 0x13D2 JUMP JUMPDEST SWAP1 DUP2 MSTORE PUSH1 0x20 ADD PUSH1 0x40 MLOAD DUP1 SWAP2 SUB SWAP1 KECCAK256 SLOAD DUP3 DUP3 DUP2 MLOAD DUP2 LT PUSH2 0x24D JUMPI PUSH2 0x24C PUSH2 0x1325 JUMP JUMPDEST JUMPDEST PUSH1 0x20 MUL PUSH1 0x20 ADD ADD DUP2 DUP2 MSTORE POP POP DUP1 DUP1 PUSH1 0x1 ADD SWAP2 POP POP PUSH2 0x1F4 JUMP JUMPDEST POP PUSH1 0x1 DUP2 DUP2 DUP1 SLOAD DUP1 PUSH1 0x20 MUL PUSH1 0x20 ADD PUSH1 0x40 MLOAD SWAP1 DUP2 ADD PUSH1 0x40 MSTORE DUP1 SWAP3 SWAP2 SWAP1 DUP2 DUP2 MSTORE PUSH1 0x20 ADD PUSH0 SWAP1 JUMPDEST DUP3 DUP3 LT ISZERO PUSH2 0x332 JUMPI DUP4 DUP3 SWAP1 PUSH0 MSTORE PUSH1 0x20 PUSH0 KECCAK256 ADD DUP1 SLOAD PUSH2 0x2A7 SWAP1 PUSH2 0x1080 JUMP JUMPDEST DUP1 PUSH1 0x1F ADD PUSH1 0x20 DUP1 SWAP2 DIV MUL PUSH1 0x20 ADD PUSH1 0x40 MLOAD SWAP1 DUP2 ADD PUSH1 0x40 MSTORE DUP1 SWAP3 SWAP2 SWAP1 DUP2 DUP2 MSTORE PUSH1 0x20 ADD DUP3 DUP1 SLOAD PUSH2 0x2D3 SWAP1 PUSH2 0x1080 JUMP JUMPDEST DUP1 ISZERO PUSH2 0x31E JUMPI DUP1 PUSH1 0x1F LT PUSH2 0x2F5 JUMPI PUSH2 0x100 DUP1 DUP4 SLOAD DIV MUL DUP4 MSTORE SWAP2 PUSH1 0x20 ADD SWAP2 PUSH2 0x31E JUMP JUMPDEST DUP3 ADD SWAP2 SWAP1 PUSH0 MSTORE PUSH1 0x20 PUSH0 KECCAK256 SWAP1 JUMPDEST DUP2 SLOAD DUP2 MSTORE SWAP1 PUSH1 0x1 ADD SWAP1 PUSH1 0x20 ADD DUP1 DUP4 GT PUSH2 0x301 JUMPI DUP3 SWAP1 SUB PUSH1 0x1F AND DUP3 ADD SWAP2 JUMPDEST POP POP POP POP POP DUP2 MSTORE PUSH1 0x20 ADD SWAP1 PUSH1 0x1 ADD SWAP1 PUSH2 0x28A JUMP JUMPDEST POP POP POP POP SWAP2 POP SWAP3 POP SWAP3 POP POP SWAP1 SWAP2 JUMP JUMPDEST PUSH1 0x60 PUSH20 0x0 PUSH4 0x1E8DC888 DUP7 PUSH2 0x367 DUP8 PUSH2 0x599 JUMP JUMPDEST PUSH2 0x370 DUP8 PUSH2 0x599 JUMP JUMPDEST PUSH2 0x379 DUP8 PUSH2 0x599 JUMP JUMPDEST PUSH1 0x40 MLOAD DUP6 PUSH4 0xFFFFFFFF AND PUSH1 0xE0 SHL DUP2 MSTORE PUSH1 0x4 ADD PUSH2 0x398 SWAP5 SWAP4 SWAP3 SWAP2 SWAP1 PUSH2 0x143A JUMP JUMPDEST PUSH1 0x20 PUSH1 0x40 MLOAD DUP1 DUP4 SUB DUP2 DUP7 GAS DELEGATECALL ISZERO DUP1 ISZERO PUSH2 0x3B3 JUMPI RETURNDATASIZE PUSH0 DUP1 RETURNDATACOPY RETURNDATASIZE PUSH0 REVERT JUMPDEST POP POP POP POP PUSH1 0x40 MLOAD RETURNDATASIZE PUSH1 0x1F NOT PUSH1 0x1F DUP3 ADD AND DUP3 ADD DUP1 PUSH1 0x40 MSTORE POP DUP2 ADD SWAP1 PUSH2 0x3D7 SWAP2 SWAP1 PUSH2 0x14CE JUMP JUMPDEST ISZERO PUSH2 0x4B6 JUMPI PUSH2 0x3E5 DUP6 PUSH2 0x4F7 JUMP JUMPDEST ISZERO PUSH2 0x423 JUMPI PUSH1 0x1 PUSH0 DUP7 PUSH1 0x40 MLOAD PUSH2 0x3FB SWAP2 SWAP1 PUSH2 0xFCF JUMP JUMPDEST SWAP1 DUP2 MSTORE PUSH1 0x20 ADD PUSH1 0x40 MLOAD DUP1 SWAP2 SUB SWAP1 KECCAK256 PUSH0 DUP3 DUP3 SLOAD PUSH2 0x417 SWAP2 SWAP1 PUSH2 0x1012 JUMP JUMPDEST SWAP3 POP POP DUP2 SWAP1 SSTORE POP PUSH2 0x479 JUMP JUMPDEST PUSH1 0x1 PUSH0 DUP7 PUSH1 0x40 MLOAD PUSH2 0x434 SWAP2 SWAP1 PUSH2 0xFCF JUMP JUMPDEST SWAP1 DUP2 MSTORE PUSH1 0x20 ADD PUSH1 0x40 MLOAD DUP1 SWAP2 SUB SWAP1 KECCAK256 DUP2 SWAP1 SSTORE POP PUSH1 0x1 DUP6 SWAP1 DUP1 PUSH1 0x1 DUP2 SLOAD ADD DUP1 DUP3 SSTORE DUP1 SWAP2 POP POP PUSH1 0x1 SWAP1 SUB SWAP1 PUSH0 MSTORE PUSH1 0x20 PUSH0 KECCAK256 ADD PUSH0 SWAP1 SWAP2 SWAP1 SWAP2 SWAP1 SWAP2 POP SWAP1 DUP2 PUSH2 0x477 SWAP2 SWAP1 PUSH2 0x1256 JUMP JUMPDEST POP JUMPDEST PUSH1 0x40 MLOAD DUP1 PUSH1 0x40 ADD PUSH1 0x40 MSTORE DUP1 PUSH1 0x2 DUP2 MSTORE PUSH1 0x20 ADD PUSH32 0x4F4B000000000000000000000000000000000000000000000000000000000000 DUP2 MSTORE POP SWAP1 POP PUSH2 0x4EF JUMP JUMPDEST PUSH1 0x40 MLOAD DUP1 PUSH1 0x40 ADD PUSH1 0x40 MSTORE DUP1 PUSH1 0x6 DUP2 MSTORE PUSH1 0x20 ADD PUSH32 0x4E6F74204F4B0000000000000000000000000000000000000000000000000000 DUP2 MSTORE POP SWAP1 POP JUMPDEST SWAP5 SWAP4 POP POP POP POP JUMP JUMPDEST PUSH0 DUP1 PUSH0 SWAP1 POP JUMPDEST PUSH1 0x1 DUP1 SLOAD SWAP1 POP DUP2 LT ISZERO PUSH2 0x58F JUMPI DUP3 PUSH1 0x40 MLOAD PUSH1 0x20 ADD PUSH2 0x51B SWAP2 SWAP1 PUSH2 0xFCF JUMP JUMPDEST PUSH1 0x40 MLOAD PUSH1 0x20 DUP2 DUP4 SUB SUB DUP2 MSTORE SWAP1 PUSH1 0x40 MSTORE DUP1 MLOAD SWAP1 PUSH1 0x20 ADD KECCAK256 PUSH1 0x1 DUP3 DUP2 SLOAD DUP2 LT PUSH2 0x545 JUMPI PUSH2 0x544 PUSH2 0x1325 JUMP JUMPDEST JUMPDEST SWAP1 PUSH0 MSTORE PUSH1 0x20 PUSH0 KECCAK256 ADD PUSH1 0x40 MLOAD PUSH1 0x20 ADD PUSH2 0x55D SWAP2 SWAP1 PUSH2 0x13D2 JUMP JUMPDEST PUSH1 0x40 MLOAD PUSH1 0x20 DUP2 DUP4 SUB SUB DUP2 MSTORE SWAP1 PUSH1 0x40 MSTORE DUP1 MLOAD SWAP1 PUSH1 0x20 ADD KECCAK256 SUB PUSH2 0x582 JUMPI PUSH1 0x1 SWAP2 POP POP PUSH2 0x594 JUMP JUMPDEST DUP1 DUP1 PUSH1 0x1 ADD SWAP2 POP POP PUSH2 0x4FD JUMP JUMPDEST POP PUSH0 SWAP1 POP JUMPDEST SWAP2 SWAP1 POP JUMP JUMPDEST PUSH1 0x60 PUSH0 DUP3 SWAP1 POP PUSH0 PUSH1 0x2 DUP3 MLOAD PUSH2 0x5AE SWAP2 SWAP1 PUSH2 0x1526 JUMP JUMPDEST EQ PUSH2 0x5B7 JUMPI PUSH0 DUP1 REVERT JUMPDEST PUSH0 PUSH1 0x2 DUP3 MLOAD PUSH2 0x5C6 SWAP2 SWAP1 PUSH2 0x1556 JUMP JUMPDEST PUSH8 0xFFFFFFFFFFFFFFFF DUP2 GT ISZERO PUSH2 0x5DF JUMPI PUSH2 0x5DE PUSH2 0xADE JUMP JUMPDEST JUMPDEST PUSH1 0x40 MLOAD SWAP1 DUP1 DUP3 MSTORE DUP1 PUSH1 0x1F ADD PUSH1 0x1F NOT AND PUSH1 0x20 ADD DUP3 ADD PUSH1 0x40 MSTORE DUP1 ISZERO PUSH2 0x611 JUMPI DUP2 PUSH1 0x20 ADD PUSH1 0x1 DUP3 MUL DUP1 CALLDATASIZE DUP4 CALLDATACOPY DUP1 DUP3 ADD SWAP2 POP POP SWAP1 POP JUMPDEST POP SWAP1 POP PUSH0 JUMPDEST PUSH1 0x2 DUP4 MLOAD PUSH2 0x624 SWAP2 SWAP1 PUSH2 0x1556 JUMP JUMPDEST DUP2 LT ISZERO PUSH2 0x706 JUMPI PUSH2 0x66C DUP4 PUSH1 0x1 DUP4 PUSH1 0x2 PUSH2 0x63E SWAP2 SWAP1 PUSH2 0x1586 JUMP JUMPDEST PUSH2 0x648 SWAP2 SWAP1 PUSH2 0x15C7 JUMP JUMPDEST DUP2 MLOAD DUP2 LT PUSH2 0x659 JUMPI PUSH2 0x658 PUSH2 0x1325 JUMP JUMPDEST JUMPDEST PUSH1 0x20 ADD ADD MLOAD PUSH1 0xF8 SHR PUSH1 0xF8 SHL PUSH1 0xF8 SHR PUSH2 0x711 JUMP JUMPDEST PUSH1 0x10 PUSH2 0x6A3 DUP6 DUP5 PUSH1 0x2 PUSH2 0x67F SWAP2 SWAP1 PUSH2 0x1586 JUMP JUMPDEST DUP2 MLOAD DUP2 LT PUSH2 0x690 JUMPI PUSH2 0x68F PUSH2 0x1325 JUMP JUMPDEST JUMPDEST PUSH1 0x20 ADD ADD MLOAD PUSH1 0xF8 SHR PUSH1 0xF8 SHL PUSH1 0xF8 SHR PUSH2 0x711 JUMP JUMPDEST PUSH2 0x6AD SWAP2 SWAP1 PUSH2 0x1606 JUMP JUMPDEST PUSH2 0x6B7 SWAP2 SWAP1 PUSH2 0x1642 JUMP JUMPDEST PUSH1 0xF8 SHL DUP3 DUP3 DUP2 MLOAD DUP2 LT PUSH2 0x6CD JUMPI PUSH2 0x6CC PUSH2 0x1325 JUMP JUMPDEST JUMPDEST PUSH1 0x20 ADD ADD SWAP1 PUSH31 0xFFFFFFFFFFFFFFFFFFFFFFFFFFFFFFFFFFFFFFFFFFFFFFFFFFFFFFFFFFFFFF NOT AND SWAP1 DUP2 PUSH0 BYTE SWAP1 MSTORE8 POP DUP1 PUSH1 0x1 ADD SWAP1 POP PUSH2 0x616 JUMP JUMPDEST POP DUP1 SWAP3 POP POP POP SWAP2 SWAP1 POP JUMP JUMPDEST PUSH0 PUSH32 0x3000000000000000000000000000000000000000000000000000000000000000 PUSH31 0xFFFFFFFFFFFFFFFFFFFFFFFFFFFFFFFFFFFFFFFFFFFFFFFFFFFFFFFFFFFFFF NOT AND DUP3 PUSH1 0xF8 SHL PUSH31 0xFFFFFFFFFFFFFFFFFFFFFFFFFFFFFFFFFFFFFFFFFFFFFFFFFFFFFFFFFFFFFF NOT AND LT ISZERO DUP1 ISZERO PUSH2 0x7F0 JUMPI POP PUSH32 0x3900000000000000000000000000000000000000000000000000000000000000 PUSH31 0xFFFFFFFFFFFFFFFFFFFFFFFFFFFFFFFFFFFFFFFFFFFFFFFFFFFFFFFFFFFFFF NOT AND DUP3 PUSH1 0xF8 SHL PUSH31 0xFFFFFFFFFFFFFFFFFFFFFFFFFFFFFFFFFFFFFFFFFFFFFFFFFFFFFFFFFFFFFF NOT AND GT ISZERO JUMPDEST ISZERO PUSH2 0x82B JUMPI PUSH32 0x3000000000000000000000000000000000000000000000000000000000000000 PUSH1 0xF8 SHR DUP3 PUSH2 0x824 SWAP2 SWAP1 PUSH2 0x1676 JUMP JUMPDEST SWAP1 POP PUSH2 0xAB0 JUMP JUMPDEST PUSH32 0x6100000000000000000000000000000000000000000000000000000000000000 PUSH31 0xFFFFFFFFFFFFFFFFFFFFFFFFFFFFFFFFFFFFFFFFFFFFFFFFFFFFFFFFFFFFFF NOT AND DUP3 PUSH1 0xF8 SHL PUSH31 0xFFFFFFFFFFFFFFFFFFFFFFFFFFFFFFFFFFFFFFFFFFFFFFFFFFFFFFFFFFFFFF NOT AND LT ISZERO DUP1 ISZERO PUSH2 0x909 JUMPI POP PUSH32 0x6600000000000000000000000000000000000000000000000000000000000000 PUSH31 0xFFFFFFFFFFFFFFFFFFFFFFFFFFFFFFFFFFFFFFFFFFFFFFFFFFFFFFFFFFFFFF NOT AND DUP3 PUSH1 0xF8 SHL PUSH31 0xFFFFFFFFFFFFFFFFFFFFFFFFFFFFFFFFFFFFFFFFFFFFFFFFFFFFFFFFFFFFFF NOT AND GT ISZERO JUMPDEST ISZERO PUSH2 0x950 JUMPI PUSH32 0x6100000000000000000000000000000000000000000000000000000000000000 PUSH1 0xF8 SHR DUP3 PUSH1 0xA PUSH2 0x93F SWAP2 SWAP1 PUSH2 0x1642 JUMP JUMPDEST PUSH2 0x949 SWAP2 SWAP1 PUSH2 0x1676 JUMP JUMPDEST SWAP1 POP PUSH2 0xAB0 JUMP JUMPDEST PUSH32 0x4100000000000000000000000000000000000000000000000000000000000000 PUSH31 0xFFFFFFFFFFFFFFFFFFFFFFFFFFFFFFFFFFFFFFFFFFFFFFFFFFFFFFFFFFFFFF NOT AND DUP3 PUSH1 0xF8 SHL PUSH31 0xFFFFFFFFFFFFFFFFFFFFFFFFFFFFFFFFFFFFFFFFFFFFFFFFFFFFFFFFFFFFFF NOT AND LT ISZERO DUP1 ISZERO PUSH2 0xA2E JUMPI POP PUSH32 0x4600000000000000000000000000000000000000000000000000000000000000 PUSH31 0xFFFFFFFFFFFFFFFFFFFFFFFFFFFFFFFFFFFFFFFFFFFFFFFFFFFFFFFFFFFFFF NOT AND DUP3 PUSH1 0xF8 SHL PUSH31 0xFFFFFFFFFFFFFFFFFFFFFFFFFFFFFFFFFFFFFFFFFFFFFFFFFFFFFFFFFFFFFF NOT AND GT ISZERO JUMPDEST ISZERO PUSH2 0xA75 JUMPI PUSH32 0x4100000000000000000000000000000000000000000000000000000000000000 PUSH1 0xF8 SHR DUP3 PUSH1 0xA PUSH2 0xA64 SWAP2 SWAP1 PUSH2 0x1642 JUMP JUMPDEST PUSH2 0xA6E SWAP2 SWAP1 PUSH2 0x1676 JUMP JUMPDEST SWAP1 POP PUSH2 0xAB0 JUMP JUMPDEST PUSH1 0x40 MLOAD PUSH32 0x8C379A000000000000000000000000000000000000000000000000000000000 DUP2 MSTORE PUSH1 0x4 ADD PUSH2 0xAA7 SWAP1 PUSH2 0x16F4 JUMP JUMPDEST PUSH1 0x40 MLOAD DUP1 SWAP2 SUB SWAP1 REVERT JUMPDEST SWAP2 SWAP1 POP JUMP JUMPDEST PUSH0 PUSH1 0x40 MLOAD SWAP1 POP SWAP1 JUMP JUMPDEST PUSH0 DUP1 REVERT JUMPDEST PUSH0 DUP1 REVERT JUMPDEST PUSH0 DUP1 REVERT JUMPDEST PUSH0 DUP1 REVERT JUMPDEST PUSH0 PUSH1 0x1F NOT PUSH1 0x1F DUP4 ADD AND SWAP1 POP SWAP2 SWAP1 POP JUMP JUMPDEST PUSH32 0x4E487B7100000000000000000000000000000000000000000000000000000000 PUSH0 MSTORE PUSH1 0x41 PUSH1 0x4 MSTORE PUSH1 0x24 PUSH0 REVERT JUMPDEST PUSH2 0xB14 DUP3 PUSH2 0xACE JUMP JUMPDEST DUP2 ADD DUP2 DUP2 LT PUSH8 0xFFFFFFFFFFFFFFFF DUP3 GT OR ISZERO PUSH2 0xB33 JUMPI PUSH2 0xB32 PUSH2 0xADE JUMP JUMPDEST JUMPDEST DUP1 PUSH1 0x40 MSTORE POP POP POP JUMP JUMPDEST PUSH0 PUSH2 0xB45 PUSH2 0xAB5 JUMP JUMPDEST SWAP1 POP PUSH2 0xB51 DUP3 DUP3 PUSH2 0xB0B JUMP JUMPDEST SWAP2 SWAP1 POP JUMP JUMPDEST PUSH0 PUSH8 0xFFFFFFFFFFFFFFFF DUP3 GT ISZERO PUSH2 0xB70 JUMPI PUSH2 0xB6F PUSH2 0xADE JUMP JUMPDEST JUMPDEST PUSH2 0xB79 DUP3 PUSH2 0xACE JUMP JUMPDEST SWAP1 POP PUSH1 0x20 DUP2 ADD SWAP1 POP SWAP2 SWAP1 POP JUMP JUMPDEST DUP3 DUP2 DUP4 CALLDATACOPY PUSH0 DUP4 DUP4 ADD MSTORE POP POP POP JUMP JUMPDEST PUSH0 PUSH2 0xBA6 PUSH2 0xBA1 DUP5 PUSH2 0xB56 JUMP JUMPDEST PUSH2 0xB3C JUMP JUMPDEST SWAP1 POP DUP3 DUP2 MSTORE PUSH1 0x20 DUP2 ADD DUP5 DUP5 DUP5 ADD GT ISZERO PUSH2 0xBC2 JUMPI PUSH2 0xBC1 PUSH2 0xACA JUMP JUMPDEST JUMPDEST PUSH2 0xBCD DUP5 DUP3 DUP6 PUSH2 0xB86 JUMP JUMPDEST POP SWAP4 SWAP3 POP POP POP JUMP JUMPDEST PUSH0 DUP3 PUSH1 0x1F DUP4 ADD SLT PUSH2 0xBE9 JUMPI PUSH2 0xBE8 PUSH2 0xAC6 JUMP JUMPDEST JUMPDEST DUP2 CALLDATALOAD PUSH2 0xBF9 DUP5 DUP3 PUSH1 0x20 DUP7 ADD PUSH2 0xB94 JUMP JUMPDEST SWAP2 POP POP SWAP3 SWAP2 POP POP JUMP JUMPDEST PUSH0 PUSH1 0x20 DUP3 DUP5 SUB SLT ISZERO PUSH2 0xC17 JUMPI PUSH2 0xC16 PUSH2 0xABE JUMP JUMPDEST JUMPDEST PUSH0 DUP3 ADD CALLDATALOAD PUSH8 0xFFFFFFFFFFFFFFFF DUP2 GT ISZERO PUSH2 0xC34 JUMPI PUSH2 0xC33 PUSH2 0xAC2 JUMP JUMPDEST JUMPDEST PUSH2 0xC40 DUP5 DUP3 DUP6 ADD PUSH2 0xBD5 JUMP JUMPDEST SWAP2 POP POP SWAP3 SWAP2 POP POP JUMP JUMPDEST PUSH0 DUP2 MLOAD SWAP1 POP SWAP2 SWAP1 POP JUMP JUMPDEST PUSH0 DUP3 DUP3 MSTORE PUSH1 0x20 DUP3 ADD SWAP1 POP SWAP3 SWAP2 POP POP JUMP JUMPDEST DUP3 DUP2 DUP4 MCOPY PUSH0 DUP4 DUP4 ADD MSTORE POP POP POP JUMP JUMPDEST PUSH0 PUSH2 0xC7B DUP3 PUSH2 0xC49 JUMP JUMPDEST PUSH2 0xC85 DUP2 DUP6 PUSH2 0xC53 JUMP JUMPDEST SWAP4 POP PUSH2 0xC95 DUP2 DUP6 PUSH1 0x20 DUP7 ADD PUSH2 0xC63 JUMP JUMPDEST PUSH2 0xC9E DUP2 PUSH2 0xACE JUMP JUMPDEST DUP5 ADD SWAP2 POP POP SWAP3 SWAP2 POP POP JUMP JUMPDEST PUSH0 PUSH1 0x20 DUP3 ADD SWAP1 POP DUP2 DUP2 SUB PUSH0 DUP4 ADD MSTORE PUSH2 0xCC1 DUP2 DUP5 PUSH2 0xC71 JUMP JUMPDEST SWAP1 POP SWAP3 SWAP2 POP POP JUMP JUMPDEST PUSH0 DUP2 MLOAD SWAP1 POP SWAP2 SWAP1 POP JUMP JUMPDEST PUSH0 DUP3 DUP3 MSTORE PUSH1 0x20 DUP3 ADD SWAP1 POP SWAP3 SWAP2 POP POP JUMP JUMPDEST PUSH0 DUP2 SWAP1 POP PUSH1 0x20 DUP3 ADD SWAP1 POP SWAP2 SWAP1 POP JUMP JUMPDEST PUSH0 DUP3 DUP3 MSTORE PUSH1 0x20 DUP3 ADD SWAP1 POP SWAP3 SWAP2 POP POP JUMP JUMPDEST PUSH0 PUSH2 0xD0C DUP3 PUSH2 0xC49 JUMP JUMPDEST PUSH2 0xD16 DUP2 DUP6 PUSH2 0xCF2 JUMP JUMPDEST SWAP4 POP PUSH2 0xD26 DUP2 DUP6 PUSH1 0x20 DUP7 ADD PUSH2 0xC63 JUMP JUMPDEST PUSH2 0xD2F DUP2 PUSH2 0xACE JUMP JUMPDEST DUP5 ADD SWAP2 POP POP SWAP3 SWAP2 POP POP JUMP JUMPDEST PUSH0 PUSH2 0xD45 DUP4 DUP4 PUSH2 0xD02 JUMP JUMPDEST SWAP1 POP SWAP3 SWAP2 POP POP JUMP JUMPDEST PUSH0 PUSH1 0x20 DUP3 ADD SWAP1 POP SWAP2 SWAP1 POP JUMP JUMPDEST PUSH0 PUSH2 0xD63 DUP3 PUSH2 0xCC9 JUMP JUMPDEST PUSH2 0xD6D DUP2 DUP6 PUSH2 0xCD3 JUMP JUMPDEST SWAP4 POP DUP4 PUSH1 0x20 DUP3 MUL DUP6 ADD PUSH2 0xD7F DUP6 PUSH2 0xCE3 JUMP JUMPDEST DUP1 PUSH0 JUMPDEST DUP6 DUP2 LT ISZERO PUSH2 0xDBA JUMPI DUP5 DUP5 SUB DUP10 MSTORE DUP2 MLOAD PUSH2 0xD9B DUP6 DUP3 PUSH2 0xD3A JUMP JUMPDEST SWAP5 POP PUSH2 0xDA6 DUP4 PUSH2 0xD4D JUMP JUMPDEST SWAP3 POP PUSH1 0x20 DUP11 ADD SWAP10 POP POP PUSH1 0x1 DUP2 ADD SWAP1 POP PUSH2 0xD82 JUMP JUMPDEST POP DUP3 SWAP8 POP DUP8 SWAP6 POP POP POP POP POP POP SWAP3 SWAP2 POP POP JUMP JUMPDEST PUSH0 DUP2 MLOAD SWAP1 POP SWAP2 SWAP1 POP JUMP JUMPDEST PUSH0 DUP3 DUP3 MSTORE PUSH1 0x20 DUP3 ADD SWAP1 POP SWAP3 SWAP2 POP POP JUMP JUMPDEST PUSH0 DUP2 SWAP1 POP PUSH1 0x20 DUP3 ADD SWAP1 POP SWAP2 SWAP1 POP JUMP JUMPDEST PUSH0 DUP2 SWAP1 POP SWAP2 SWAP1 POP JUMP JUMPDEST PUSH2 0xE07 DUP2 PUSH2 0xDF5 JUMP JUMPDEST DUP3 MSTORE POP POP JUMP JUMPDEST PUSH0 PUSH2 0xE18 DUP4 DUP4 PUSH2 0xDFE JUMP JUMPDEST PUSH1 0x20 DUP4 ADD SWAP1 POP SWAP3 SWAP2 POP POP JUMP JUMPDEST PUSH0 PUSH1 0x20 DUP3 ADD SWAP1 POP SWAP2 SWAP1 POP JUMP JUMPDEST PUSH0 PUSH2 0xE3A DUP3 PUSH2 0xDCC JUMP JUMPDEST PUSH2 0xE44 DUP2 DUP6 PUSH2 0xDD6 JUMP JUMPDEST SWAP4 POP PUSH2 0xE4F DUP4 PUSH2 0xDE6 JUMP JUMPDEST DUP1 PUSH0 JUMPDEST DUP4 DUP2 LT ISZERO PUSH2 0xE7F JUMPI DUP2 MLOAD PUSH2 0xE66 DUP9 DUP3 PUSH2 0xE0D JUMP JUMPDEST SWAP8 POP PUSH2 0xE71 DUP4 PUSH2 0xE24 JUMP JUMPDEST SWAP3 POP POP PUSH1 0x1 DUP2 ADD SWAP1 POP PUSH2 0xE52 JUMP JUMPDEST POP DUP6 SWAP4 POP POP POP POP SWAP3 SWAP2 POP POP JUMP JUMPDEST PUSH0 PUSH1 0x40 DUP3 ADD SWAP1 POP DUP2 DUP2 SUB PUSH0 DUP4 ADD MSTORE PUSH2 0xEA4 DUP2 DUP6 PUSH2 0xD59 JUMP JUMPDEST SWAP1 POP DUP2 DUP2 SUB PUSH1 0x20 DUP4 ADD MSTORE PUSH2 0xEB8 DUP2 DUP5 PUSH2 0xE30 JUMP JUMPDEST SWAP1 POP SWAP4 SWAP3 POP POP POP JUMP JUMPDEST PUSH0 DUP1 PUSH0 DUP1 PUSH1 0x80 DUP6 DUP8 SUB SLT ISZERO PUSH2 0xED9 JUMPI PUSH2 0xED8 PUSH2 0xABE JUMP JUMPDEST JUMPDEST PUSH0 DUP6 ADD CALLDATALOAD PUSH8 0xFFFFFFFFFFFFFFFF DUP2 GT ISZERO PUSH2 0xEF6 JUMPI PUSH2 0xEF5 PUSH2 0xAC2 JUMP JUMPDEST JUMPDEST PUSH2 0xF02 DUP8 DUP3 DUP9 ADD PUSH2 0xBD5 JUMP JUMPDEST SWAP5 POP POP PUSH1 0x20 DUP6 ADD CALLDATALOAD PUSH8 0xFFFFFFFFFFFFFFFF DUP2 GT ISZERO PUSH2 0xF23 JUMPI PUSH2 0xF22 PUSH2 0xAC2 JUMP JUMPDEST JUMPDEST PUSH2 0xF2F DUP8 DUP3 DUP9 ADD PUSH2 0xBD5 JUMP JUMPDEST SWAP4 POP POP PUSH1 0x40 DUP6 ADD CALLDATALOAD PUSH8 0xFFFFFFFFFFFFFFFF DUP2 GT ISZERO PUSH2 0xF50 JUMPI PUSH2 0xF4F PUSH2 0xAC2 JUMP JUMPDEST JUMPDEST PUSH2 0xF5C DUP8 DUP3 DUP9 ADD PUSH2 0xBD5 JUMP JUMPDEST SWAP3 POP POP PUSH1 0x60 DUP6 ADD CALLDATALOAD PUSH8 0xFFFFFFFFFFFFFFFF DUP2 GT ISZERO PUSH2 0xF7D JUMPI PUSH2 0xF7C PUSH2 0xAC2 JUMP JUMPDEST JUMPDEST PUSH2 0xF89 DUP8 DUP3 DUP9 ADD PUSH2 0xBD5 JUMP JUMPDEST SWAP2 POP POP SWAP3 SWAP6 SWAP2 SWAP5 POP SWAP3 POP JUMP JUMPDEST PUSH0 DUP2 SWAP1 POP SWAP3 SWAP2 POP POP JUMP JUMPDEST PUSH0 PUSH2 0xFA9 DUP3 PUSH2 0xC49 JUMP JUMPDEST PUSH2 0xFB3 DUP2 DUP6 PUSH2 0xF95 JUMP JUMPDEST SWAP4 POP PUSH2 0xFC3 DUP2 DUP6 PUSH1 0x20 DUP7 ADD PUSH2 0xC63 JUMP JUMPDEST DUP1 DUP5 ADD SWAP2 POP POP SWAP3 SWAP2 POP POP JUMP JUMPDEST PUSH0 PUSH2 0xFDA DUP3 DUP5 PUSH2 0xF9F JUMP JUMPDEST SWAP2 POP DUP2 SWAP1 POP SWAP3 SWAP2 POP POP JUMP JUMPDEST PUSH32 0x4E487B7100000000000000000000000000000000000000000000000000000000 PUSH0 MSTORE PUSH1 0x11 PUSH1 0x4 MSTORE PUSH1 0x24 PUSH0 REVERT JUMPDEST PUSH0 PUSH2 0x101C DUP3 PUSH2 0xDF5 JUMP JUMPDEST SWAP2 POP PUSH2 0x1027 DUP4 PUSH2 0xDF5 JUMP JUMPDEST SWAP3 POP DUP3 DUP3 ADD SWAP1 POP DUP3 DUP2 SLT ISZERO PUSH0 DUP4 SLT AND DUP4 DUP3 SLT PUSH0 DUP5 SLT ISZERO AND OR ISZERO PUSH2 0x104D JUMPI PUSH2 0x104C PUSH2 0xFE5 JUMP JUMPDEST JUMPDEST SWAP3 SWAP2 POP POP JUMP JUMPDEST PUSH32 0x4E487B7100000000000000000000000000000000000000000000000000000000 PUSH0 MSTORE PUSH1 0x22 PUSH1 0x4 MSTORE PUSH1 0x24 PUSH0 REVERT JUMPDEST PUSH0 PUSH1 0x2 DUP3 DIV SWAP1 POP PUSH1 0x1 DUP3 AND DUP1 PUSH2 0x1097 JUMPI PUSH1 0x7F DUP3 AND SWAP2 POP JUMPDEST PUSH1 0x20 DUP3 LT DUP2 SUB PUSH2 0x10AA JUMPI PUSH2 0x10A9 PUSH2 0x1053 JUMP JUMPDEST JUMPDEST POP SWAP2 SWAP1 POP JUMP JUMPDEST PUSH0 DUP2 SWAP1 POP DUP2 PUSH0 MSTORE PUSH1 0x20 PUSH0 KECCAK256 SWAP1 POP SWAP2 SWAP1 POP JUMP JUMPDEST PUSH0 PUSH1 0x20 PUSH1 0x1F DUP4 ADD DIV SWAP1 POP SWAP2 SWAP1 POP JUMP JUMPDEST PUSH0 DUP3 DUP3 SHL SWAP1 POP SWAP3 SWAP2 POP POP JUMP JUMPDEST PUSH0 PUSH1 0x8 DUP4 MUL PUSH2 0x110C PUSH32 0xFFFFFFFFFFFFFFFFFFFFFFFFFFFFFFFFFFFFFFFFFFFFFFFFFFFFFFFFFFFFFFFF DUP3 PUSH2 0x10D1 JUMP JUMPDEST PUSH2 0x1116 DUP7 DUP4 PUSH2 0x10D1 JUMP JUMPDEST SWAP6 POP DUP1 NOT DUP5 AND SWAP4 POP DUP1 DUP7 AND DUP5 OR SWAP3 POP POP POP SWAP4 SWAP3 POP POP POP JUMP JUMPDEST PUSH0 DUP2 SWAP1 POP SWAP2 SWAP1 POP JUMP JUMPDEST PUSH0 DUP2 SWAP1 POP SWAP2 SWAP1 POP JUMP JUMPDEST PUSH0 PUSH2 0x115A PUSH2 0x1155 PUSH2 0x1150 DUP5 PUSH2 0x112E JUMP JUMPDEST PUSH2 0x1137 JUMP JUMPDEST PUSH2 0x112E JUMP JUMPDEST SWAP1 POP SWAP2 SWAP1 POP JUMP JUMPDEST PUSH0 DUP2 SWAP1 POP SWAP2 SWAP1 POP JUMP JUMPDEST PUSH2 0x1173 DUP4 PUSH2 0x1140 JUMP JUMPDEST PUSH2 0x1187 PUSH2 0x117F DUP3 PUSH2 0x1161 JUMP JUMPDEST DUP5 DUP5 SLOAD PUSH2 0x10DD JUMP JUMPDEST DUP3 SSTORE POP POP POP POP JUMP JUMPDEST PUSH0 SWAP1 JUMP JUMPDEST PUSH2 0x119B PUSH2 0x118F JUMP JUMPDEST PUSH2 0x11A6 DUP2 DUP5 DUP5 PUSH2 0x116A JUMP JUMPDEST POP POP POP JUMP JUMPDEST JUMPDEST DUP2 DUP2 LT ISZERO PUSH2 0x11C9 JUMPI PUSH2 0x11BE PUSH0 DUP3 PUSH2 0x1193 JUMP JUMPDEST PUSH1 0x1 DUP2 ADD SWAP1 POP PUSH2 0x11AC JUMP JUMPDEST POP POP JUMP JUMPDEST PUSH1 0x1F DUP3 GT ISZERO PUSH2 0x120E JUMPI PUSH2 0x11DF DUP2 PUSH2 0x10B0 JUMP JUMPDEST PUSH2 0x11E8 DUP5 PUSH2 0x10C2 JUMP JUMPDEST DUP2 ADD PUSH1 0x20 DUP6 LT ISZERO PUSH2 0x11F7 JUMPI DUP2 SWAP1 POP JUMPDEST PUSH2 0x120B PUSH2 0x1203 DUP6 PUSH2 0x10C2 JUMP JUMPDEST DUP4 ADD DUP3 PUSH2 0x11AB JUMP JUMPDEST POP POP JUMPDEST POP POP POP JUMP JUMPDEST PUSH0 DUP3 DUP3 SHR SWAP1 POP SWAP3 SWAP2 POP POP JUMP JUMPDEST PUSH0 PUSH2 0x122E PUSH0 NOT DUP5 PUSH1 0x8 MUL PUSH2 0x1213 JUMP JUMPDEST NOT DUP1 DUP4 AND SWAP2 POP POP SWAP3 SWAP2 POP POP JUMP JUMPDEST PUSH0 PUSH2 0x1246 DUP4 DUP4 PUSH2 0x121F JUMP JUMPDEST SWAP2 POP DUP3 PUSH1 0x2 MUL DUP3 OR SWAP1 POP SWAP3 SWAP2 POP POP JUMP JUMPDEST PUSH2 0x125F DUP3 PUSH2 0xC49 JUMP JUMPDEST PUSH8 0xFFFFFFFFFFFFFFFF DUP2 GT ISZERO PUSH2 0x1278 JUMPI PUSH2 0x1277 PUSH2 0xADE JUMP JUMPDEST JUMPDEST PUSH2 0x1282 DUP3 SLOAD PUSH2 0x1080 JUMP JUMPDEST PUSH2 0x128D DUP3 DUP3 DUP6 PUSH2 0x11CD JUMP JUMPDEST PUSH0 PUSH1 0x20 SWAP1 POP PUSH1 0x1F DUP4 GT PUSH1 0x1 DUP2 EQ PUSH2 0x12BE JUMPI PUSH0 DUP5 ISZERO PUSH2 0x12AC JUMPI DUP3 DUP8 ADD MLOAD SWAP1 POP JUMPDEST PUSH2 0x12B6 DUP6 DUP3 PUSH2 0x123B JUMP JUMPDEST DUP7 SSTORE POP PUSH2 0x131D JUMP JUMPDEST PUSH1 0x1F NOT DUP5 AND PUSH2 0x12CC DUP7 PUSH2 0x10B0 JUMP JUMPDEST PUSH0 JUMPDEST DUP3 DUP2 LT ISZERO PUSH2 0x12F3 JUMPI DUP5 DUP10 ADD MLOAD DUP3 SSTORE PUSH1 0x1 DUP3 ADD SWAP2 POP PUSH1 0x20 DUP6 ADD SWAP5 POP PUSH1 0x20 DUP2 ADD SWAP1 POP PUSH2 0x12CE JUMP JUMPDEST DUP7 DUP4 LT ISZERO PUSH2 0x1310 JUMPI DUP5 DUP10 ADD MLOAD PUSH2 0x130C PUSH1 0x1F DUP10 AND DUP3 PUSH2 0x121F JUMP JUMPDEST DUP4 SSTORE POP JUMPDEST PUSH1 0x1 PUSH1 0x2 DUP9 MUL ADD DUP9 SSTORE POP POP POP JUMPDEST POP POP POP POP POP POP JUMP JUMPDEST PUSH32 0x4E487B7100000000000000000000000000000000000000000000000000000000 PUSH0 MSTORE PUSH1 0x32 PUSH1 0x4 MSTORE PUSH1 0x24 PUSH0 REVERT JUMPDEST PUSH0 DUP2 SLOAD PUSH2 0x135E DUP2 PUSH2 0x1080 JUMP JUMPDEST PUSH2 0x1368 DUP2 DUP7 PUSH2 0xF95 JUMP JUMPDEST SWAP5 POP PUSH1 0x1 DUP3 AND PUSH0 DUP2 EQ PUSH2 0x1382 JUMPI PUSH1 0x1 DUP2 EQ PUSH2 0x1397 JUMPI PUSH2 0x13C9 JUMP JUMPDEST PUSH1 0xFF NOT DUP4 AND DUP7 MSTORE DUP2 ISZERO ISZERO DUP3 MUL DUP7 ADD SWAP4 POP PUSH2 0x13C9 JUMP JUMPDEST PUSH2 0x13A0 DUP6 PUSH2 0x10B0 JUMP JUMPDEST PUSH0 JUMPDEST DUP4 DUP2 LT ISZERO PUSH2 0x13C1 JUMPI DUP2 SLOAD DUP2 DUP10 ADD MSTORE PUSH1 0x1 DUP3 ADD SWAP2 POP PUSH1 0x20 DUP2 ADD SWAP1 POP PUSH2 0x13A2 JUMP JUMPDEST DUP4 DUP9 ADD SWAP6 POP POP POP JUMPDEST POP POP POP SWAP3 SWAP2 POP POP JUMP JUMPDEST PUSH0 PUSH2 0x13DD DUP3 DUP5 PUSH2 0x1352 JUMP JUMPDEST SWAP2 POP DUP2 SWAP1 POP SWAP3 SWAP2 POP POP JUMP JUMPDEST PUSH0 DUP2 MLOAD SWAP1 POP SWAP2 SWAP1 POP JUMP JUMPDEST PUSH0 DUP3 DUP3 MSTORE PUSH1 0x20 DUP3 ADD SWAP1 POP SWAP3 SWAP2 POP POP JUMP JUMPDEST PUSH0 PUSH2 0x140C DUP3 PUSH2 0x13E8 JUMP JUMPDEST PUSH2 0x1416 DUP2 DUP6 PUSH2 0x13F2 JUMP JUMPDEST SWAP4 POP PUSH2 0x1426 DUP2 DUP6 PUSH1 0x20 DUP7 ADD PUSH2 0xC63 JUMP JUMPDEST PUSH2 0x142F DUP2 PUSH2 0xACE JUMP JUMPDEST DUP5 ADD SWAP2 POP POP SWAP3 SWAP2 POP POP JUMP JUMPDEST PUSH0 PUSH1 0x80 DUP3 ADD SWAP1 POP DUP2 DUP2 SUB PUSH0 DUP4 ADD MSTORE PUSH2 0x1452 DUP2 DUP8 PUSH2 0x1402 JUMP JUMPDEST SWAP1 POP DUP2 DUP2 SUB PUSH1 0x20 DUP4 ADD MSTORE PUSH2 0x1466 DUP2 DUP7 PUSH2 0x1402 JUMP JUMPDEST SWAP1 POP DUP2 DUP2 SUB PUSH1 0x40 DUP4 ADD MSTORE PUSH2 0x147A DUP2 DUP6 PUSH2 0x1402 JUMP JUMPDEST SWAP1 POP DUP2 DUP2 SUB PUSH1 0x60 DUP4 ADD MSTORE PUSH2 0x148E DUP2 DUP5 PUSH2 0x1402 JUMP JUMPDEST SWAP1 POP SWAP6 SWAP5 POP POP POP POP POP JUMP JUMPDEST PUSH0 DUP2 ISZERO ISZERO SWAP1 POP SWAP2 SWAP1 POP JUMP JUMPDEST PUSH2 0x14AD DUP2 PUSH2 0x1499 JUMP JUMPDEST DUP2 EQ PUSH2 0x14B7 JUMPI PUSH0 DUP1 REVERT JUMPDEST POP JUMP JUMPDEST PUSH0 DUP2 MLOAD SWAP1 POP PUSH2 0x14C8 DUP2 PUSH2 0x14A4 JUMP JUMPDEST SWAP3 SWAP2 POP POP JUMP JUMPDEST PUSH0 PUSH1 0x20 DUP3 DUP5 SUB SLT ISZERO PUSH2 0x14E3 JUMPI PUSH2 0x14E2 PUSH2 0xABE JUMP JUMPDEST JUMPDEST PUSH0 PUSH2 0x14F0 DUP5 DUP3 DUP6 ADD PUSH2 0x14BA JUMP JUMPDEST SWAP2 POP POP SWAP3 SWAP2 POP POP JUMP JUMPDEST PUSH32 0x4E487B7100000000000000000000000000000000000000000000000000000000 PUSH0 MSTORE PUSH1 0x12 PUSH1 0x4 MSTORE PUSH1 0x24 PUSH0 REVERT JUMPDEST PUSH0 PUSH2 0x1530 DUP3 PUSH2 0x112E JUMP JUMPDEST SWAP2 POP PUSH2 0x153B DUP4 PUSH2 0x112E JUMP JUMPDEST SWAP3 POP DUP3 PUSH2 0x154B JUMPI PUSH2 0x154A PUSH2 0x14F9 JUMP JUMPDEST JUMPDEST DUP3 DUP3 MOD SWAP1 POP SWAP3 SWAP2 POP POP JUMP JUMPDEST PUSH0 PUSH2 0x1560 DUP3 PUSH2 0x112E JUMP JUMPDEST SWAP2 POP PUSH2 0x156B DUP4 PUSH2 0x112E JUMP JUMPDEST SWAP3 POP DUP3 PUSH2 0x157B JUMPI PUSH2 0x157A PUSH2 0x14F9 JUMP JUMPDEST JUMPDEST DUP3 DUP3 DIV SWAP1 POP SWAP3 SWAP2 POP POP JUMP JUMPDEST PUSH0 PUSH2 0x1590 DUP3 PUSH2 0x112E JUMP JUMPDEST SWAP2 POP PUSH2 0x159B DUP4 PUSH2 0x112E JUMP JUMPDEST SWAP3 POP DUP3 DUP3 MUL PUSH2 0x15A9 DUP2 PUSH2 0x112E JUMP JUMPDEST SWAP2 POP DUP3 DUP3 DIV DUP5 EQ DUP4 ISZERO OR PUSH2 0x15C0 JUMPI PUSH2 0x15BF PUSH2 0xFE5 JUMP JUMPDEST JUMPDEST POP SWAP3 SWAP2 POP POP JUMP JUMPDEST PUSH0 PUSH2 0x15D1 DUP3 PUSH2 0x112E JUMP JUMPDEST SWAP2 POP PUSH2 0x15DC DUP4 PUSH2 0x112E JUMP JUMPDEST SWAP3 POP DUP3 DUP3 ADD SWAP1 POP DUP1 DUP3 GT ISZERO PUSH2 0x15F4 JUMPI PUSH2 0x15F3 PUSH2 0xFE5 JUMP JUMPDEST JUMPDEST SWAP3 SWAP2 POP POP JUMP JUMPDEST PUSH0 PUSH1 0xFF DUP3 AND SWAP1 POP SWAP2 SWAP1 POP JUMP JUMPDEST PUSH0 PUSH2 0x1610 DUP3 PUSH2 0x15FA JUMP JUMPDEST SWAP2 POP PUSH2 0x161B DUP4 PUSH2 0x15FA JUMP JUMPDEST SWAP3 POP DUP3 DUP3 MUL PUSH2 0x1629 DUP2 PUSH2 0x15FA JUMP JUMPDEST SWAP2 POP DUP1 DUP3 EQ PUSH2 0x163B JUMPI PUSH2 0x163A PUSH2 0xFE5 JUMP JUMPDEST JUMPDEST POP SWAP3 SWAP2 POP POP JUMP JUMPDEST PUSH0 PUSH2 0x164C DUP3 PUSH2 0x15FA JUMP JUMPDEST SWAP2 POP PUSH2 0x1657 DUP4 PUSH2 0x15FA JUMP JUMPDEST SWAP3 POP DUP3 DUP3 ADD SWAP1 POP PUSH1 0xFF DUP2 GT ISZERO PUSH2 0x1670 JUMPI PUSH2 0x166F PUSH2 0xFE5 JUMP JUMPDEST JUMPDEST SWAP3 SWAP2 POP POP JUMP JUMPDEST PUSH0 PUSH2 0x1680 DUP3 PUSH2 0x15FA JUMP JUMPDEST SWAP2 POP PUSH2 0x168B DUP4 PUSH2 0x15FA JUMP JUMPDEST SWAP3 POP DUP3 DUP3 SUB SWAP1 POP PUSH1 0xFF DUP2 GT ISZERO PUSH2 0x16A4 JUMPI PUSH2 0x16A3 PUSH2 0xFE5 JUMP JUMPDEST JUMPDEST SWAP3 SWAP2 POP POP JUMP JUMPDEST PUSH32 0x6661696C00000000000000000000000000000000000000000000000000000000 PUSH0 DUP3 ADD MSTORE POP JUMP JUMPDEST PUSH0 PUSH2 0x16DE PUSH1 0x4 DUP4 PUSH2 0xC53 JUMP JUMPDEST SWAP2 POP PUSH2 0x16E9 DUP3 PUSH2 0x16AA JUMP JUMPDEST PUSH1 0x20 DUP3 ADD SWAP1 POP SWAP2 SWAP1 POP JUMP JUMPDEST PUSH0 PUSH1 0x20 DUP3 ADD SWAP1 POP DUP2 DUP2 SUB PUSH0 DUP4 ADD MSTORE PUSH2 0x170B DUP2 PUSH2 0x16D2 JUMP JUMPDEST SWAP1 POP SWAP2 SWAP1 POP JUMP INVALID LOG2 PUSH5 0x6970667358 0x22 SLT KECCAK256 DUP15 INVALID STATICCALL REVERT SELFBALANCE 0xD6 0xAA 0x24 0xCA BALANCE 0xD6 0xBE 0xDF 0xC3 MCOPY OR BLOCKHASH 0xB8 PUSH27 0xEF760E3453C832EED4087FE5C064736F6C63430008190033000000 "
		},
		"gasEstimates": {
			"creation": {
				"codeDepositCost": "1192000",
				"executionCost": "1239",
				"totalCost": "1193239"
			},
			"external": {
				"getVotes()": "infinite",
				"vote(string,string,string,string)": "infinite",
				"vote2(string)": "infinite"
			},
			"internal": {
				"fromHex(string memory)": "infinite",
				"fromHexChar(uint8)": "infinite",
				"isVoteExist(string memory)": "infinite"
			}
		},
		"methodIdentifiers": {
			"getVotes()": "0dc96015",
			"vote(string,string,string,string)": "9b3bc156",
			"vote2(string)": "014ce13d"
		}
	},
	"abi": [
		{
			"inputs": [],
			"name": "getVotes",
			"outputs": [
				{
					"internalType": "string[]",
					"name": "",
					"type": "string[]"
				},
				{
					"internalType": "int256[]",
					"name": "",
					"type": "int256[]"
				}
			],
			"stateMutability": "view",
			"type": "function"
		},
		{
			"inputs": [
				{
					"internalType": "string",
					"name": "Message",
					"type": "string"
				},
				{
					"internalType": "string",
					"name": "_hexSignature",
					"type": "string"
				},
				{
					"internalType": "string",
					"name": "_hexExponent",
					"type": "string"
				},
				{
					"internalType": "string",
					"name": "_hexModulus",
					"type": "string"
				}
			],
			"name": "vote",
			"outputs": [
				{
					"internalType": "string",
					"name": "",
					"type": "string"
				}
			],
			"stateMutability": "nonpayable",
			"type": "function"
		},
		{
			"inputs": [
				{
					"internalType": "string",
					"name": "Message",
					"type": "string"
				}
			],
			"name": "vote2",
			"outputs": [
				{
					"internalType": "string",
					"name": "",
					"type": "string"
				}
			],
			"stateMutability": "nonpayable",
			"type": "function"
		}
	]
}