{
	"vote.sol": {
		"ElectionVote": {
			"abi": [
				{
					"inputs": [],
					"name": "getVotes",
					"outputs": [
						{
							"internalType": "string[]",
							"name": "",
							"type": "string[]"
						},
						{
							"internalType": "int256[]",
							"name": "",
							"type": "int256[]"
						}
					],
					"stateMutability": "view",
					"type": "function"
				},
				{
					"inputs": [
						{
							"internalType": "string",
							"name": "Message",
							"type": "string"
						},
						{
							"internalType": "string",
							"name": "_hexSignature",
							"type": "string"
						},
						{
							"internalType": "string",
							"name": "_hexModulus",
							"type": "string"
						}
					],
					"name": "vote",
					"outputs": [
						{
							"internalType": "string",
							"name": "",
							"type": "string"
						}
					],
					"stateMutability": "nonpayable",
					"type": "function"
				}
			],
			"devdoc": {
				"kind": "dev",
				"methods": {},
				"version": 1
			},
			"evm": {
				"assembly": "    /* \"vote.sol\":112:3345  contract ElectionVote{... */\n  mstore(0x40, 0x80)\n    /* \"vote.sol\":327:603  string exponent = \"0000000000000000000000000000000000000000000000000000000000000000000000000000000000000000000000000000000000000000000000000000000000000000000000000000000000000000000000000000000000000000000000000000000000000000000000000000000000000000000000000000000000010001\" */\n  mload(0x40)\n  dup1\n  0x0120\n  add\n  0x40\n  mstore\n  dup1\n  0x0100\n  dup2\n  mstore\n  0x20\n  add\n  data_4904acff0736dd488eb944bcdf7003e106047c066e7a510d162ce344e8dac69e\n  0x0100\n  swap2\n  codecopy\n  0x03\n  swap1\n  dup2\n  tag_1\n  swap2\n  swap1\n  tag_2\n  jump\t// in\ntag_1:\n  pop\n    /* \"vote.sol\":112:3345  contract ElectionVote{... */\n  callvalue\n  dup1\n  iszero\n  tag_3\n  jumpi\n  0x00\n  dup1\n  revert\ntag_3:\n  pop\n  jump(tag_4)\n    /* \"#utility.yul\":7:106   */\ntag_5:\n    /* \"#utility.yul\":59:65   */\n  0x00\n    /* \"#utility.yul\":93:98   */\n  dup2\n    /* \"#utility.yul\":87:99   */\n  mload\n    /* \"#utility.yul\":77:99   */\n  swap1\n  pop\n    /* \"#utility.yul\":7:106   */\n  swap2\n  swap1\n  pop\n  jump\t// out\n    /* \"#utility.yul\":112:292   */\ntag_6:\n    /* \"#utility.yul\":160:237   */\n  0x4e487b7100000000000000000000000000000000000000000000000000000000\n    /* \"#utility.yul\":157:158   */\n  0x00\n    /* \"#utility.yul\":150:238   */\n  mstore\n    /* \"#utility.yul\":257:261   */\n  0x41\n    /* \"#utility.yul\":254:255   */\n  0x04\n    /* \"#utility.yul\":247:262   */\n  mstore\n    /* \"#utility.yul\":281:285   */\n  0x24\n    /* \"#utility.yul\":278:279   */\n  0x00\n    /* \"#utility.yul\":271:286   */\n  revert\n    /* \"#utility.yul\":298:478   */\ntag_7:\n    /* \"#utility.yul\":346:423   */\n  0x4e487b7100000000000000000000000000000000000000000000000000000000\n    /* \"#utility.yul\":343:344   */\n  0x00\n    /* \"#utility.yul\":336:424   */\n  mstore\n    /* \"#utility.yul\":443:447   */\n  0x22\n    /* \"#utility.yul\":440:441   */\n  0x04\n    /* \"#utility.yul\":433:448   */\n  mstore\n    /* \"#utility.yul\":467:471   */\n  0x24\n    /* \"#utility.yul\":464:465   */\n  0x00\n    /* \"#utility.yul\":457:472   */\n  revert\n    /* \"#utility.yul\":484:804   */\ntag_8:\n    /* \"#utility.yul\":528:534   */\n  0x00\n    /* \"#utility.yul\":565:566   */\n  0x02\n    /* \"#utility.yul\":559:563   */\n  dup3\n    /* \"#utility.yul\":555:567   */\n  div\n    /* \"#utility.yul\":545:567   */\n  swap1\n  pop\n    /* \"#utility.yul\":612:613   */\n  0x01\n    /* \"#utility.yul\":606:610   */\n  dup3\n    /* \"#utility.yul\":602:614   */\n  and\n    /* \"#utility.yul\":633:651   */\n  dup1\n    /* \"#utility.yul\":623:704   */\n  tag_30\n  jumpi\n    /* \"#utility.yul\":689:693   */\n  0x7f\n    /* \"#utility.yul\":681:687   */\n  dup3\n    /* \"#utility.yul\":677:694   */\n  and\n    /* \"#utility.yul\":667:694   */\n  swap2\n  pop\n    /* \"#utility.yul\":623:704   */\ntag_30:\n    /* \"#utility.yul\":751:753   */\n  0x20\n    /* \"#utility.yul\":743:749   */\n  dup3\n    /* \"#utility.yul\":740:754   */\n  lt\n    /* \"#utility.yul\":720:738   */\n  dup2\n    /* \"#utility.yul\":717:755   */\n  sub\n    /* \"#utility.yul\":714:798   */\n  tag_31\n  jumpi\n    /* \"#utility.yul\":770:788   */\n  tag_32\n  tag_7\n  jump\t// in\ntag_32:\n    /* \"#utility.yul\":714:798   */\ntag_31:\n    /* \"#utility.yul\":535:804   */\n  pop\n    /* \"#utility.yul\":484:804   */\n  swap2\n  swap1\n  pop\n  jump\t// out\n    /* \"#utility.yul\":810:951   */\ntag_9:\n    /* \"#utility.yul\":859:863   */\n  0x00\n    /* \"#utility.yul\":882:885   */\n  dup2\n    /* \"#utility.yul\":874:885   */\n  swap1\n  pop\n    /* \"#utility.yul\":905:908   */\n  dup2\n    /* \"#utility.yul\":902:903   */\n  0x00\n    /* \"#utility.yul\":895:909   */\n  mstore\n    /* \"#utility.yul\":939:943   */\n  0x20\n    /* \"#utility.yul\":936:937   */\n  0x00\n    /* \"#utility.yul\":926:944   */\n  keccak256\n    /* \"#utility.yul\":918:944   */\n  swap1\n  pop\n    /* \"#utility.yul\":810:951   */\n  swap2\n  swap1\n  pop\n  jump\t// out\n    /* \"#utility.yul\":957:1050   */\ntag_10:\n    /* \"#utility.yul\":994:1000   */\n  0x00\n    /* \"#utility.yul\":1041:1043   */\n  0x20\n    /* \"#utility.yul\":1036:1038   */\n  0x1f\n    /* \"#utility.yul\":1029:1034   */\n  dup4\n    /* \"#utility.yul\":1025:1039   */\n  add\n    /* \"#utility.yul\":1021:1044   */\n  div\n    /* \"#utility.yul\":1011:1044   */\n  swap1\n  pop\n    /* \"#utility.yul\":957:1050   */\n  swap2\n  swap1\n  pop\n  jump\t// out\n    /* \"#utility.yul\":1056:1163   */\ntag_11:\n    /* \"#utility.yul\":1100:1108   */\n  0x00\n    /* \"#utility.yul\":1150:1155   */\n  dup3\n    /* \"#utility.yul\":1144:1148   */\n  dup3\n    /* \"#utility.yul\":1140:1156   */\n  shl\n    /* \"#utility.yul\":1119:1156   */\n  swap1\n  pop\n    /* \"#utility.yul\":1056:1163   */\n  swap3\n  swap2\n  pop\n  pop\n  jump\t// out\n    /* \"#utility.yul\":1169:1562   */\ntag_12:\n    /* \"#utility.yul\":1238:1244   */\n  0x00\n    /* \"#utility.yul\":1288:1289   */\n  0x08\n    /* \"#utility.yul\":1276:1286   */\n  dup4\n    /* \"#utility.yul\":1272:1290   */\n  mul\n    /* \"#utility.yul\":1311:1408   */\n  tag_37\n    /* \"#utility.yul\":1341:1407   */\n  0xffffffffffffffffffffffffffffffffffffffffffffffffffffffffffffffff\n    /* \"#utility.yul\":1330:1339   */\n  dup3\n    /* \"#utility.yul\":1311:1408   */\n  tag_11\n  jump\t// in\ntag_37:\n    /* \"#utility.yul\":1429:1468   */\n  tag_38\n    /* \"#utility.yul\":1459:1467   */\n  dup7\n    /* \"#utility.yul\":1448:1457   */\n  dup4\n    /* \"#utility.yul\":1429:1468   */\n  tag_11\n  jump\t// in\ntag_38:\n    /* \"#utility.yul\":1417:1468   */\n  swap6\n  pop\n    /* \"#utility.yul\":1501:1505   */\n  dup1\n    /* \"#utility.yul\":1497:1506   */\n  not\n    /* \"#utility.yul\":1490:1495   */\n  dup5\n    /* \"#utility.yul\":1486:1507   */\n  and\n    /* \"#utility.yul\":1477:1507   */\n  swap4\n  pop\n    /* \"#utility.yul\":1550:1554   */\n  dup1\n    /* \"#utility.yul\":1540:1548   */\n  dup7\n    /* \"#utility.yul\":1536:1555   */\n  and\n    /* \"#utility.yul\":1529:1534   */\n  dup5\n    /* \"#utility.yul\":1526:1556   */\n  or\n    /* \"#utility.yul\":1516:1556   */\n  swap3\n  pop\n    /* \"#utility.yul\":1245:1562   */\n  pop\n  pop\n    /* \"#utility.yul\":1169:1562   */\n  swap4\n  swap3\n  pop\n  pop\n  pop\n  jump\t// out\n    /* \"#utility.yul\":1568:1645   */\ntag_13:\n    /* \"#utility.yul\":1605:1612   */\n  0x00\n    /* \"#utility.yul\":1634:1639   */\n  dup2\n    /* \"#utility.yul\":1623:1639   */\n  swap1\n  pop\n    /* \"#utility.yul\":1568:1645   */\n  swap2\n  swap1\n  pop\n  jump\t// out\n    /* \"#utility.yul\":1651:1711   */\ntag_14:\n    /* \"#utility.yul\":1679:1682   */\n  0x00\n    /* \"#utility.yul\":1700:1705   */\n  dup2\n    /* \"#utility.yul\":1693:1705   */\n  swap1\n  pop\n    /* \"#utility.yul\":1651:1711   */\n  swap2\n  swap1\n  pop\n  jump\t// out\n    /* \"#utility.yul\":1717:1859   */\ntag_15:\n    /* \"#utility.yul\":1767:1776   */\n  0x00\n    /* \"#utility.yul\":1800:1853   */\n  tag_42\n    /* \"#utility.yul\":1818:1852   */\n  tag_43\n    /* \"#utility.yul\":1827:1851   */\n  tag_44\n    /* \"#utility.yul\":1845:1850   */\n  dup5\n    /* \"#utility.yul\":1827:1851   */\n  tag_13\n  jump\t// in\ntag_44:\n    /* \"#utility.yul\":1818:1852   */\n  tag_14\n  jump\t// in\ntag_43:\n    /* \"#utility.yul\":1800:1853   */\n  tag_13\n  jump\t// in\ntag_42:\n    /* \"#utility.yul\":1787:1853   */\n  swap1\n  pop\n    /* \"#utility.yul\":1717:1859   */\n  swap2\n  swap1\n  pop\n  jump\t// out\n    /* \"#utility.yul\":1865:1940   */\ntag_16:\n    /* \"#utility.yul\":1908:1911   */\n  0x00\n    /* \"#utility.yul\":1929:1934   */\n  dup2\n    /* \"#utility.yul\":1922:1934   */\n  swap1\n  pop\n    /* \"#utility.yul\":1865:1940   */\n  swap2\n  swap1\n  pop\n  jump\t// out\n    /* \"#utility.yul\":1946:2215   */\ntag_17:\n    /* \"#utility.yul\":2056:2095   */\n  tag_47\n    /* \"#utility.yul\":2087:2094   */\n  dup4\n    /* \"#utility.yul\":2056:2095   */\n  tag_15\n  jump\t// in\ntag_47:\n    /* \"#utility.yul\":2117:2208   */\n  tag_48\n    /* \"#utility.yul\":2166:2207   */\n  tag_49\n    /* \"#utility.yul\":2190:2206   */\n  dup3\n    /* \"#utility.yul\":2166:2207   */\n  tag_16\n  jump\t// in\ntag_49:\n    /* \"#utility.yul\":2158:2164   */\n  dup5\n    /* \"#utility.yul\":2151:2155   */\n  dup5\n    /* \"#utility.yul\":2145:2156   */\n  sload\n    /* \"#utility.yul\":2117:2208   */\n  tag_12\n  jump\t// in\ntag_48:\n    /* \"#utility.yul\":2111:2115   */\n  dup3\n    /* \"#utility.yul\":2104:2209   */\n  sstore\n    /* \"#utility.yul\":2022:2215   */\n  pop\n    /* \"#utility.yul\":1946:2215   */\n  pop\n  pop\n  pop\n  jump\t// out\n    /* \"#utility.yul\":2221:2294   */\ntag_18:\n    /* \"#utility.yul\":2266:2269   */\n  0x00\n    /* \"#utility.yul\":2221:2294   */\n  swap1\n  jump\t// out\n    /* \"#utility.yul\":2300:2489   */\ntag_19:\n    /* \"#utility.yul\":2377:2409   */\n  tag_52\n  tag_18\n  jump\t// in\ntag_52:\n    /* \"#utility.yul\":2418:2483   */\n  tag_53\n    /* \"#utility.yul\":2476:2482   */\n  dup2\n    /* \"#utility.yul\":2468:2474   */\n  dup5\n    /* \"#utility.yul\":2462:2466   */\n  dup5\n    /* \"#utility.yul\":2418:2483   */\n  tag_17\n  jump\t// in\ntag_53:\n    /* \"#utility.yul\":2353:2489   */\n  pop\n    /* \"#utility.yul\":2300:2489   */\n  pop\n  pop\n  jump\t// out\n    /* \"#utility.yul\":2495:2681   */\ntag_20:\n    /* \"#utility.yul\":2555:2675   */\ntag_55:\n    /* \"#utility.yul\":2572:2575   */\n  dup2\n    /* \"#utility.yul\":2565:2570   */\n  dup2\n    /* \"#utility.yul\":2562:2576   */\n  lt\n    /* \"#utility.yul\":2555:2675   */\n  iszero\n  tag_57\n  jumpi\n    /* \"#utility.yul\":2626:2665   */\n  tag_58\n    /* \"#utility.yul\":2663:2664   */\n  0x00\n    /* \"#utility.yul\":2656:2661   */\n  dup3\n    /* \"#utility.yul\":2626:2665   */\n  tag_19\n  jump\t// in\ntag_58:\n    /* \"#utility.yul\":2599:2600   */\n  0x01\n    /* \"#utility.yul\":2592:2597   */\n  dup2\n    /* \"#utility.yul\":2588:2601   */\n  add\n    /* \"#utility.yul\":2579:2601   */\n  swap1\n  pop\n    /* \"#utility.yul\":2555:2675   */\n  jump(tag_55)\ntag_57:\n    /* \"#utility.yul\":2495:2681   */\n  pop\n  pop\n  jump\t// out\n    /* \"#utility.yul\":2687:3230   */\ntag_21:\n    /* \"#utility.yul\":2788:2790   */\n  0x1f\n    /* \"#utility.yul\":2783:2786   */\n  dup3\n    /* \"#utility.yul\":2780:2791   */\n  gt\n    /* \"#utility.yul\":2777:3223   */\n  iszero\n  tag_60\n  jumpi\n    /* \"#utility.yul\":2822:2860   */\n  tag_61\n    /* \"#utility.yul\":2854:2859   */\n  dup2\n    /* \"#utility.yul\":2822:2860   */\n  tag_9\n  jump\t// in\ntag_61:\n    /* \"#utility.yul\":2906:2935   */\n  tag_62\n    /* \"#utility.yul\":2924:2934   */\n  dup5\n    /* \"#utility.yul\":2906:2935   */\n  tag_10\n  jump\t// in\ntag_62:\n    /* \"#utility.yul\":2896:2904   */\n  dup2\n    /* \"#utility.yul\":2892:2936   */\n  add\n    /* \"#utility.yul\":3089:3091   */\n  0x20\n    /* \"#utility.yul\":3077:3087   */\n  dup6\n    /* \"#utility.yul\":3074:3092   */\n  lt\n    /* \"#utility.yul\":3071:3120   */\n  iszero\n  tag_63\n  jumpi\n    /* \"#utility.yul\":3110:3118   */\n  dup2\n    /* \"#utility.yul\":3095:3118   */\n  swap1\n  pop\n    /* \"#utility.yul\":3071:3120   */\ntag_63:\n    /* \"#utility.yul\":3133:3213   */\n  tag_64\n    /* \"#utility.yul\":3189:3211   */\n  tag_65\n    /* \"#utility.yul\":3207:3210   */\n  dup6\n    /* \"#utility.yul\":3189:3211   */\n  tag_10\n  jump\t// in\ntag_65:\n    /* \"#utility.yul\":3179:3187   */\n  dup4\n    /* \"#utility.yul\":3175:3212   */\n  add\n    /* \"#utility.yul\":3162:3173   */\n  dup3\n    /* \"#utility.yul\":3133:3213   */\n  tag_20\n  jump\t// in\ntag_64:\n    /* \"#utility.yul\":2792:3223   */\n  pop\n  pop\n    /* \"#utility.yul\":2777:3223   */\ntag_60:\n    /* \"#utility.yul\":2687:3230   */\n  pop\n  pop\n  pop\n  jump\t// out\n    /* \"#utility.yul\":3236:3353   */\ntag_22:\n    /* \"#utility.yul\":3290:3298   */\n  0x00\n    /* \"#utility.yul\":3340:3345   */\n  dup3\n    /* \"#utility.yul\":3334:3338   */\n  dup3\n    /* \"#utility.yul\":3330:3346   */\n  shr\n    /* \"#utility.yul\":3309:3346   */\n  swap1\n  pop\n    /* \"#utility.yul\":3236:3353   */\n  swap3\n  swap2\n  pop\n  pop\n  jump\t// out\n    /* \"#utility.yul\":3359:3528   */\ntag_23:\n    /* \"#utility.yul\":3403:3409   */\n  0x00\n    /* \"#utility.yul\":3436:3487   */\n  tag_68\n    /* \"#utility.yul\":3484:3485   */\n  0x00\n    /* \"#utility.yul\":3480:3486   */\n  not\n    /* \"#utility.yul\":3472:3477   */\n  dup5\n    /* \"#utility.yul\":3469:3470   */\n  0x08\n    /* \"#utility.yul\":3465:3478   */\n  mul\n    /* \"#utility.yul\":3436:3487   */\n  tag_22\n  jump\t// in\ntag_68:\n    /* \"#utility.yul\":3432:3488   */\n  not\n    /* \"#utility.yul\":3517:3521   */\n  dup1\n    /* \"#utility.yul\":3511:3515   */\n  dup4\n    /* \"#utility.yul\":3507:3522   */\n  and\n    /* \"#utility.yul\":3497:3522   */\n  swap2\n  pop\n    /* \"#utility.yul\":3410:3528   */\n  pop\n    /* \"#utility.yul\":3359:3528   */\n  swap3\n  swap2\n  pop\n  pop\n  jump\t// out\n    /* \"#utility.yul\":3533:3828   */\ntag_24:\n    /* \"#utility.yul\":3609:3613   */\n  0x00\n    /* \"#utility.yul\":3755:3784   */\n  tag_70\n    /* \"#utility.yul\":3780:3783   */\n  dup4\n    /* \"#utility.yul\":3774:3778   */\n  dup4\n    /* \"#utility.yul\":3755:3784   */\n  tag_23\n  jump\t// in\ntag_70:\n    /* \"#utility.yul\":3747:3784   */\n  swap2\n  pop\n    /* \"#utility.yul\":3817:3820   */\n  dup3\n    /* \"#utility.yul\":3814:3815   */\n  0x02\n    /* \"#utility.yul\":3810:3821   */\n  mul\n    /* \"#utility.yul\":3804:3808   */\n  dup3\n    /* \"#utility.yul\":3801:3822   */\n  or\n    /* \"#utility.yul\":3793:3822   */\n  swap1\n  pop\n    /* \"#utility.yul\":3533:3828   */\n  swap3\n  swap2\n  pop\n  pop\n  jump\t// out\n    /* \"#utility.yul\":3833:5228   */\ntag_2:\n    /* \"#utility.yul\":3950:3987   */\n  tag_72\n    /* \"#utility.yul\":3983:3986   */\n  dup3\n    /* \"#utility.yul\":3950:3987   */\n  tag_5\n  jump\t// in\ntag_72:\n    /* \"#utility.yul\":4052:4070   */\n  0xffffffffffffffff\n    /* \"#utility.yul\":4044:4050   */\n  dup2\n    /* \"#utility.yul\":4041:4071   */\n  gt\n    /* \"#utility.yul\":4038:4094   */\n  iszero\n  tag_73\n  jumpi\n    /* \"#utility.yul\":4074:4092   */\n  tag_74\n  tag_6\n  jump\t// in\ntag_74:\n    /* \"#utility.yul\":4038:4094   */\ntag_73:\n    /* \"#utility.yul\":4118:4156   */\n  tag_75\n    /* \"#utility.yul\":4150:4154   */\n  dup3\n    /* \"#utility.yul\":4144:4155   */\n  sload\n    /* \"#utility.yul\":4118:4156   */\n  tag_8\n  jump\t// in\ntag_75:\n    /* \"#utility.yul\":4203:4270   */\n  tag_76\n    /* \"#utility.yul\":4263:4269   */\n  dup3\n    /* \"#utility.yul\":4255:4261   */\n  dup3\n    /* \"#utility.yul\":4249:4253   */\n  dup6\n    /* \"#utility.yul\":4203:4270   */\n  tag_21\n  jump\t// in\ntag_76:\n    /* \"#utility.yul\":4297:4298   */\n  0x00\n    /* \"#utility.yul\":4321:4325   */\n  0x20\n    /* \"#utility.yul\":4308:4325   */\n  swap1\n  pop\n    /* \"#utility.yul\":4353:4355   */\n  0x1f\n    /* \"#utility.yul\":4345:4351   */\n  dup4\n    /* \"#utility.yul\":4342:4356   */\n  gt\n    /* \"#utility.yul\":4370:4371   */\n  0x01\n    /* \"#utility.yul\":4365:4983   */\n  dup2\n  eq\n  tag_78\n  jumpi\n    /* \"#utility.yul\":5027:5028   */\n  0x00\n    /* \"#utility.yul\":5044:5050   */\n  dup5\n    /* \"#utility.yul\":5041:5118   */\n  iszero\n  tag_79\n  jumpi\n    /* \"#utility.yul\":5093:5102   */\n  dup3\n    /* \"#utility.yul\":5088:5091   */\n  dup8\n    /* \"#utility.yul\":5084:5103   */\n  add\n    /* \"#utility.yul\":5078:5104   */\n  mload\n    /* \"#utility.yul\":5069:5104   */\n  swap1\n  pop\n    /* \"#utility.yul\":5041:5118   */\ntag_79:\n    /* \"#utility.yul\":5144:5211   */\n  tag_80\n    /* \"#utility.yul\":5204:5210   */\n  dup6\n    /* \"#utility.yul\":5197:5202   */\n  dup3\n    /* \"#utility.yul\":5144:5211   */\n  tag_24\n  jump\t// in\ntag_80:\n    /* \"#utility.yul\":5138:5142   */\n  dup7\n    /* \"#utility.yul\":5131:5212   */\n  sstore\n    /* \"#utility.yul\":5000:5222   */\n  pop\n    /* \"#utility.yul\":4335:5222   */\n  jump(tag_77)\n    /* \"#utility.yul\":4365:4983   */\ntag_78:\n    /* \"#utility.yul\":4417:4421   */\n  0x1f\n    /* \"#utility.yul\":4413:4422   */\n  not\n    /* \"#utility.yul\":4405:4411   */\n  dup5\n    /* \"#utility.yul\":4401:4423   */\n  and\n    /* \"#utility.yul\":4451:4488   */\n  tag_81\n    /* \"#utility.yul\":4483:4487   */\n  dup7\n    /* \"#utility.yul\":4451:4488   */\n  tag_9\n  jump\t// in\ntag_81:\n    /* \"#utility.yul\":4510:4511   */\n  0x00\n    /* \"#utility.yul\":4524:4732   */\ntag_82:\n    /* \"#utility.yul\":4538:4545   */\n  dup3\n    /* \"#utility.yul\":4535:4536   */\n  dup2\n    /* \"#utility.yul\":4532:4546   */\n  lt\n    /* \"#utility.yul\":4524:4732   */\n  iszero\n  tag_84\n  jumpi\n    /* \"#utility.yul\":4617:4626   */\n  dup5\n    /* \"#utility.yul\":4612:4615   */\n  dup10\n    /* \"#utility.yul\":4608:4627   */\n  add\n    /* \"#utility.yul\":4602:4628   */\n  mload\n    /* \"#utility.yul\":4594:4600   */\n  dup3\n    /* \"#utility.yul\":4587:4629   */\n  sstore\n    /* \"#utility.yul\":4668:4669   */\n  0x01\n    /* \"#utility.yul\":4660:4666   */\n  dup3\n    /* \"#utility.yul\":4656:4670   */\n  add\n    /* \"#utility.yul\":4646:4670   */\n  swap2\n  pop\n    /* \"#utility.yul\":4715:4717   */\n  0x20\n    /* \"#utility.yul\":4704:4713   */\n  dup6\n    /* \"#utility.yul\":4700:4718   */\n  add\n    /* \"#utility.yul\":4687:4718   */\n  swap5\n  pop\n    /* \"#utility.yul\":4561:4565   */\n  0x20\n    /* \"#utility.yul\":4558:4559   */\n  dup2\n    /* \"#utility.yul\":4554:4566   */\n  add\n    /* \"#utility.yul\":4549:4566   */\n  swap1\n  pop\n    /* \"#utility.yul\":4524:4732   */\n  jump(tag_82)\ntag_84:\n    /* \"#utility.yul\":4760:4766   */\n  dup7\n    /* \"#utility.yul\":4751:4758   */\n  dup4\n    /* \"#utility.yul\":4748:4767   */\n  lt\n    /* \"#utility.yul\":4745:4924   */\n  iszero\n  tag_85\n  jumpi\n    /* \"#utility.yul\":4818:4827   */\n  dup5\n    /* \"#utility.yul\":4813:4816   */\n  dup10\n    /* \"#utility.yul\":4809:4828   */\n  add\n    /* \"#utility.yul\":4803:4829   */\n  mload\n    /* \"#utility.yul\":4861:4909   */\n  tag_86\n    /* \"#utility.yul\":4903:4907   */\n  0x1f\n    /* \"#utility.yul\":4895:4901   */\n  dup10\n    /* \"#utility.yul\":4891:4908   */\n  and\n    /* \"#utility.yul\":4880:4889   */\n  dup3\n    /* \"#utility.yul\":4861:4909   */\n  tag_23\n  jump\t// in\ntag_86:\n    /* \"#utility.yul\":4853:4859   */\n  dup4\n    /* \"#utility.yul\":4846:4910   */\n  sstore\n    /* \"#utility.yul\":4768:4924   */\n  pop\n    /* \"#utility.yul\":4745:4924   */\ntag_85:\n    /* \"#utility.yul\":4970:4971   */\n  0x01\n    /* \"#utility.yul\":4966:4967   */\n  0x02\n    /* \"#utility.yul\":4958:4964   */\n  dup9\n    /* \"#utility.yul\":4954:4968   */\n  mul\n    /* \"#utility.yul\":4950:4972   */\n  add\n    /* \"#utility.yul\":4944:4948   */\n  dup9\n    /* \"#utility.yul\":4937:4973   */\n  sstore\n    /* \"#utility.yul\":4372:4983   */\n  pop\n  pop\n  pop\n    /* \"#utility.yul\":4335:5222   */\ntag_77:\n  pop\n    /* \"#utility.yul\":3925:5228   */\n  pop\n  pop\n  pop\n    /* \"#utility.yul\":3833:5228   */\n  pop\n  pop\n  jump\t// out\n    /* \"vote.sol\":112:3345  contract ElectionVote{... */\ntag_4:\n  dataSize(sub_0)\n  dup1\n  dataOffset(sub_0)\n  0x00\n  codecopy\n  0x00\n  return\nstop\ndata_4904acff0736dd488eb944bcdf7003e106047c066e7a510d162ce344e8dac69e 30303030303030303030303030303030303030303030303030303030303030303030303030303030303030303030303030303030303030303030303030303030303030303030303030303030303030303030303030303030303030303030303030303030303030303030303030303030303030303030303030303030303030303030303030303030303030303030303030303030303030303030303030303030303030303030303030303030303030303030303030303030303030303030303030303030303030303030303030303030303030303030303030303030303030303030303030303030303030303030303030303030303030303030303130303031\n\nsub_0: assembly {\n        /* \"vote.sol\":112:3345  contract ElectionVote{... */\n      mstore(0x40, 0x80)\n      callvalue\n      dup1\n      iszero\n      tag_1\n      jumpi\n      0x00\n      dup1\n      revert\n    tag_1:\n      pop\n      jumpi(tag_2, lt(calldatasize, 0x04))\n      shr(0xe0, calldataload(0x00))\n      dup1\n      0x0dc96015\n      eq\n      tag_3\n      jumpi\n      dup1\n      0x95f59fe1\n      eq\n      tag_4\n      jumpi\n    tag_2:\n      0x00\n      dup1\n      revert\n        /* \"vote.sol\":2015:2318  function getVotes() public view returns (string[] memory, int[] memory) {... */\n    tag_3:\n      tag_5\n      tag_6\n      jump\t// in\n    tag_5:\n      mload(0x40)\n      tag_7\n      swap3\n      swap2\n      swap1\n      tag_8\n      jump\t// in\n    tag_7:\n      mload(0x40)\n      dup1\n      swap2\n      sub\n      swap1\n      return\n        /* \"vote.sol\":1258:1956  function vote(string memory Message,... */\n    tag_4:\n      tag_9\n      0x04\n      dup1\n      calldatasize\n      sub\n      dup2\n      add\n      swap1\n      tag_10\n      swap2\n      swap1\n      tag_11\n      jump\t// in\n    tag_10:\n      tag_12\n      jump\t// in\n    tag_9:\n      mload(0x40)\n      tag_13\n      swap2\n      swap1\n      tag_14\n      jump\t// in\n    tag_13:\n      mload(0x40)\n      dup1\n      swap2\n      sub\n      swap1\n      return\n        /* \"vote.sol\":2015:2318  function getVotes() public view returns (string[] memory, int[] memory) {... */\n    tag_6:\n        /* \"vote.sol\":2056:2071  string[] memory */\n      0x60\n        /* \"vote.sol\":2073:2085  int[] memory */\n      dup1\n        /* \"vote.sol\":2098:2119  int[] memory allVotes */\n      0x00\n        /* \"vote.sol\":2132:2143  votesExists */\n      0x01\n        /* \"vote.sol\":2132:2150  votesExists.length */\n      dup1\n      sload\n      swap1\n      pop\n        /* \"vote.sol\":2122:2151  new int[](votesExists.length) */\n      0xffffffffffffffff\n      dup2\n      gt\n      iszero\n      tag_16\n      jumpi\n      tag_17\n      tag_18\n      jump\t// in\n    tag_17:\n    tag_16:\n      mload(0x40)\n      swap1\n      dup1\n      dup3\n      mstore\n      dup1\n      0x20\n      mul\n      0x20\n      add\n      dup3\n      add\n      0x40\n      mstore\n      dup1\n      iszero\n      tag_19\n      jumpi\n      dup2\n      0x20\n      add\n      0x20\n      dup3\n      mul\n      dup1\n      calldatasize\n      dup4\n      calldatacopy\n      dup1\n      dup3\n      add\n      swap2\n      pop\n      pop\n      swap1\n      pop\n    tag_19:\n      pop\n        /* \"vote.sol\":2098:2151  int[] memory allVotes = new int[](votesExists.length) */\n      swap1\n      pop\n        /* \"vote.sol\":2167:2173  uint i */\n      0x00\n        /* \"vote.sol\":2162:2270  for (uint i = 0; i < votesExists.length; i++) {... */\n    tag_20:\n        /* \"vote.sol\":2183:2194  votesExists */\n      0x01\n        /* \"vote.sol\":2183:2201  votesExists.length */\n      dup1\n      sload\n      swap1\n      pop\n        /* \"vote.sol\":2179:2180  i */\n      dup2\n        /* \"vote.sol\":2179:2201  i < votesExists.length */\n      lt\n        /* \"vote.sol\":2162:2270  for (uint i = 0; i < votesExists.length; i++) {... */\n      iszero\n      tag_21\n      jumpi\n        /* \"vote.sol\":2237:2242  votes */\n      0x00\n        /* \"vote.sol\":2243:2254  votesExists */\n      0x01\n        /* \"vote.sol\":2255:2256  i */\n      dup3\n        /* \"vote.sol\":2243:2257  votesExists[i] */\n      dup2\n      sload\n      dup2\n      lt\n      tag_23\n      jumpi\n      tag_24\n      tag_25\n      jump\t// in\n    tag_24:\n    tag_23:\n      swap1\n      0x00\n      mstore\n      keccak256(0x00, 0x20)\n      add\n        /* \"vote.sol\":2237:2258  votes[votesExists[i]] */\n      mload(0x40)\n      tag_27\n      swap2\n      swap1\n      tag_28\n      jump\t// in\n    tag_27:\n      swap1\n      dup2\n      mstore\n      0x20\n      add\n      mload(0x40)\n      dup1\n      swap2\n      sub\n      swap1\n      keccak256\n      sload\n        /* \"vote.sol\":2223:2231  allVotes */\n      dup3\n        /* \"vote.sol\":2232:2233  i */\n      dup3\n        /* \"vote.sol\":2223:2234  allVotes[i] */\n      dup2\n      mload\n      dup2\n      lt\n      tag_29\n      jumpi\n      tag_30\n      tag_25\n      jump\t// in\n    tag_30:\n    tag_29:\n      0x20\n      mul\n      0x20\n      add\n      add\n        /* \"vote.sol\":2223:2258  allVotes[i] = votes[votesExists[i]] */\n      dup2\n      dup2\n      mstore\n      pop\n      pop\n        /* \"vote.sol\":2203:2206  i++ */\n      dup1\n      dup1\n      0x01\n      add\n      swap2\n      pop\n      pop\n        /* \"vote.sol\":2162:2270  for (uint i = 0; i < votesExists.length; i++) {... */\n      jump(tag_20)\n    tag_21:\n      pop\n        /* \"vote.sol\":2288:2299  votesExists */\n      0x01\n        /* \"vote.sol\":2301:2309  allVotes */\n      dup2\n        /* \"vote.sol\":2280:2310  return (votesExists, allVotes) */\n      dup2\n      dup1\n      sload\n      dup1\n      0x20\n      mul\n      0x20\n      add\n      mload(0x40)\n      swap1\n      dup2\n      add\n      0x40\n      mstore\n      dup1\n      swap3\n      swap2\n      swap1\n      dup2\n      dup2\n      mstore\n      0x20\n      add\n      0x00\n      swap1\n    tag_31:\n      dup3\n      dup3\n      lt\n      iszero\n      tag_32\n      jumpi\n      dup4\n      dup3\n      swap1\n      0x00\n      mstore\n      keccak256(0x00, 0x20)\n      add\n      dup1\n      sload\n      tag_34\n      swap1\n      tag_35\n      jump\t// in\n    tag_34:\n      dup1\n      0x1f\n      add\n      0x20\n      dup1\n      swap2\n      div\n      mul\n      0x20\n      add\n      mload(0x40)\n      swap1\n      dup2\n      add\n      0x40\n      mstore\n      dup1\n      swap3\n      swap2\n      swap1\n      dup2\n      dup2\n      mstore\n      0x20\n      add\n      dup3\n      dup1\n      sload\n      tag_36\n      swap1\n      tag_35\n      jump\t// in\n    tag_36:\n      dup1\n      iszero\n      tag_37\n      jumpi\n      dup1\n      0x1f\n      lt\n      tag_38\n      jumpi\n      0x0100\n      dup1\n      dup4\n      sload\n      div\n      mul\n      dup4\n      mstore\n      swap2\n      0x20\n      add\n      swap2\n      jump(tag_37)\n    tag_38:\n      dup3\n      add\n      swap2\n      swap1\n      0x00\n      mstore\n      keccak256(0x00, 0x20)\n      swap1\n    tag_39:\n      dup2\n      sload\n      dup2\n      mstore\n      swap1\n      0x01\n      add\n      swap1\n      0x20\n      add\n      dup1\n      dup4\n      gt\n      tag_39\n      jumpi\n      dup3\n      swap1\n      sub\n      0x1f\n      and\n      dup3\n      add\n      swap2\n    tag_37:\n      pop\n      pop\n      pop\n      pop\n      pop\n      dup2\n      mstore\n      0x20\n      add\n      swap1\n      0x01\n      add\n      swap1\n      jump(tag_31)\n    tag_32:\n      pop\n      pop\n      pop\n      pop\n      swap2\n      pop\n      swap3\n      pop\n      swap3\n      pop\n      pop\n        /* \"vote.sol\":2015:2318  function getVotes() public view returns (string[] memory, int[] memory) {... */\n      swap1\n      swap2\n      jump\t// out\n        /* \"vote.sol\":1258:1956  function vote(string memory Message,... */\n    tag_12:\n        /* \"vote.sol\":1401:1414  string memory */\n      0x60\n        /* \"vote.sol\":1432:1441  RsaVerify */\n      linkerSymbol(\"e231e4c09a57f4229a7d07a317ef2026bc81c5ad26c59edac8550ea39ed0a7eb\")\n        /* \"vote.sol\":1432:1456  RsaVerify.pkcs1Sha256Raw */\n      0x1e8dc888\n        /* \"vote.sol\":1463:1470  Message */\n      dup6\n        /* \"vote.sol\":1473:1495  fromHex(_hexSignature) */\n      tag_41\n        /* \"vote.sol\":1481:1494  _hexSignature */\n      dup7\n        /* \"vote.sol\":1473:1480  fromHex */\n      tag_42\n        /* \"vote.sol\":1473:1495  fromHex(_hexSignature) */\n      jump\t// in\n    tag_41:\n        /* \"vote.sol\":1497:1514  fromHex(exponent) */\n      tag_43\n        /* \"vote.sol\":1505:1513  exponent */\n      0x03\n        /* \"vote.sol\":1497:1514  fromHex(exponent) */\n      dup1\n      sload\n      tag_44\n      swap1\n      tag_35\n      jump\t// in\n    tag_44:\n      dup1\n      0x1f\n      add\n      0x20\n      dup1\n      swap2\n      div\n      mul\n      0x20\n      add\n      mload(0x40)\n      swap1\n      dup2\n      add\n      0x40\n      mstore\n      dup1\n      swap3\n      swap2\n      swap1\n      dup2\n      dup2\n      mstore\n      0x20\n      add\n      dup3\n      dup1\n      sload\n      tag_45\n      swap1\n      tag_35\n      jump\t// in\n    tag_45:\n      dup1\n      iszero\n      tag_46\n      jumpi\n      dup1\n      0x1f\n      lt\n      tag_47\n      jumpi\n      0x0100\n      dup1\n      dup4\n      sload\n      div\n      mul\n      dup4\n      mstore\n      swap2\n      0x20\n      add\n      swap2\n      jump(tag_46)\n    tag_47:\n      dup3\n      add\n      swap2\n      swap1\n      0x00\n      mstore\n      keccak256(0x00, 0x20)\n      swap1\n    tag_48:\n      dup2\n      sload\n      dup2\n      mstore\n      swap1\n      0x01\n      add\n      swap1\n      0x20\n      add\n      dup1\n      dup4\n      gt\n      tag_48\n      jumpi\n      dup3\n      swap1\n      sub\n      0x1f\n      and\n      dup3\n      add\n      swap2\n    tag_46:\n      pop\n      pop\n      pop\n      pop\n      pop\n        /* \"vote.sol\":1497:1504  fromHex */\n      tag_42\n        /* \"vote.sol\":1497:1514  fromHex(exponent) */\n      jump\t// in\n    tag_43:\n        /* \"vote.sol\":1516:1536  fromHex(_hexModulus) */\n      tag_49\n        /* \"vote.sol\":1524:1535  _hexModulus */\n      dup8\n        /* \"vote.sol\":1516:1523  fromHex */\n      tag_42\n        /* \"vote.sol\":1516:1536  fromHex(_hexModulus) */\n      jump\t// in\n    tag_49:\n        /* \"vote.sol\":1432:1537  RsaVerify.pkcs1Sha256Raw(bytes(Message), fromHex(_hexSignature), fromHex(exponent), fromHex(_hexModulus)) */\n      mload(0x40)\n      dup6\n      0xffffffff\n      and\n      0xe0\n      shl\n      dup2\n      mstore\n      0x04\n      add\n      tag_50\n      swap5\n      swap4\n      swap3\n      swap2\n      swap1\n      tag_51\n      jump\t// in\n    tag_50:\n      0x20\n      mload(0x40)\n      dup1\n      dup4\n      sub\n      dup2\n      dup7\n      gas\n      delegatecall\n      iszero\n      dup1\n      iszero\n      tag_53\n      jumpi\n      returndatasize\n      0x00\n      dup1\n      returndatacopy\n      revert(0x00, returndatasize)\n    tag_53:\n      pop\n      pop\n      pop\n      pop\n      mload(0x40)\n      returndatasize\n      not(0x1f)\n      0x1f\n      dup3\n      add\n      and\n      dup3\n      add\n      dup1\n      0x40\n      mstore\n      pop\n      dup2\n      add\n      swap1\n      tag_54\n      swap2\n      swap1\n      tag_55\n      jump\t// in\n    tag_54:\n        /* \"vote.sol\":1429:1950  if(RsaVerify.pkcs1Sha256Raw(bytes(Message), fromHex(_hexSignature), fromHex(exponent), fromHex(_hexModulus))){... */\n      iszero\n      tag_56\n      jumpi\n        /* \"vote.sol\":1556:1576  isVoteExist(Message) */\n      tag_57\n        /* \"vote.sol\":1568:1575  Message */\n      dup5\n        /* \"vote.sol\":1556:1567  isVoteExist */\n      tag_58\n        /* \"vote.sol\":1556:1576  isVoteExist(Message) */\n      jump\t// in\n    tag_57:\n        /* \"vote.sol\":1556:1608  isVoteExist(Message) && !isModulusExist(_hexModulus) */\n      dup1\n      iszero\n      tag_59\n      jumpi\n      pop\n        /* \"vote.sol\":1581:1608  isModulusExist(_hexModulus) */\n      tag_60\n        /* \"vote.sol\":1596:1607  _hexModulus */\n      dup3\n        /* \"vote.sol\":1581:1595  isModulusExist */\n      tag_61\n        /* \"vote.sol\":1581:1608  isModulusExist(_hexModulus) */\n      jump\t// in\n    tag_60:\n        /* \"vote.sol\":1580:1608  !isModulusExist(_hexModulus) */\n      iszero\n        /* \"vote.sol\":1556:1608  isVoteExist(Message) && !isModulusExist(_hexModulus) */\n    tag_59:\n        /* \"vote.sol\":1553:1865  if(isVoteExist(Message) && !isModulusExist(_hexModulus)){... */\n      iszero\n      tag_62\n      jumpi\n        /* \"vote.sol\":1646:1647  1 */\n      0x01\n        /* \"vote.sol\":1628:1633  votes */\n      0x00\n        /* \"vote.sol\":1634:1641  Message */\n      dup6\n        /* \"vote.sol\":1628:1642  votes[Message] */\n      mload(0x40)\n      tag_63\n      swap2\n      swap1\n      tag_64\n      jump\t// in\n    tag_63:\n      swap1\n      dup2\n      mstore\n      0x20\n      add\n      mload(0x40)\n      dup1\n      swap2\n      sub\n      swap1\n      keccak256\n      0x00\n        /* \"vote.sol\":1628:1647  votes[Message] += 1 */\n      dup3\n      dup3\n      sload\n      tag_65\n      swap2\n      swap1\n      tag_66\n      jump\t// in\n    tag_65:\n      swap3\n      pop\n      pop\n      dup2\n      swap1\n      sstore\n      pop\n        /* \"vote.sol\":1553:1865  if(isVoteExist(Message) && !isModulusExist(_hexModulus)){... */\n      jump(tag_67)\n    tag_62:\n        /* \"vote.sol\":1689:1716  isModulusExist(_hexModulus) */\n      tag_68\n        /* \"vote.sol\":1704:1715  _hexModulus */\n      dup3\n        /* \"vote.sol\":1689:1703  isModulusExist */\n      tag_61\n        /* \"vote.sol\":1689:1716  isModulusExist(_hexModulus) */\n      jump\t// in\n    tag_68:\n        /* \"vote.sol\":1682:1865  if (  !isModulusExist(_hexModulus)) {... */\n      tag_69\n      jumpi\n        /* \"vote.sol\":1754:1755  1 */\n      0x01\n        /* \"vote.sol\":1737:1742  votes */\n      0x00\n        /* \"vote.sol\":1743:1750  Message */\n      dup6\n        /* \"vote.sol\":1737:1751  votes[Message] */\n      mload(0x40)\n      tag_70\n      swap2\n      swap1\n      tag_64\n      jump\t// in\n    tag_70:\n      swap1\n      dup2\n      mstore\n      0x20\n      add\n      mload(0x40)\n      dup1\n      swap2\n      sub\n      swap1\n      keccak256\n        /* \"vote.sol\":1737:1755  votes[Message] = 1 */\n      dup2\n      swap1\n      sstore\n      pop\n        /* \"vote.sol\":1774:1787  voted_modulus */\n      0x02\n        /* \"vote.sol\":1793:1804  _hexModulus */\n      dup3\n        /* \"vote.sol\":1774:1805  voted_modulus.push(_hexModulus) */\n      swap1\n      dup1\n      0x01\n      dup2\n      sload\n      add\n      dup1\n      dup3\n      sstore\n      dup1\n      swap2\n      pop\n      pop\n      0x01\n      swap1\n      sub\n      swap1\n      0x00\n      mstore\n      keccak256(0x00, 0x20)\n      add\n      0x00\n      swap1\n      swap2\n      swap1\n      swap2\n      swap1\n      swap2\n      pop\n      swap1\n      dup2\n      tag_72\n      swap2\n      swap1\n      tag_73\n      jump\t// in\n    tag_72:\n      pop\n        /* \"vote.sol\":1824:1835  votesExists */\n      0x01\n        /* \"vote.sol\":1841:1848  Message */\n      dup5\n        /* \"vote.sol\":1824:1849  votesExists.push(Message) */\n      swap1\n      dup1\n      0x01\n      dup2\n      sload\n      add\n      dup1\n      dup3\n      sstore\n      dup1\n      swap2\n      pop\n      pop\n      0x01\n      swap1\n      sub\n      swap1\n      0x00\n      mstore\n      keccak256(0x00, 0x20)\n      add\n      0x00\n      swap1\n      swap2\n      swap1\n      swap2\n      swap1\n      swap2\n      pop\n      swap1\n      dup2\n      tag_75\n      swap2\n      swap1\n      tag_73\n      jump\t// in\n    tag_75:\n      pop\n        /* \"vote.sol\":1682:1865  if (  !isModulusExist(_hexModulus)) {... */\n    tag_69:\n        /* \"vote.sol\":1553:1865  if(isVoteExist(Message) && !isModulusExist(_hexModulus)){... */\n    tag_67:\n        /* \"vote.sol\":1879:1890  return \"OK\" */\n      mload(0x40)\n      dup1\n      0x40\n      add\n      0x40\n      mstore\n      dup1\n      0x02\n      dup2\n      mstore\n      0x20\n      add\n      0x4f4b000000000000000000000000000000000000000000000000000000000000\n      dup2\n      mstore\n      pop\n      swap1\n      pop\n      jump(tag_40)\n        /* \"vote.sol\":1429:1950  if(RsaVerify.pkcs1Sha256Raw(bytes(Message), fromHex(_hexSignature), fromHex(exponent), fromHex(_hexModulus))){... */\n    tag_56:\n        /* \"vote.sol\":1923:1938  return \"Not OK\" */\n      mload(0x40)\n      dup1\n      0x40\n      add\n      0x40\n      mstore\n      dup1\n      0x06\n      dup2\n      mstore\n      0x20\n      add\n      0x4e6f74204f4b0000000000000000000000000000000000000000000000000000\n      dup2\n      mstore\n      pop\n      swap1\n      pop\n        /* \"vote.sol\":1258:1956  function vote(string memory Message,... */\n    tag_40:\n      swap4\n      swap3\n      pop\n      pop\n      pop\n      jump\t// out\n        /* \"vote.sol\":2923:3342  function fromHex(string memory s) private pure returns (bytes memory) {... */\n    tag_42:\n        /* \"vote.sol\":2979:2991  bytes memory */\n      0x60\n        /* \"vote.sol\":3004:3019  bytes memory ss */\n      0x00\n        /* \"vote.sol\":3028:3029  s */\n      dup3\n        /* \"vote.sol\":3004:3030  bytes memory ss = bytes(s) */\n      swap1\n      pop\n        /* \"vote.sol\":3064:3065  0 */\n      0x00\n        /* \"vote.sol\":3059:3060  2 */\n      0x02\n        /* \"vote.sol\":3049:3051  ss */\n      dup3\n        /* \"vote.sol\":3049:3058  ss.length */\n      mload\n        /* \"vote.sol\":3049:3060  ss.length%2 */\n      tag_78\n      swap2\n      swap1\n      tag_79\n      jump\t// in\n    tag_78:\n        /* \"vote.sol\":3049:3065  ss.length%2 == 0 */\n      eq\n        /* \"vote.sol\":3041:3066  require(ss.length%2 == 0) */\n      tag_80\n      jumpi\n      0x00\n      dup1\n      revert\n    tag_80:\n        /* \"vote.sol\":3100:3114  bytes memory r */\n      0x00\n        /* \"vote.sol\":3137:3138  2 */\n      0x02\n        /* \"vote.sol\":3127:3129  ss */\n      dup3\n        /* \"vote.sol\":3127:3136  ss.length */\n      mload\n        /* \"vote.sol\":3127:3138  ss.length/2 */\n      tag_81\n      swap2\n      swap1\n      tag_82\n      jump\t// in\n    tag_81:\n        /* \"vote.sol\":3117:3139  new bytes(ss.length/2) */\n      0xffffffffffffffff\n      dup2\n      gt\n      iszero\n      tag_83\n      jumpi\n      tag_84\n      tag_18\n      jump\t// in\n    tag_84:\n    tag_83:\n      mload(0x40)\n      swap1\n      dup1\n      dup3\n      mstore\n      dup1\n      0x1f\n      add\n      not(0x1f)\n      and\n      0x20\n      add\n      dup3\n      add\n      0x40\n      mstore\n      dup1\n      iszero\n      tag_85\n      jumpi\n      dup2\n      0x20\n      add\n      0x01\n      dup3\n      mul\n      dup1\n      calldatasize\n      dup4\n      calldatacopy\n      dup1\n      dup3\n      add\n      swap2\n      pop\n      pop\n      swap1\n      pop\n    tag_85:\n      pop\n        /* \"vote.sol\":3100:3139  bytes memory r = new bytes(ss.length/2) */\n      swap1\n      pop\n        /* \"vote.sol\":3155:3161  uint i */\n      0x00\n        /* \"vote.sol\":3150:3316  for (uint i=0; i<ss.length/2; ++i) {... */\n    tag_86:\n        /* \"vote.sol\":3177:3178  2 */\n      0x02\n        /* \"vote.sol\":3167:3169  ss */\n      dup4\n        /* \"vote.sol\":3167:3176  ss.length */\n      mload\n        /* \"vote.sol\":3167:3178  ss.length/2 */\n      tag_89\n      swap2\n      swap1\n      tag_82\n      jump\t// in\n    tag_89:\n        /* \"vote.sol\":3165:3166  i */\n      dup2\n        /* \"vote.sol\":3165:3178  i<ss.length/2 */\n      lt\n        /* \"vote.sol\":3150:3316  for (uint i=0; i<ss.length/2; ++i) {... */\n      iszero\n      tag_87\n      jumpi\n        /* \"vote.sol\":3274:3303  fromHexChar(uint8(ss[2*i+1])) */\n      tag_90\n        /* \"vote.sol\":3292:3294  ss */\n      dup4\n        /* \"vote.sol\":3299:3300  1 */\n      0x01\n        /* \"vote.sol\":3297:3298  i */\n      dup4\n        /* \"vote.sol\":3295:3296  2 */\n      0x02\n        /* \"vote.sol\":3295:3298  2*i */\n      tag_91\n      swap2\n      swap1\n      tag_92\n      jump\t// in\n    tag_91:\n        /* \"vote.sol\":3295:3300  2*i+1 */\n      tag_93\n      swap2\n      swap1\n      tag_94\n      jump\t// in\n    tag_93:\n        /* \"vote.sol\":3292:3301  ss[2*i+1] */\n      dup2\n      mload\n      dup2\n      lt\n      tag_95\n      jumpi\n      tag_96\n      tag_25\n      jump\t// in\n    tag_96:\n    tag_95:\n      0x20\n      add\n      add\n      mload\n      0xf8\n      shr\n      0xf8\n      shl\n        /* \"vote.sol\":3286:3302  uint8(ss[2*i+1]) */\n      0xf8\n      shr\n        /* \"vote.sol\":3274:3285  fromHexChar */\n      tag_97\n        /* \"vote.sol\":3274:3303  fromHexChar(uint8(ss[2*i+1])) */\n      jump\t// in\n    tag_90:\n        /* \"vote.sol\":3244:3246  16 */\n      0x10\n        /* \"vote.sol\":3214:3241  fromHexChar(uint8(ss[2*i])) */\n      tag_98\n        /* \"vote.sol\":3232:3234  ss */\n      dup6\n        /* \"vote.sol\":3237:3238  i */\n      dup5\n        /* \"vote.sol\":3235:3236  2 */\n      0x02\n        /* \"vote.sol\":3235:3238  2*i */\n      tag_99\n      swap2\n      swap1\n      tag_92\n      jump\t// in\n    tag_99:\n        /* \"vote.sol\":3232:3239  ss[2*i] */\n      dup2\n      mload\n      dup2\n      lt\n      tag_100\n      jumpi\n      tag_101\n      tag_25\n      jump\t// in\n    tag_101:\n    tag_100:\n      0x20\n      add\n      add\n      mload\n      0xf8\n      shr\n      0xf8\n      shl\n        /* \"vote.sol\":3226:3240  uint8(ss[2*i]) */\n      0xf8\n      shr\n        /* \"vote.sol\":3214:3225  fromHexChar */\n      tag_97\n        /* \"vote.sol\":3214:3241  fromHexChar(uint8(ss[2*i])) */\n      jump\t// in\n    tag_98:\n        /* \"vote.sol\":3214:3246  fromHexChar(uint8(ss[2*i])) * 16 */\n      tag_102\n      swap2\n      swap1\n      tag_103\n      jump\t// in\n    tag_102:\n        /* \"vote.sol\":3214:3303  fromHexChar(uint8(ss[2*i])) * 16 +... */\n      tag_104\n      swap2\n      swap1\n      tag_105\n      jump\t// in\n    tag_104:\n        /* \"vote.sol\":3207:3304  bytes1(fromHexChar(uint8(ss[2*i])) * 16 +... */\n      0xf8\n      shl\n        /* \"vote.sol\":3200:3201  r */\n      dup3\n        /* \"vote.sol\":3202:3203  i */\n      dup3\n        /* \"vote.sol\":3200:3204  r[i] */\n      dup2\n      mload\n      dup2\n      lt\n      tag_106\n      jumpi\n      tag_107\n      tag_25\n      jump\t// in\n    tag_107:\n    tag_106:\n      0x20\n      add\n      add\n        /* \"vote.sol\":3200:3304  r[i] = bytes1(fromHexChar(uint8(ss[2*i])) * 16 +... */\n      swap1\n      not(0xffffffffffffffffffffffffffffffffffffffffffffffffffffffffffffff)\n      and\n      swap1\n      dup2\n      0x00\n      byte\n      swap1\n      mstore8\n      pop\n        /* \"vote.sol\":3180:3183  ++i */\n      dup1\n      0x01\n      add\n      swap1\n      pop\n        /* \"vote.sol\":3150:3316  for (uint i=0; i<ss.length/2; ++i) {... */\n      jump(tag_86)\n    tag_87:\n      pop\n        /* \"vote.sol\":3333:3334  r */\n      dup1\n        /* \"vote.sol\":3326:3334  return r */\n      swap3\n      pop\n      pop\n      pop\n        /* \"vote.sol\":2923:3342  function fromHex(string memory s) private pure returns (bytes memory) {... */\n      swap2\n      swap1\n      pop\n      jump\t// out\n        /* \"vote.sol\":612:926  function isVoteExist(string memory _str) private view returns (bool) {... */\n    tag_58:\n        /* \"vote.sol\":675:679  bool */\n      0x00\n        /* \"vote.sol\":697:703  uint i */\n      dup1\n        /* \"vote.sol\":706:707  0 */\n      0x00\n        /* \"vote.sol\":697:707  uint i = 0 */\n      swap1\n      pop\n        /* \"vote.sol\":692:896  for (uint i = 0; i < votesExists.length; i++) {... */\n    tag_109:\n        /* \"vote.sol\":713:724  votesExists */\n      0x01\n        /* \"vote.sol\":713:731  votesExists.length */\n      dup1\n      sload\n      swap1\n      pop\n        /* \"vote.sol\":709:710  i */\n      dup2\n        /* \"vote.sol\":709:731  i < votesExists.length */\n      lt\n        /* \"vote.sol\":692:896  for (uint i = 0; i < votesExists.length; i++) {... */\n      iszero\n      tag_110\n      jumpi\n        /* \"vote.sol\":831:835  _str */\n      dup3\n        /* \"vote.sol\":814:836  abi.encodePacked(_str) */\n      add(0x20, mload(0x40))\n      tag_112\n      swap2\n      swap1\n      tag_64\n      jump\t// in\n    tag_112:\n      mload(0x40)\n      0x20\n      dup2\n      dup4\n      sub\n      sub\n      dup2\n      mstore\n      swap1\n      0x40\n      mstore\n        /* \"vote.sol\":804:837  keccak256(abi.encodePacked(_str)) */\n      dup1\n      mload\n      swap1\n      0x20\n      add\n      keccak256\n        /* \"vote.sol\":784:795  votesExists */\n      0x01\n        /* \"vote.sol\":796:797  i */\n      dup3\n        /* \"vote.sol\":784:798  votesExists[i] */\n      dup2\n      sload\n      dup2\n      lt\n      tag_113\n      jumpi\n      tag_114\n      tag_25\n      jump\t// in\n    tag_114:\n    tag_113:\n      swap1\n      0x00\n      mstore\n      keccak256(0x00, 0x20)\n      add\n        /* \"vote.sol\":767:799  abi.encodePacked(votesExists[i]) */\n      add(0x20, mload(0x40))\n      tag_116\n      swap2\n      swap1\n      tag_28\n      jump\t// in\n    tag_116:\n      mload(0x40)\n      0x20\n      dup2\n      dup4\n      sub\n      sub\n      dup2\n      mstore\n      swap1\n      0x40\n      mstore\n        /* \"vote.sol\":757:800  keccak256(abi.encodePacked(votesExists[i])) */\n      dup1\n      mload\n      swap1\n      0x20\n      add\n      keccak256\n        /* \"vote.sol\":757:837  keccak256(abi.encodePacked(votesExists[i])) == keccak256(abi.encodePacked(_str)) */\n      sub\n        /* \"vote.sol\":753:885  if (keccak256(abi.encodePacked(votesExists[i])) == keccak256(abi.encodePacked(_str))) {... */\n      tag_117\n      jumpi\n        /* \"vote.sol\":865:869  true */\n      0x01\n        /* \"vote.sol\":858:869  return true */\n      swap2\n      pop\n      pop\n      jump(tag_108)\n        /* \"vote.sol\":753:885  if (keccak256(abi.encodePacked(votesExists[i])) == keccak256(abi.encodePacked(_str))) {... */\n    tag_117:\n        /* \"vote.sol\":733:736  i++ */\n      dup1\n      dup1\n      0x01\n      add\n      swap2\n      pop\n      pop\n        /* \"vote.sol\":692:896  for (uint i = 0; i < votesExists.length; i++) {... */\n      jump(tag_109)\n    tag_110:\n      pop\n        /* \"vote.sol\":913:918  false */\n      0x00\n        /* \"vote.sol\":906:918  return false */\n      swap1\n      pop\n        /* \"vote.sol\":612:926  function isVoteExist(string memory _str) private view returns (bool) {... */\n    tag_108:\n      swap2\n      swap1\n      pop\n      jump\t// out\n        /* \"vote.sol\":932:1251  function isModulusExist(string memory _str) private view returns (bool) {... */\n    tag_61:\n        /* \"vote.sol\":998:1002  bool */\n      0x00\n        /* \"vote.sol\":1020:1026  uint i */\n      dup1\n        /* \"vote.sol\":1029:1030  0 */\n      0x00\n        /* \"vote.sol\":1020:1030  uint i = 0 */\n      swap1\n      pop\n        /* \"vote.sol\":1015:1221  for (uint i = 0; i < votesExists.length; i++) {... */\n    tag_119:\n        /* \"vote.sol\":1036:1047  votesExists */\n      0x01\n        /* \"vote.sol\":1036:1054  votesExists.length */\n      dup1\n      sload\n      swap1\n      pop\n        /* \"vote.sol\":1032:1033  i */\n      dup2\n        /* \"vote.sol\":1032:1054  i < votesExists.length */\n      lt\n        /* \"vote.sol\":1015:1221  for (uint i = 0; i < votesExists.length; i++) {... */\n      iszero\n      tag_120\n      jumpi\n        /* \"vote.sol\":1156:1160  _str */\n      dup3\n        /* \"vote.sol\":1139:1161  abi.encodePacked(_str) */\n      add(0x20, mload(0x40))\n      tag_122\n      swap2\n      swap1\n      tag_64\n      jump\t// in\n    tag_122:\n      mload(0x40)\n      0x20\n      dup2\n      dup4\n      sub\n      sub\n      dup2\n      mstore\n      swap1\n      0x40\n      mstore\n        /* \"vote.sol\":1129:1162  keccak256(abi.encodePacked(_str)) */\n      dup1\n      mload\n      swap1\n      0x20\n      add\n      keccak256\n        /* \"vote.sol\":1107:1120  voted_modulus */\n      0x02\n        /* \"vote.sol\":1121:1122  i */\n      dup3\n        /* \"vote.sol\":1107:1123  voted_modulus[i] */\n      dup2\n      sload\n      dup2\n      lt\n      tag_123\n      jumpi\n      tag_124\n      tag_25\n      jump\t// in\n    tag_124:\n    tag_123:\n      swap1\n      0x00\n      mstore\n      keccak256(0x00, 0x20)\n      add\n        /* \"vote.sol\":1090:1124  abi.encodePacked(voted_modulus[i]) */\n      add(0x20, mload(0x40))\n      tag_126\n      swap2\n      swap1\n      tag_28\n      jump\t// in\n    tag_126:\n      mload(0x40)\n      0x20\n      dup2\n      dup4\n      sub\n      sub\n      dup2\n      mstore\n      swap1\n      0x40\n      mstore\n        /* \"vote.sol\":1080:1125  keccak256(abi.encodePacked(voted_modulus[i])) */\n      dup1\n      mload\n      swap1\n      0x20\n      add\n      keccak256\n        /* \"vote.sol\":1080:1162  keccak256(abi.encodePacked(voted_modulus[i])) == keccak256(abi.encodePacked(_str)) */\n      sub\n        /* \"vote.sol\":1076:1210  if (keccak256(abi.encodePacked(voted_modulus[i])) == keccak256(abi.encodePacked(_str))) {... */\n      tag_127\n      jumpi\n        /* \"vote.sol\":1190:1194  true */\n      0x01\n        /* \"vote.sol\":1183:1194  return true */\n      swap2\n      pop\n      pop\n      jump(tag_118)\n        /* \"vote.sol\":1076:1210  if (keccak256(abi.encodePacked(voted_modulus[i])) == keccak256(abi.encodePacked(_str))) {... */\n    tag_127:\n        /* \"vote.sol\":1056:1059  i++ */\n      dup1\n      dup1\n      0x01\n      add\n      swap2\n      pop\n      pop\n        /* \"vote.sol\":1015:1221  for (uint i = 0; i < votesExists.length; i++) {... */\n      jump(tag_119)\n    tag_120:\n      pop\n        /* \"vote.sol\":1238:1243  false */\n      0x00\n        /* \"vote.sol\":1231:1243  return false */\n      swap1\n      pop\n        /* \"vote.sol\":932:1251  function isModulusExist(string memory _str) private view returns (bool) {... */\n    tag_118:\n      swap2\n      swap1\n      pop\n      jump\t// out\n        /* \"vote.sol\":2386:2860  function fromHexChar(uint8 c) private pure returns (uint8) {... */\n    tag_97:\n        /* \"vote.sol\":2438:2443  uint8 */\n      0x00\n        /* \"vote.sol\":2473:2484  bytes1('0') */\n      0x3000000000000000000000000000000000000000000000000000000000000000\n        /* \"vote.sol\":2460:2484  bytes1(c) >= bytes1('0') */\n      not(0xffffffffffffffffffffffffffffffffffffffffffffffffffffffffffffff)\n      and\n        /* \"vote.sol\":2467:2468  c */\n      dup3\n        /* \"vote.sol\":2460:2469  bytes1(c) */\n      0xf8\n      shl\n        /* \"vote.sol\":2460:2484  bytes1(c) >= bytes1('0') */\n      not(0xffffffffffffffffffffffffffffffffffffffffffffffffffffffffffffff)\n      and\n      lt\n      iszero\n        /* \"vote.sol\":2460:2512  bytes1(c) >= bytes1('0') && bytes1(c) <= bytes1('9') */\n      dup1\n      iszero\n      tag_129\n      jumpi\n      pop\n        /* \"vote.sol\":2501:2512  bytes1('9') */\n      0x3900000000000000000000000000000000000000000000000000000000000000\n        /* \"vote.sol\":2488:2512  bytes1(c) <= bytes1('9') */\n      not(0xffffffffffffffffffffffffffffffffffffffffffffffffffffffffffffff)\n      and\n        /* \"vote.sol\":2495:2496  c */\n      dup3\n        /* \"vote.sol\":2488:2497  bytes1(c) */\n      0xf8\n      shl\n        /* \"vote.sol\":2488:2512  bytes1(c) <= bytes1('9') */\n      not(0xffffffffffffffffffffffffffffffffffffffffffffffffffffffffffffff)\n      and\n      gt\n      iszero\n        /* \"vote.sol\":2460:2512  bytes1(c) >= bytes1('0') && bytes1(c) <= bytes1('9') */\n    tag_129:\n        /* \"vote.sol\":2456:2570  if (bytes1(c) >= bytes1('0') && bytes1(c) <= bytes1('9')) {... */\n      iszero\n      tag_130\n      jumpi\n        /* \"vote.sol\":2546:2557  bytes1('0') */\n      0x3000000000000000000000000000000000000000000000000000000000000000\n        /* \"vote.sol\":2540:2558  uint8(bytes1('0')) */\n      0xf8\n      shr\n        /* \"vote.sol\":2536:2537  c */\n      dup3\n        /* \"vote.sol\":2536:2558  c - uint8(bytes1('0')) */\n      tag_131\n      swap2\n      swap1\n      tag_132\n      jump\t// in\n    tag_131:\n        /* \"vote.sol\":2529:2558  return c - uint8(bytes1('0')) */\n      swap1\n      pop\n      jump(tag_128)\n        /* \"vote.sol\":2456:2570  if (bytes1(c) >= bytes1('0') && bytes1(c) <= bytes1('9')) {... */\n    tag_130:\n        /* \"vote.sol\":2597:2608  bytes1('a') */\n      0x6100000000000000000000000000000000000000000000000000000000000000\n        /* \"vote.sol\":2584:2608  bytes1(c) >= bytes1('a') */\n      not(0xffffffffffffffffffffffffffffffffffffffffffffffffffffffffffffff)\n      and\n        /* \"vote.sol\":2591:2592  c */\n      dup3\n        /* \"vote.sol\":2584:2593  bytes1(c) */\n      0xf8\n      shl\n        /* \"vote.sol\":2584:2608  bytes1(c) >= bytes1('a') */\n      not(0xffffffffffffffffffffffffffffffffffffffffffffffffffffffffffffff)\n      and\n      lt\n      iszero\n        /* \"vote.sol\":2584:2636  bytes1(c) >= bytes1('a') && bytes1(c) <= bytes1('f') */\n      dup1\n      iszero\n      tag_133\n      jumpi\n      pop\n        /* \"vote.sol\":2625:2636  bytes1('f') */\n      0x6600000000000000000000000000000000000000000000000000000000000000\n        /* \"vote.sol\":2612:2636  bytes1(c) <= bytes1('f') */\n      not(0xffffffffffffffffffffffffffffffffffffffffffffffffffffffffffffff)\n      and\n        /* \"vote.sol\":2619:2620  c */\n      dup3\n        /* \"vote.sol\":2612:2621  bytes1(c) */\n      0xf8\n      shl\n        /* \"vote.sol\":2612:2636  bytes1(c) <= bytes1('f') */\n      not(0xffffffffffffffffffffffffffffffffffffffffffffffffffffffffffffff)\n      and\n      gt\n      iszero\n        /* \"vote.sol\":2584:2636  bytes1(c) >= bytes1('a') && bytes1(c) <= bytes1('f') */\n    tag_133:\n        /* \"vote.sol\":2580:2699  if (bytes1(c) >= bytes1('a') && bytes1(c) <= bytes1('f')) {... */\n      iszero\n      tag_134\n      jumpi\n        /* \"vote.sol\":2675:2686  bytes1('a') */\n      0x6100000000000000000000000000000000000000000000000000000000000000\n        /* \"vote.sol\":2669:2687  uint8(bytes1('a')) */\n      0xf8\n      shr\n        /* \"vote.sol\":2665:2666  c */\n      dup3\n        /* \"vote.sol\":2660:2662  10 */\n      0x0a\n        /* \"vote.sol\":2660:2666  10 + c */\n      tag_135\n      swap2\n      swap1\n      tag_105\n      jump\t// in\n    tag_135:\n        /* \"vote.sol\":2660:2687  10 + c - uint8(bytes1('a')) */\n      tag_136\n      swap2\n      swap1\n      tag_132\n      jump\t// in\n    tag_136:\n        /* \"vote.sol\":2653:2687  return 10 + c - uint8(bytes1('a')) */\n      swap1\n      pop\n      jump(tag_128)\n        /* \"vote.sol\":2580:2699  if (bytes1(c) >= bytes1('a') && bytes1(c) <= bytes1('f')) {... */\n    tag_134:\n        /* \"vote.sol\":2726:2737  bytes1('A') */\n      0x4100000000000000000000000000000000000000000000000000000000000000\n        /* \"vote.sol\":2713:2737  bytes1(c) >= bytes1('A') */\n      not(0xffffffffffffffffffffffffffffffffffffffffffffffffffffffffffffff)\n      and\n        /* \"vote.sol\":2720:2721  c */\n      dup3\n        /* \"vote.sol\":2713:2722  bytes1(c) */\n      0xf8\n      shl\n        /* \"vote.sol\":2713:2737  bytes1(c) >= bytes1('A') */\n      not(0xffffffffffffffffffffffffffffffffffffffffffffffffffffffffffffff)\n      and\n      lt\n      iszero\n        /* \"vote.sol\":2713:2765  bytes1(c) >= bytes1('A') && bytes1(c) <= bytes1('F') */\n      dup1\n      iszero\n      tag_137\n      jumpi\n      pop\n        /* \"vote.sol\":2754:2765  bytes1('F') */\n      0x4600000000000000000000000000000000000000000000000000000000000000\n        /* \"vote.sol\":2741:2765  bytes1(c) <= bytes1('F') */\n      not(0xffffffffffffffffffffffffffffffffffffffffffffffffffffffffffffff)\n      and\n        /* \"vote.sol\":2748:2749  c */\n      dup3\n        /* \"vote.sol\":2741:2750  bytes1(c) */\n      0xf8\n      shl\n        /* \"vote.sol\":2741:2765  bytes1(c) <= bytes1('F') */\n      not(0xffffffffffffffffffffffffffffffffffffffffffffffffffffffffffffff)\n      and\n      gt\n      iszero\n        /* \"vote.sol\":2713:2765  bytes1(c) >= bytes1('A') && bytes1(c) <= bytes1('F') */\n    tag_137:\n        /* \"vote.sol\":2709:2828  if (bytes1(c) >= bytes1('A') && bytes1(c) <= bytes1('F')) {... */\n      iszero\n      tag_138\n      jumpi\n        /* \"vote.sol\":2804:2815  bytes1('A') */\n      0x4100000000000000000000000000000000000000000000000000000000000000\n        /* \"vote.sol\":2798:2816  uint8(bytes1('A')) */\n      0xf8\n      shr\n        /* \"vote.sol\":2794:2795  c */\n      dup3\n        /* \"vote.sol\":2789:2791  10 */\n      0x0a\n        /* \"vote.sol\":2789:2795  10 + c */\n      tag_139\n      swap2\n      swap1\n      tag_105\n      jump\t// in\n    tag_139:\n        /* \"vote.sol\":2789:2816  10 + c - uint8(bytes1('A')) */\n      tag_140\n      swap2\n      swap1\n      tag_132\n      jump\t// in\n    tag_140:\n        /* \"vote.sol\":2782:2816  return 10 + c - uint8(bytes1('A')) */\n      swap1\n      pop\n      jump(tag_128)\n        /* \"vote.sol\":2709:2828  if (bytes1(c) >= bytes1('A') && bytes1(c) <= bytes1('F')) {... */\n    tag_138:\n        /* \"vote.sol\":2838:2852  revert(\"fail\") */\n      mload(0x40)\n      0x08c379a000000000000000000000000000000000000000000000000000000000\n      dup2\n      mstore\n      0x04\n      add\n      tag_141\n      swap1\n      tag_142\n      jump\t// in\n    tag_141:\n      mload(0x40)\n      dup1\n      swap2\n      sub\n      swap1\n      revert\n        /* \"vote.sol\":2386:2860  function fromHexChar(uint8 c) private pure returns (uint8) {... */\n    tag_128:\n      swap2\n      swap1\n      pop\n      jump\t// out\n        /* \"#utility.yul\":7:131   */\n    tag_143:\n        /* \"#utility.yul\":84:90   */\n      0x00\n        /* \"#utility.yul\":118:123   */\n      dup2\n        /* \"#utility.yul\":112:124   */\n      mload\n        /* \"#utility.yul\":102:124   */\n      swap1\n      pop\n        /* \"#utility.yul\":7:131   */\n      swap2\n      swap1\n      pop\n      jump\t// out\n        /* \"#utility.yul\":137:331   */\n    tag_144:\n        /* \"#utility.yul\":246:257   */\n      0x00\n        /* \"#utility.yul\":280:286   */\n      dup3\n        /* \"#utility.yul\":275:278   */\n      dup3\n        /* \"#utility.yul\":268:287   */\n      mstore\n        /* \"#utility.yul\":320:324   */\n      0x20\n        /* \"#utility.yul\":315:318   */\n      dup3\n        /* \"#utility.yul\":311:325   */\n      add\n        /* \"#utility.yul\":296:325   */\n      swap1\n      pop\n        /* \"#utility.yul\":137:331   */\n      swap3\n      swap2\n      pop\n      pop\n      jump\t// out\n        /* \"#utility.yul\":337:479   */\n    tag_145:\n        /* \"#utility.yul\":414:418   */\n      0x00\n        /* \"#utility.yul\":437:440   */\n      dup2\n        /* \"#utility.yul\":429:440   */\n      swap1\n      pop\n        /* \"#utility.yul\":467:471   */\n      0x20\n        /* \"#utility.yul\":462:465   */\n      dup3\n        /* \"#utility.yul\":458:472   */\n      add\n        /* \"#utility.yul\":450:472   */\n      swap1\n      pop\n        /* \"#utility.yul\":337:479   */\n      swap2\n      swap1\n      pop\n      jump\t// out\n        /* \"#utility.yul\":485:584   */\n    tag_146:\n        /* \"#utility.yul\":537:543   */\n      0x00\n        /* \"#utility.yul\":571:576   */\n      dup2\n        /* \"#utility.yul\":565:577   */\n      mload\n        /* \"#utility.yul\":555:577   */\n      swap1\n      pop\n        /* \"#utility.yul\":485:584   */\n      swap2\n      swap1\n      pop\n      jump\t// out\n        /* \"#utility.yul\":590:749   */\n    tag_147:\n        /* \"#utility.yul\":664:675   */\n      0x00\n        /* \"#utility.yul\":698:704   */\n      dup3\n        /* \"#utility.yul\":693:696   */\n      dup3\n        /* \"#utility.yul\":686:705   */\n      mstore\n        /* \"#utility.yul\":738:742   */\n      0x20\n        /* \"#utility.yul\":733:736   */\n      dup3\n        /* \"#utility.yul\":729:743   */\n      add\n        /* \"#utility.yul\":714:743   */\n      swap1\n      pop\n        /* \"#utility.yul\":590:749   */\n      swap3\n      swap2\n      pop\n      pop\n      jump\t// out\n        /* \"#utility.yul\":755:894   */\n    tag_148:\n        /* \"#utility.yul\":844:850   */\n      dup3\n        /* \"#utility.yul\":839:842   */\n      dup2\n        /* \"#utility.yul\":834:837   */\n      dup4\n        /* \"#utility.yul\":828:851   */\n      mcopy\n        /* \"#utility.yul\":885:886   */\n      0x00\n        /* \"#utility.yul\":876:882   */\n      dup4\n        /* \"#utility.yul\":871:874   */\n      dup4\n        /* \"#utility.yul\":867:883   */\n      add\n        /* \"#utility.yul\":860:887   */\n      mstore\n        /* \"#utility.yul\":755:894   */\n      pop\n      pop\n      pop\n      jump\t// out\n        /* \"#utility.yul\":900:1002   */\n    tag_149:\n        /* \"#utility.yul\":941:947   */\n      0x00\n        /* \"#utility.yul\":992:994   */\n      0x1f\n        /* \"#utility.yul\":988:995   */\n      not\n        /* \"#utility.yul\":983:985   */\n      0x1f\n        /* \"#utility.yul\":976:981   */\n      dup4\n        /* \"#utility.yul\":972:986   */\n      add\n        /* \"#utility.yul\":968:996   */\n      and\n        /* \"#utility.yul\":958:996   */\n      swap1\n      pop\n        /* \"#utility.yul\":900:1002   */\n      swap2\n      swap1\n      pop\n      jump\t// out\n        /* \"#utility.yul\":1008:1365   */\n    tag_150:\n        /* \"#utility.yul\":1086:1089   */\n      0x00\n        /* \"#utility.yul\":1114:1153   */\n      tag_215\n        /* \"#utility.yul\":1147:1152   */\n      dup3\n        /* \"#utility.yul\":1114:1153   */\n      tag_146\n      jump\t// in\n    tag_215:\n        /* \"#utility.yul\":1169:1230   */\n      tag_216\n        /* \"#utility.yul\":1223:1229   */\n      dup2\n        /* \"#utility.yul\":1218:1221   */\n      dup6\n        /* \"#utility.yul\":1169:1230   */\n      tag_147\n      jump\t// in\n    tag_216:\n        /* \"#utility.yul\":1162:1230   */\n      swap4\n      pop\n        /* \"#utility.yul\":1239:1304   */\n      tag_217\n        /* \"#utility.yul\":1297:1303   */\n      dup2\n        /* \"#utility.yul\":1292:1295   */\n      dup6\n        /* \"#utility.yul\":1285:1289   */\n      0x20\n        /* \"#utility.yul\":1278:1283   */\n      dup7\n        /* \"#utility.yul\":1274:1290   */\n      add\n        /* \"#utility.yul\":1239:1304   */\n      tag_148\n      jump\t// in\n    tag_217:\n        /* \"#utility.yul\":1329:1358   */\n      tag_218\n        /* \"#utility.yul\":1351:1357   */\n      dup2\n        /* \"#utility.yul\":1329:1358   */\n      tag_149\n      jump\t// in\n    tag_218:\n        /* \"#utility.yul\":1324:1327   */\n      dup5\n        /* \"#utility.yul\":1320:1359   */\n      add\n        /* \"#utility.yul\":1313:1359   */\n      swap2\n      pop\n        /* \"#utility.yul\":1090:1365   */\n      pop\n        /* \"#utility.yul\":1008:1365   */\n      swap3\n      swap2\n      pop\n      pop\n      jump\t// out\n        /* \"#utility.yul\":1371:1567   */\n    tag_151:\n        /* \"#utility.yul\":1460:1470   */\n      0x00\n        /* \"#utility.yul\":1495:1561   */\n      tag_220\n        /* \"#utility.yul\":1557:1560   */\n      dup4\n        /* \"#utility.yul\":1549:1555   */\n      dup4\n        /* \"#utility.yul\":1495:1561   */\n      tag_150\n      jump\t// in\n    tag_220:\n        /* \"#utility.yul\":1481:1561   */\n      swap1\n      pop\n        /* \"#utility.yul\":1371:1567   */\n      swap3\n      swap2\n      pop\n      pop\n      jump\t// out\n        /* \"#utility.yul\":1573:1696   */\n    tag_152:\n        /* \"#utility.yul\":1653:1657   */\n      0x00\n        /* \"#utility.yul\":1685:1689   */\n      0x20\n        /* \"#utility.yul\":1680:1683   */\n      dup3\n        /* \"#utility.yul\":1676:1690   */\n      add\n        /* \"#utility.yul\":1668:1690   */\n      swap1\n      pop\n        /* \"#utility.yul\":1573:1696   */\n      swap2\n      swap1\n      pop\n      jump\t// out\n        /* \"#utility.yul\":1730:2721   */\n    tag_153:\n        /* \"#utility.yul\":1869:1872   */\n      0x00\n        /* \"#utility.yul\":1898:1962   */\n      tag_223\n        /* \"#utility.yul\":1956:1961   */\n      dup3\n        /* \"#utility.yul\":1898:1962   */\n      tag_143\n      jump\t// in\n    tag_223:\n        /* \"#utility.yul\":1978:2074   */\n      tag_224\n        /* \"#utility.yul\":2067:2073   */\n      dup2\n        /* \"#utility.yul\":2062:2065   */\n      dup6\n        /* \"#utility.yul\":1978:2074   */\n      tag_144\n      jump\t// in\n    tag_224:\n        /* \"#utility.yul\":1971:2074   */\n      swap4\n      pop\n        /* \"#utility.yul\":2100:2103   */\n      dup4\n        /* \"#utility.yul\":2145:2149   */\n      0x20\n        /* \"#utility.yul\":2137:2143   */\n      dup3\n        /* \"#utility.yul\":2133:2150   */\n      mul\n        /* \"#utility.yul\":2128:2131   */\n      dup6\n        /* \"#utility.yul\":2124:2151   */\n      add\n        /* \"#utility.yul\":2175:2241   */\n      tag_225\n        /* \"#utility.yul\":2235:2240   */\n      dup6\n        /* \"#utility.yul\":2175:2241   */\n      tag_145\n      jump\t// in\n    tag_225:\n        /* \"#utility.yul\":2264:2271   */\n      dup1\n        /* \"#utility.yul\":2295:2296   */\n      0x00\n        /* \"#utility.yul\":2280:2676   */\n    tag_226:\n        /* \"#utility.yul\":2305:2311   */\n      dup6\n        /* \"#utility.yul\":2302:2303   */\n      dup2\n        /* \"#utility.yul\":2299:2312   */\n      lt\n        /* \"#utility.yul\":2280:2676   */\n      iszero\n      tag_228\n      jumpi\n        /* \"#utility.yul\":2376:2385   */\n      dup5\n        /* \"#utility.yul\":2370:2374   */\n      dup5\n        /* \"#utility.yul\":2366:2386   */\n      sub\n        /* \"#utility.yul\":2361:2364   */\n      dup10\n        /* \"#utility.yul\":2354:2387   */\n      mstore\n        /* \"#utility.yul\":2427:2433   */\n      dup2\n        /* \"#utility.yul\":2421:2434   */\n      mload\n        /* \"#utility.yul\":2455:2539   */\n      tag_229\n        /* \"#utility.yul\":2534:2538   */\n      dup6\n        /* \"#utility.yul\":2519:2532   */\n      dup3\n        /* \"#utility.yul\":2455:2539   */\n      tag_151\n      jump\t// in\n    tag_229:\n        /* \"#utility.yul\":2447:2539   */\n      swap5\n      pop\n        /* \"#utility.yul\":2562:2632   */\n      tag_230\n        /* \"#utility.yul\":2625:2631   */\n      dup4\n        /* \"#utility.yul\":2562:2632   */\n      tag_152\n      jump\t// in\n    tag_230:\n        /* \"#utility.yul\":2552:2632   */\n      swap3\n      pop\n        /* \"#utility.yul\":2661:2665   */\n      0x20\n        /* \"#utility.yul\":2656:2659   */\n      dup11\n        /* \"#utility.yul\":2652:2666   */\n      add\n        /* \"#utility.yul\":2645:2666   */\n      swap10\n      pop\n        /* \"#utility.yul\":2340:2676   */\n      pop\n        /* \"#utility.yul\":2327:2328   */\n      0x01\n        /* \"#utility.yul\":2324:2325   */\n      dup2\n        /* \"#utility.yul\":2320:2329   */\n      add\n        /* \"#utility.yul\":2315:2329   */\n      swap1\n      pop\n        /* \"#utility.yul\":2280:2676   */\n      jump(tag_226)\n    tag_228:\n        /* \"#utility.yul\":2284:2298   */\n      pop\n        /* \"#utility.yul\":2692:2696   */\n      dup3\n        /* \"#utility.yul\":2685:2696   */\n      swap8\n      pop\n        /* \"#utility.yul\":2712:2715   */\n      dup8\n        /* \"#utility.yul\":2705:2715   */\n      swap6\n      pop\n        /* \"#utility.yul\":1874:2721   */\n      pop\n      pop\n      pop\n      pop\n      pop\n        /* \"#utility.yul\":1730:2721   */\n      swap3\n      swap2\n      pop\n      pop\n      jump\t// out\n        /* \"#utility.yul\":2727:2840   */\n    tag_154:\n        /* \"#utility.yul\":2793:2799   */\n      0x00\n        /* \"#utility.yul\":2827:2832   */\n      dup2\n        /* \"#utility.yul\":2821:2833   */\n      mload\n        /* \"#utility.yul\":2811:2833   */\n      swap1\n      pop\n        /* \"#utility.yul\":2727:2840   */\n      swap2\n      swap1\n      pop\n      jump\t// out\n        /* \"#utility.yul\":2846:3029   */\n    tag_155:\n        /* \"#utility.yul\":2944:2955   */\n      0x00\n        /* \"#utility.yul\":2978:2984   */\n      dup3\n        /* \"#utility.yul\":2973:2976   */\n      dup3\n        /* \"#utility.yul\":2966:2985   */\n      mstore\n        /* \"#utility.yul\":3018:3022   */\n      0x20\n        /* \"#utility.yul\":3013:3016   */\n      dup3\n        /* \"#utility.yul\":3009:3023   */\n      add\n        /* \"#utility.yul\":2994:3023   */\n      swap1\n      pop\n        /* \"#utility.yul\":2846:3029   */\n      swap3\n      swap2\n      pop\n      pop\n      jump\t// out\n        /* \"#utility.yul\":3035:3166   */\n    tag_156:\n        /* \"#utility.yul\":3101:3105   */\n      0x00\n        /* \"#utility.yul\":3124:3127   */\n      dup2\n        /* \"#utility.yul\":3116:3127   */\n      swap1\n      pop\n        /* \"#utility.yul\":3154:3158   */\n      0x20\n        /* \"#utility.yul\":3149:3152   */\n      dup3\n        /* \"#utility.yul\":3145:3159   */\n      add\n        /* \"#utility.yul\":3137:3159   */\n      swap1\n      pop\n        /* \"#utility.yul\":3035:3166   */\n      swap2\n      swap1\n      pop\n      jump\t// out\n        /* \"#utility.yul\":3172:3248   */\n    tag_157:\n        /* \"#utility.yul\":3208:3215   */\n      0x00\n        /* \"#utility.yul\":3237:3242   */\n      dup2\n        /* \"#utility.yul\":3226:3242   */\n      swap1\n      pop\n        /* \"#utility.yul\":3172:3248   */\n      swap2\n      swap1\n      pop\n      jump\t// out\n        /* \"#utility.yul\":3254:3359   */\n    tag_158:\n        /* \"#utility.yul\":3329:3352   */\n      tag_236\n        /* \"#utility.yul\":3346:3351   */\n      dup2\n        /* \"#utility.yul\":3329:3352   */\n      tag_157\n      jump\t// in\n    tag_236:\n        /* \"#utility.yul\":3324:3327   */\n      dup3\n        /* \"#utility.yul\":3317:3353   */\n      mstore\n        /* \"#utility.yul\":3254:3359   */\n      pop\n      pop\n      jump\t// out\n        /* \"#utility.yul\":3365:3540   */\n    tag_159:\n        /* \"#utility.yul\":3432:3442   */\n      0x00\n        /* \"#utility.yul\":3453:3497   */\n      tag_238\n        /* \"#utility.yul\":3493:3496   */\n      dup4\n        /* \"#utility.yul\":3485:3491   */\n      dup4\n        /* \"#utility.yul\":3453:3497   */\n      tag_158\n      jump\t// in\n    tag_238:\n        /* \"#utility.yul\":3529:3533   */\n      0x20\n        /* \"#utility.yul\":3524:3527   */\n      dup4\n        /* \"#utility.yul\":3520:3534   */\n      add\n        /* \"#utility.yul\":3506:3534   */\n      swap1\n      pop\n        /* \"#utility.yul\":3365:3540   */\n      swap3\n      swap2\n      pop\n      pop\n      jump\t// out\n        /* \"#utility.yul\":3546:3658   */\n    tag_160:\n        /* \"#utility.yul\":3615:3619   */\n      0x00\n        /* \"#utility.yul\":3647:3651   */\n      0x20\n        /* \"#utility.yul\":3642:3645   */\n      dup3\n        /* \"#utility.yul\":3638:3652   */\n      add\n        /* \"#utility.yul\":3630:3652   */\n      swap1\n      pop\n        /* \"#utility.yul\":3546:3658   */\n      swap2\n      swap1\n      pop\n      jump\t// out\n        /* \"#utility.yul\":3692:4416   */\n    tag_161:\n        /* \"#utility.yul\":3809:3812   */\n      0x00\n        /* \"#utility.yul\":3838:3891   */\n      tag_241\n        /* \"#utility.yul\":3885:3890   */\n      dup3\n        /* \"#utility.yul\":3838:3891   */\n      tag_154\n      jump\t// in\n    tag_241:\n        /* \"#utility.yul\":3907:3992   */\n      tag_242\n        /* \"#utility.yul\":3985:3991   */\n      dup2\n        /* \"#utility.yul\":3980:3983   */\n      dup6\n        /* \"#utility.yul\":3907:3992   */\n      tag_155\n      jump\t// in\n    tag_242:\n        /* \"#utility.yul\":3900:3992   */\n      swap4\n      pop\n        /* \"#utility.yul\":4016:4071   */\n      tag_243\n        /* \"#utility.yul\":4065:4070   */\n      dup4\n        /* \"#utility.yul\":4016:4071   */\n      tag_156\n      jump\t// in\n    tag_243:\n        /* \"#utility.yul\":4094:4101   */\n      dup1\n        /* \"#utility.yul\":4125:4126   */\n      0x00\n        /* \"#utility.yul\":4110:4391   */\n    tag_244:\n        /* \"#utility.yul\":4135:4141   */\n      dup4\n        /* \"#utility.yul\":4132:4133   */\n      dup2\n        /* \"#utility.yul\":4129:4142   */\n      lt\n        /* \"#utility.yul\":4110:4391   */\n      iszero\n      tag_246\n      jumpi\n        /* \"#utility.yul\":4211:4217   */\n      dup2\n        /* \"#utility.yul\":4205:4218   */\n      mload\n        /* \"#utility.yul\":4238:4299   */\n      tag_247\n        /* \"#utility.yul\":4295:4298   */\n      dup9\n        /* \"#utility.yul\":4280:4293   */\n      dup3\n        /* \"#utility.yul\":4238:4299   */\n      tag_159\n      jump\t// in\n    tag_247:\n        /* \"#utility.yul\":4231:4299   */\n      swap8\n      pop\n        /* \"#utility.yul\":4322:4381   */\n      tag_248\n        /* \"#utility.yul\":4374:4380   */\n      dup4\n        /* \"#utility.yul\":4322:4381   */\n      tag_160\n      jump\t// in\n    tag_248:\n        /* \"#utility.yul\":4312:4381   */\n      swap3\n      pop\n        /* \"#utility.yul\":4170:4391   */\n      pop\n        /* \"#utility.yul\":4157:4158   */\n      0x01\n        /* \"#utility.yul\":4154:4155   */\n      dup2\n        /* \"#utility.yul\":4150:4159   */\n      add\n        /* \"#utility.yul\":4145:4159   */\n      swap1\n      pop\n        /* \"#utility.yul\":4110:4391   */\n      jump(tag_244)\n    tag_246:\n        /* \"#utility.yul\":4114:4128   */\n      pop\n        /* \"#utility.yul\":4407:4410   */\n      dup6\n        /* \"#utility.yul\":4400:4410   */\n      swap4\n      pop\n        /* \"#utility.yul\":3814:4416   */\n      pop\n      pop\n      pop\n        /* \"#utility.yul\":3692:4416   */\n      swap3\n      swap2\n      pop\n      pop\n      jump\t// out\n        /* \"#utility.yul\":4422:5092   */\n    tag_8:\n        /* \"#utility.yul\":4661:4665   */\n      0x00\n        /* \"#utility.yul\":4699:4701   */\n      0x40\n        /* \"#utility.yul\":4688:4697   */\n      dup3\n        /* \"#utility.yul\":4684:4702   */\n      add\n        /* \"#utility.yul\":4676:4702   */\n      swap1\n      pop\n        /* \"#utility.yul\":4748:4757   */\n      dup2\n        /* \"#utility.yul\":4742:4746   */\n      dup2\n        /* \"#utility.yul\":4738:4758   */\n      sub\n        /* \"#utility.yul\":4734:4735   */\n      0x00\n        /* \"#utility.yul\":4723:4732   */\n      dup4\n        /* \"#utility.yul\":4719:4736   */\n      add\n        /* \"#utility.yul\":4712:4759   */\n      mstore\n        /* \"#utility.yul\":4776:4904   */\n      tag_250\n        /* \"#utility.yul\":4899:4903   */\n      dup2\n        /* \"#utility.yul\":4890:4896   */\n      dup6\n        /* \"#utility.yul\":4776:4904   */\n      tag_153\n      jump\t// in\n    tag_250:\n        /* \"#utility.yul\":4768:4904   */\n      swap1\n      pop\n        /* \"#utility.yul\":4951:4960   */\n      dup2\n        /* \"#utility.yul\":4945:4949   */\n      dup2\n        /* \"#utility.yul\":4941:4961   */\n      sub\n        /* \"#utility.yul\":4936:4938   */\n      0x20\n        /* \"#utility.yul\":4925:4934   */\n      dup4\n        /* \"#utility.yul\":4921:4939   */\n      add\n        /* \"#utility.yul\":4914:4962   */\n      mstore\n        /* \"#utility.yul\":4979:5085   */\n      tag_251\n        /* \"#utility.yul\":5080:5084   */\n      dup2\n        /* \"#utility.yul\":5071:5077   */\n      dup5\n        /* \"#utility.yul\":4979:5085   */\n      tag_161\n      jump\t// in\n    tag_251:\n        /* \"#utility.yul\":4971:5085   */\n      swap1\n      pop\n        /* \"#utility.yul\":4422:5092   */\n      swap4\n      swap3\n      pop\n      pop\n      pop\n      jump\t// out\n        /* \"#utility.yul\":5098:5173   */\n    tag_162:\n        /* \"#utility.yul\":5131:5137   */\n      0x00\n        /* \"#utility.yul\":5164:5166   */\n      0x40\n        /* \"#utility.yul\":5158:5167   */\n      mload\n        /* \"#utility.yul\":5148:5167   */\n      swap1\n      pop\n        /* \"#utility.yul\":5098:5173   */\n      swap1\n      jump\t// out\n        /* \"#utility.yul\":5179:5296   */\n    tag_163:\n        /* \"#utility.yul\":5288:5289   */\n      0x00\n        /* \"#utility.yul\":5285:5286   */\n      dup1\n        /* \"#utility.yul\":5278:5290   */\n      revert\n        /* \"#utility.yul\":5302:5419   */\n    tag_164:\n        /* \"#utility.yul\":5411:5412   */\n      0x00\n        /* \"#utility.yul\":5408:5409   */\n      dup1\n        /* \"#utility.yul\":5401:5413   */\n      revert\n        /* \"#utility.yul\":5425:5542   */\n    tag_165:\n        /* \"#utility.yul\":5534:5535   */\n      0x00\n        /* \"#utility.yul\":5531:5532   */\n      dup1\n        /* \"#utility.yul\":5524:5536   */\n      revert\n        /* \"#utility.yul\":5548:5665   */\n    tag_166:\n        /* \"#utility.yul\":5657:5658   */\n      0x00\n        /* \"#utility.yul\":5654:5655   */\n      dup1\n        /* \"#utility.yul\":5647:5659   */\n      revert\n        /* \"#utility.yul\":5671:5851   */\n    tag_18:\n        /* \"#utility.yul\":5719:5796   */\n      0x4e487b7100000000000000000000000000000000000000000000000000000000\n        /* \"#utility.yul\":5716:5717   */\n      0x00\n        /* \"#utility.yul\":5709:5797   */\n      mstore\n        /* \"#utility.yul\":5816:5820   */\n      0x41\n        /* \"#utility.yul\":5813:5814   */\n      0x04\n        /* \"#utility.yul\":5806:5821   */\n      mstore\n        /* \"#utility.yul\":5840:5844   */\n      0x24\n        /* \"#utility.yul\":5837:5838   */\n      0x00\n        /* \"#utility.yul\":5830:5845   */\n      revert\n        /* \"#utility.yul\":5857:6138   */\n    tag_167:\n        /* \"#utility.yul\":5940:5967   */\n      tag_259\n        /* \"#utility.yul\":5962:5966   */\n      dup3\n        /* \"#utility.yul\":5940:5967   */\n      tag_149\n      jump\t// in\n    tag_259:\n        /* \"#utility.yul\":5932:5938   */\n      dup2\n        /* \"#utility.yul\":5928:5968   */\n      add\n        /* \"#utility.yul\":6070:6076   */\n      dup2\n        /* \"#utility.yul\":6058:6068   */\n      dup2\n        /* \"#utility.yul\":6055:6077   */\n      lt\n        /* \"#utility.yul\":6034:6052   */\n      0xffffffffffffffff\n        /* \"#utility.yul\":6022:6032   */\n      dup3\n        /* \"#utility.yul\":6019:6053   */\n      gt\n        /* \"#utility.yul\":6016:6078   */\n      or\n        /* \"#utility.yul\":6013:6101   */\n      iszero\n      tag_260\n      jumpi\n        /* \"#utility.yul\":6081:6099   */\n      tag_261\n      tag_18\n      jump\t// in\n    tag_261:\n        /* \"#utility.yul\":6013:6101   */\n    tag_260:\n        /* \"#utility.yul\":6121:6131   */\n      dup1\n        /* \"#utility.yul\":6117:6119   */\n      0x40\n        /* \"#utility.yul\":6110:6132   */\n      mstore\n        /* \"#utility.yul\":5900:6138   */\n      pop\n        /* \"#utility.yul\":5857:6138   */\n      pop\n      pop\n      jump\t// out\n        /* \"#utility.yul\":6144:6273   */\n    tag_168:\n        /* \"#utility.yul\":6178:6184   */\n      0x00\n        /* \"#utility.yul\":6205:6225   */\n      tag_263\n      tag_162\n      jump\t// in\n    tag_263:\n        /* \"#utility.yul\":6195:6225   */\n      swap1\n      pop\n        /* \"#utility.yul\":6234:6267   */\n      tag_264\n        /* \"#utility.yul\":6262:6266   */\n      dup3\n        /* \"#utility.yul\":6254:6260   */\n      dup3\n        /* \"#utility.yul\":6234:6267   */\n      tag_167\n      jump\t// in\n    tag_264:\n        /* \"#utility.yul\":6144:6273   */\n      swap2\n      swap1\n      pop\n      jump\t// out\n        /* \"#utility.yul\":6279:6587   */\n    tag_169:\n        /* \"#utility.yul\":6341:6345   */\n      0x00\n        /* \"#utility.yul\":6431:6449   */\n      0xffffffffffffffff\n        /* \"#utility.yul\":6423:6429   */\n      dup3\n        /* \"#utility.yul\":6420:6450   */\n      gt\n        /* \"#utility.yul\":6417:6473   */\n      iszero\n      tag_266\n      jumpi\n        /* \"#utility.yul\":6453:6471   */\n      tag_267\n      tag_18\n      jump\t// in\n    tag_267:\n        /* \"#utility.yul\":6417:6473   */\n    tag_266:\n        /* \"#utility.yul\":6491:6520   */\n      tag_268\n        /* \"#utility.yul\":6513:6519   */\n      dup3\n        /* \"#utility.yul\":6491:6520   */\n      tag_149\n      jump\t// in\n    tag_268:\n        /* \"#utility.yul\":6483:6520   */\n      swap1\n      pop\n        /* \"#utility.yul\":6575:6579   */\n      0x20\n        /* \"#utility.yul\":6569:6573   */\n      dup2\n        /* \"#utility.yul\":6565:6580   */\n      add\n        /* \"#utility.yul\":6557:6580   */\n      swap1\n      pop\n        /* \"#utility.yul\":6279:6587   */\n      swap2\n      swap1\n      pop\n      jump\t// out\n        /* \"#utility.yul\":6593:6741   */\n    tag_170:\n        /* \"#utility.yul\":6691:6697   */\n      dup3\n        /* \"#utility.yul\":6686:6689   */\n      dup2\n        /* \"#utility.yul\":6681:6684   */\n      dup4\n        /* \"#utility.yul\":6668:6698   */\n      calldatacopy\n        /* \"#utility.yul\":6732:6733   */\n      0x00\n        /* \"#utility.yul\":6723:6729   */\n      dup4\n        /* \"#utility.yul\":6718:6721   */\n      dup4\n        /* \"#utility.yul\":6714:6730   */\n      add\n        /* \"#utility.yul\":6707:6734   */\n      mstore\n        /* \"#utility.yul\":6593:6741   */\n      pop\n      pop\n      pop\n      jump\t// out\n        /* \"#utility.yul\":6747:7172   */\n    tag_171:\n        /* \"#utility.yul\":6825:6830   */\n      0x00\n        /* \"#utility.yul\":6850:6916   */\n      tag_271\n        /* \"#utility.yul\":6866:6915   */\n      tag_272\n        /* \"#utility.yul\":6908:6914   */\n      dup5\n        /* \"#utility.yul\":6866:6915   */\n      tag_169\n      jump\t// in\n    tag_272:\n        /* \"#utility.yul\":6850:6916   */\n      tag_168\n      jump\t// in\n    tag_271:\n        /* \"#utility.yul\":6841:6916   */\n      swap1\n      pop\n        /* \"#utility.yul\":6939:6945   */\n      dup3\n        /* \"#utility.yul\":6932:6937   */\n      dup2\n        /* \"#utility.yul\":6925:6946   */\n      mstore\n        /* \"#utility.yul\":6977:6981   */\n      0x20\n        /* \"#utility.yul\":6970:6975   */\n      dup2\n        /* \"#utility.yul\":6966:6982   */\n      add\n        /* \"#utility.yul\":7015:7018   */\n      dup5\n        /* \"#utility.yul\":7006:7012   */\n      dup5\n        /* \"#utility.yul\":7001:7004   */\n      dup5\n        /* \"#utility.yul\":6997:7013   */\n      add\n        /* \"#utility.yul\":6994:7019   */\n      gt\n        /* \"#utility.yul\":6991:7103   */\n      iszero\n      tag_273\n      jumpi\n        /* \"#utility.yul\":7022:7101   */\n      tag_274\n      tag_166\n      jump\t// in\n    tag_274:\n        /* \"#utility.yul\":6991:7103   */\n    tag_273:\n        /* \"#utility.yul\":7112:7166   */\n      tag_275\n        /* \"#utility.yul\":7159:7165   */\n      dup5\n        /* \"#utility.yul\":7154:7157   */\n      dup3\n        /* \"#utility.yul\":7149:7152   */\n      dup6\n        /* \"#utility.yul\":7112:7166   */\n      tag_170\n      jump\t// in\n    tag_275:\n        /* \"#utility.yul\":6831:7172   */\n      pop\n        /* \"#utility.yul\":6747:7172   */\n      swap4\n      swap3\n      pop\n      pop\n      pop\n      jump\t// out\n        /* \"#utility.yul\":7192:7532   */\n    tag_172:\n        /* \"#utility.yul\":7248:7253   */\n      0x00\n        /* \"#utility.yul\":7297:7300   */\n      dup3\n        /* \"#utility.yul\":7290:7294   */\n      0x1f\n        /* \"#utility.yul\":7282:7288   */\n      dup4\n        /* \"#utility.yul\":7278:7295   */\n      add\n        /* \"#utility.yul\":7274:7301   */\n      slt\n        /* \"#utility.yul\":7264:7386   */\n      tag_277\n      jumpi\n        /* \"#utility.yul\":7305:7384   */\n      tag_278\n      tag_165\n      jump\t// in\n    tag_278:\n        /* \"#utility.yul\":7264:7386   */\n    tag_277:\n        /* \"#utility.yul\":7422:7428   */\n      dup2\n        /* \"#utility.yul\":7409:7429   */\n      calldataload\n        /* \"#utility.yul\":7447:7526   */\n      tag_279\n        /* \"#utility.yul\":7522:7525   */\n      dup5\n        /* \"#utility.yul\":7514:7520   */\n      dup3\n        /* \"#utility.yul\":7507:7511   */\n      0x20\n        /* \"#utility.yul\":7499:7505   */\n      dup7\n        /* \"#utility.yul\":7495:7512   */\n      add\n        /* \"#utility.yul\":7447:7526   */\n      tag_171\n      jump\t// in\n    tag_279:\n        /* \"#utility.yul\":7438:7526   */\n      swap2\n      pop\n        /* \"#utility.yul\":7254:7532   */\n      pop\n        /* \"#utility.yul\":7192:7532   */\n      swap3\n      swap2\n      pop\n      pop\n      jump\t// out\n        /* \"#utility.yul\":7538:8697   */\n    tag_11:\n        /* \"#utility.yul\":7645:7651   */\n      0x00\n        /* \"#utility.yul\":7653:7659   */\n      dup1\n        /* \"#utility.yul\":7661:7667   */\n      0x00\n        /* \"#utility.yul\":7710:7712   */\n      0x60\n        /* \"#utility.yul\":7698:7707   */\n      dup5\n        /* \"#utility.yul\":7689:7696   */\n      dup7\n        /* \"#utility.yul\":7685:7708   */\n      sub\n        /* \"#utility.yul\":7681:7713   */\n      slt\n        /* \"#utility.yul\":7678:7797   */\n      iszero\n      tag_281\n      jumpi\n        /* \"#utility.yul\":7716:7795   */\n      tag_282\n      tag_163\n      jump\t// in\n    tag_282:\n        /* \"#utility.yul\":7678:7797   */\n    tag_281:\n        /* \"#utility.yul\":7864:7865   */\n      0x00\n        /* \"#utility.yul\":7853:7862   */\n      dup5\n        /* \"#utility.yul\":7849:7866   */\n      add\n        /* \"#utility.yul\":7836:7867   */\n      calldataload\n        /* \"#utility.yul\":7894:7912   */\n      0xffffffffffffffff\n        /* \"#utility.yul\":7886:7892   */\n      dup2\n        /* \"#utility.yul\":7883:7913   */\n      gt\n        /* \"#utility.yul\":7880:7997   */\n      iszero\n      tag_283\n      jumpi\n        /* \"#utility.yul\":7916:7995   */\n      tag_284\n      tag_164\n      jump\t// in\n    tag_284:\n        /* \"#utility.yul\":7880:7997   */\n    tag_283:\n        /* \"#utility.yul\":8021:8084   */\n      tag_285\n        /* \"#utility.yul\":8076:8083   */\n      dup7\n        /* \"#utility.yul\":8067:8073   */\n      dup3\n        /* \"#utility.yul\":8056:8065   */\n      dup8\n        /* \"#utility.yul\":8052:8074   */\n      add\n        /* \"#utility.yul\":8021:8084   */\n      tag_172\n      jump\t// in\n    tag_285:\n        /* \"#utility.yul\":8011:8084   */\n      swap4\n      pop\n        /* \"#utility.yul\":7807:8094   */\n      pop\n        /* \"#utility.yul\":8161:8163   */\n      0x20\n        /* \"#utility.yul\":8150:8159   */\n      dup5\n        /* \"#utility.yul\":8146:8164   */\n      add\n        /* \"#utility.yul\":8133:8165   */\n      calldataload\n        /* \"#utility.yul\":8192:8210   */\n      0xffffffffffffffff\n        /* \"#utility.yul\":8184:8190   */\n      dup2\n        /* \"#utility.yul\":8181:8211   */\n      gt\n        /* \"#utility.yul\":8178:8295   */\n      iszero\n      tag_286\n      jumpi\n        /* \"#utility.yul\":8214:8293   */\n      tag_287\n      tag_164\n      jump\t// in\n    tag_287:\n        /* \"#utility.yul\":8178:8295   */\n    tag_286:\n        /* \"#utility.yul\":8319:8382   */\n      tag_288\n        /* \"#utility.yul\":8374:8381   */\n      dup7\n        /* \"#utility.yul\":8365:8371   */\n      dup3\n        /* \"#utility.yul\":8354:8363   */\n      dup8\n        /* \"#utility.yul\":8350:8372   */\n      add\n        /* \"#utility.yul\":8319:8382   */\n      tag_172\n      jump\t// in\n    tag_288:\n        /* \"#utility.yul\":8309:8382   */\n      swap3\n      pop\n        /* \"#utility.yul\":8104:8392   */\n      pop\n        /* \"#utility.yul\":8459:8461   */\n      0x40\n        /* \"#utility.yul\":8448:8457   */\n      dup5\n        /* \"#utility.yul\":8444:8462   */\n      add\n        /* \"#utility.yul\":8431:8463   */\n      calldataload\n        /* \"#utility.yul\":8490:8508   */\n      0xffffffffffffffff\n        /* \"#utility.yul\":8482:8488   */\n      dup2\n        /* \"#utility.yul\":8479:8509   */\n      gt\n        /* \"#utility.yul\":8476:8593   */\n      iszero\n      tag_289\n      jumpi\n        /* \"#utility.yul\":8512:8591   */\n      tag_290\n      tag_164\n      jump\t// in\n    tag_290:\n        /* \"#utility.yul\":8476:8593   */\n    tag_289:\n        /* \"#utility.yul\":8617:8680   */\n      tag_291\n        /* \"#utility.yul\":8672:8679   */\n      dup7\n        /* \"#utility.yul\":8663:8669   */\n      dup3\n        /* \"#utility.yul\":8652:8661   */\n      dup8\n        /* \"#utility.yul\":8648:8670   */\n      add\n        /* \"#utility.yul\":8617:8680   */\n      tag_172\n      jump\t// in\n    tag_291:\n        /* \"#utility.yul\":8607:8680   */\n      swap2\n      pop\n        /* \"#utility.yul\":8402:8690   */\n      pop\n        /* \"#utility.yul\":7538:8697   */\n      swap3\n      pop\n      swap3\n      pop\n      swap3\n      jump\t// out\n        /* \"#utility.yul\":8703:8872   */\n    tag_173:\n        /* \"#utility.yul\":8787:8798   */\n      0x00\n        /* \"#utility.yul\":8821:8827   */\n      dup3\n        /* \"#utility.yul\":8816:8819   */\n      dup3\n        /* \"#utility.yul\":8809:8828   */\n      mstore\n        /* \"#utility.yul\":8861:8865   */\n      0x20\n        /* \"#utility.yul\":8856:8859   */\n      dup3\n        /* \"#utility.yul\":8852:8866   */\n      add\n        /* \"#utility.yul\":8837:8866   */\n      swap1\n      pop\n        /* \"#utility.yul\":8703:8872   */\n      swap3\n      swap2\n      pop\n      pop\n      jump\t// out\n        /* \"#utility.yul\":8878:9255   */\n    tag_174:\n        /* \"#utility.yul\":8966:8969   */\n      0x00\n        /* \"#utility.yul\":8994:9033   */\n      tag_294\n        /* \"#utility.yul\":9027:9032   */\n      dup3\n        /* \"#utility.yul\":8994:9033   */\n      tag_146\n      jump\t// in\n    tag_294:\n        /* \"#utility.yul\":9049:9120   */\n      tag_295\n        /* \"#utility.yul\":9113:9119   */\n      dup2\n        /* \"#utility.yul\":9108:9111   */\n      dup6\n        /* \"#utility.yul\":9049:9120   */\n      tag_173\n      jump\t// in\n    tag_295:\n        /* \"#utility.yul\":9042:9120   */\n      swap4\n      pop\n        /* \"#utility.yul\":9129:9194   */\n      tag_296\n        /* \"#utility.yul\":9187:9193   */\n      dup2\n        /* \"#utility.yul\":9182:9185   */\n      dup6\n        /* \"#utility.yul\":9175:9179   */\n      0x20\n        /* \"#utility.yul\":9168:9173   */\n      dup7\n        /* \"#utility.yul\":9164:9180   */\n      add\n        /* \"#utility.yul\":9129:9194   */\n      tag_148\n      jump\t// in\n    tag_296:\n        /* \"#utility.yul\":9219:9248   */\n      tag_297\n        /* \"#utility.yul\":9241:9247   */\n      dup2\n        /* \"#utility.yul\":9219:9248   */\n      tag_149\n      jump\t// in\n    tag_297:\n        /* \"#utility.yul\":9214:9217   */\n      dup5\n        /* \"#utility.yul\":9210:9249   */\n      add\n        /* \"#utility.yul\":9203:9249   */\n      swap2\n      pop\n        /* \"#utility.yul\":8970:9255   */\n      pop\n        /* \"#utility.yul\":8878:9255   */\n      swap3\n      swap2\n      pop\n      pop\n      jump\t// out\n        /* \"#utility.yul\":9261:9574   */\n    tag_14:\n        /* \"#utility.yul\":9374:9378   */\n      0x00\n        /* \"#utility.yul\":9412:9414   */\n      0x20\n        /* \"#utility.yul\":9401:9410   */\n      dup3\n        /* \"#utility.yul\":9397:9415   */\n      add\n        /* \"#utility.yul\":9389:9415   */\n      swap1\n      pop\n        /* \"#utility.yul\":9461:9470   */\n      dup2\n        /* \"#utility.yul\":9455:9459   */\n      dup2\n        /* \"#utility.yul\":9451:9471   */\n      sub\n        /* \"#utility.yul\":9447:9448   */\n      0x00\n        /* \"#utility.yul\":9436:9445   */\n      dup4\n        /* \"#utility.yul\":9432:9449   */\n      add\n        /* \"#utility.yul\":9425:9472   */\n      mstore\n        /* \"#utility.yul\":9489:9567   */\n      tag_299\n        /* \"#utility.yul\":9562:9566   */\n      dup2\n        /* \"#utility.yul\":9553:9559   */\n      dup5\n        /* \"#utility.yul\":9489:9567   */\n      tag_174\n      jump\t// in\n    tag_299:\n        /* \"#utility.yul\":9481:9567   */\n      swap1\n      pop\n        /* \"#utility.yul\":9261:9574   */\n      swap3\n      swap2\n      pop\n      pop\n      jump\t// out\n        /* \"#utility.yul\":9580:9760   */\n    tag_25:\n        /* \"#utility.yul\":9628:9705   */\n      0x4e487b7100000000000000000000000000000000000000000000000000000000\n        /* \"#utility.yul\":9625:9626   */\n      0x00\n        /* \"#utility.yul\":9618:9706   */\n      mstore\n        /* \"#utility.yul\":9725:9729   */\n      0x32\n        /* \"#utility.yul\":9722:9723   */\n      0x04\n        /* \"#utility.yul\":9715:9730   */\n      mstore\n        /* \"#utility.yul\":9749:9753   */\n      0x24\n        /* \"#utility.yul\":9746:9747   */\n      0x00\n        /* \"#utility.yul\":9739:9754   */\n      revert\n        /* \"#utility.yul\":9766:9946   */\n    tag_175:\n        /* \"#utility.yul\":9814:9891   */\n      0x4e487b7100000000000000000000000000000000000000000000000000000000\n        /* \"#utility.yul\":9811:9812   */\n      0x00\n        /* \"#utility.yul\":9804:9892   */\n      mstore\n        /* \"#utility.yul\":9911:9915   */\n      0x22\n        /* \"#utility.yul\":9908:9909   */\n      0x04\n        /* \"#utility.yul\":9901:9916   */\n      mstore\n        /* \"#utility.yul\":9935:9939   */\n      0x24\n        /* \"#utility.yul\":9932:9933   */\n      0x00\n        /* \"#utility.yul\":9925:9940   */\n      revert\n        /* \"#utility.yul\":9952:10272   */\n    tag_35:\n        /* \"#utility.yul\":9996:10002   */\n      0x00\n        /* \"#utility.yul\":10033:10034   */\n      0x02\n        /* \"#utility.yul\":10027:10031   */\n      dup3\n        /* \"#utility.yul\":10023:10035   */\n      div\n        /* \"#utility.yul\":10013:10035   */\n      swap1\n      pop\n        /* \"#utility.yul\":10080:10081   */\n      0x01\n        /* \"#utility.yul\":10074:10078   */\n      dup3\n        /* \"#utility.yul\":10070:10082   */\n      and\n        /* \"#utility.yul\":10101:10119   */\n      dup1\n        /* \"#utility.yul\":10091:10172   */\n      tag_303\n      jumpi\n        /* \"#utility.yul\":10157:10161   */\n      0x7f\n        /* \"#utility.yul\":10149:10155   */\n      dup3\n        /* \"#utility.yul\":10145:10162   */\n      and\n        /* \"#utility.yul\":10135:10162   */\n      swap2\n      pop\n        /* \"#utility.yul\":10091:10172   */\n    tag_303:\n        /* \"#utility.yul\":10219:10221   */\n      0x20\n        /* \"#utility.yul\":10211:10217   */\n      dup3\n        /* \"#utility.yul\":10208:10222   */\n      lt\n        /* \"#utility.yul\":10188:10206   */\n      dup2\n        /* \"#utility.yul\":10185:10223   */\n      sub\n        /* \"#utility.yul\":10182:10266   */\n      tag_304\n      jumpi\n        /* \"#utility.yul\":10238:10256   */\n      tag_305\n      tag_175\n      jump\t// in\n    tag_305:\n        /* \"#utility.yul\":10182:10266   */\n    tag_304:\n        /* \"#utility.yul\":10003:10272   */\n      pop\n        /* \"#utility.yul\":9952:10272   */\n      swap2\n      swap1\n      pop\n      jump\t// out\n        /* \"#utility.yul\":10278:10426   */\n    tag_176:\n        /* \"#utility.yul\":10380:10391   */\n      0x00\n        /* \"#utility.yul\":10417:10420   */\n      dup2\n        /* \"#utility.yul\":10402:10420   */\n      swap1\n      pop\n        /* \"#utility.yul\":10278:10426   */\n      swap3\n      swap2\n      pop\n      pop\n      jump\t// out\n        /* \"#utility.yul\":10432:10573   */\n    tag_177:\n        /* \"#utility.yul\":10481:10485   */\n      0x00\n        /* \"#utility.yul\":10504:10507   */\n      dup2\n        /* \"#utility.yul\":10496:10507   */\n      swap1\n      pop\n        /* \"#utility.yul\":10527:10530   */\n      dup2\n        /* \"#utility.yul\":10524:10525   */\n      0x00\n        /* \"#utility.yul\":10517:10531   */\n      mstore\n        /* \"#utility.yul\":10561:10565   */\n      0x20\n        /* \"#utility.yul\":10558:10559   */\n      0x00\n        /* \"#utility.yul\":10548:10566   */\n      keccak256\n        /* \"#utility.yul\":10540:10566   */\n      swap1\n      pop\n        /* \"#utility.yul\":10432:10573   */\n      swap2\n      swap1\n      pop\n      jump\t// out\n        /* \"#utility.yul\":10603:11477   */\n    tag_178:\n        /* \"#utility.yul\":10706:10709   */\n      0x00\n        /* \"#utility.yul\":10743:10748   */\n      dup2\n        /* \"#utility.yul\":10737:10749   */\n      sload\n        /* \"#utility.yul\":10772:10808   */\n      tag_309\n        /* \"#utility.yul\":10798:10807   */\n      dup2\n        /* \"#utility.yul\":10772:10808   */\n      tag_35\n      jump\t// in\n    tag_309:\n        /* \"#utility.yul\":10824:10913   */\n      tag_310\n        /* \"#utility.yul\":10906:10912   */\n      dup2\n        /* \"#utility.yul\":10901:10904   */\n      dup7\n        /* \"#utility.yul\":10824:10913   */\n      tag_176\n      jump\t// in\n    tag_310:\n        /* \"#utility.yul\":10817:10913   */\n      swap5\n      pop\n        /* \"#utility.yul\":10944:10945   */\n      0x01\n        /* \"#utility.yul\":10933:10942   */\n      dup3\n        /* \"#utility.yul\":10929:10946   */\n      and\n        /* \"#utility.yul\":10960:10961   */\n      0x00\n        /* \"#utility.yul\":10955:11121   */\n      dup2\n      eq\n      tag_312\n      jumpi\n        /* \"#utility.yul\":11135:11136   */\n      0x01\n        /* \"#utility.yul\":11130:11471   */\n      dup2\n      eq\n      tag_313\n      jumpi\n        /* \"#utility.yul\":10922:11471   */\n      jump(tag_311)\n        /* \"#utility.yul\":10955:11121   */\n    tag_312:\n        /* \"#utility.yul\":11039:11043   */\n      0xff\n        /* \"#utility.yul\":11035:11044   */\n      not\n        /* \"#utility.yul\":11024:11033   */\n      dup4\n        /* \"#utility.yul\":11020:11045   */\n      and\n        /* \"#utility.yul\":11015:11018   */\n      dup7\n        /* \"#utility.yul\":11008:11046   */\n      mstore\n        /* \"#utility.yul\":11101:11107   */\n      dup2\n        /* \"#utility.yul\":11094:11108   */\n      iszero\n        /* \"#utility.yul\":11087:11109   */\n      iszero\n        /* \"#utility.yul\":11079:11085   */\n      dup3\n        /* \"#utility.yul\":11075:11110   */\n      mul\n        /* \"#utility.yul\":11070:11073   */\n      dup7\n        /* \"#utility.yul\":11066:11111   */\n      add\n        /* \"#utility.yul\":11059:11111   */\n      swap4\n      pop\n        /* \"#utility.yul\":10955:11121   */\n      jump(tag_311)\n        /* \"#utility.yul\":11130:11471   */\n    tag_313:\n        /* \"#utility.yul\":11197:11235   */\n      tag_314\n        /* \"#utility.yul\":11229:11234   */\n      dup6\n        /* \"#utility.yul\":11197:11235   */\n      tag_177\n      jump\t// in\n    tag_314:\n        /* \"#utility.yul\":11257:11258   */\n      0x00\n        /* \"#utility.yul\":11271:11425   */\n    tag_315:\n        /* \"#utility.yul\":11285:11291   */\n      dup4\n        /* \"#utility.yul\":11282:11283   */\n      dup2\n        /* \"#utility.yul\":11279:11292   */\n      lt\n        /* \"#utility.yul\":11271:11425   */\n      iszero\n      tag_317\n      jumpi\n        /* \"#utility.yul\":11359:11366   */\n      dup2\n        /* \"#utility.yul\":11353:11367   */\n      sload\n        /* \"#utility.yul\":11349:11350   */\n      dup2\n        /* \"#utility.yul\":11344:11347   */\n      dup10\n        /* \"#utility.yul\":11340:11351   */\n      add\n        /* \"#utility.yul\":11333:11368   */\n      mstore\n        /* \"#utility.yul\":11409:11410   */\n      0x01\n        /* \"#utility.yul\":11400:11407   */\n      dup3\n        /* \"#utility.yul\":11396:11411   */\n      add\n        /* \"#utility.yul\":11385:11411   */\n      swap2\n      pop\n        /* \"#utility.yul\":11307:11311   */\n      0x20\n        /* \"#utility.yul\":11304:11305   */\n      dup2\n        /* \"#utility.yul\":11300:11312   */\n      add\n        /* \"#utility.yul\":11295:11312   */\n      swap1\n      pop\n        /* \"#utility.yul\":11271:11425   */\n      jump(tag_315)\n    tag_317:\n        /* \"#utility.yul\":11454:11460   */\n      dup4\n        /* \"#utility.yul\":11449:11452   */\n      dup9\n        /* \"#utility.yul\":11445:11461   */\n      add\n        /* \"#utility.yul\":11438:11461   */\n      swap6\n      pop\n        /* \"#utility.yul\":11137:11471   */\n      pop\n      pop\n        /* \"#utility.yul\":10922:11471   */\n    tag_311:\n      pop\n        /* \"#utility.yul\":10710:11477   */\n      pop\n      pop\n        /* \"#utility.yul\":10603:11477   */\n      swap3\n      swap2\n      pop\n      pop\n      jump\t// out\n        /* \"#utility.yul\":11483:11752   */\n    tag_28:\n        /* \"#utility.yul\":11612:11615   */\n      0x00\n        /* \"#utility.yul\":11634:11726   */\n      tag_319\n        /* \"#utility.yul\":11722:11725   */\n      dup3\n        /* \"#utility.yul\":11713:11719   */\n      dup5\n        /* \"#utility.yul\":11634:11726   */\n      tag_178\n      jump\t// in\n    tag_319:\n        /* \"#utility.yul\":11627:11726   */\n      swap2\n      pop\n        /* \"#utility.yul\":11743:11746   */\n      dup2\n        /* \"#utility.yul\":11736:11746   */\n      swap1\n      pop\n        /* \"#utility.yul\":11483:11752   */\n      swap3\n      swap2\n      pop\n      pop\n      jump\t// out\n        /* \"#utility.yul\":11758:11856   */\n    tag_179:\n        /* \"#utility.yul\":11809:11815   */\n      0x00\n        /* \"#utility.yul\":11843:11848   */\n      dup2\n        /* \"#utility.yul\":11837:11849   */\n      mload\n        /* \"#utility.yul\":11827:11849   */\n      swap1\n      pop\n        /* \"#utility.yul\":11758:11856   */\n      swap2\n      swap1\n      pop\n      jump\t// out\n        /* \"#utility.yul\":11862:12038   */\n    tag_180:\n        /* \"#utility.yul\":11953:11964   */\n      0x00\n        /* \"#utility.yul\":11987:11993   */\n      dup3\n        /* \"#utility.yul\":11982:11985   */\n      dup3\n        /* \"#utility.yul\":11975:11994   */\n      mstore\n        /* \"#utility.yul\":12027:12031   */\n      0x20\n        /* \"#utility.yul\":12022:12025   */\n      dup3\n        /* \"#utility.yul\":12018:12032   */\n      add\n        /* \"#utility.yul\":12003:12032   */\n      swap1\n      pop\n        /* \"#utility.yul\":11862:12038   */\n      swap3\n      swap2\n      pop\n      pop\n      jump\t// out\n        /* \"#utility.yul\":12044:12433   */\n    tag_181:\n        /* \"#utility.yul\":12138:12141   */\n      0x00\n        /* \"#utility.yul\":12166:12204   */\n      tag_323\n        /* \"#utility.yul\":12198:12203   */\n      dup3\n        /* \"#utility.yul\":12166:12204   */\n      tag_179\n      jump\t// in\n    tag_323:\n        /* \"#utility.yul\":12220:12298   */\n      tag_324\n        /* \"#utility.yul\":12291:12297   */\n      dup2\n        /* \"#utility.yul\":12286:12289   */\n      dup6\n        /* \"#utility.yul\":12220:12298   */\n      tag_180\n      jump\t// in\n    tag_324:\n        /* \"#utility.yul\":12213:12298   */\n      swap4\n      pop\n        /* \"#utility.yul\":12307:12372   */\n      tag_325\n        /* \"#utility.yul\":12365:12371   */\n      dup2\n        /* \"#utility.yul\":12360:12363   */\n      dup6\n        /* \"#utility.yul\":12353:12357   */\n      0x20\n        /* \"#utility.yul\":12346:12351   */\n      dup7\n        /* \"#utility.yul\":12342:12358   */\n      add\n        /* \"#utility.yul\":12307:12372   */\n      tag_148\n      jump\t// in\n    tag_325:\n        /* \"#utility.yul\":12397:12426   */\n      tag_326\n        /* \"#utility.yul\":12419:12425   */\n      dup2\n        /* \"#utility.yul\":12397:12426   */\n      tag_149\n      jump\t// in\n    tag_326:\n        /* \"#utility.yul\":12392:12395   */\n      dup5\n        /* \"#utility.yul\":12388:12427   */\n      add\n        /* \"#utility.yul\":12381:12427   */\n      swap2\n      pop\n        /* \"#utility.yul\":12142:12433   */\n      pop\n        /* \"#utility.yul\":12044:12433   */\n      swap3\n      swap2\n      pop\n      pop\n      jump\t// out\n        /* \"#utility.yul\":12439:13380   */\n    tag_51:\n        /* \"#utility.yul\":12696:12700   */\n      0x00\n        /* \"#utility.yul\":12734:12737   */\n      0x80\n        /* \"#utility.yul\":12723:12732   */\n      dup3\n        /* \"#utility.yul\":12719:12738   */\n      add\n        /* \"#utility.yul\":12711:12738   */\n      swap1\n      pop\n        /* \"#utility.yul\":12784:12793   */\n      dup2\n        /* \"#utility.yul\":12778:12782   */\n      dup2\n        /* \"#utility.yul\":12774:12794   */\n      sub\n        /* \"#utility.yul\":12770:12771   */\n      0x00\n        /* \"#utility.yul\":12759:12768   */\n      dup4\n        /* \"#utility.yul\":12755:12772   */\n      add\n        /* \"#utility.yul\":12748:12795   */\n      mstore\n        /* \"#utility.yul\":12812:12896   */\n      tag_328\n        /* \"#utility.yul\":12891:12895   */\n      dup2\n        /* \"#utility.yul\":12882:12888   */\n      dup8\n        /* \"#utility.yul\":12812:12896   */\n      tag_181\n      jump\t// in\n    tag_328:\n        /* \"#utility.yul\":12804:12896   */\n      swap1\n      pop\n        /* \"#utility.yul\":12943:12952   */\n      dup2\n        /* \"#utility.yul\":12937:12941   */\n      dup2\n        /* \"#utility.yul\":12933:12953   */\n      sub\n        /* \"#utility.yul\":12928:12930   */\n      0x20\n        /* \"#utility.yul\":12917:12926   */\n      dup4\n        /* \"#utility.yul\":12913:12931   */\n      add\n        /* \"#utility.yul\":12906:12954   */\n      mstore\n        /* \"#utility.yul\":12971:13055   */\n      tag_329\n        /* \"#utility.yul\":13050:13054   */\n      dup2\n        /* \"#utility.yul\":13041:13047   */\n      dup7\n        /* \"#utility.yul\":12971:13055   */\n      tag_181\n      jump\t// in\n    tag_329:\n        /* \"#utility.yul\":12963:13055   */\n      swap1\n      pop\n        /* \"#utility.yul\":13102:13111   */\n      dup2\n        /* \"#utility.yul\":13096:13100   */\n      dup2\n        /* \"#utility.yul\":13092:13112   */\n      sub\n        /* \"#utility.yul\":13087:13089   */\n      0x40\n        /* \"#utility.yul\":13076:13085   */\n      dup4\n        /* \"#utility.yul\":13072:13090   */\n      add\n        /* \"#utility.yul\":13065:13113   */\n      mstore\n        /* \"#utility.yul\":13130:13214   */\n      tag_330\n        /* \"#utility.yul\":13209:13213   */\n      dup2\n        /* \"#utility.yul\":13200:13206   */\n      dup6\n        /* \"#utility.yul\":13130:13214   */\n      tag_181\n      jump\t// in\n    tag_330:\n        /* \"#utility.yul\":13122:13214   */\n      swap1\n      pop\n        /* \"#utility.yul\":13261:13270   */\n      dup2\n        /* \"#utility.yul\":13255:13259   */\n      dup2\n        /* \"#utility.yul\":13251:13271   */\n      sub\n        /* \"#utility.yul\":13246:13248   */\n      0x60\n        /* \"#utility.yul\":13235:13244   */\n      dup4\n        /* \"#utility.yul\":13231:13249   */\n      add\n        /* \"#utility.yul\":13224:13272   */\n      mstore\n        /* \"#utility.yul\":13289:13373   */\n      tag_331\n        /* \"#utility.yul\":13368:13372   */\n      dup2\n        /* \"#utility.yul\":13359:13365   */\n      dup5\n        /* \"#utility.yul\":13289:13373   */\n      tag_181\n      jump\t// in\n    tag_331:\n        /* \"#utility.yul\":13281:13373   */\n      swap1\n      pop\n        /* \"#utility.yul\":12439:13380   */\n      swap6\n      swap5\n      pop\n      pop\n      pop\n      pop\n      pop\n      jump\t// out\n        /* \"#utility.yul\":13386:13476   */\n    tag_182:\n        /* \"#utility.yul\":13420:13427   */\n      0x00\n        /* \"#utility.yul\":13463:13468   */\n      dup2\n        /* \"#utility.yul\":13456:13469   */\n      iszero\n        /* \"#utility.yul\":13449:13470   */\n      iszero\n        /* \"#utility.yul\":13438:13470   */\n      swap1\n      pop\n        /* \"#utility.yul\":13386:13476   */\n      swap2\n      swap1\n      pop\n      jump\t// out\n        /* \"#utility.yul\":13482:13598   */\n    tag_183:\n        /* \"#utility.yul\":13552:13573   */\n      tag_334\n        /* \"#utility.yul\":13567:13572   */\n      dup2\n        /* \"#utility.yul\":13552:13573   */\n      tag_182\n      jump\t// in\n    tag_334:\n        /* \"#utility.yul\":13545:13550   */\n      dup2\n        /* \"#utility.yul\":13542:13574   */\n      eq\n        /* \"#utility.yul\":13532:13592   */\n      tag_335\n      jumpi\n        /* \"#utility.yul\":13588:13589   */\n      0x00\n        /* \"#utility.yul\":13585:13586   */\n      dup1\n        /* \"#utility.yul\":13578:13590   */\n      revert\n        /* \"#utility.yul\":13532:13592   */\n    tag_335:\n        /* \"#utility.yul\":13482:13598   */\n      pop\n      jump\t// out\n        /* \"#utility.yul\":13604:13741   */\n    tag_184:\n        /* \"#utility.yul\":13658:13663   */\n      0x00\n        /* \"#utility.yul\":13689:13695   */\n      dup2\n        /* \"#utility.yul\":13683:13696   */\n      mload\n        /* \"#utility.yul\":13674:13696   */\n      swap1\n      pop\n        /* \"#utility.yul\":13705:13735   */\n      tag_337\n        /* \"#utility.yul\":13729:13734   */\n      dup2\n        /* \"#utility.yul\":13705:13735   */\n      tag_183\n      jump\t// in\n    tag_337:\n        /* \"#utility.yul\":13604:13741   */\n      swap3\n      swap2\n      pop\n      pop\n      jump\t// out\n        /* \"#utility.yul\":13747:14092   */\n    tag_55:\n        /* \"#utility.yul\":13814:13820   */\n      0x00\n        /* \"#utility.yul\":13863:13865   */\n      0x20\n        /* \"#utility.yul\":13851:13860   */\n      dup3\n        /* \"#utility.yul\":13842:13849   */\n      dup5\n        /* \"#utility.yul\":13838:13861   */\n      sub\n        /* \"#utility.yul\":13834:13866   */\n      slt\n        /* \"#utility.yul\":13831:13950   */\n      iszero\n      tag_339\n      jumpi\n        /* \"#utility.yul\":13869:13948   */\n      tag_340\n      tag_163\n      jump\t// in\n    tag_340:\n        /* \"#utility.yul\":13831:13950   */\n    tag_339:\n        /* \"#utility.yul\":13989:13990   */\n      0x00\n        /* \"#utility.yul\":14014:14075   */\n      tag_341\n        /* \"#utility.yul\":14067:14074   */\n      dup5\n        /* \"#utility.yul\":14058:14064   */\n      dup3\n        /* \"#utility.yul\":14047:14056   */\n      dup6\n        /* \"#utility.yul\":14043:14065   */\n      add\n        /* \"#utility.yul\":14014:14075   */\n      tag_184\n      jump\t// in\n    tag_341:\n        /* \"#utility.yul\":14004:14075   */\n      swap2\n      pop\n        /* \"#utility.yul\":13960:14085   */\n      pop\n        /* \"#utility.yul\":13747:14092   */\n      swap3\n      swap2\n      pop\n      pop\n      jump\t// out\n        /* \"#utility.yul\":14098:14488   */\n    tag_185:\n        /* \"#utility.yul\":14204:14207   */\n      0x00\n        /* \"#utility.yul\":14232:14271   */\n      tag_343\n        /* \"#utility.yul\":14265:14270   */\n      dup3\n        /* \"#utility.yul\":14232:14271   */\n      tag_146\n      jump\t// in\n    tag_343:\n        /* \"#utility.yul\":14287:14376   */\n      tag_344\n        /* \"#utility.yul\":14369:14375   */\n      dup2\n        /* \"#utility.yul\":14364:14367   */\n      dup6\n        /* \"#utility.yul\":14287:14376   */\n      tag_176\n      jump\t// in\n    tag_344:\n        /* \"#utility.yul\":14280:14376   */\n      swap4\n      pop\n        /* \"#utility.yul\":14385:14450   */\n      tag_345\n        /* \"#utility.yul\":14443:14449   */\n      dup2\n        /* \"#utility.yul\":14438:14441   */\n      dup6\n        /* \"#utility.yul\":14431:14435   */\n      0x20\n        /* \"#utility.yul\":14424:14429   */\n      dup7\n        /* \"#utility.yul\":14420:14436   */\n      add\n        /* \"#utility.yul\":14385:14450   */\n      tag_148\n      jump\t// in\n    tag_345:\n        /* \"#utility.yul\":14475:14481   */\n      dup1\n        /* \"#utility.yul\":14470:14473   */\n      dup5\n        /* \"#utility.yul\":14466:14482   */\n      add\n        /* \"#utility.yul\":14459:14482   */\n      swap2\n      pop\n        /* \"#utility.yul\":14208:14488   */\n      pop\n        /* \"#utility.yul\":14098:14488   */\n      swap3\n      swap2\n      pop\n      pop\n      jump\t// out\n        /* \"#utility.yul\":14494:14769   */\n    tag_64:\n        /* \"#utility.yul\":14626:14629   */\n      0x00\n        /* \"#utility.yul\":14648:14743   */\n      tag_347\n        /* \"#utility.yul\":14739:14742   */\n      dup3\n        /* \"#utility.yul\":14730:14736   */\n      dup5\n        /* \"#utility.yul\":14648:14743   */\n      tag_185\n      jump\t// in\n    tag_347:\n        /* \"#utility.yul\":14641:14743   */\n      swap2\n      pop\n        /* \"#utility.yul\":14760:14763   */\n      dup2\n        /* \"#utility.yul\":14753:14763   */\n      swap1\n      pop\n        /* \"#utility.yul\":14494:14769   */\n      swap3\n      swap2\n      pop\n      pop\n      jump\t// out\n        /* \"#utility.yul\":14775:14955   */\n    tag_186:\n        /* \"#utility.yul\":14823:14900   */\n      0x4e487b7100000000000000000000000000000000000000000000000000000000\n        /* \"#utility.yul\":14820:14821   */\n      0x00\n        /* \"#utility.yul\":14813:14901   */\n      mstore\n        /* \"#utility.yul\":14920:14924   */\n      0x11\n        /* \"#utility.yul\":14917:14918   */\n      0x04\n        /* \"#utility.yul\":14910:14925   */\n      mstore\n        /* \"#utility.yul\":14944:14948   */\n      0x24\n        /* \"#utility.yul\":14941:14942   */\n      0x00\n        /* \"#utility.yul\":14934:14949   */\n      revert\n        /* \"#utility.yul\":14961:15336   */\n    tag_66:\n        /* \"#utility.yul\":15000:15003   */\n      0x00\n        /* \"#utility.yul\":15019:15038   */\n      tag_350\n        /* \"#utility.yul\":15036:15037   */\n      dup3\n        /* \"#utility.yul\":15019:15038   */\n      tag_157\n      jump\t// in\n    tag_350:\n        /* \"#utility.yul\":15014:15038   */\n      swap2\n      pop\n        /* \"#utility.yul\":15052:15071   */\n      tag_351\n        /* \"#utility.yul\":15069:15070   */\n      dup4\n        /* \"#utility.yul\":15052:15071   */\n      tag_157\n      jump\t// in\n    tag_351:\n        /* \"#utility.yul\":15047:15071   */\n      swap3\n      pop\n        /* \"#utility.yul\":15094:15095   */\n      dup3\n        /* \"#utility.yul\":15091:15092   */\n      dup3\n        /* \"#utility.yul\":15087:15096   */\n      add\n        /* \"#utility.yul\":15080:15096   */\n      swap1\n      pop\n        /* \"#utility.yul\":15292:15293   */\n      dup3\n        /* \"#utility.yul\":15287:15290   */\n      dup2\n        /* \"#utility.yul\":15283:15294   */\n      slt\n        /* \"#utility.yul\":15276:15295   */\n      iszero\n        /* \"#utility.yul\":15272:15273   */\n      0x00\n        /* \"#utility.yul\":15269:15270   */\n      dup4\n        /* \"#utility.yul\":15265:15274   */\n      slt\n        /* \"#utility.yul\":15261:15296   */\n      and\n        /* \"#utility.yul\":15244:15245   */\n      dup4\n        /* \"#utility.yul\":15239:15242   */\n      dup3\n        /* \"#utility.yul\":15235:15246   */\n      slt\n        /* \"#utility.yul\":15230:15231   */\n      0x00\n        /* \"#utility.yul\":15227:15228   */\n      dup5\n        /* \"#utility.yul\":15223:15232   */\n      slt\n        /* \"#utility.yul\":15216:15233   */\n      iszero\n        /* \"#utility.yul\":15212:15247   */\n      and\n        /* \"#utility.yul\":15196:15306   */\n      or\n        /* \"#utility.yul\":15193:15329   */\n      iszero\n      tag_352\n      jumpi\n        /* \"#utility.yul\":15309:15327   */\n      tag_353\n      tag_186\n      jump\t// in\n    tag_353:\n        /* \"#utility.yul\":15193:15329   */\n    tag_352:\n        /* \"#utility.yul\":14961:15336   */\n      swap3\n      swap2\n      pop\n      pop\n      jump\t// out\n        /* \"#utility.yul\":15342:15435   */\n    tag_187:\n        /* \"#utility.yul\":15379:15385   */\n      0x00\n        /* \"#utility.yul\":15426:15428   */\n      0x20\n        /* \"#utility.yul\":15421:15423   */\n      0x1f\n        /* \"#utility.yul\":15414:15419   */\n      dup4\n        /* \"#utility.yul\":15410:15424   */\n      add\n        /* \"#utility.yul\":15406:15429   */\n      div\n        /* \"#utility.yul\":15396:15429   */\n      swap1\n      pop\n        /* \"#utility.yul\":15342:15435   */\n      swap2\n      swap1\n      pop\n      jump\t// out\n        /* \"#utility.yul\":15441:15548   */\n    tag_188:\n        /* \"#utility.yul\":15485:15493   */\n      0x00\n        /* \"#utility.yul\":15535:15540   */\n      dup3\n        /* \"#utility.yul\":15529:15533   */\n      dup3\n        /* \"#utility.yul\":15525:15541   */\n      shl\n        /* \"#utility.yul\":15504:15541   */\n      swap1\n      pop\n        /* \"#utility.yul\":15441:15548   */\n      swap3\n      swap2\n      pop\n      pop\n      jump\t// out\n        /* \"#utility.yul\":15554:15947   */\n    tag_189:\n        /* \"#utility.yul\":15623:15629   */\n      0x00\n        /* \"#utility.yul\":15673:15674   */\n      0x08\n        /* \"#utility.yul\":15661:15671   */\n      dup4\n        /* \"#utility.yul\":15657:15675   */\n      mul\n        /* \"#utility.yul\":15696:15793   */\n      tag_357\n        /* \"#utility.yul\":15726:15792   */\n      0xffffffffffffffffffffffffffffffffffffffffffffffffffffffffffffffff\n        /* \"#utility.yul\":15715:15724   */\n      dup3\n        /* \"#utility.yul\":15696:15793   */\n      tag_188\n      jump\t// in\n    tag_357:\n        /* \"#utility.yul\":15814:15853   */\n      tag_358\n        /* \"#utility.yul\":15844:15852   */\n      dup7\n        /* \"#utility.yul\":15833:15842   */\n      dup4\n        /* \"#utility.yul\":15814:15853   */\n      tag_188\n      jump\t// in\n    tag_358:\n        /* \"#utility.yul\":15802:15853   */\n      swap6\n      pop\n        /* \"#utility.yul\":15886:15890   */\n      dup1\n        /* \"#utility.yul\":15882:15891   */\n      not\n        /* \"#utility.yul\":15875:15880   */\n      dup5\n        /* \"#utility.yul\":15871:15892   */\n      and\n        /* \"#utility.yul\":15862:15892   */\n      swap4\n      pop\n        /* \"#utility.yul\":15935:15939   */\n      dup1\n        /* \"#utility.yul\":15925:15933   */\n      dup7\n        /* \"#utility.yul\":15921:15940   */\n      and\n        /* \"#utility.yul\":15914:15919   */\n      dup5\n        /* \"#utility.yul\":15911:15941   */\n      or\n        /* \"#utility.yul\":15901:15941   */\n      swap3\n      pop\n        /* \"#utility.yul\":15630:15947   */\n      pop\n      pop\n        /* \"#utility.yul\":15554:15947   */\n      swap4\n      swap3\n      pop\n      pop\n      pop\n      jump\t// out\n        /* \"#utility.yul\":15953:16030   */\n    tag_190:\n        /* \"#utility.yul\":15990:15997   */\n      0x00\n        /* \"#utility.yul\":16019:16024   */\n      dup2\n        /* \"#utility.yul\":16008:16024   */\n      swap1\n      pop\n        /* \"#utility.yul\":15953:16030   */\n      swap2\n      swap1\n      pop\n      jump\t// out\n        /* \"#utility.yul\":16036:16096   */\n    tag_191:\n        /* \"#utility.yul\":16064:16067   */\n      0x00\n        /* \"#utility.yul\":16085:16090   */\n      dup2\n        /* \"#utility.yul\":16078:16090   */\n      swap1\n      pop\n        /* \"#utility.yul\":16036:16096   */\n      swap2\n      swap1\n      pop\n      jump\t// out\n        /* \"#utility.yul\":16102:16244   */\n    tag_192:\n        /* \"#utility.yul\":16152:16161   */\n      0x00\n        /* \"#utility.yul\":16185:16238   */\n      tag_362\n        /* \"#utility.yul\":16203:16237   */\n      tag_363\n        /* \"#utility.yul\":16212:16236   */\n      tag_364\n        /* \"#utility.yul\":16230:16235   */\n      dup5\n        /* \"#utility.yul\":16212:16236   */\n      tag_190\n      jump\t// in\n    tag_364:\n        /* \"#utility.yul\":16203:16237   */\n      tag_191\n      jump\t// in\n    tag_363:\n        /* \"#utility.yul\":16185:16238   */\n      tag_190\n      jump\t// in\n    tag_362:\n        /* \"#utility.yul\":16172:16238   */\n      swap1\n      pop\n        /* \"#utility.yul\":16102:16244   */\n      swap2\n      swap1\n      pop\n      jump\t// out\n        /* \"#utility.yul\":16250:16325   */\n    tag_193:\n        /* \"#utility.yul\":16293:16296   */\n      0x00\n        /* \"#utility.yul\":16314:16319   */\n      dup2\n        /* \"#utility.yul\":16307:16319   */\n      swap1\n      pop\n        /* \"#utility.yul\":16250:16325   */\n      swap2\n      swap1\n      pop\n      jump\t// out\n        /* \"#utility.yul\":16331:16600   */\n    tag_194:\n        /* \"#utility.yul\":16441:16480   */\n      tag_367\n        /* \"#utility.yul\":16472:16479   */\n      dup4\n        /* \"#utility.yul\":16441:16480   */\n      tag_192\n      jump\t// in\n    tag_367:\n        /* \"#utility.yul\":16502:16593   */\n      tag_368\n        /* \"#utility.yul\":16551:16592   */\n      tag_369\n        /* \"#utility.yul\":16575:16591   */\n      dup3\n        /* \"#utility.yul\":16551:16592   */\n      tag_193\n      jump\t// in\n    tag_369:\n        /* \"#utility.yul\":16543:16549   */\n      dup5\n        /* \"#utility.yul\":16536:16540   */\n      dup5\n        /* \"#utility.yul\":16530:16541   */\n      sload\n        /* \"#utility.yul\":16502:16593   */\n      tag_189\n      jump\t// in\n    tag_368:\n        /* \"#utility.yul\":16496:16500   */\n      dup3\n        /* \"#utility.yul\":16489:16594   */\n      sstore\n        /* \"#utility.yul\":16407:16600   */\n      pop\n        /* \"#utility.yul\":16331:16600   */\n      pop\n      pop\n      pop\n      jump\t// out\n        /* \"#utility.yul\":16606:16679   */\n    tag_195:\n        /* \"#utility.yul\":16651:16654   */\n      0x00\n        /* \"#utility.yul\":16606:16679   */\n      swap1\n      jump\t// out\n        /* \"#utility.yul\":16685:16874   */\n    tag_196:\n        /* \"#utility.yul\":16762:16794   */\n      tag_372\n      tag_195\n      jump\t// in\n    tag_372:\n        /* \"#utility.yul\":16803:16868   */\n      tag_373\n        /* \"#utility.yul\":16861:16867   */\n      dup2\n        /* \"#utility.yul\":16853:16859   */\n      dup5\n        /* \"#utility.yul\":16847:16851   */\n      dup5\n        /* \"#utility.yul\":16803:16868   */\n      tag_194\n      jump\t// in\n    tag_373:\n        /* \"#utility.yul\":16738:16874   */\n      pop\n        /* \"#utility.yul\":16685:16874   */\n      pop\n      pop\n      jump\t// out\n        /* \"#utility.yul\":16880:17066   */\n    tag_197:\n        /* \"#utility.yul\":16940:17060   */\n    tag_375:\n        /* \"#utility.yul\":16957:16960   */\n      dup2\n        /* \"#utility.yul\":16950:16955   */\n      dup2\n        /* \"#utility.yul\":16947:16961   */\n      lt\n        /* \"#utility.yul\":16940:17060   */\n      iszero\n      tag_377\n      jumpi\n        /* \"#utility.yul\":17011:17050   */\n      tag_378\n        /* \"#utility.yul\":17048:17049   */\n      0x00\n        /* \"#utility.yul\":17041:17046   */\n      dup3\n        /* \"#utility.yul\":17011:17050   */\n      tag_196\n      jump\t// in\n    tag_378:\n        /* \"#utility.yul\":16984:16985   */\n      0x01\n        /* \"#utility.yul\":16977:16982   */\n      dup2\n        /* \"#utility.yul\":16973:16986   */\n      add\n        /* \"#utility.yul\":16964:16986   */\n      swap1\n      pop\n        /* \"#utility.yul\":16940:17060   */\n      jump(tag_375)\n    tag_377:\n        /* \"#utility.yul\":16880:17066   */\n      pop\n      pop\n      jump\t// out\n        /* \"#utility.yul\":17072:17615   */\n    tag_198:\n        /* \"#utility.yul\":17173:17175   */\n      0x1f\n        /* \"#utility.yul\":17168:17171   */\n      dup3\n        /* \"#utility.yul\":17165:17176   */\n      gt\n        /* \"#utility.yul\":17162:17608   */\n      iszero\n      tag_380\n      jumpi\n        /* \"#utility.yul\":17207:17245   */\n      tag_381\n        /* \"#utility.yul\":17239:17244   */\n      dup2\n        /* \"#utility.yul\":17207:17245   */\n      tag_177\n      jump\t// in\n    tag_381:\n        /* \"#utility.yul\":17291:17320   */\n      tag_382\n        /* \"#utility.yul\":17309:17319   */\n      dup5\n        /* \"#utility.yul\":17291:17320   */\n      tag_187\n      jump\t// in\n    tag_382:\n        /* \"#utility.yul\":17281:17289   */\n      dup2\n        /* \"#utility.yul\":17277:17321   */\n      add\n        /* \"#utility.yul\":17474:17476   */\n      0x20\n        /* \"#utility.yul\":17462:17472   */\n      dup6\n        /* \"#utility.yul\":17459:17477   */\n      lt\n        /* \"#utility.yul\":17456:17505   */\n      iszero\n      tag_383\n      jumpi\n        /* \"#utility.yul\":17495:17503   */\n      dup2\n        /* \"#utility.yul\":17480:17503   */\n      swap1\n      pop\n        /* \"#utility.yul\":17456:17505   */\n    tag_383:\n        /* \"#utility.yul\":17518:17598   */\n      tag_384\n        /* \"#utility.yul\":17574:17596   */\n      tag_385\n        /* \"#utility.yul\":17592:17595   */\n      dup6\n        /* \"#utility.yul\":17574:17596   */\n      tag_187\n      jump\t// in\n    tag_385:\n        /* \"#utility.yul\":17564:17572   */\n      dup4\n        /* \"#utility.yul\":17560:17597   */\n      add\n        /* \"#utility.yul\":17547:17558   */\n      dup3\n        /* \"#utility.yul\":17518:17598   */\n      tag_197\n      jump\t// in\n    tag_384:\n        /* \"#utility.yul\":17177:17608   */\n      pop\n      pop\n        /* \"#utility.yul\":17162:17608   */\n    tag_380:\n        /* \"#utility.yul\":17072:17615   */\n      pop\n      pop\n      pop\n      jump\t// out\n        /* \"#utility.yul\":17621:17738   */\n    tag_199:\n        /* \"#utility.yul\":17675:17683   */\n      0x00\n        /* \"#utility.yul\":17725:17730   */\n      dup3\n        /* \"#utility.yul\":17719:17723   */\n      dup3\n        /* \"#utility.yul\":17715:17731   */\n      shr\n        /* \"#utility.yul\":17694:17731   */\n      swap1\n      pop\n        /* \"#utility.yul\":17621:17738   */\n      swap3\n      swap2\n      pop\n      pop\n      jump\t// out\n        /* \"#utility.yul\":17744:17913   */\n    tag_200:\n        /* \"#utility.yul\":17788:17794   */\n      0x00\n        /* \"#utility.yul\":17821:17872   */\n      tag_388\n        /* \"#utility.yul\":17869:17870   */\n      0x00\n        /* \"#utility.yul\":17865:17871   */\n      not\n        /* \"#utility.yul\":17857:17862   */\n      dup5\n        /* \"#utility.yul\":17854:17855   */\n      0x08\n        /* \"#utility.yul\":17850:17863   */\n      mul\n        /* \"#utility.yul\":17821:17872   */\n      tag_199\n      jump\t// in\n    tag_388:\n        /* \"#utility.yul\":17817:17873   */\n      not\n        /* \"#utility.yul\":17902:17906   */\n      dup1\n        /* \"#utility.yul\":17896:17900   */\n      dup4\n        /* \"#utility.yul\":17892:17907   */\n      and\n        /* \"#utility.yul\":17882:17907   */\n      swap2\n      pop\n        /* \"#utility.yul\":17795:17913   */\n      pop\n        /* \"#utility.yul\":17744:17913   */\n      swap3\n      swap2\n      pop\n      pop\n      jump\t// out\n        /* \"#utility.yul\":17918:18213   */\n    tag_201:\n        /* \"#utility.yul\":17994:17998   */\n      0x00\n        /* \"#utility.yul\":18140:18169   */\n      tag_390\n        /* \"#utility.yul\":18165:18168   */\n      dup4\n        /* \"#utility.yul\":18159:18163   */\n      dup4\n        /* \"#utility.yul\":18140:18169   */\n      tag_200\n      jump\t// in\n    tag_390:\n        /* \"#utility.yul\":18132:18169   */\n      swap2\n      pop\n        /* \"#utility.yul\":18202:18205   */\n      dup3\n        /* \"#utility.yul\":18199:18200   */\n      0x02\n        /* \"#utility.yul\":18195:18206   */\n      mul\n        /* \"#utility.yul\":18189:18193   */\n      dup3\n        /* \"#utility.yul\":18186:18207   */\n      or\n        /* \"#utility.yul\":18178:18207   */\n      swap1\n      pop\n        /* \"#utility.yul\":17918:18213   */\n      swap3\n      swap2\n      pop\n      pop\n      jump\t// out\n        /* \"#utility.yul\":18218:19613   */\n    tag_73:\n        /* \"#utility.yul\":18335:18372   */\n      tag_392\n        /* \"#utility.yul\":18368:18371   */\n      dup3\n        /* \"#utility.yul\":18335:18372   */\n      tag_146\n      jump\t// in\n    tag_392:\n        /* \"#utility.yul\":18437:18455   */\n      0xffffffffffffffff\n        /* \"#utility.yul\":18429:18435   */\n      dup2\n        /* \"#utility.yul\":18426:18456   */\n      gt\n        /* \"#utility.yul\":18423:18479   */\n      iszero\n      tag_393\n      jumpi\n        /* \"#utility.yul\":18459:18477   */\n      tag_394\n      tag_18\n      jump\t// in\n    tag_394:\n        /* \"#utility.yul\":18423:18479   */\n    tag_393:\n        /* \"#utility.yul\":18503:18541   */\n      tag_395\n        /* \"#utility.yul\":18535:18539   */\n      dup3\n        /* \"#utility.yul\":18529:18540   */\n      sload\n        /* \"#utility.yul\":18503:18541   */\n      tag_35\n      jump\t// in\n    tag_395:\n        /* \"#utility.yul\":18588:18655   */\n      tag_396\n        /* \"#utility.yul\":18648:18654   */\n      dup3\n        /* \"#utility.yul\":18640:18646   */\n      dup3\n        /* \"#utility.yul\":18634:18638   */\n      dup6\n        /* \"#utility.yul\":18588:18655   */\n      tag_198\n      jump\t// in\n    tag_396:\n        /* \"#utility.yul\":18682:18683   */\n      0x00\n        /* \"#utility.yul\":18706:18710   */\n      0x20\n        /* \"#utility.yul\":18693:18710   */\n      swap1\n      pop\n        /* \"#utility.yul\":18738:18740   */\n      0x1f\n        /* \"#utility.yul\":18730:18736   */\n      dup4\n        /* \"#utility.yul\":18727:18741   */\n      gt\n        /* \"#utility.yul\":18755:18756   */\n      0x01\n        /* \"#utility.yul\":18750:19368   */\n      dup2\n      eq\n      tag_398\n      jumpi\n        /* \"#utility.yul\":19412:19413   */\n      0x00\n        /* \"#utility.yul\":19429:19435   */\n      dup5\n        /* \"#utility.yul\":19426:19503   */\n      iszero\n      tag_399\n      jumpi\n        /* \"#utility.yul\":19478:19487   */\n      dup3\n        /* \"#utility.yul\":19473:19476   */\n      dup8\n        /* \"#utility.yul\":19469:19488   */\n      add\n        /* \"#utility.yul\":19463:19489   */\n      mload\n        /* \"#utility.yul\":19454:19489   */\n      swap1\n      pop\n        /* \"#utility.yul\":19426:19503   */\n    tag_399:\n        /* \"#utility.yul\":19529:19596   */\n      tag_400\n        /* \"#utility.yul\":19589:19595   */\n      dup6\n        /* \"#utility.yul\":19582:19587   */\n      dup3\n        /* \"#utility.yul\":19529:19596   */\n      tag_201\n      jump\t// in\n    tag_400:\n        /* \"#utility.yul\":19523:19527   */\n      dup7\n        /* \"#utility.yul\":19516:19597   */\n      sstore\n        /* \"#utility.yul\":19385:19607   */\n      pop\n        /* \"#utility.yul\":18720:19607   */\n      jump(tag_397)\n        /* \"#utility.yul\":18750:19368   */\n    tag_398:\n        /* \"#utility.yul\":18802:18806   */\n      0x1f\n        /* \"#utility.yul\":18798:18807   */\n      not\n        /* \"#utility.yul\":18790:18796   */\n      dup5\n        /* \"#utility.yul\":18786:18808   */\n      and\n        /* \"#utility.yul\":18836:18873   */\n      tag_401\n        /* \"#utility.yul\":18868:18872   */\n      dup7\n        /* \"#utility.yul\":18836:18873   */\n      tag_177\n      jump\t// in\n    tag_401:\n        /* \"#utility.yul\":18895:18896   */\n      0x00\n        /* \"#utility.yul\":18909:19117   */\n    tag_402:\n        /* \"#utility.yul\":18923:18930   */\n      dup3\n        /* \"#utility.yul\":18920:18921   */\n      dup2\n        /* \"#utility.yul\":18917:18931   */\n      lt\n        /* \"#utility.yul\":18909:19117   */\n      iszero\n      tag_404\n      jumpi\n        /* \"#utility.yul\":19002:19011   */\n      dup5\n        /* \"#utility.yul\":18997:19000   */\n      dup10\n        /* \"#utility.yul\":18993:19012   */\n      add\n        /* \"#utility.yul\":18987:19013   */\n      mload\n        /* \"#utility.yul\":18979:18985   */\n      dup3\n        /* \"#utility.yul\":18972:19014   */\n      sstore\n        /* \"#utility.yul\":19053:19054   */\n      0x01\n        /* \"#utility.yul\":19045:19051   */\n      dup3\n        /* \"#utility.yul\":19041:19055   */\n      add\n        /* \"#utility.yul\":19031:19055   */\n      swap2\n      pop\n        /* \"#utility.yul\":19100:19102   */\n      0x20\n        /* \"#utility.yul\":19089:19098   */\n      dup6\n        /* \"#utility.yul\":19085:19103   */\n      add\n        /* \"#utility.yul\":19072:19103   */\n      swap5\n      pop\n        /* \"#utility.yul\":18946:18950   */\n      0x20\n        /* \"#utility.yul\":18943:18944   */\n      dup2\n        /* \"#utility.yul\":18939:18951   */\n      add\n        /* \"#utility.yul\":18934:18951   */\n      swap1\n      pop\n        /* \"#utility.yul\":18909:19117   */\n      jump(tag_402)\n    tag_404:\n        /* \"#utility.yul\":19145:19151   */\n      dup7\n        /* \"#utility.yul\":19136:19143   */\n      dup4\n        /* \"#utility.yul\":19133:19152   */\n      lt\n        /* \"#utility.yul\":19130:19309   */\n      iszero\n      tag_405\n      jumpi\n        /* \"#utility.yul\":19203:19212   */\n      dup5\n        /* \"#utility.yul\":19198:19201   */\n      dup10\n        /* \"#utility.yul\":19194:19213   */\n      add\n        /* \"#utility.yul\":19188:19214   */\n      mload\n        /* \"#utility.yul\":19246:19294   */\n      tag_406\n        /* \"#utility.yul\":19288:19292   */\n      0x1f\n        /* \"#utility.yul\":19280:19286   */\n      dup10\n        /* \"#utility.yul\":19276:19293   */\n      and\n        /* \"#utility.yul\":19265:19274   */\n      dup3\n        /* \"#utility.yul\":19246:19294   */\n      tag_200\n      jump\t// in\n    tag_406:\n        /* \"#utility.yul\":19238:19244   */\n      dup4\n        /* \"#utility.yul\":19231:19295   */\n      sstore\n        /* \"#utility.yul\":19153:19309   */\n      pop\n        /* \"#utility.yul\":19130:19309   */\n    tag_405:\n        /* \"#utility.yul\":19355:19356   */\n      0x01\n        /* \"#utility.yul\":19351:19352   */\n      0x02\n        /* \"#utility.yul\":19343:19349   */\n      dup9\n        /* \"#utility.yul\":19339:19353   */\n      mul\n        /* \"#utility.yul\":19335:19357   */\n      add\n        /* \"#utility.yul\":19329:19333   */\n      dup9\n        /* \"#utility.yul\":19322:19358   */\n      sstore\n        /* \"#utility.yul\":18757:19368   */\n      pop\n      pop\n      pop\n        /* \"#utility.yul\":18720:19607   */\n    tag_397:\n      pop\n        /* \"#utility.yul\":18310:19613   */\n      pop\n      pop\n      pop\n        /* \"#utility.yul\":18218:19613   */\n      pop\n      pop\n      jump\t// out\n        /* \"#utility.yul\":19619:19799   */\n    tag_202:\n        /* \"#utility.yul\":19667:19744   */\n      0x4e487b7100000000000000000000000000000000000000000000000000000000\n        /* \"#utility.yul\":19664:19665   */\n      0x00\n        /* \"#utility.yul\":19657:19745   */\n      mstore\n        /* \"#utility.yul\":19764:19768   */\n      0x12\n        /* \"#utility.yul\":19761:19762   */\n      0x04\n        /* \"#utility.yul\":19754:19769   */\n      mstore\n        /* \"#utility.yul\":19788:19792   */\n      0x24\n        /* \"#utility.yul\":19785:19786   */\n      0x00\n        /* \"#utility.yul\":19778:19793   */\n      revert\n        /* \"#utility.yul\":19805:19981   */\n    tag_79:\n        /* \"#utility.yul\":19837:19838   */\n      0x00\n        /* \"#utility.yul\":19854:19874   */\n      tag_409\n        /* \"#utility.yul\":19872:19873   */\n      dup3\n        /* \"#utility.yul\":19854:19874   */\n      tag_190\n      jump\t// in\n    tag_409:\n        /* \"#utility.yul\":19849:19874   */\n      swap2\n      pop\n        /* \"#utility.yul\":19888:19908   */\n      tag_410\n        /* \"#utility.yul\":19906:19907   */\n      dup4\n        /* \"#utility.yul\":19888:19908   */\n      tag_190\n      jump\t// in\n    tag_410:\n        /* \"#utility.yul\":19883:19908   */\n      swap3\n      pop\n        /* \"#utility.yul\":19927:19928   */\n      dup3\n        /* \"#utility.yul\":19917:19952   */\n      tag_411\n      jumpi\n        /* \"#utility.yul\":19932:19950   */\n      tag_412\n      tag_202\n      jump\t// in\n    tag_412:\n        /* \"#utility.yul\":19917:19952   */\n    tag_411:\n        /* \"#utility.yul\":19973:19974   */\n      dup3\n        /* \"#utility.yul\":19970:19971   */\n      dup3\n        /* \"#utility.yul\":19966:19975   */\n      mod\n        /* \"#utility.yul\":19961:19975   */\n      swap1\n      pop\n        /* \"#utility.yul\":19805:19981   */\n      swap3\n      swap2\n      pop\n      pop\n      jump\t// out\n        /* \"#utility.yul\":19987:20172   */\n    tag_82:\n        /* \"#utility.yul\":20027:20028   */\n      0x00\n        /* \"#utility.yul\":20044:20064   */\n      tag_414\n        /* \"#utility.yul\":20062:20063   */\n      dup3\n        /* \"#utility.yul\":20044:20064   */\n      tag_190\n      jump\t// in\n    tag_414:\n        /* \"#utility.yul\":20039:20064   */\n      swap2\n      pop\n        /* \"#utility.yul\":20078:20098   */\n      tag_415\n        /* \"#utility.yul\":20096:20097   */\n      dup4\n        /* \"#utility.yul\":20078:20098   */\n      tag_190\n      jump\t// in\n    tag_415:\n        /* \"#utility.yul\":20073:20098   */\n      swap3\n      pop\n        /* \"#utility.yul\":20117:20118   */\n      dup3\n        /* \"#utility.yul\":20107:20142   */\n      tag_416\n      jumpi\n        /* \"#utility.yul\":20122:20140   */\n      tag_417\n      tag_202\n      jump\t// in\n    tag_417:\n        /* \"#utility.yul\":20107:20142   */\n    tag_416:\n        /* \"#utility.yul\":20164:20165   */\n      dup3\n        /* \"#utility.yul\":20161:20162   */\n      dup3\n        /* \"#utility.yul\":20157:20166   */\n      div\n        /* \"#utility.yul\":20152:20166   */\n      swap1\n      pop\n        /* \"#utility.yul\":19987:20172   */\n      swap3\n      swap2\n      pop\n      pop\n      jump\t// out\n        /* \"#utility.yul\":20178:20588   */\n    tag_92:\n        /* \"#utility.yul\":20218:20225   */\n      0x00\n        /* \"#utility.yul\":20241:20261   */\n      tag_419\n        /* \"#utility.yul\":20259:20260   */\n      dup3\n        /* \"#utility.yul\":20241:20261   */\n      tag_190\n      jump\t// in\n    tag_419:\n        /* \"#utility.yul\":20236:20261   */\n      swap2\n      pop\n        /* \"#utility.yul\":20275:20295   */\n      tag_420\n        /* \"#utility.yul\":20293:20294   */\n      dup4\n        /* \"#utility.yul\":20275:20295   */\n      tag_190\n      jump\t// in\n    tag_420:\n        /* \"#utility.yul\":20270:20295   */\n      swap3\n      pop\n        /* \"#utility.yul\":20330:20331   */\n      dup3\n        /* \"#utility.yul\":20327:20328   */\n      dup3\n        /* \"#utility.yul\":20323:20332   */\n      mul\n        /* \"#utility.yul\":20352:20382   */\n      tag_421\n        /* \"#utility.yul\":20370:20381   */\n      dup2\n        /* \"#utility.yul\":20352:20382   */\n      tag_190\n      jump\t// in\n    tag_421:\n        /* \"#utility.yul\":20341:20382   */\n      swap2\n      pop\n        /* \"#utility.yul\":20531:20532   */\n      dup3\n        /* \"#utility.yul\":20522:20529   */\n      dup3\n        /* \"#utility.yul\":20518:20533   */\n      div\n        /* \"#utility.yul\":20515:20516   */\n      dup5\n        /* \"#utility.yul\":20512:20534   */\n      eq\n        /* \"#utility.yul\":20492:20493   */\n      dup4\n        /* \"#utility.yul\":20485:20494   */\n      iszero\n        /* \"#utility.yul\":20465:20548   */\n      or\n        /* \"#utility.yul\":20442:20581   */\n      tag_422\n      jumpi\n        /* \"#utility.yul\":20561:20579   */\n      tag_423\n      tag_186\n      jump\t// in\n    tag_423:\n        /* \"#utility.yul\":20442:20581   */\n    tag_422:\n        /* \"#utility.yul\":20226:20588   */\n      pop\n        /* \"#utility.yul\":20178:20588   */\n      swap3\n      swap2\n      pop\n      pop\n      jump\t// out\n        /* \"#utility.yul\":20594:20785   */\n    tag_94:\n        /* \"#utility.yul\":20634:20637   */\n      0x00\n        /* \"#utility.yul\":20653:20673   */\n      tag_425\n        /* \"#utility.yul\":20671:20672   */\n      dup3\n        /* \"#utility.yul\":20653:20673   */\n      tag_190\n      jump\t// in\n    tag_425:\n        /* \"#utility.yul\":20648:20673   */\n      swap2\n      pop\n        /* \"#utility.yul\":20687:20707   */\n      tag_426\n        /* \"#utility.yul\":20705:20706   */\n      dup4\n        /* \"#utility.yul\":20687:20707   */\n      tag_190\n      jump\t// in\n    tag_426:\n        /* \"#utility.yul\":20682:20707   */\n      swap3\n      pop\n        /* \"#utility.yul\":20730:20731   */\n      dup3\n        /* \"#utility.yul\":20727:20728   */\n      dup3\n        /* \"#utility.yul\":20723:20732   */\n      add\n        /* \"#utility.yul\":20716:20732   */\n      swap1\n      pop\n        /* \"#utility.yul\":20751:20754   */\n      dup1\n        /* \"#utility.yul\":20748:20749   */\n      dup3\n        /* \"#utility.yul\":20745:20755   */\n      gt\n        /* \"#utility.yul\":20742:20778   */\n      iszero\n      tag_427\n      jumpi\n        /* \"#utility.yul\":20758:20776   */\n      tag_428\n      tag_186\n      jump\t// in\n    tag_428:\n        /* \"#utility.yul\":20742:20778   */\n    tag_427:\n        /* \"#utility.yul\":20594:20785   */\n      swap3\n      swap2\n      pop\n      pop\n      jump\t// out\n        /* \"#utility.yul\":20791:20877   */\n    tag_203:\n        /* \"#utility.yul\":20826:20833   */\n      0x00\n        /* \"#utility.yul\":20866:20870   */\n      0xff\n        /* \"#utility.yul\":20859:20864   */\n      dup3\n        /* \"#utility.yul\":20855:20871   */\n      and\n        /* \"#utility.yul\":20844:20871   */\n      swap1\n      pop\n        /* \"#utility.yul\":20791:20877   */\n      swap2\n      swap1\n      pop\n      jump\t// out\n        /* \"#utility.yul\":20883:21154   */\n    tag_103:\n        /* \"#utility.yul\":20921:20928   */\n      0x00\n        /* \"#utility.yul\":20944:20962   */\n      tag_431\n        /* \"#utility.yul\":20960:20961   */\n      dup3\n        /* \"#utility.yul\":20944:20962   */\n      tag_203\n      jump\t// in\n    tag_431:\n        /* \"#utility.yul\":20939:20962   */\n      swap2\n      pop\n        /* \"#utility.yul\":20976:20994   */\n      tag_432\n        /* \"#utility.yul\":20992:20993   */\n      dup4\n        /* \"#utility.yul\":20976:20994   */\n      tag_203\n      jump\t// in\n    tag_432:\n        /* \"#utility.yul\":20971:20994   */\n      swap3\n      pop\n        /* \"#utility.yul\":21029:21030   */\n      dup3\n        /* \"#utility.yul\":21026:21027   */\n      dup3\n        /* \"#utility.yul\":21022:21031   */\n      mul\n        /* \"#utility.yul\":21051:21079   */\n      tag_433\n        /* \"#utility.yul\":21067:21078   */\n      dup2\n        /* \"#utility.yul\":21051:21079   */\n      tag_203\n      jump\t// in\n    tag_433:\n        /* \"#utility.yul\":21040:21079   */\n      swap2\n      pop\n        /* \"#utility.yul\":21111:21122   */\n      dup1\n        /* \"#utility.yul\":21102:21109   */\n      dup3\n        /* \"#utility.yul\":21099:21123   */\n      eq\n        /* \"#utility.yul\":21089:21147   */\n      tag_434\n      jumpi\n        /* \"#utility.yul\":21127:21145   */\n      tag_435\n      tag_186\n      jump\t// in\n    tag_435:\n        /* \"#utility.yul\":21089:21147   */\n    tag_434:\n        /* \"#utility.yul\":20929:21154   */\n      pop\n        /* \"#utility.yul\":20883:21154   */\n      swap3\n      swap2\n      pop\n      pop\n      jump\t// out\n        /* \"#utility.yul\":21160:21348   */\n    tag_105:\n        /* \"#utility.yul\":21198:21201   */\n      0x00\n        /* \"#utility.yul\":21217:21235   */\n      tag_437\n        /* \"#utility.yul\":21233:21234   */\n      dup3\n        /* \"#utility.yul\":21217:21235   */\n      tag_203\n      jump\t// in\n    tag_437:\n        /* \"#utility.yul\":21212:21235   */\n      swap2\n      pop\n        /* \"#utility.yul\":21249:21267   */\n      tag_438\n        /* \"#utility.yul\":21265:21266   */\n      dup4\n        /* \"#utility.yul\":21249:21267   */\n      tag_203\n      jump\t// in\n    tag_438:\n        /* \"#utility.yul\":21244:21267   */\n      swap3\n      pop\n        /* \"#utility.yul\":21290:21291   */\n      dup3\n        /* \"#utility.yul\":21287:21288   */\n      dup3\n        /* \"#utility.yul\":21283:21292   */\n      add\n        /* \"#utility.yul\":21276:21292   */\n      swap1\n      pop\n        /* \"#utility.yul\":21313:21317   */\n      0xff\n        /* \"#utility.yul\":21308:21311   */\n      dup2\n        /* \"#utility.yul\":21305:21318   */\n      gt\n        /* \"#utility.yul\":21302:21341   */\n      iszero\n      tag_439\n      jumpi\n        /* \"#utility.yul\":21321:21339   */\n      tag_440\n      tag_186\n      jump\t// in\n    tag_440:\n        /* \"#utility.yul\":21302:21341   */\n    tag_439:\n        /* \"#utility.yul\":21160:21348   */\n      swap3\n      swap2\n      pop\n      pop\n      jump\t// out\n        /* \"#utility.yul\":21354:21545   */\n    tag_132:\n        /* \"#utility.yul\":21392:21396   */\n      0x00\n        /* \"#utility.yul\":21412:21430   */\n      tag_442\n        /* \"#utility.yul\":21428:21429   */\n      dup3\n        /* \"#utility.yul\":21412:21430   */\n      tag_203\n      jump\t// in\n    tag_442:\n        /* \"#utility.yul\":21407:21430   */\n      swap2\n      pop\n        /* \"#utility.yul\":21444:21462   */\n      tag_443\n        /* \"#utility.yul\":21460:21461   */\n      dup4\n        /* \"#utility.yul\":21444:21462   */\n      tag_203\n      jump\t// in\n    tag_443:\n        /* \"#utility.yul\":21439:21462   */\n      swap3\n      pop\n        /* \"#utility.yul\":21486:21487   */\n      dup3\n        /* \"#utility.yul\":21483:21484   */\n      dup3\n        /* \"#utility.yul\":21479:21488   */\n      sub\n        /* \"#utility.yul\":21471:21488   */\n      swap1\n      pop\n        /* \"#utility.yul\":21510:21514   */\n      0xff\n        /* \"#utility.yul\":21504:21508   */\n      dup2\n        /* \"#utility.yul\":21501:21515   */\n      gt\n        /* \"#utility.yul\":21498:21538   */\n      iszero\n      tag_444\n      jumpi\n        /* \"#utility.yul\":21518:21536   */\n      tag_445\n      tag_186\n      jump\t// in\n    tag_445:\n        /* \"#utility.yul\":21498:21538   */\n    tag_444:\n        /* \"#utility.yul\":21354:21545   */\n      swap3\n      swap2\n      pop\n      pop\n      jump\t// out\n        /* \"#utility.yul\":21551:21705   */\n    tag_204:\n        /* \"#utility.yul\":21691:21697   */\n      0x6661696c00000000000000000000000000000000000000000000000000000000\n        /* \"#utility.yul\":21687:21688   */\n      0x00\n        /* \"#utility.yul\":21679:21685   */\n      dup3\n        /* \"#utility.yul\":21675:21689   */\n      add\n        /* \"#utility.yul\":21668:21698   */\n      mstore\n        /* \"#utility.yul\":21551:21705   */\n      pop\n      jump\t// out\n        /* \"#utility.yul\":21711:22076   */\n    tag_205:\n        /* \"#utility.yul\":21853:21856   */\n      0x00\n        /* \"#utility.yul\":21874:21940   */\n      tag_448\n        /* \"#utility.yul\":21938:21939   */\n      0x04\n        /* \"#utility.yul\":21933:21936   */\n      dup4\n        /* \"#utility.yul\":21874:21940   */\n      tag_173\n      jump\t// in\n    tag_448:\n        /* \"#utility.yul\":21867:21940   */\n      swap2\n      pop\n        /* \"#utility.yul\":21949:22042   */\n      tag_449\n        /* \"#utility.yul\":22038:22041   */\n      dup3\n        /* \"#utility.yul\":21949:22042   */\n      tag_204\n      jump\t// in\n    tag_449:\n        /* \"#utility.yul\":22067:22069   */\n      0x20\n        /* \"#utility.yul\":22062:22065   */\n      dup3\n        /* \"#utility.yul\":22058:22070   */\n      add\n        /* \"#utility.yul\":22051:22070   */\n      swap1\n      pop\n        /* \"#utility.yul\":21711:22076   */\n      swap2\n      swap1\n      pop\n      jump\t// out\n        /* \"#utility.yul\":22082:22501   */\n    tag_142:\n        /* \"#utility.yul\":22248:22252   */\n      0x00\n        /* \"#utility.yul\":22286:22288   */\n      0x20\n        /* \"#utility.yul\":22275:22284   */\n      dup3\n        /* \"#utility.yul\":22271:22289   */\n      add\n        /* \"#utility.yul\":22263:22289   */\n      swap1\n      pop\n        /* \"#utility.yul\":22335:22344   */\n      dup2\n        /* \"#utility.yul\":22329:22333   */\n      dup2\n        /* \"#utility.yul\":22325:22345   */\n      sub\n        /* \"#utility.yul\":22321:22322   */\n      0x00\n        /* \"#utility.yul\":22310:22319   */\n      dup4\n        /* \"#utility.yul\":22306:22323   */\n      add\n        /* \"#utility.yul\":22299:22346   */\n      mstore\n        /* \"#utility.yul\":22363:22494   */\n      tag_451\n        /* \"#utility.yul\":22489:22493   */\n      dup2\n        /* \"#utility.yul\":22363:22494   */\n      tag_205\n      jump\t// in\n    tag_451:\n        /* \"#utility.yul\":22355:22494   */\n      swap1\n      pop\n        /* \"#utility.yul\":22082:22501   */\n      swap2\n      swap1\n      pop\n      jump\t// out\n\n    auxdata: 0xa264697066735822122018fbcd6263593b2933e4bbf2687b9bd95fae0978253333de63ab8fcbba59cb2a64736f6c63430008190033\n}\n",
				"bytecode": {
					"linkReferences": {
						"SolRsaVerify/src/RsaVerify.sol": {
							"RsaVerify": [
								{
									"length": 20,
									"start": 1412
								}
							]
						}
					},
					"object": "60806040526040518061012001604052806101008152602001611a8b61010091396003908161002e919061027a565b5034801561003a575f80fd5b50610349565b5f81519050919050565b7f4e487b71000000000000000000000000000000000000000000000000000000005f52604160045260245ffd5b7f4e487b71000000000000000000000000000000000000000000000000000000005f52602260045260245ffd5b5f60028204905060018216806100bb57607f821691505b6020821081036100ce576100cd610077565b5b50919050565b5f819050815f5260205f209050919050565b5f6020601f8301049050919050565b5f82821b905092915050565b5f600883026101307fffffffffffffffffffffffffffffffffffffffffffffffffffffffffffffffff826100f5565b61013a86836100f5565b95508019841693508086168417925050509392505050565b5f819050919050565b5f819050919050565b5f61017e61017961017484610152565b61015b565b610152565b9050919050565b5f819050919050565b61019783610164565b6101ab6101a382610185565b848454610101565b825550505050565b5f90565b6101bf6101b3565b6101ca81848461018e565b505050565b5b818110156101ed576101e25f826101b7565b6001810190506101d0565b5050565b601f82111561023257610203816100d4565b61020c846100e6565b8101602085101561021b578190505b61022f610227856100e6565b8301826101cf565b50505b505050565b5f82821c905092915050565b5f6102525f1984600802610237565b1980831691505092915050565b5f61026a8383610243565b9150826002028217905092915050565b61028382610040565b67ffffffffffffffff81111561029c5761029b61004a565b5b6102a682546100a4565b6102b18282856101f1565b5f60209050601f8311600181146102e2575f84156102d0578287015190505b6102da858261025f565b865550610341565b601f1984166102f0866100d4565b5f5b82811015610317578489015182556001820191506020850194506020810190506102f2565b868310156103345784890151610330601f891682610243565b8355505b6001600288020188555050505b505050505050565b611735806103565f395ff3fe608060405234801561000f575f80fd5b5060043610610034575f3560e01c80630dc960151461003857806395f59fe114610057575b5f80fd5b610040610087565b60405161004e929190610d04565b60405180910390f35b610071600480360381019061006c9190610e76565b61022a565b60405161007e9190610f62565b60405180910390f35b6060805f60018054905067ffffffffffffffff8111156100aa576100a9610d52565b5b6040519080825280602002602001820160405280156100d85781602001602082028036833780820191505090505b5090505f5b60018054905081101561014f575f600182815481106100ff576100fe610f82565b5b905f5260205f200160405161011491906110a8565b90815260200160405180910390205482828151811061013657610135610f82565b5b60200260200101818152505080806001019150506100dd565b5060018181805480602002602001604051908101604052809291908181526020015f905b8282101561021b578382905f5260205f2001805461019090610fdc565b80601f01602080910402602001604051908101604052809291908181526020018280546101bc90610fdc565b80156102075780601f106101de57610100808354040283529160200191610207565b820191905f5260205f20905b8154815290600101906020018083116101ea57829003601f168201915b505050505081526020019060010190610173565b50505050915092509250509091565b606073__$e231e4c09a57f4229a7d07a317ef2026bc$__631e8dc88885610250866104b9565b6102e16003805461026090610fdc565b80601f016020809104026020016040519081016040528092919081815260200182805461028c90610fdc565b80156102d75780601f106102ae576101008083540402835291602001916102d7565b820191905f5260205f20905b8154815290600101906020018083116102ba57829003601f168201915b50505050506104b9565b6102ea876104b9565b6040518563ffffffff1660e01b81526004016103099493929190611110565b602060405180830381865af4158015610324573d5f803e3d5ffd5b505050506040513d601f19601f8201168201806040525081019061034891906111a4565b156104795761035684610631565b80156103685750610366826106d3565b155b156103a65760015f8560405161037e91906111ff565b90815260200160405180910390205f82825461039a9190611242565b9250508190555061043c565b6103af826106d3565b61043b5760015f856040516103c491906111ff565b908152602001604051809103902081905550600282908060018154018082558091505060019003905f5260205f20015f9091909190915090816104079190611417565b50600184908060018154018082558091505060019003905f5260205f20015f9091909190915090816104399190611417565b505b5b6040518060400160405280600281526020017f4f4b00000000000000000000000000000000000000000000000000000000000081525090506104b2565b6040518060400160405280600681526020017f4e6f74204f4b000000000000000000000000000000000000000000000000000081525090505b9392505050565b60605f8290505f600282516104ce9190611513565b146104d7575f80fd5b5f600282516104e69190611543565b67ffffffffffffffff8111156104ff576104fe610d52565b5b6040519080825280601f01601f1916602001820160405280156105315781602001600182028036833780820191505090505b5090505f5b600283516105449190611543565b8110156106265761058c83600183600261055e9190611573565b61056891906115b4565b8151811061057957610578610f82565b5b602001015160f81c60f81b60f81c610775565b60106105c38584600261059f9190611573565b815181106105b0576105af610f82565b5b602001015160f81c60f81b60f81c610775565b6105cd91906115f3565b6105d7919061162f565b60f81b8282815181106105ed576105ec610f82565b5b60200101907effffffffffffffffffffffffffffffffffffffffffffffffffffffffffffff191690815f1a905350806001019050610536565b508092505050919050565b5f805f90505b6001805490508110156106c9578260405160200161065591906111ff565b604051602081830303815290604052805190602001206001828154811061067f5761067e610f82565b5b905f5260205f200160405160200161069791906110a8565b60405160208183030381529060405280519060200120036106bc5760019150506106ce565b8080600101915050610637565b505f90505b919050565b5f805f90505b60018054905081101561076b57826040516020016106f791906111ff565b604051602081830303815290604052805190602001206002828154811061072157610720610f82565b5b905f5260205f200160405160200161073991906110a8565b604051602081830303815290604052805190602001200361075e576001915050610770565b80806001019150506106d9565b505f90505b919050565b5f7f30000000000000000000000000000000000000000000000000000000000000007effffffffffffffffffffffffffffffffffffffffffffffffffffffffffffff19168260f81b7effffffffffffffffffffffffffffffffffffffffffffffffffffffffffffff19161015801561085457507f39000000000000000000000000000000000000000000000000000000000000007effffffffffffffffffffffffffffffffffffffffffffffffffffffffffffff19168260f81b7effffffffffffffffffffffffffffffffffffffffffffffffffffffffffffff191611155b1561088f577f300000000000000000000000000000000000000000000000000000000000000060f81c826108889190611663565b9050610b14565b7f61000000000000000000000000000000000000000000000000000000000000007effffffffffffffffffffffffffffffffffffffffffffffffffffffffffffff19168260f81b7effffffffffffffffffffffffffffffffffffffffffffffffffffffffffffff19161015801561096d57507f66000000000000000000000000000000000000000000000000000000000000007effffffffffffffffffffffffffffffffffffffffffffffffffffffffffffff19168260f81b7effffffffffffffffffffffffffffffffffffffffffffffffffffffffffffff191611155b156109b4577f610000000000000000000000000000000000000000000000000000000000000060f81c82600a6109a3919061162f565b6109ad9190611663565b9050610b14565b7f41000000000000000000000000000000000000000000000000000000000000007effffffffffffffffffffffffffffffffffffffffffffffffffffffffffffff19168260f81b7effffffffffffffffffffffffffffffffffffffffffffffffffffffffffffff191610158015610a9257507f46000000000000000000000000000000000000000000000000000000000000007effffffffffffffffffffffffffffffffffffffffffffffffffffffffffffff19168260f81b7effffffffffffffffffffffffffffffffffffffffffffffffffffffffffffff191611155b15610ad9577f410000000000000000000000000000000000000000000000000000000000000060f81c82600a610ac8919061162f565b610ad29190611663565b9050610b14565b6040517f08c379a0000000000000000000000000000000000000000000000000000000008152600401610b0b906116e1565b60405180910390fd5b919050565b5f81519050919050565b5f82825260208201905092915050565b5f819050602082019050919050565b5f81519050919050565b5f82825260208201905092915050565b8281835e5f83830152505050565b5f601f19601f8301169050919050565b5f610b8482610b42565b610b8e8185610b4c565b9350610b9e818560208601610b5c565b610ba781610b6a565b840191505092915050565b5f610bbd8383610b7a565b905092915050565b5f602082019050919050565b5f610bdb82610b19565b610be58185610b23565b935083602082028501610bf785610b33565b805f5b85811015610c325784840389528151610c138582610bb2565b9450610c1e83610bc5565b925060208a01995050600181019050610bfa565b50829750879550505050505092915050565b5f81519050919050565b5f82825260208201905092915050565b5f819050602082019050919050565b5f819050919050565b610c7f81610c6d565b82525050565b5f610c908383610c76565b60208301905092915050565b5f602082019050919050565b5f610cb282610c44565b610cbc8185610c4e565b9350610cc783610c5e565b805f5b83811015610cf7578151610cde8882610c85565b9750610ce983610c9c565b925050600181019050610cca565b5085935050505092915050565b5f6040820190508181035f830152610d1c8185610bd1565b90508181036020830152610d308184610ca8565b90509392505050565b5f604051905090565b5f80fd5b5f80fd5b5f80fd5b5f80fd5b7f4e487b71000000000000000000000000000000000000000000000000000000005f52604160045260245ffd5b610d8882610b6a565b810181811067ffffffffffffffff82111715610da757610da6610d52565b5b80604052505050565b5f610db9610d39565b9050610dc58282610d7f565b919050565b5f67ffffffffffffffff821115610de457610de3610d52565b5b610ded82610b6a565b9050602081019050919050565b828183375f83830152505050565b5f610e1a610e1584610dca565b610db0565b905082815260208101848484011115610e3657610e35610d4e565b5b610e41848285610dfa565b509392505050565b5f82601f830112610e5d57610e5c610d4a565b5b8135610e6d848260208601610e08565b91505092915050565b5f805f60608486031215610e8d57610e8c610d42565b5b5f84013567ffffffffffffffff811115610eaa57610ea9610d46565b5b610eb686828701610e49565b935050602084013567ffffffffffffffff811115610ed757610ed6610d46565b5b610ee386828701610e49565b925050604084013567ffffffffffffffff811115610f0457610f03610d46565b5b610f1086828701610e49565b9150509250925092565b5f82825260208201905092915050565b5f610f3482610b42565b610f3e8185610f1a565b9350610f4e818560208601610b5c565b610f5781610b6a565b840191505092915050565b5f6020820190508181035f830152610f7a8184610f2a565b905092915050565b7f4e487b71000000000000000000000000000000000000000000000000000000005f52603260045260245ffd5b7f4e487b71000000000000000000000000000000000000000000000000000000005f52602260045260245ffd5b5f6002820490506001821680610ff357607f821691505b60208210810361100657611005610faf565b5b50919050565b5f81905092915050565b5f819050815f5260205f209050919050565b5f815461103481610fdc565b61103e818661100c565b9450600182165f8114611058576001811461106d5761109f565b60ff198316865281151582028601935061109f565b61107685611016565b5f5b8381101561109757815481890152600182019150602081019050611078565b838801955050505b50505092915050565b5f6110b38284611028565b915081905092915050565b5f81519050919050565b5f82825260208201905092915050565b5f6110e2826110be565b6110ec81856110c8565b93506110fc818560208601610b5c565b61110581610b6a565b840191505092915050565b5f6080820190508181035f83015261112881876110d8565b9050818103602083015261113c81866110d8565b9050818103604083015261115081856110d8565b9050818103606083015261116481846110d8565b905095945050505050565b5f8115159050919050565b6111838161116f565b811461118d575f80fd5b50565b5f8151905061119e8161117a565b92915050565b5f602082840312156111b9576111b8610d42565b5b5f6111c684828501611190565b91505092915050565b5f6111d982610b42565b6111e3818561100c565b93506111f3818560208601610b5c565b80840191505092915050565b5f61120a82846111cf565b915081905092915050565b7f4e487b71000000000000000000000000000000000000000000000000000000005f52601160045260245ffd5b5f61124c82610c6d565b915061125783610c6d565b92508282019050828112155f8312168382125f84121516171561127d5761127c611215565b5b92915050565b5f6020601f8301049050919050565b5f82821b905092915050565b5f600883026112cd7fffffffffffffffffffffffffffffffffffffffffffffffffffffffffffffffff82611292565b6112d78683611292565b95508019841693508086168417925050509392505050565b5f819050919050565b5f819050919050565b5f61131b611316611311846112ef565b6112f8565b6112ef565b9050919050565b5f819050919050565b61133483611301565b61134861134082611322565b84845461129e565b825550505050565b5f90565b61135c611350565b61136781848461132b565b505050565b5b8181101561138a5761137f5f82611354565b60018101905061136d565b5050565b601f8211156113cf576113a081611016565b6113a984611283565b810160208510156113b8578190505b6113cc6113c485611283565b83018261136c565b50505b505050565b5f82821c905092915050565b5f6113ef5f19846008026113d4565b1980831691505092915050565b5f61140783836113e0565b9150826002028217905092915050565b61142082610b42565b67ffffffffffffffff81111561143957611438610d52565b5b6114438254610fdc565b61144e82828561138e565b5f60209050601f83116001811461147f575f841561146d578287015190505b61147785826113fc565b8655506114de565b601f19841661148d86611016565b5f5b828110156114b45784890151825560018201915060208501945060208101905061148f565b868310156114d157848901516114cd601f8916826113e0565b8355505b6001600288020188555050505b505050505050565b7f4e487b71000000000000000000000000000000000000000000000000000000005f52601260045260245ffd5b5f61151d826112ef565b9150611528836112ef565b925082611538576115376114e6565b5b828206905092915050565b5f61154d826112ef565b9150611558836112ef565b925082611568576115676114e6565b5b828204905092915050565b5f61157d826112ef565b9150611588836112ef565b9250828202611596816112ef565b915082820484148315176115ad576115ac611215565b5b5092915050565b5f6115be826112ef565b91506115c9836112ef565b92508282019050808211156115e1576115e0611215565b5b92915050565b5f60ff82169050919050565b5f6115fd826115e7565b9150611608836115e7565b9250828202611616816115e7565b915080821461162857611627611215565b5b5092915050565b5f611639826115e7565b9150611644836115e7565b9250828201905060ff81111561165d5761165c611215565b5b92915050565b5f61166d826115e7565b9150611678836115e7565b9250828203905060ff81111561169157611690611215565b5b92915050565b7f6661696c000000000000000000000000000000000000000000000000000000005f82015250565b5f6116cb600483610f1a565b91506116d682611697565b602082019050919050565b5f6020820190508181035f8301526116f8816116bf565b905091905056fea264697066735822122018fbcd6263593b2933e4bbf2687b9bd95fae0978253333de63ab8fcbba59cb2a64736f6c6343000819003330303030303030303030303030303030303030303030303030303030303030303030303030303030303030303030303030303030303030303030303030303030303030303030303030303030303030303030303030303030303030303030303030303030303030303030303030303030303030303030303030303030303030303030303030303030303030303030303030303030303030303030303030303030303030303030303030303030303030303030303030303030303030303030303030303030303030303030303030303030303030303030303030303030303030303030303030303030303030303030303030303030303030303030303130303031",
					"opcodes": "PUSH1 0x80 PUSH1 0x40 MSTORE PUSH1 0x40 MLOAD DUP1 PUSH2 0x120 ADD PUSH1 0x40 MSTORE DUP1 PUSH2 0x100 DUP2 MSTORE PUSH1 0x20 ADD PUSH2 0x1A8B PUSH2 0x100 SWAP2 CODECOPY PUSH1 0x3 SWAP1 DUP2 PUSH2 0x2E SWAP2 SWAP1 PUSH2 0x27A JUMP JUMPDEST POP CALLVALUE DUP1 ISZERO PUSH2 0x3A JUMPI PUSH0 DUP1 REVERT JUMPDEST POP PUSH2 0x349 JUMP JUMPDEST PUSH0 DUP2 MLOAD SWAP1 POP SWAP2 SWAP1 POP JUMP JUMPDEST PUSH32 0x4E487B7100000000000000000000000000000000000000000000000000000000 PUSH0 MSTORE PUSH1 0x41 PUSH1 0x4 MSTORE PUSH1 0x24 PUSH0 REVERT JUMPDEST PUSH32 0x4E487B7100000000000000000000000000000000000000000000000000000000 PUSH0 MSTORE PUSH1 0x22 PUSH1 0x4 MSTORE PUSH1 0x24 PUSH0 REVERT JUMPDEST PUSH0 PUSH1 0x2 DUP3 DIV SWAP1 POP PUSH1 0x1 DUP3 AND DUP1 PUSH2 0xBB JUMPI PUSH1 0x7F DUP3 AND SWAP2 POP JUMPDEST PUSH1 0x20 DUP3 LT DUP2 SUB PUSH2 0xCE JUMPI PUSH2 0xCD PUSH2 0x77 JUMP JUMPDEST JUMPDEST POP SWAP2 SWAP1 POP JUMP JUMPDEST PUSH0 DUP2 SWAP1 POP DUP2 PUSH0 MSTORE PUSH1 0x20 PUSH0 KECCAK256 SWAP1 POP SWAP2 SWAP1 POP JUMP JUMPDEST PUSH0 PUSH1 0x20 PUSH1 0x1F DUP4 ADD DIV SWAP1 POP SWAP2 SWAP1 POP JUMP JUMPDEST PUSH0 DUP3 DUP3 SHL SWAP1 POP SWAP3 SWAP2 POP POP JUMP JUMPDEST PUSH0 PUSH1 0x8 DUP4 MUL PUSH2 0x130 PUSH32 0xFFFFFFFFFFFFFFFFFFFFFFFFFFFFFFFFFFFFFFFFFFFFFFFFFFFFFFFFFFFFFFFF DUP3 PUSH2 0xF5 JUMP JUMPDEST PUSH2 0x13A DUP7 DUP4 PUSH2 0xF5 JUMP JUMPDEST SWAP6 POP DUP1 NOT DUP5 AND SWAP4 POP DUP1 DUP7 AND DUP5 OR SWAP3 POP POP POP SWAP4 SWAP3 POP POP POP JUMP JUMPDEST PUSH0 DUP2 SWAP1 POP SWAP2 SWAP1 POP JUMP JUMPDEST PUSH0 DUP2 SWAP1 POP SWAP2 SWAP1 POP JUMP JUMPDEST PUSH0 PUSH2 0x17E PUSH2 0x179 PUSH2 0x174 DUP5 PUSH2 0x152 JUMP JUMPDEST PUSH2 0x15B JUMP JUMPDEST PUSH2 0x152 JUMP JUMPDEST SWAP1 POP SWAP2 SWAP1 POP JUMP JUMPDEST PUSH0 DUP2 SWAP1 POP SWAP2 SWAP1 POP JUMP JUMPDEST PUSH2 0x197 DUP4 PUSH2 0x164 JUMP JUMPDEST PUSH2 0x1AB PUSH2 0x1A3 DUP3 PUSH2 0x185 JUMP JUMPDEST DUP5 DUP5 SLOAD PUSH2 0x101 JUMP JUMPDEST DUP3 SSTORE POP POP POP POP JUMP JUMPDEST PUSH0 SWAP1 JUMP JUMPDEST PUSH2 0x1BF PUSH2 0x1B3 JUMP JUMPDEST PUSH2 0x1CA DUP2 DUP5 DUP5 PUSH2 0x18E JUMP JUMPDEST POP POP POP JUMP JUMPDEST JUMPDEST DUP2 DUP2 LT ISZERO PUSH2 0x1ED JUMPI PUSH2 0x1E2 PUSH0 DUP3 PUSH2 0x1B7 JUMP JUMPDEST PUSH1 0x1 DUP2 ADD SWAP1 POP PUSH2 0x1D0 JUMP JUMPDEST POP POP JUMP JUMPDEST PUSH1 0x1F DUP3 GT ISZERO PUSH2 0x232 JUMPI PUSH2 0x203 DUP2 PUSH2 0xD4 JUMP JUMPDEST PUSH2 0x20C DUP5 PUSH2 0xE6 JUMP JUMPDEST DUP2 ADD PUSH1 0x20 DUP6 LT ISZERO PUSH2 0x21B JUMPI DUP2 SWAP1 POP JUMPDEST PUSH2 0x22F PUSH2 0x227 DUP6 PUSH2 0xE6 JUMP JUMPDEST DUP4 ADD DUP3 PUSH2 0x1CF JUMP JUMPDEST POP POP JUMPDEST POP POP POP JUMP JUMPDEST PUSH0 DUP3 DUP3 SHR SWAP1 POP SWAP3 SWAP2 POP POP JUMP JUMPDEST PUSH0 PUSH2 0x252 PUSH0 NOT DUP5 PUSH1 0x8 MUL PUSH2 0x237 JUMP JUMPDEST NOT DUP1 DUP4 AND SWAP2 POP POP SWAP3 SWAP2 POP POP JUMP JUMPDEST PUSH0 PUSH2 0x26A DUP4 DUP4 PUSH2 0x243 JUMP JUMPDEST SWAP2 POP DUP3 PUSH1 0x2 MUL DUP3 OR SWAP1 POP SWAP3 SWAP2 POP POP JUMP JUMPDEST PUSH2 0x283 DUP3 PUSH2 0x40 JUMP JUMPDEST PUSH8 0xFFFFFFFFFFFFFFFF DUP2 GT ISZERO PUSH2 0x29C JUMPI PUSH2 0x29B PUSH2 0x4A JUMP JUMPDEST JUMPDEST PUSH2 0x2A6 DUP3 SLOAD PUSH2 0xA4 JUMP JUMPDEST PUSH2 0x2B1 DUP3 DUP3 DUP6 PUSH2 0x1F1 JUMP JUMPDEST PUSH0 PUSH1 0x20 SWAP1 POP PUSH1 0x1F DUP4 GT PUSH1 0x1 DUP2 EQ PUSH2 0x2E2 JUMPI PUSH0 DUP5 ISZERO PUSH2 0x2D0 JUMPI DUP3 DUP8 ADD MLOAD SWAP1 POP JUMPDEST PUSH2 0x2DA DUP6 DUP3 PUSH2 0x25F JUMP JUMPDEST DUP7 SSTORE POP PUSH2 0x341 JUMP JUMPDEST PUSH1 0x1F NOT DUP5 AND PUSH2 0x2F0 DUP7 PUSH2 0xD4 JUMP JUMPDEST PUSH0 JUMPDEST DUP3 DUP2 LT ISZERO PUSH2 0x317 JUMPI DUP5 DUP10 ADD MLOAD DUP3 SSTORE PUSH1 0x1 DUP3 ADD SWAP2 POP PUSH1 0x20 DUP6 ADD SWAP5 POP PUSH1 0x20 DUP2 ADD SWAP1 POP PUSH2 0x2F2 JUMP JUMPDEST DUP7 DUP4 LT ISZERO PUSH2 0x334 JUMPI DUP5 DUP10 ADD MLOAD PUSH2 0x330 PUSH1 0x1F DUP10 AND DUP3 PUSH2 0x243 JUMP JUMPDEST DUP4 SSTORE POP JUMPDEST PUSH1 0x1 PUSH1 0x2 DUP9 MUL ADD DUP9 SSTORE POP POP POP JUMPDEST POP POP POP POP POP POP JUMP JUMPDEST PUSH2 0x1735 DUP1 PUSH2 0x356 PUSH0 CODECOPY PUSH0 RETURN INVALID PUSH1 0x80 PUSH1 0x40 MSTORE CALLVALUE DUP1 ISZERO PUSH2 0xF JUMPI PUSH0 DUP1 REVERT JUMPDEST POP PUSH1 0x4 CALLDATASIZE LT PUSH2 0x34 JUMPI PUSH0 CALLDATALOAD PUSH1 0xE0 SHR DUP1 PUSH4 0xDC96015 EQ PUSH2 0x38 JUMPI DUP1 PUSH4 0x95F59FE1 EQ PUSH2 0x57 JUMPI JUMPDEST PUSH0 DUP1 REVERT JUMPDEST PUSH2 0x40 PUSH2 0x87 JUMP JUMPDEST PUSH1 0x40 MLOAD PUSH2 0x4E SWAP3 SWAP2 SWAP1 PUSH2 0xD04 JUMP JUMPDEST PUSH1 0x40 MLOAD DUP1 SWAP2 SUB SWAP1 RETURN JUMPDEST PUSH2 0x71 PUSH1 0x4 DUP1 CALLDATASIZE SUB DUP2 ADD SWAP1 PUSH2 0x6C SWAP2 SWAP1 PUSH2 0xE76 JUMP JUMPDEST PUSH2 0x22A JUMP JUMPDEST PUSH1 0x40 MLOAD PUSH2 0x7E SWAP2 SWAP1 PUSH2 0xF62 JUMP JUMPDEST PUSH1 0x40 MLOAD DUP1 SWAP2 SUB SWAP1 RETURN JUMPDEST PUSH1 0x60 DUP1 PUSH0 PUSH1 0x1 DUP1 SLOAD SWAP1 POP PUSH8 0xFFFFFFFFFFFFFFFF DUP2 GT ISZERO PUSH2 0xAA JUMPI PUSH2 0xA9 PUSH2 0xD52 JUMP JUMPDEST JUMPDEST PUSH1 0x40 MLOAD SWAP1 DUP1 DUP3 MSTORE DUP1 PUSH1 0x20 MUL PUSH1 0x20 ADD DUP3 ADD PUSH1 0x40 MSTORE DUP1 ISZERO PUSH2 0xD8 JUMPI DUP2 PUSH1 0x20 ADD PUSH1 0x20 DUP3 MUL DUP1 CALLDATASIZE DUP4 CALLDATACOPY DUP1 DUP3 ADD SWAP2 POP POP SWAP1 POP JUMPDEST POP SWAP1 POP PUSH0 JUMPDEST PUSH1 0x1 DUP1 SLOAD SWAP1 POP DUP2 LT ISZERO PUSH2 0x14F JUMPI PUSH0 PUSH1 0x1 DUP3 DUP2 SLOAD DUP2 LT PUSH2 0xFF JUMPI PUSH2 0xFE PUSH2 0xF82 JUMP JUMPDEST JUMPDEST SWAP1 PUSH0 MSTORE PUSH1 0x20 PUSH0 KECCAK256 ADD PUSH1 0x40 MLOAD PUSH2 0x114 SWAP2 SWAP1 PUSH2 0x10A8 JUMP JUMPDEST SWAP1 DUP2 MSTORE PUSH1 0x20 ADD PUSH1 0x40 MLOAD DUP1 SWAP2 SUB SWAP1 KECCAK256 SLOAD DUP3 DUP3 DUP2 MLOAD DUP2 LT PUSH2 0x136 JUMPI PUSH2 0x135 PUSH2 0xF82 JUMP JUMPDEST JUMPDEST PUSH1 0x20 MUL PUSH1 0x20 ADD ADD DUP2 DUP2 MSTORE POP POP DUP1 DUP1 PUSH1 0x1 ADD SWAP2 POP POP PUSH2 0xDD JUMP JUMPDEST POP PUSH1 0x1 DUP2 DUP2 DUP1 SLOAD DUP1 PUSH1 0x20 MUL PUSH1 0x20 ADD PUSH1 0x40 MLOAD SWAP1 DUP2 ADD PUSH1 0x40 MSTORE DUP1 SWAP3 SWAP2 SWAP1 DUP2 DUP2 MSTORE PUSH1 0x20 ADD PUSH0 SWAP1 JUMPDEST DUP3 DUP3 LT ISZERO PUSH2 0x21B JUMPI DUP4 DUP3 SWAP1 PUSH0 MSTORE PUSH1 0x20 PUSH0 KECCAK256 ADD DUP1 SLOAD PUSH2 0x190 SWAP1 PUSH2 0xFDC JUMP JUMPDEST DUP1 PUSH1 0x1F ADD PUSH1 0x20 DUP1 SWAP2 DIV MUL PUSH1 0x20 ADD PUSH1 0x40 MLOAD SWAP1 DUP2 ADD PUSH1 0x40 MSTORE DUP1 SWAP3 SWAP2 SWAP1 DUP2 DUP2 MSTORE PUSH1 0x20 ADD DUP3 DUP1 SLOAD PUSH2 0x1BC SWAP1 PUSH2 0xFDC JUMP JUMPDEST DUP1 ISZERO PUSH2 0x207 JUMPI DUP1 PUSH1 0x1F LT PUSH2 0x1DE JUMPI PUSH2 0x100 DUP1 DUP4 SLOAD DIV MUL DUP4 MSTORE SWAP2 PUSH1 0x20 ADD SWAP2 PUSH2 0x207 JUMP JUMPDEST DUP3 ADD SWAP2 SWAP1 PUSH0 MSTORE PUSH1 0x20 PUSH0 KECCAK256 SWAP1 JUMPDEST DUP2 SLOAD DUP2 MSTORE SWAP1 PUSH1 0x1 ADD SWAP1 PUSH1 0x20 ADD DUP1 DUP4 GT PUSH2 0x1EA JUMPI DUP3 SWAP1 SUB PUSH1 0x1F AND DUP3 ADD SWAP2 JUMPDEST POP POP POP POP POP DUP2 MSTORE PUSH1 0x20 ADD SWAP1 PUSH1 0x1 ADD SWAP1 PUSH2 0x173 JUMP JUMPDEST POP POP POP POP SWAP2 POP SWAP3 POP SWAP3 POP POP SWAP1 SWAP2 JUMP JUMPDEST PUSH1 0x60 PUSH20 0x0 PUSH4 0x1E8DC888 DUP6 PUSH2 0x250 DUP7 PUSH2 0x4B9 JUMP JUMPDEST PUSH2 0x2E1 PUSH1 0x3 DUP1 SLOAD PUSH2 0x260 SWAP1 PUSH2 0xFDC JUMP JUMPDEST DUP1 PUSH1 0x1F ADD PUSH1 0x20 DUP1 SWAP2 DIV MUL PUSH1 0x20 ADD PUSH1 0x40 MLOAD SWAP1 DUP2 ADD PUSH1 0x40 MSTORE DUP1 SWAP3 SWAP2 SWAP1 DUP2 DUP2 MSTORE PUSH1 0x20 ADD DUP3 DUP1 SLOAD PUSH2 0x28C SWAP1 PUSH2 0xFDC JUMP JUMPDEST DUP1 ISZERO PUSH2 0x2D7 JUMPI DUP1 PUSH1 0x1F LT PUSH2 0x2AE JUMPI PUSH2 0x100 DUP1 DUP4 SLOAD DIV MUL DUP4 MSTORE SWAP2 PUSH1 0x20 ADD SWAP2 PUSH2 0x2D7 JUMP JUMPDEST DUP3 ADD SWAP2 SWAP1 PUSH0 MSTORE PUSH1 0x20 PUSH0 KECCAK256 SWAP1 JUMPDEST DUP2 SLOAD DUP2 MSTORE SWAP1 PUSH1 0x1 ADD SWAP1 PUSH1 0x20 ADD DUP1 DUP4 GT PUSH2 0x2BA JUMPI DUP3 SWAP1 SUB PUSH1 0x1F AND DUP3 ADD SWAP2 JUMPDEST POP POP POP POP POP PUSH2 0x4B9 JUMP JUMPDEST PUSH2 0x2EA DUP8 PUSH2 0x4B9 JUMP JUMPDEST PUSH1 0x40 MLOAD DUP6 PUSH4 0xFFFFFFFF AND PUSH1 0xE0 SHL DUP2 MSTORE PUSH1 0x4 ADD PUSH2 0x309 SWAP5 SWAP4 SWAP3 SWAP2 SWAP1 PUSH2 0x1110 JUMP JUMPDEST PUSH1 0x20 PUSH1 0x40 MLOAD DUP1 DUP4 SUB DUP2 DUP7 GAS DELEGATECALL ISZERO DUP1 ISZERO PUSH2 0x324 JUMPI RETURNDATASIZE PUSH0 DUP1 RETURNDATACOPY RETURNDATASIZE PUSH0 REVERT JUMPDEST POP POP POP POP PUSH1 0x40 MLOAD RETURNDATASIZE PUSH1 0x1F NOT PUSH1 0x1F DUP3 ADD AND DUP3 ADD DUP1 PUSH1 0x40 MSTORE POP DUP2 ADD SWAP1 PUSH2 0x348 SWAP2 SWAP1 PUSH2 0x11A4 JUMP JUMPDEST ISZERO PUSH2 0x479 JUMPI PUSH2 0x356 DUP5 PUSH2 0x631 JUMP JUMPDEST DUP1 ISZERO PUSH2 0x368 JUMPI POP PUSH2 0x366 DUP3 PUSH2 0x6D3 JUMP JUMPDEST ISZERO JUMPDEST ISZERO PUSH2 0x3A6 JUMPI PUSH1 0x1 PUSH0 DUP6 PUSH1 0x40 MLOAD PUSH2 0x37E SWAP2 SWAP1 PUSH2 0x11FF JUMP JUMPDEST SWAP1 DUP2 MSTORE PUSH1 0x20 ADD PUSH1 0x40 MLOAD DUP1 SWAP2 SUB SWAP1 KECCAK256 PUSH0 DUP3 DUP3 SLOAD PUSH2 0x39A SWAP2 SWAP1 PUSH2 0x1242 JUMP JUMPDEST SWAP3 POP POP DUP2 SWAP1 SSTORE POP PUSH2 0x43C JUMP JUMPDEST PUSH2 0x3AF DUP3 PUSH2 0x6D3 JUMP JUMPDEST PUSH2 0x43B JUMPI PUSH1 0x1 PUSH0 DUP6 PUSH1 0x40 MLOAD PUSH2 0x3C4 SWAP2 SWAP1 PUSH2 0x11FF JUMP JUMPDEST SWAP1 DUP2 MSTORE PUSH1 0x20 ADD PUSH1 0x40 MLOAD DUP1 SWAP2 SUB SWAP1 KECCAK256 DUP2 SWAP1 SSTORE POP PUSH1 0x2 DUP3 SWAP1 DUP1 PUSH1 0x1 DUP2 SLOAD ADD DUP1 DUP3 SSTORE DUP1 SWAP2 POP POP PUSH1 0x1 SWAP1 SUB SWAP1 PUSH0 MSTORE PUSH1 0x20 PUSH0 KECCAK256 ADD PUSH0 SWAP1 SWAP2 SWAP1 SWAP2 SWAP1 SWAP2 POP SWAP1 DUP2 PUSH2 0x407 SWAP2 SWAP1 PUSH2 0x1417 JUMP JUMPDEST POP PUSH1 0x1 DUP5 SWAP1 DUP1 PUSH1 0x1 DUP2 SLOAD ADD DUP1 DUP3 SSTORE DUP1 SWAP2 POP POP PUSH1 0x1 SWAP1 SUB SWAP1 PUSH0 MSTORE PUSH1 0x20 PUSH0 KECCAK256 ADD PUSH0 SWAP1 SWAP2 SWAP1 SWAP2 SWAP1 SWAP2 POP SWAP1 DUP2 PUSH2 0x439 SWAP2 SWAP1 PUSH2 0x1417 JUMP JUMPDEST POP JUMPDEST JUMPDEST PUSH1 0x40 MLOAD DUP1 PUSH1 0x40 ADD PUSH1 0x40 MSTORE DUP1 PUSH1 0x2 DUP2 MSTORE PUSH1 0x20 ADD PUSH32 0x4F4B000000000000000000000000000000000000000000000000000000000000 DUP2 MSTORE POP SWAP1 POP PUSH2 0x4B2 JUMP JUMPDEST PUSH1 0x40 MLOAD DUP1 PUSH1 0x40 ADD PUSH1 0x40 MSTORE DUP1 PUSH1 0x6 DUP2 MSTORE PUSH1 0x20 ADD PUSH32 0x4E6F74204F4B0000000000000000000000000000000000000000000000000000 DUP2 MSTORE POP SWAP1 POP JUMPDEST SWAP4 SWAP3 POP POP POP JUMP JUMPDEST PUSH1 0x60 PUSH0 DUP3 SWAP1 POP PUSH0 PUSH1 0x2 DUP3 MLOAD PUSH2 0x4CE SWAP2 SWAP1 PUSH2 0x1513 JUMP JUMPDEST EQ PUSH2 0x4D7 JUMPI PUSH0 DUP1 REVERT JUMPDEST PUSH0 PUSH1 0x2 DUP3 MLOAD PUSH2 0x4E6 SWAP2 SWAP1 PUSH2 0x1543 JUMP JUMPDEST PUSH8 0xFFFFFFFFFFFFFFFF DUP2 GT ISZERO PUSH2 0x4FF JUMPI PUSH2 0x4FE PUSH2 0xD52 JUMP JUMPDEST JUMPDEST PUSH1 0x40 MLOAD SWAP1 DUP1 DUP3 MSTORE DUP1 PUSH1 0x1F ADD PUSH1 0x1F NOT AND PUSH1 0x20 ADD DUP3 ADD PUSH1 0x40 MSTORE DUP1 ISZERO PUSH2 0x531 JUMPI DUP2 PUSH1 0x20 ADD PUSH1 0x1 DUP3 MUL DUP1 CALLDATASIZE DUP4 CALLDATACOPY DUP1 DUP3 ADD SWAP2 POP POP SWAP1 POP JUMPDEST POP SWAP1 POP PUSH0 JUMPDEST PUSH1 0x2 DUP4 MLOAD PUSH2 0x544 SWAP2 SWAP1 PUSH2 0x1543 JUMP JUMPDEST DUP2 LT ISZERO PUSH2 0x626 JUMPI PUSH2 0x58C DUP4 PUSH1 0x1 DUP4 PUSH1 0x2 PUSH2 0x55E SWAP2 SWAP1 PUSH2 0x1573 JUMP JUMPDEST PUSH2 0x568 SWAP2 SWAP1 PUSH2 0x15B4 JUMP JUMPDEST DUP2 MLOAD DUP2 LT PUSH2 0x579 JUMPI PUSH2 0x578 PUSH2 0xF82 JUMP JUMPDEST JUMPDEST PUSH1 0x20 ADD ADD MLOAD PUSH1 0xF8 SHR PUSH1 0xF8 SHL PUSH1 0xF8 SHR PUSH2 0x775 JUMP JUMPDEST PUSH1 0x10 PUSH2 0x5C3 DUP6 DUP5 PUSH1 0x2 PUSH2 0x59F SWAP2 SWAP1 PUSH2 0x1573 JUMP JUMPDEST DUP2 MLOAD DUP2 LT PUSH2 0x5B0 JUMPI PUSH2 0x5AF PUSH2 0xF82 JUMP JUMPDEST JUMPDEST PUSH1 0x20 ADD ADD MLOAD PUSH1 0xF8 SHR PUSH1 0xF8 SHL PUSH1 0xF8 SHR PUSH2 0x775 JUMP JUMPDEST PUSH2 0x5CD SWAP2 SWAP1 PUSH2 0x15F3 JUMP JUMPDEST PUSH2 0x5D7 SWAP2 SWAP1 PUSH2 0x162F JUMP JUMPDEST PUSH1 0xF8 SHL DUP3 DUP3 DUP2 MLOAD DUP2 LT PUSH2 0x5ED JUMPI PUSH2 0x5EC PUSH2 0xF82 JUMP JUMPDEST JUMPDEST PUSH1 0x20 ADD ADD SWAP1 PUSH31 0xFFFFFFFFFFFFFFFFFFFFFFFFFFFFFFFFFFFFFFFFFFFFFFFFFFFFFFFFFFFFFF NOT AND SWAP1 DUP2 PUSH0 BYTE SWAP1 MSTORE8 POP DUP1 PUSH1 0x1 ADD SWAP1 POP PUSH2 0x536 JUMP JUMPDEST POP DUP1 SWAP3 POP POP POP SWAP2 SWAP1 POP JUMP JUMPDEST PUSH0 DUP1 PUSH0 SWAP1 POP JUMPDEST PUSH1 0x1 DUP1 SLOAD SWAP1 POP DUP2 LT ISZERO PUSH2 0x6C9 JUMPI DUP3 PUSH1 0x40 MLOAD PUSH1 0x20 ADD PUSH2 0x655 SWAP2 SWAP1 PUSH2 0x11FF JUMP JUMPDEST PUSH1 0x40 MLOAD PUSH1 0x20 DUP2 DUP4 SUB SUB DUP2 MSTORE SWAP1 PUSH1 0x40 MSTORE DUP1 MLOAD SWAP1 PUSH1 0x20 ADD KECCAK256 PUSH1 0x1 DUP3 DUP2 SLOAD DUP2 LT PUSH2 0x67F JUMPI PUSH2 0x67E PUSH2 0xF82 JUMP JUMPDEST JUMPDEST SWAP1 PUSH0 MSTORE PUSH1 0x20 PUSH0 KECCAK256 ADD PUSH1 0x40 MLOAD PUSH1 0x20 ADD PUSH2 0x697 SWAP2 SWAP1 PUSH2 0x10A8 JUMP JUMPDEST PUSH1 0x40 MLOAD PUSH1 0x20 DUP2 DUP4 SUB SUB DUP2 MSTORE SWAP1 PUSH1 0x40 MSTORE DUP1 MLOAD SWAP1 PUSH1 0x20 ADD KECCAK256 SUB PUSH2 0x6BC JUMPI PUSH1 0x1 SWAP2 POP POP PUSH2 0x6CE JUMP JUMPDEST DUP1 DUP1 PUSH1 0x1 ADD SWAP2 POP POP PUSH2 0x637 JUMP JUMPDEST POP PUSH0 SWAP1 POP JUMPDEST SWAP2 SWAP1 POP JUMP JUMPDEST PUSH0 DUP1 PUSH0 SWAP1 POP JUMPDEST PUSH1 0x1 DUP1 SLOAD SWAP1 POP DUP2 LT ISZERO PUSH2 0x76B JUMPI DUP3 PUSH1 0x40 MLOAD PUSH1 0x20 ADD PUSH2 0x6F7 SWAP2 SWAP1 PUSH2 0x11FF JUMP JUMPDEST PUSH1 0x40 MLOAD PUSH1 0x20 DUP2 DUP4 SUB SUB DUP2 MSTORE SWAP1 PUSH1 0x40 MSTORE DUP1 MLOAD SWAP1 PUSH1 0x20 ADD KECCAK256 PUSH1 0x2 DUP3 DUP2 SLOAD DUP2 LT PUSH2 0x721 JUMPI PUSH2 0x720 PUSH2 0xF82 JUMP JUMPDEST JUMPDEST SWAP1 PUSH0 MSTORE PUSH1 0x20 PUSH0 KECCAK256 ADD PUSH1 0x40 MLOAD PUSH1 0x20 ADD PUSH2 0x739 SWAP2 SWAP1 PUSH2 0x10A8 JUMP JUMPDEST PUSH1 0x40 MLOAD PUSH1 0x20 DUP2 DUP4 SUB SUB DUP2 MSTORE SWAP1 PUSH1 0x40 MSTORE DUP1 MLOAD SWAP1 PUSH1 0x20 ADD KECCAK256 SUB PUSH2 0x75E JUMPI PUSH1 0x1 SWAP2 POP POP PUSH2 0x770 JUMP JUMPDEST DUP1 DUP1 PUSH1 0x1 ADD SWAP2 POP POP PUSH2 0x6D9 JUMP JUMPDEST POP PUSH0 SWAP1 POP JUMPDEST SWAP2 SWAP1 POP JUMP JUMPDEST PUSH0 PUSH32 0x3000000000000000000000000000000000000000000000000000000000000000 PUSH31 0xFFFFFFFFFFFFFFFFFFFFFFFFFFFFFFFFFFFFFFFFFFFFFFFFFFFFFFFFFFFFFF NOT AND DUP3 PUSH1 0xF8 SHL PUSH31 0xFFFFFFFFFFFFFFFFFFFFFFFFFFFFFFFFFFFFFFFFFFFFFFFFFFFFFFFFFFFFFF NOT AND LT ISZERO DUP1 ISZERO PUSH2 0x854 JUMPI POP PUSH32 0x3900000000000000000000000000000000000000000000000000000000000000 PUSH31 0xFFFFFFFFFFFFFFFFFFFFFFFFFFFFFFFFFFFFFFFFFFFFFFFFFFFFFFFFFFFFFF NOT AND DUP3 PUSH1 0xF8 SHL PUSH31 0xFFFFFFFFFFFFFFFFFFFFFFFFFFFFFFFFFFFFFFFFFFFFFFFFFFFFFFFFFFFFFF NOT AND GT ISZERO JUMPDEST ISZERO PUSH2 0x88F JUMPI PUSH32 0x3000000000000000000000000000000000000000000000000000000000000000 PUSH1 0xF8 SHR DUP3 PUSH2 0x888 SWAP2 SWAP1 PUSH2 0x1663 JUMP JUMPDEST SWAP1 POP PUSH2 0xB14 JUMP JUMPDEST PUSH32 0x6100000000000000000000000000000000000000000000000000000000000000 PUSH31 0xFFFFFFFFFFFFFFFFFFFFFFFFFFFFFFFFFFFFFFFFFFFFFFFFFFFFFFFFFFFFFF NOT AND DUP3 PUSH1 0xF8 SHL PUSH31 0xFFFFFFFFFFFFFFFFFFFFFFFFFFFFFFFFFFFFFFFFFFFFFFFFFFFFFFFFFFFFFF NOT AND LT ISZERO DUP1 ISZERO PUSH2 0x96D JUMPI POP PUSH32 0x6600000000000000000000000000000000000000000000000000000000000000 PUSH31 0xFFFFFFFFFFFFFFFFFFFFFFFFFFFFFFFFFFFFFFFFFFFFFFFFFFFFFFFFFFFFFF NOT AND DUP3 PUSH1 0xF8 SHL PUSH31 0xFFFFFFFFFFFFFFFFFFFFFFFFFFFFFFFFFFFFFFFFFFFFFFFFFFFFFFFFFFFFFF NOT AND GT ISZERO JUMPDEST ISZERO PUSH2 0x9B4 JUMPI PUSH32 0x6100000000000000000000000000000000000000000000000000000000000000 PUSH1 0xF8 SHR DUP3 PUSH1 0xA PUSH2 0x9A3 SWAP2 SWAP1 PUSH2 0x162F JUMP JUMPDEST PUSH2 0x9AD SWAP2 SWAP1 PUSH2 0x1663 JUMP JUMPDEST SWAP1 POP PUSH2 0xB14 JUMP JUMPDEST PUSH32 0x4100000000000000000000000000000000000000000000000000000000000000 PUSH31 0xFFFFFFFFFFFFFFFFFFFFFFFFFFFFFFFFFFFFFFFFFFFFFFFFFFFFFFFFFFFFFF NOT AND DUP3 PUSH1 0xF8 SHL PUSH31 0xFFFFFFFFFFFFFFFFFFFFFFFFFFFFFFFFFFFFFFFFFFFFFFFFFFFFFFFFFFFFFF NOT AND LT ISZERO DUP1 ISZERO PUSH2 0xA92 JUMPI POP PUSH32 0x4600000000000000000000000000000000000000000000000000000000000000 PUSH31 0xFFFFFFFFFFFFFFFFFFFFFFFFFFFFFFFFFFFFFFFFFFFFFFFFFFFFFFFFFFFFFF NOT AND DUP3 PUSH1 0xF8 SHL PUSH31 0xFFFFFFFFFFFFFFFFFFFFFFFFFFFFFFFFFFFFFFFFFFFFFFFFFFFFFFFFFFFFFF NOT AND GT ISZERO JUMPDEST ISZERO PUSH2 0xAD9 JUMPI PUSH32 0x4100000000000000000000000000000000000000000000000000000000000000 PUSH1 0xF8 SHR DUP3 PUSH1 0xA PUSH2 0xAC8 SWAP2 SWAP1 PUSH2 0x162F JUMP JUMPDEST PUSH2 0xAD2 SWAP2 SWAP1 PUSH2 0x1663 JUMP JUMPDEST SWAP1 POP PUSH2 0xB14 JUMP JUMPDEST PUSH1 0x40 MLOAD PUSH32 0x8C379A000000000000000000000000000000000000000000000000000000000 DUP2 MSTORE PUSH1 0x4 ADD PUSH2 0xB0B SWAP1 PUSH2 0x16E1 JUMP JUMPDEST PUSH1 0x40 MLOAD DUP1 SWAP2 SUB SWAP1 REVERT JUMPDEST SWAP2 SWAP1 POP JUMP JUMPDEST PUSH0 DUP2 MLOAD SWAP1 POP SWAP2 SWAP1 POP JUMP JUMPDEST PUSH0 DUP3 DUP3 MSTORE PUSH1 0x20 DUP3 ADD SWAP1 POP SWAP3 SWAP2 POP POP JUMP JUMPDEST PUSH0 DUP2 SWAP1 POP PUSH1 0x20 DUP3 ADD SWAP1 POP SWAP2 SWAP1 POP JUMP JUMPDEST PUSH0 DUP2 MLOAD SWAP1 POP SWAP2 SWAP1 POP JUMP JUMPDEST PUSH0 DUP3 DUP3 MSTORE PUSH1 0x20 DUP3 ADD SWAP1 POP SWAP3 SWAP2 POP POP JUMP JUMPDEST DUP3 DUP2 DUP4 MCOPY PUSH0 DUP4 DUP4 ADD MSTORE POP POP POP JUMP JUMPDEST PUSH0 PUSH1 0x1F NOT PUSH1 0x1F DUP4 ADD AND SWAP1 POP SWAP2 SWAP1 POP JUMP JUMPDEST PUSH0 PUSH2 0xB84 DUP3 PUSH2 0xB42 JUMP JUMPDEST PUSH2 0xB8E DUP2 DUP6 PUSH2 0xB4C JUMP JUMPDEST SWAP4 POP PUSH2 0xB9E DUP2 DUP6 PUSH1 0x20 DUP7 ADD PUSH2 0xB5C JUMP JUMPDEST PUSH2 0xBA7 DUP2 PUSH2 0xB6A JUMP JUMPDEST DUP5 ADD SWAP2 POP POP SWAP3 SWAP2 POP POP JUMP JUMPDEST PUSH0 PUSH2 0xBBD DUP4 DUP4 PUSH2 0xB7A JUMP JUMPDEST SWAP1 POP SWAP3 SWAP2 POP POP JUMP JUMPDEST PUSH0 PUSH1 0x20 DUP3 ADD SWAP1 POP SWAP2 SWAP1 POP JUMP JUMPDEST PUSH0 PUSH2 0xBDB DUP3 PUSH2 0xB19 JUMP JUMPDEST PUSH2 0xBE5 DUP2 DUP6 PUSH2 0xB23 JUMP JUMPDEST SWAP4 POP DUP4 PUSH1 0x20 DUP3 MUL DUP6 ADD PUSH2 0xBF7 DUP6 PUSH2 0xB33 JUMP JUMPDEST DUP1 PUSH0 JUMPDEST DUP6 DUP2 LT ISZERO PUSH2 0xC32 JUMPI DUP5 DUP5 SUB DUP10 MSTORE DUP2 MLOAD PUSH2 0xC13 DUP6 DUP3 PUSH2 0xBB2 JUMP JUMPDEST SWAP5 POP PUSH2 0xC1E DUP4 PUSH2 0xBC5 JUMP JUMPDEST SWAP3 POP PUSH1 0x20 DUP11 ADD SWAP10 POP POP PUSH1 0x1 DUP2 ADD SWAP1 POP PUSH2 0xBFA JUMP JUMPDEST POP DUP3 SWAP8 POP DUP8 SWAP6 POP POP POP POP POP POP SWAP3 SWAP2 POP POP JUMP JUMPDEST PUSH0 DUP2 MLOAD SWAP1 POP SWAP2 SWAP1 POP JUMP JUMPDEST PUSH0 DUP3 DUP3 MSTORE PUSH1 0x20 DUP3 ADD SWAP1 POP SWAP3 SWAP2 POP POP JUMP JUMPDEST PUSH0 DUP2 SWAP1 POP PUSH1 0x20 DUP3 ADD SWAP1 POP SWAP2 SWAP1 POP JUMP JUMPDEST PUSH0 DUP2 SWAP1 POP SWAP2 SWAP1 POP JUMP JUMPDEST PUSH2 0xC7F DUP2 PUSH2 0xC6D JUMP JUMPDEST DUP3 MSTORE POP POP JUMP JUMPDEST PUSH0 PUSH2 0xC90 DUP4 DUP4 PUSH2 0xC76 JUMP JUMPDEST PUSH1 0x20 DUP4 ADD SWAP1 POP SWAP3 SWAP2 POP POP JUMP JUMPDEST PUSH0 PUSH1 0x20 DUP3 ADD SWAP1 POP SWAP2 SWAP1 POP JUMP JUMPDEST PUSH0 PUSH2 0xCB2 DUP3 PUSH2 0xC44 JUMP JUMPDEST PUSH2 0xCBC DUP2 DUP6 PUSH2 0xC4E JUMP JUMPDEST SWAP4 POP PUSH2 0xCC7 DUP4 PUSH2 0xC5E JUMP JUMPDEST DUP1 PUSH0 JUMPDEST DUP4 DUP2 LT ISZERO PUSH2 0xCF7 JUMPI DUP2 MLOAD PUSH2 0xCDE DUP9 DUP3 PUSH2 0xC85 JUMP JUMPDEST SWAP8 POP PUSH2 0xCE9 DUP4 PUSH2 0xC9C JUMP JUMPDEST SWAP3 POP POP PUSH1 0x1 DUP2 ADD SWAP1 POP PUSH2 0xCCA JUMP JUMPDEST POP DUP6 SWAP4 POP POP POP POP SWAP3 SWAP2 POP POP JUMP JUMPDEST PUSH0 PUSH1 0x40 DUP3 ADD SWAP1 POP DUP2 DUP2 SUB PUSH0 DUP4 ADD MSTORE PUSH2 0xD1C DUP2 DUP6 PUSH2 0xBD1 JUMP JUMPDEST SWAP1 POP DUP2 DUP2 SUB PUSH1 0x20 DUP4 ADD MSTORE PUSH2 0xD30 DUP2 DUP5 PUSH2 0xCA8 JUMP JUMPDEST SWAP1 POP SWAP4 SWAP3 POP POP POP JUMP JUMPDEST PUSH0 PUSH1 0x40 MLOAD SWAP1 POP SWAP1 JUMP JUMPDEST PUSH0 DUP1 REVERT JUMPDEST PUSH0 DUP1 REVERT JUMPDEST PUSH0 DUP1 REVERT JUMPDEST PUSH0 DUP1 REVERT JUMPDEST PUSH32 0x4E487B7100000000000000000000000000000000000000000000000000000000 PUSH0 MSTORE PUSH1 0x41 PUSH1 0x4 MSTORE PUSH1 0x24 PUSH0 REVERT JUMPDEST PUSH2 0xD88 DUP3 PUSH2 0xB6A JUMP JUMPDEST DUP2 ADD DUP2 DUP2 LT PUSH8 0xFFFFFFFFFFFFFFFF DUP3 GT OR ISZERO PUSH2 0xDA7 JUMPI PUSH2 0xDA6 PUSH2 0xD52 JUMP JUMPDEST JUMPDEST DUP1 PUSH1 0x40 MSTORE POP POP POP JUMP JUMPDEST PUSH0 PUSH2 0xDB9 PUSH2 0xD39 JUMP JUMPDEST SWAP1 POP PUSH2 0xDC5 DUP3 DUP3 PUSH2 0xD7F JUMP JUMPDEST SWAP2 SWAP1 POP JUMP JUMPDEST PUSH0 PUSH8 0xFFFFFFFFFFFFFFFF DUP3 GT ISZERO PUSH2 0xDE4 JUMPI PUSH2 0xDE3 PUSH2 0xD52 JUMP JUMPDEST JUMPDEST PUSH2 0xDED DUP3 PUSH2 0xB6A JUMP JUMPDEST SWAP1 POP PUSH1 0x20 DUP2 ADD SWAP1 POP SWAP2 SWAP1 POP JUMP JUMPDEST DUP3 DUP2 DUP4 CALLDATACOPY PUSH0 DUP4 DUP4 ADD MSTORE POP POP POP JUMP JUMPDEST PUSH0 PUSH2 0xE1A PUSH2 0xE15 DUP5 PUSH2 0xDCA JUMP JUMPDEST PUSH2 0xDB0 JUMP JUMPDEST SWAP1 POP DUP3 DUP2 MSTORE PUSH1 0x20 DUP2 ADD DUP5 DUP5 DUP5 ADD GT ISZERO PUSH2 0xE36 JUMPI PUSH2 0xE35 PUSH2 0xD4E JUMP JUMPDEST JUMPDEST PUSH2 0xE41 DUP5 DUP3 DUP6 PUSH2 0xDFA JUMP JUMPDEST POP SWAP4 SWAP3 POP POP POP JUMP JUMPDEST PUSH0 DUP3 PUSH1 0x1F DUP4 ADD SLT PUSH2 0xE5D JUMPI PUSH2 0xE5C PUSH2 0xD4A JUMP JUMPDEST JUMPDEST DUP2 CALLDATALOAD PUSH2 0xE6D DUP5 DUP3 PUSH1 0x20 DUP7 ADD PUSH2 0xE08 JUMP JUMPDEST SWAP2 POP POP SWAP3 SWAP2 POP POP JUMP JUMPDEST PUSH0 DUP1 PUSH0 PUSH1 0x60 DUP5 DUP7 SUB SLT ISZERO PUSH2 0xE8D JUMPI PUSH2 0xE8C PUSH2 0xD42 JUMP JUMPDEST JUMPDEST PUSH0 DUP5 ADD CALLDATALOAD PUSH8 0xFFFFFFFFFFFFFFFF DUP2 GT ISZERO PUSH2 0xEAA JUMPI PUSH2 0xEA9 PUSH2 0xD46 JUMP JUMPDEST JUMPDEST PUSH2 0xEB6 DUP7 DUP3 DUP8 ADD PUSH2 0xE49 JUMP JUMPDEST SWAP4 POP POP PUSH1 0x20 DUP5 ADD CALLDATALOAD PUSH8 0xFFFFFFFFFFFFFFFF DUP2 GT ISZERO PUSH2 0xED7 JUMPI PUSH2 0xED6 PUSH2 0xD46 JUMP JUMPDEST JUMPDEST PUSH2 0xEE3 DUP7 DUP3 DUP8 ADD PUSH2 0xE49 JUMP JUMPDEST SWAP3 POP POP PUSH1 0x40 DUP5 ADD CALLDATALOAD PUSH8 0xFFFFFFFFFFFFFFFF DUP2 GT ISZERO PUSH2 0xF04 JUMPI PUSH2 0xF03 PUSH2 0xD46 JUMP JUMPDEST JUMPDEST PUSH2 0xF10 DUP7 DUP3 DUP8 ADD PUSH2 0xE49 JUMP JUMPDEST SWAP2 POP POP SWAP3 POP SWAP3 POP SWAP3 JUMP JUMPDEST PUSH0 DUP3 DUP3 MSTORE PUSH1 0x20 DUP3 ADD SWAP1 POP SWAP3 SWAP2 POP POP JUMP JUMPDEST PUSH0 PUSH2 0xF34 DUP3 PUSH2 0xB42 JUMP JUMPDEST PUSH2 0xF3E DUP2 DUP6 PUSH2 0xF1A JUMP JUMPDEST SWAP4 POP PUSH2 0xF4E DUP2 DUP6 PUSH1 0x20 DUP7 ADD PUSH2 0xB5C JUMP JUMPDEST PUSH2 0xF57 DUP2 PUSH2 0xB6A JUMP JUMPDEST DUP5 ADD SWAP2 POP POP SWAP3 SWAP2 POP POP JUMP JUMPDEST PUSH0 PUSH1 0x20 DUP3 ADD SWAP1 POP DUP2 DUP2 SUB PUSH0 DUP4 ADD MSTORE PUSH2 0xF7A DUP2 DUP5 PUSH2 0xF2A JUMP JUMPDEST SWAP1 POP SWAP3 SWAP2 POP POP JUMP JUMPDEST PUSH32 0x4E487B7100000000000000000000000000000000000000000000000000000000 PUSH0 MSTORE PUSH1 0x32 PUSH1 0x4 MSTORE PUSH1 0x24 PUSH0 REVERT JUMPDEST PUSH32 0x4E487B7100000000000000000000000000000000000000000000000000000000 PUSH0 MSTORE PUSH1 0x22 PUSH1 0x4 MSTORE PUSH1 0x24 PUSH0 REVERT JUMPDEST PUSH0 PUSH1 0x2 DUP3 DIV SWAP1 POP PUSH1 0x1 DUP3 AND DUP1 PUSH2 0xFF3 JUMPI PUSH1 0x7F DUP3 AND SWAP2 POP JUMPDEST PUSH1 0x20 DUP3 LT DUP2 SUB PUSH2 0x1006 JUMPI PUSH2 0x1005 PUSH2 0xFAF JUMP JUMPDEST JUMPDEST POP SWAP2 SWAP1 POP JUMP JUMPDEST PUSH0 DUP2 SWAP1 POP SWAP3 SWAP2 POP POP JUMP JUMPDEST PUSH0 DUP2 SWAP1 POP DUP2 PUSH0 MSTORE PUSH1 0x20 PUSH0 KECCAK256 SWAP1 POP SWAP2 SWAP1 POP JUMP JUMPDEST PUSH0 DUP2 SLOAD PUSH2 0x1034 DUP2 PUSH2 0xFDC JUMP JUMPDEST PUSH2 0x103E DUP2 DUP7 PUSH2 0x100C JUMP JUMPDEST SWAP5 POP PUSH1 0x1 DUP3 AND PUSH0 DUP2 EQ PUSH2 0x1058 JUMPI PUSH1 0x1 DUP2 EQ PUSH2 0x106D JUMPI PUSH2 0x109F JUMP JUMPDEST PUSH1 0xFF NOT DUP4 AND DUP7 MSTORE DUP2 ISZERO ISZERO DUP3 MUL DUP7 ADD SWAP4 POP PUSH2 0x109F JUMP JUMPDEST PUSH2 0x1076 DUP6 PUSH2 0x1016 JUMP JUMPDEST PUSH0 JUMPDEST DUP4 DUP2 LT ISZERO PUSH2 0x1097 JUMPI DUP2 SLOAD DUP2 DUP10 ADD MSTORE PUSH1 0x1 DUP3 ADD SWAP2 POP PUSH1 0x20 DUP2 ADD SWAP1 POP PUSH2 0x1078 JUMP JUMPDEST DUP4 DUP9 ADD SWAP6 POP POP POP JUMPDEST POP POP POP SWAP3 SWAP2 POP POP JUMP JUMPDEST PUSH0 PUSH2 0x10B3 DUP3 DUP5 PUSH2 0x1028 JUMP JUMPDEST SWAP2 POP DUP2 SWAP1 POP SWAP3 SWAP2 POP POP JUMP JUMPDEST PUSH0 DUP2 MLOAD SWAP1 POP SWAP2 SWAP1 POP JUMP JUMPDEST PUSH0 DUP3 DUP3 MSTORE PUSH1 0x20 DUP3 ADD SWAP1 POP SWAP3 SWAP2 POP POP JUMP JUMPDEST PUSH0 PUSH2 0x10E2 DUP3 PUSH2 0x10BE JUMP JUMPDEST PUSH2 0x10EC DUP2 DUP6 PUSH2 0x10C8 JUMP JUMPDEST SWAP4 POP PUSH2 0x10FC DUP2 DUP6 PUSH1 0x20 DUP7 ADD PUSH2 0xB5C JUMP JUMPDEST PUSH2 0x1105 DUP2 PUSH2 0xB6A JUMP JUMPDEST DUP5 ADD SWAP2 POP POP SWAP3 SWAP2 POP POP JUMP JUMPDEST PUSH0 PUSH1 0x80 DUP3 ADD SWAP1 POP DUP2 DUP2 SUB PUSH0 DUP4 ADD MSTORE PUSH2 0x1128 DUP2 DUP8 PUSH2 0x10D8 JUMP JUMPDEST SWAP1 POP DUP2 DUP2 SUB PUSH1 0x20 DUP4 ADD MSTORE PUSH2 0x113C DUP2 DUP7 PUSH2 0x10D8 JUMP JUMPDEST SWAP1 POP DUP2 DUP2 SUB PUSH1 0x40 DUP4 ADD MSTORE PUSH2 0x1150 DUP2 DUP6 PUSH2 0x10D8 JUMP JUMPDEST SWAP1 POP DUP2 DUP2 SUB PUSH1 0x60 DUP4 ADD MSTORE PUSH2 0x1164 DUP2 DUP5 PUSH2 0x10D8 JUMP JUMPDEST SWAP1 POP SWAP6 SWAP5 POP POP POP POP POP JUMP JUMPDEST PUSH0 DUP2 ISZERO ISZERO SWAP1 POP SWAP2 SWAP1 POP JUMP JUMPDEST PUSH2 0x1183 DUP2 PUSH2 0x116F JUMP JUMPDEST DUP2 EQ PUSH2 0x118D JUMPI PUSH0 DUP1 REVERT JUMPDEST POP JUMP JUMPDEST PUSH0 DUP2 MLOAD SWAP1 POP PUSH2 0x119E DUP2 PUSH2 0x117A JUMP JUMPDEST SWAP3 SWAP2 POP POP JUMP JUMPDEST PUSH0 PUSH1 0x20 DUP3 DUP5 SUB SLT ISZERO PUSH2 0x11B9 JUMPI PUSH2 0x11B8 PUSH2 0xD42 JUMP JUMPDEST JUMPDEST PUSH0 PUSH2 0x11C6 DUP5 DUP3 DUP6 ADD PUSH2 0x1190 JUMP JUMPDEST SWAP2 POP POP SWAP3 SWAP2 POP POP JUMP JUMPDEST PUSH0 PUSH2 0x11D9 DUP3 PUSH2 0xB42 JUMP JUMPDEST PUSH2 0x11E3 DUP2 DUP6 PUSH2 0x100C JUMP JUMPDEST SWAP4 POP PUSH2 0x11F3 DUP2 DUP6 PUSH1 0x20 DUP7 ADD PUSH2 0xB5C JUMP JUMPDEST DUP1 DUP5 ADD SWAP2 POP POP SWAP3 SWAP2 POP POP JUMP JUMPDEST PUSH0 PUSH2 0x120A DUP3 DUP5 PUSH2 0x11CF JUMP JUMPDEST SWAP2 POP DUP2 SWAP1 POP SWAP3 SWAP2 POP POP JUMP JUMPDEST PUSH32 0x4E487B7100000000000000000000000000000000000000000000000000000000 PUSH0 MSTORE PUSH1 0x11 PUSH1 0x4 MSTORE PUSH1 0x24 PUSH0 REVERT JUMPDEST PUSH0 PUSH2 0x124C DUP3 PUSH2 0xC6D JUMP JUMPDEST SWAP2 POP PUSH2 0x1257 DUP4 PUSH2 0xC6D JUMP JUMPDEST SWAP3 POP DUP3 DUP3 ADD SWAP1 POP DUP3 DUP2 SLT ISZERO PUSH0 DUP4 SLT AND DUP4 DUP3 SLT PUSH0 DUP5 SLT ISZERO AND OR ISZERO PUSH2 0x127D JUMPI PUSH2 0x127C PUSH2 0x1215 JUMP JUMPDEST JUMPDEST SWAP3 SWAP2 POP POP JUMP JUMPDEST PUSH0 PUSH1 0x20 PUSH1 0x1F DUP4 ADD DIV SWAP1 POP SWAP2 SWAP1 POP JUMP JUMPDEST PUSH0 DUP3 DUP3 SHL SWAP1 POP SWAP3 SWAP2 POP POP JUMP JUMPDEST PUSH0 PUSH1 0x8 DUP4 MUL PUSH2 0x12CD PUSH32 0xFFFFFFFFFFFFFFFFFFFFFFFFFFFFFFFFFFFFFFFFFFFFFFFFFFFFFFFFFFFFFFFF DUP3 PUSH2 0x1292 JUMP JUMPDEST PUSH2 0x12D7 DUP7 DUP4 PUSH2 0x1292 JUMP JUMPDEST SWAP6 POP DUP1 NOT DUP5 AND SWAP4 POP DUP1 DUP7 AND DUP5 OR SWAP3 POP POP POP SWAP4 SWAP3 POP POP POP JUMP JUMPDEST PUSH0 DUP2 SWAP1 POP SWAP2 SWAP1 POP JUMP JUMPDEST PUSH0 DUP2 SWAP1 POP SWAP2 SWAP1 POP JUMP JUMPDEST PUSH0 PUSH2 0x131B PUSH2 0x1316 PUSH2 0x1311 DUP5 PUSH2 0x12EF JUMP JUMPDEST PUSH2 0x12F8 JUMP JUMPDEST PUSH2 0x12EF JUMP JUMPDEST SWAP1 POP SWAP2 SWAP1 POP JUMP JUMPDEST PUSH0 DUP2 SWAP1 POP SWAP2 SWAP1 POP JUMP JUMPDEST PUSH2 0x1334 DUP4 PUSH2 0x1301 JUMP JUMPDEST PUSH2 0x1348 PUSH2 0x1340 DUP3 PUSH2 0x1322 JUMP JUMPDEST DUP5 DUP5 SLOAD PUSH2 0x129E JUMP JUMPDEST DUP3 SSTORE POP POP POP POP JUMP JUMPDEST PUSH0 SWAP1 JUMP JUMPDEST PUSH2 0x135C PUSH2 0x1350 JUMP JUMPDEST PUSH2 0x1367 DUP2 DUP5 DUP5 PUSH2 0x132B JUMP JUMPDEST POP POP POP JUMP JUMPDEST JUMPDEST DUP2 DUP2 LT ISZERO PUSH2 0x138A JUMPI PUSH2 0x137F PUSH0 DUP3 PUSH2 0x1354 JUMP JUMPDEST PUSH1 0x1 DUP2 ADD SWAP1 POP PUSH2 0x136D JUMP JUMPDEST POP POP JUMP JUMPDEST PUSH1 0x1F DUP3 GT ISZERO PUSH2 0x13CF JUMPI PUSH2 0x13A0 DUP2 PUSH2 0x1016 JUMP JUMPDEST PUSH2 0x13A9 DUP5 PUSH2 0x1283 JUMP JUMPDEST DUP2 ADD PUSH1 0x20 DUP6 LT ISZERO PUSH2 0x13B8 JUMPI DUP2 SWAP1 POP JUMPDEST PUSH2 0x13CC PUSH2 0x13C4 DUP6 PUSH2 0x1283 JUMP JUMPDEST DUP4 ADD DUP3 PUSH2 0x136C JUMP JUMPDEST POP POP JUMPDEST POP POP POP JUMP JUMPDEST PUSH0 DUP3 DUP3 SHR SWAP1 POP SWAP3 SWAP2 POP POP JUMP JUMPDEST PUSH0 PUSH2 0x13EF PUSH0 NOT DUP5 PUSH1 0x8 MUL PUSH2 0x13D4 JUMP JUMPDEST NOT DUP1 DUP4 AND SWAP2 POP POP SWAP3 SWAP2 POP POP JUMP JUMPDEST PUSH0 PUSH2 0x1407 DUP4 DUP4 PUSH2 0x13E0 JUMP JUMPDEST SWAP2 POP DUP3 PUSH1 0x2 MUL DUP3 OR SWAP1 POP SWAP3 SWAP2 POP POP JUMP JUMPDEST PUSH2 0x1420 DUP3 PUSH2 0xB42 JUMP JUMPDEST PUSH8 0xFFFFFFFFFFFFFFFF DUP2 GT ISZERO PUSH2 0x1439 JUMPI PUSH2 0x1438 PUSH2 0xD52 JUMP JUMPDEST JUMPDEST PUSH2 0x1443 DUP3 SLOAD PUSH2 0xFDC JUMP JUMPDEST PUSH2 0x144E DUP3 DUP3 DUP6 PUSH2 0x138E JUMP JUMPDEST PUSH0 PUSH1 0x20 SWAP1 POP PUSH1 0x1F DUP4 GT PUSH1 0x1 DUP2 EQ PUSH2 0x147F JUMPI PUSH0 DUP5 ISZERO PUSH2 0x146D JUMPI DUP3 DUP8 ADD MLOAD SWAP1 POP JUMPDEST PUSH2 0x1477 DUP6 DUP3 PUSH2 0x13FC JUMP JUMPDEST DUP7 SSTORE POP PUSH2 0x14DE JUMP JUMPDEST PUSH1 0x1F NOT DUP5 AND PUSH2 0x148D DUP7 PUSH2 0x1016 JUMP JUMPDEST PUSH0 JUMPDEST DUP3 DUP2 LT ISZERO PUSH2 0x14B4 JUMPI DUP5 DUP10 ADD MLOAD DUP3 SSTORE PUSH1 0x1 DUP3 ADD SWAP2 POP PUSH1 0x20 DUP6 ADD SWAP5 POP PUSH1 0x20 DUP2 ADD SWAP1 POP PUSH2 0x148F JUMP JUMPDEST DUP7 DUP4 LT ISZERO PUSH2 0x14D1 JUMPI DUP5 DUP10 ADD MLOAD PUSH2 0x14CD PUSH1 0x1F DUP10 AND DUP3 PUSH2 0x13E0 JUMP JUMPDEST DUP4 SSTORE POP JUMPDEST PUSH1 0x1 PUSH1 0x2 DUP9 MUL ADD DUP9 SSTORE POP POP POP JUMPDEST POP POP POP POP POP POP JUMP JUMPDEST PUSH32 0x4E487B7100000000000000000000000000000000000000000000000000000000 PUSH0 MSTORE PUSH1 0x12 PUSH1 0x4 MSTORE PUSH1 0x24 PUSH0 REVERT JUMPDEST PUSH0 PUSH2 0x151D DUP3 PUSH2 0x12EF JUMP JUMPDEST SWAP2 POP PUSH2 0x1528 DUP4 PUSH2 0x12EF JUMP JUMPDEST SWAP3 POP DUP3 PUSH2 0x1538 JUMPI PUSH2 0x1537 PUSH2 0x14E6 JUMP JUMPDEST JUMPDEST DUP3 DUP3 MOD SWAP1 POP SWAP3 SWAP2 POP POP JUMP JUMPDEST PUSH0 PUSH2 0x154D DUP3 PUSH2 0x12EF JUMP JUMPDEST SWAP2 POP PUSH2 0x1558 DUP4 PUSH2 0x12EF JUMP JUMPDEST SWAP3 POP DUP3 PUSH2 0x1568 JUMPI PUSH2 0x1567 PUSH2 0x14E6 JUMP JUMPDEST JUMPDEST DUP3 DUP3 DIV SWAP1 POP SWAP3 SWAP2 POP POP JUMP JUMPDEST PUSH0 PUSH2 0x157D DUP3 PUSH2 0x12EF JUMP JUMPDEST SWAP2 POP PUSH2 0x1588 DUP4 PUSH2 0x12EF JUMP JUMPDEST SWAP3 POP DUP3 DUP3 MUL PUSH2 0x1596 DUP2 PUSH2 0x12EF JUMP JUMPDEST SWAP2 POP DUP3 DUP3 DIV DUP5 EQ DUP4 ISZERO OR PUSH2 0x15AD JUMPI PUSH2 0x15AC PUSH2 0x1215 JUMP JUMPDEST JUMPDEST POP SWAP3 SWAP2 POP POP JUMP JUMPDEST PUSH0 PUSH2 0x15BE DUP3 PUSH2 0x12EF JUMP JUMPDEST SWAP2 POP PUSH2 0x15C9 DUP4 PUSH2 0x12EF JUMP JUMPDEST SWAP3 POP DUP3 DUP3 ADD SWAP1 POP DUP1 DUP3 GT ISZERO PUSH2 0x15E1 JUMPI PUSH2 0x15E0 PUSH2 0x1215 JUMP JUMPDEST JUMPDEST SWAP3 SWAP2 POP POP JUMP JUMPDEST PUSH0 PUSH1 0xFF DUP3 AND SWAP1 POP SWAP2 SWAP1 POP JUMP JUMPDEST PUSH0 PUSH2 0x15FD DUP3 PUSH2 0x15E7 JUMP JUMPDEST SWAP2 POP PUSH2 0x1608 DUP4 PUSH2 0x15E7 JUMP JUMPDEST SWAP3 POP DUP3 DUP3 MUL PUSH2 0x1616 DUP2 PUSH2 0x15E7 JUMP JUMPDEST SWAP2 POP DUP1 DUP3 EQ PUSH2 0x1628 JUMPI PUSH2 0x1627 PUSH2 0x1215 JUMP JUMPDEST JUMPDEST POP SWAP3 SWAP2 POP POP JUMP JUMPDEST PUSH0 PUSH2 0x1639 DUP3 PUSH2 0x15E7 JUMP JUMPDEST SWAP2 POP PUSH2 0x1644 DUP4 PUSH2 0x15E7 JUMP JUMPDEST SWAP3 POP DUP3 DUP3 ADD SWAP1 POP PUSH1 0xFF DUP2 GT ISZERO PUSH2 0x165D JUMPI PUSH2 0x165C PUSH2 0x1215 JUMP JUMPDEST JUMPDEST SWAP3 SWAP2 POP POP JUMP JUMPDEST PUSH0 PUSH2 0x166D DUP3 PUSH2 0x15E7 JUMP JUMPDEST SWAP2 POP PUSH2 0x1678 DUP4 PUSH2 0x15E7 JUMP JUMPDEST SWAP3 POP DUP3 DUP3 SUB SWAP1 POP PUSH1 0xFF DUP2 GT ISZERO PUSH2 0x1691 JUMPI PUSH2 0x1690 PUSH2 0x1215 JUMP JUMPDEST JUMPDEST SWAP3 SWAP2 POP POP JUMP JUMPDEST PUSH32 0x6661696C00000000000000000000000000000000000000000000000000000000 PUSH0 DUP3 ADD MSTORE POP JUMP JUMPDEST PUSH0 PUSH2 0x16CB PUSH1 0x4 DUP4 PUSH2 0xF1A JUMP JUMPDEST SWAP2 POP PUSH2 0x16D6 DUP3 PUSH2 0x1697 JUMP JUMPDEST PUSH1 0x20 DUP3 ADD SWAP1 POP SWAP2 SWAP1 POP JUMP JUMPDEST PUSH0 PUSH1 0x20 DUP3 ADD SWAP1 POP DUP2 DUP2 SUB PUSH0 DUP4 ADD MSTORE PUSH2 0x16F8 DUP2 PUSH2 0x16BF JUMP JUMPDEST SWAP1 POP SWAP2 SWAP1 POP JUMP INVALID LOG2 PUSH5 0x6970667358 0x22 SLT KECCAK256 XOR 0xFB 0xCD PUSH3 0x63593B 0x29 CALLER 0xE4 0xBB CALLCODE PUSH9 0x7B9BD95FAE09782533 CALLER 0xDE PUSH4 0xAB8FCBBA MSIZE 0xCB 0x2A PUSH5 0x736F6C6343 STOP ADDMOD NOT STOP CALLER ADDRESS ADDRESS ADDRESS ADDRESS ADDRESS ADDRESS ADDRESS ADDRESS ADDRESS ADDRESS ADDRESS ADDRESS ADDRESS ADDRESS ADDRESS ADDRESS ADDRESS ADDRESS ADDRESS ADDRESS ADDRESS ADDRESS ADDRESS ADDRESS ADDRESS ADDRESS ADDRESS ADDRESS ADDRESS ADDRESS ADDRESS ADDRESS ADDRESS ADDRESS ADDRESS ADDRESS ADDRESS ADDRESS ADDRESS ADDRESS ADDRESS ADDRESS ADDRESS ADDRESS ADDRESS ADDRESS ADDRESS ADDRESS ADDRESS ADDRESS ADDRESS ADDRESS ADDRESS ADDRESS ADDRESS ADDRESS ADDRESS ADDRESS ADDRESS ADDRESS ADDRESS ADDRESS ADDRESS ADDRESS ADDRESS ADDRESS ADDRESS ADDRESS ADDRESS ADDRESS ADDRESS ADDRESS ADDRESS ADDRESS ADDRESS ADDRESS ADDRESS ADDRESS ADDRESS ADDRESS ADDRESS ADDRESS ADDRESS ADDRESS ADDRESS ADDRESS ADDRESS ADDRESS ADDRESS ADDRESS ADDRESS ADDRESS ADDRESS ADDRESS ADDRESS ADDRESS ADDRESS ADDRESS ADDRESS ADDRESS ADDRESS ADDRESS ADDRESS ADDRESS ADDRESS ADDRESS ADDRESS ADDRESS ADDRESS ADDRESS ADDRESS ADDRESS ADDRESS ADDRESS ADDRESS ADDRESS ADDRESS ADDRESS ADDRESS ADDRESS ADDRESS ADDRESS ADDRESS ADDRESS ADDRESS ADDRESS ADDRESS ADDRESS ADDRESS ADDRESS ADDRESS ADDRESS ADDRESS ADDRESS ADDRESS ADDRESS ADDRESS ADDRESS ADDRESS ADDRESS ADDRESS ADDRESS ADDRESS ADDRESS ADDRESS ADDRESS ADDRESS ADDRESS ADDRESS ADDRESS ADDRESS ADDRESS ADDRESS ADDRESS ADDRESS ADDRESS ADDRESS ADDRESS ADDRESS ADDRESS ADDRESS ADDRESS ADDRESS ADDRESS ADDRESS ADDRESS ADDRESS ADDRESS ADDRESS ADDRESS ADDRESS ADDRESS ADDRESS ADDRESS ADDRESS ADDRESS ADDRESS ADDRESS ADDRESS ADDRESS ADDRESS ADDRESS ADDRESS ADDRESS ADDRESS ADDRESS ADDRESS ADDRESS ADDRESS ADDRESS ADDRESS ADDRESS ADDRESS ADDRESS ADDRESS ADDRESS ADDRESS ADDRESS ADDRESS ADDRESS ADDRESS ADDRESS ADDRESS ADDRESS ADDRESS ADDRESS ADDRESS ADDRESS ADDRESS ADDRESS ADDRESS ADDRESS ADDRESS ADDRESS ADDRESS ADDRESS ADDRESS ADDRESS ADDRESS ADDRESS ADDRESS ADDRESS ADDRESS ADDRESS ADDRESS ADDRESS ADDRESS ADDRESS ADDRESS ADDRESS ADDRESS ADDRESS ADDRESS ADDRESS ADDRESS ADDRESS ADDRESS ADDRESS ADDRESS ADDRESS ADDRESS ADDRESS ADDRESS ADDRESS ADDRESS ADDRESS ADDRESS ADDRESS ADDRESS ADDRESS ADDRESS BALANCE ADDRESS ADDRESS ADDRESS BALANCE "
				},
				"gasEstimates": {
					"creation": {
						"codeDepositCost": "1188200",
						"executionCost": "infinite",
						"totalCost": "infinite"
					},
					"external": {
						"getVotes()": "infinite",
						"vote(string,string,string)": "infinite"
					},
					"internal": {
						"fromHex(string memory)": "infinite",
						"fromHexChar(uint8)": "infinite",
						"isModulusExist(string memory)": "infinite",
						"isVoteExist(string memory)": "infinite"
					}
				},
				"methodIdentifiers": {
					"getVotes()": "0dc96015",
					"vote(string,string,string)": "95f59fe1"
				}
			},
			"storageLayout": {
				"storage": [
					{
						"astId": 373,
						"contract": "vote.sol:ElectionVote",
						"label": "votes",
						"offset": 0,
						"slot": "0",
						"type": "t_mapping(t_string_memory_ptr,t_int256)"
					},
					{
						"astId": 376,
						"contract": "vote.sol:ElectionVote",
						"label": "votesExists",
						"offset": 0,
						"slot": "1",
						"type": "t_array(t_string_storage)dyn_storage"
					},
					{
						"astId": 379,
						"contract": "vote.sol:ElectionVote",
						"label": "voted_modulus",
						"offset": 0,
						"slot": "2",
						"type": "t_array(t_string_storage)dyn_storage"
					},
					{
						"astId": 382,
						"contract": "vote.sol:ElectionVote",
						"label": "exponent",
						"offset": 0,
						"slot": "3",
						"type": "t_string_storage"
					}
				],
				"types": {
					"t_array(t_string_storage)dyn_storage": {
						"base": "t_string_storage",
						"encoding": "dynamic_array",
						"label": "string[]",
						"numberOfBytes": "32"
					},
					"t_int256": {
						"encoding": "inplace",
						"label": "int256",
						"numberOfBytes": "32"
					},
					"t_mapping(t_string_memory_ptr,t_int256)": {
						"encoding": "mapping",
						"key": "t_string_memory_ptr",
						"label": "mapping(string => int256)",
						"numberOfBytes": "32",
						"value": "t_int256"
					},
					"t_string_memory_ptr": {
						"encoding": "bytes",
						"label": "string",
						"numberOfBytes": "32"
					},
					"t_string_storage": {
						"encoding": "bytes",
						"label": "string",
						"numberOfBytes": "32"
					}
				}
			},
			"userdoc": {
				"kind": "user",
				"methods": {},
				"version": 1
			}
		}
	}
}