{
	"SolRsaVerify/src/RsaVerify.sol": {
		"RsaVerify": {
			"abi": [
				{
					"inputs": [
						{
							"internalType": "bytes32",
							"name": "_sha256",
							"type": "bytes32"
						},
						{
							"internalType": "bytes",
							"name": "_s",
							"type": "bytes"
						},
						{
							"internalType": "bytes",
							"name": "_e",
							"type": "bytes"
						},
						{
							"internalType": "bytes",
							"name": "_m",
							"type": "bytes"
						}
					],
					"name": "pkcs1Sha256",
					"outputs": [
						{
							"internalType": "bool",
							"name": "",
							"type": "bool"
						}
					],
					"stateMutability": "view",
					"type": "function"
				},
				{
					"inputs": [
						{
							"internalType": "bytes",
							"name": "_data",
							"type": "bytes"
						},
						{
							"internalType": "bytes",
							"name": "_s",
							"type": "bytes"
						},
						{
							"internalType": "bytes",
							"name": "_e",
							"type": "bytes"
						},
						{
							"internalType": "bytes",
							"name": "_m",
							"type": "bytes"
						}
					],
					"name": "pkcs1Sha256Raw",
					"outputs": [
						{
							"internalType": "bool",
							"name": "",
							"type": "bool"
						}
					],
					"stateMutability": "view",
					"type": "function"
				}
			],
			"devdoc": {
				"kind": "dev",
				"methods": {
					"pkcs1Sha256(bytes32,bytes,bytes,bytes)": {
						"details": "Verifies a PKCSv1.5 SHA256 signature",
						"params": {
							"_e": "is the exponent",
							"_m": "is the modulus",
							"_s": "is the signature",
							"_sha256": "is the sha256 of the data"
						},
						"returns": {
							"_0": "true if success, false otherwise"
						}
					},
					"pkcs1Sha256Raw(bytes,bytes,bytes,bytes)": {
						"details": "Verifies a PKCSv1.5 SHA256 signature",
						"params": {
							"_data": "to verify",
							"_e": "is the exponent",
							"_m": "is the modulus",
							"_s": "is the signature"
						},
						"returns": {
							"_0": "0 if success, >0 otherwise"
						}
					}
				},
				"version": 1
			},
			"evm": {
				"assembly": "    /* \"SolRsaVerify/src/RsaVerify.sol\":1000:4921  library RsaVerify {... */\n  dataSize(sub_0)\n  dataOffset(sub_0)\n  0x0b\n  dup3\n  dup3\n  dup3\n  codecopy\n  dup1\n  mload\n  0x00\n  byte\n  0x73\n  eq\n  tag_1\n  jumpi\n  mstore(0x00, 0x4e487b7100000000000000000000000000000000000000000000000000000000)\n  mstore(0x04, 0x00)\n  revert(0x00, 0x24)\ntag_1:\n  mstore(0x00, address)\n  0x73\n  dup2\n  mstore8\n  dup3\n  dup2\n  return\nstop\n\nsub_0: assembly {\n        /* \"SolRsaVerify/src/RsaVerify.sol\":1000:4921  library RsaVerify {... */\n      eq(address, deployTimeAddress())\n      mstore(0x40, 0x80)\n      jumpi(tag_1, lt(calldatasize, 0x04))\n      shr(0xe0, calldataload(0x00))\n      dup1\n      0x1e8dc888\n      eq\n      tag_2\n      jumpi\n      dup1\n      0x3a8d43b3\n      eq\n      tag_3\n      jumpi\n    tag_1:\n      0x00\n      dup1\n      revert\n        /* \"SolRsaVerify/src/RsaVerify.sol\":4707:4916  function pkcs1Sha256Raw(... */\n    tag_2:\n      tag_4\n      0x04\n      dup1\n      calldatasize\n      sub\n      dup2\n      add\n      swap1\n      tag_5\n      swap2\n      swap1\n      tag_6\n      jump\t// in\n    tag_5:\n      tag_7\n      jump\t// in\n    tag_4:\n      mload(0x40)\n      tag_8\n      swap2\n      swap1\n      tag_9\n      jump\t// in\n    tag_8:\n      mload(0x40)\n      dup1\n      swap2\n      sub\n      swap1\n      return\n        /* \"SolRsaVerify/src/RsaVerify.sol\":1295:4455  function pkcs1Sha256(... */\n    tag_3:\n      tag_10\n      0x04\n      dup1\n      calldatasize\n      sub\n      dup2\n      add\n      swap1\n      tag_11\n      swap2\n      swap1\n      tag_12\n      jump\t// in\n    tag_11:\n      tag_13\n      jump\t// in\n    tag_10:\n      mload(0x40)\n      tag_14\n      swap2\n      swap1\n      tag_9\n      jump\t// in\n    tag_14:\n      mload(0x40)\n      dup1\n      swap2\n      sub\n      swap1\n      return\n        /* \"SolRsaVerify/src/RsaVerify.sol\":4707:4916  function pkcs1Sha256Raw(... */\n    tag_7:\n        /* \"SolRsaVerify/src/RsaVerify.sol\":4849:4853  bool */\n      0x00\n        /* \"SolRsaVerify/src/RsaVerify.sol\":4873:4908  pkcs1Sha256(sha256(_data),_s,_e,_m) */\n      tag_16\n        /* \"SolRsaVerify/src/RsaVerify.sol\":4885:4898  sha256(_data) */\n      0x02\n        /* \"SolRsaVerify/src/RsaVerify.sol\":4892:4897  _data */\n      dup7\n        /* \"SolRsaVerify/src/RsaVerify.sol\":4885:4898  sha256(_data) */\n      mload(0x40)\n      tag_17\n      swap2\n      swap1\n      tag_18\n      jump\t// in\n    tag_17:\n      0x20\n      mload(0x40)\n      dup1\n      dup4\n      sub\n      dup2\n      dup6\n      gas\n      staticcall\n      iszero\n      dup1\n      iszero\n      tag_20\n      jumpi\n      returndatasize\n      0x00\n      dup1\n      returndatacopy\n      revert(0x00, returndatasize)\n    tag_20:\n      pop\n      pop\n      pop\n      mload(0x40)\n      returndatasize\n      not(0x1f)\n      0x1f\n      dup3\n      add\n      and\n      dup3\n      add\n      dup1\n      0x40\n      mstore\n      pop\n      dup2\n      add\n      swap1\n      tag_21\n      swap2\n      swap1\n      tag_22\n      jump\t// in\n    tag_21:\n        /* \"SolRsaVerify/src/RsaVerify.sol\":4899:4901  _s */\n      dup6\n        /* \"SolRsaVerify/src/RsaVerify.sol\":4902:4904  _e */\n      dup6\n        /* \"SolRsaVerify/src/RsaVerify.sol\":4905:4907  _m */\n      dup6\n        /* \"SolRsaVerify/src/RsaVerify.sol\":4873:4884  pkcs1Sha256 */\n      tag_13\n        /* \"SolRsaVerify/src/RsaVerify.sol\":4873:4908  pkcs1Sha256(sha256(_data),_s,_e,_m) */\n      jump\t// in\n    tag_16:\n        /* \"SolRsaVerify/src/RsaVerify.sol\":4866:4908  return pkcs1Sha256(sha256(_data),_s,_e,_m) */\n      swap1\n      pop\n        /* \"SolRsaVerify/src/RsaVerify.sol\":4707:4916  function pkcs1Sha256Raw(... */\n      swap5\n      swap4\n      pop\n      pop\n      pop\n      pop\n      jump\t// out\n        /* \"SolRsaVerify/src/RsaVerify.sol\":1295:4455  function pkcs1Sha256(... */\n    tag_13:\n        /* \"SolRsaVerify/src/RsaVerify.sol\":1430:1434  bool */\n      0x00\n        /* \"SolRsaVerify/src/RsaVerify.sol\":1457:1497  uint8[17] memory sha256ExplicitNullParam */\n      dup1\n        /* \"SolRsaVerify/src/RsaVerify.sol\":1457:1626  uint8[17] memory sha256ExplicitNullParam = [... */\n      mload(0x40)\n      dup1\n      0x0220\n      add\n      0x40\n      mstore\n      dup1\n        /* \"SolRsaVerify/src/RsaVerify.sol\":1515:1519  0x30 */\n      0x30\n        /* \"SolRsaVerify/src/RsaVerify.sol\":1457:1626  uint8[17] memory sha256ExplicitNullParam = [... */\n      0xff\n      and\n      dup2\n      mstore\n      0x20\n      add\n        /* \"SolRsaVerify/src/RsaVerify.sol\":1521:1525  0x31 */\n      0x31\n        /* \"SolRsaVerify/src/RsaVerify.sol\":1457:1626  uint8[17] memory sha256ExplicitNullParam = [... */\n      0xff\n      and\n      dup2\n      mstore\n      0x20\n      add\n        /* \"SolRsaVerify/src/RsaVerify.sol\":1527:1531  0x30 */\n      0x30\n        /* \"SolRsaVerify/src/RsaVerify.sol\":1457:1626  uint8[17] memory sha256ExplicitNullParam = [... */\n      0xff\n      and\n      dup2\n      mstore\n      0x20\n      add\n        /* \"SolRsaVerify/src/RsaVerify.sol\":1533:1537  0x0d */\n      0x0d\n        /* \"SolRsaVerify/src/RsaVerify.sol\":1457:1626  uint8[17] memory sha256ExplicitNullParam = [... */\n      0xff\n      and\n      dup2\n      mstore\n      0x20\n      add\n        /* \"SolRsaVerify/src/RsaVerify.sol\":1539:1543  0x06 */\n      0x06\n        /* \"SolRsaVerify/src/RsaVerify.sol\":1457:1626  uint8[17] memory sha256ExplicitNullParam = [... */\n      0xff\n      and\n      dup2\n      mstore\n      0x20\n      add\n        /* \"SolRsaVerify/src/RsaVerify.sol\":1545:1549  0x09 */\n      0x09\n        /* \"SolRsaVerify/src/RsaVerify.sol\":1457:1626  uint8[17] memory sha256ExplicitNullParam = [... */\n      0xff\n      and\n      dup2\n      mstore\n      0x20\n      add\n        /* \"SolRsaVerify/src/RsaVerify.sol\":1551:1555  0x60 */\n      0x60\n        /* \"SolRsaVerify/src/RsaVerify.sol\":1457:1626  uint8[17] memory sha256ExplicitNullParam = [... */\n      0xff\n      and\n      dup2\n      mstore\n      0x20\n      add\n        /* \"SolRsaVerify/src/RsaVerify.sol\":1557:1561  0x86 */\n      0x86\n        /* \"SolRsaVerify/src/RsaVerify.sol\":1457:1626  uint8[17] memory sha256ExplicitNullParam = [... */\n      0xff\n      and\n      dup2\n      mstore\n      0x20\n      add\n        /* \"SolRsaVerify/src/RsaVerify.sol\":1563:1567  0x48 */\n      0x48\n        /* \"SolRsaVerify/src/RsaVerify.sol\":1457:1626  uint8[17] memory sha256ExplicitNullParam = [... */\n      0xff\n      and\n      dup2\n      mstore\n      0x20\n      add\n        /* \"SolRsaVerify/src/RsaVerify.sol\":1569:1573  0x01 */\n      0x01\n        /* \"SolRsaVerify/src/RsaVerify.sol\":1457:1626  uint8[17] memory sha256ExplicitNullParam = [... */\n      0xff\n      and\n      dup2\n      mstore\n      0x20\n      add\n        /* \"SolRsaVerify/src/RsaVerify.sol\":1575:1579  0x65 */\n      0x65\n        /* \"SolRsaVerify/src/RsaVerify.sol\":1457:1626  uint8[17] memory sha256ExplicitNullParam = [... */\n      0xff\n      and\n      dup2\n      mstore\n      0x20\n      add\n        /* \"SolRsaVerify/src/RsaVerify.sol\":1581:1585  0x03 */\n      0x03\n        /* \"SolRsaVerify/src/RsaVerify.sol\":1457:1626  uint8[17] memory sha256ExplicitNullParam = [... */\n      0xff\n      and\n      dup2\n      mstore\n      0x20\n      add\n        /* \"SolRsaVerify/src/RsaVerify.sol\":1587:1591  0x04 */\n      0x04\n        /* \"SolRsaVerify/src/RsaVerify.sol\":1457:1626  uint8[17] memory sha256ExplicitNullParam = [... */\n      0xff\n      and\n      dup2\n      mstore\n      0x20\n      add\n        /* \"SolRsaVerify/src/RsaVerify.sol\":1593:1597  0x02 */\n      0x02\n        /* \"SolRsaVerify/src/RsaVerify.sol\":1457:1626  uint8[17] memory sha256ExplicitNullParam = [... */\n      0xff\n      and\n      dup2\n      mstore\n      0x20\n      add\n        /* \"SolRsaVerify/src/RsaVerify.sol\":1599:1603  0x01 */\n      0x01\n        /* \"SolRsaVerify/src/RsaVerify.sol\":1457:1626  uint8[17] memory sha256ExplicitNullParam = [... */\n      0xff\n      and\n      dup2\n      mstore\n      0x20\n      add\n        /* \"SolRsaVerify/src/RsaVerify.sol\":1605:1609  0x05 */\n      0x05\n        /* \"SolRsaVerify/src/RsaVerify.sol\":1457:1626  uint8[17] memory sha256ExplicitNullParam = [... */\n      0xff\n      and\n      dup2\n      mstore\n      0x20\n      add\n        /* \"SolRsaVerify/src/RsaVerify.sol\":1611:1615  0x00 */\n      0x00\n        /* \"SolRsaVerify/src/RsaVerify.sol\":1457:1626  uint8[17] memory sha256ExplicitNullParam = [... */\n      0xff\n      and\n      dup2\n      mstore\n      pop\n      swap1\n      pop\n        /* \"SolRsaVerify/src/RsaVerify.sol\":1639:1679  uint8[15] memory sha256ImplicitNullParam */\n      0x00\n        /* \"SolRsaVerify/src/RsaVerify.sol\":1639:1782  uint8[15] memory sha256ImplicitNullParam = [... */\n      mload(0x40)\n      dup1\n      0x01e0\n      add\n      0x40\n      mstore\n      dup1\n        /* \"SolRsaVerify/src/RsaVerify.sol\":1697:1701  0x30 */\n      0x30\n        /* \"SolRsaVerify/src/RsaVerify.sol\":1639:1782  uint8[15] memory sha256ImplicitNullParam = [... */\n      0xff\n      and\n      dup2\n      mstore\n      0x20\n      add\n        /* \"SolRsaVerify/src/RsaVerify.sol\":1702:1706  0x2f */\n      0x2f\n        /* \"SolRsaVerify/src/RsaVerify.sol\":1639:1782  uint8[15] memory sha256ImplicitNullParam = [... */\n      0xff\n      and\n      dup2\n      mstore\n      0x20\n      add\n        /* \"SolRsaVerify/src/RsaVerify.sol\":1707:1711  0x30 */\n      0x30\n        /* \"SolRsaVerify/src/RsaVerify.sol\":1639:1782  uint8[15] memory sha256ImplicitNullParam = [... */\n      0xff\n      and\n      dup2\n      mstore\n      0x20\n      add\n        /* \"SolRsaVerify/src/RsaVerify.sol\":1712:1716  0x0b */\n      0x0b\n        /* \"SolRsaVerify/src/RsaVerify.sol\":1639:1782  uint8[15] memory sha256ImplicitNullParam = [... */\n      0xff\n      and\n      dup2\n      mstore\n      0x20\n      add\n        /* \"SolRsaVerify/src/RsaVerify.sol\":1717:1721  0x06 */\n      0x06\n        /* \"SolRsaVerify/src/RsaVerify.sol\":1639:1782  uint8[15] memory sha256ImplicitNullParam = [... */\n      0xff\n      and\n      dup2\n      mstore\n      0x20\n      add\n        /* \"SolRsaVerify/src/RsaVerify.sol\":1722:1726  0x09 */\n      0x09\n        /* \"SolRsaVerify/src/RsaVerify.sol\":1639:1782  uint8[15] memory sha256ImplicitNullParam = [... */\n      0xff\n      and\n      dup2\n      mstore\n      0x20\n      add\n        /* \"SolRsaVerify/src/RsaVerify.sol\":1727:1731  0x60 */\n      0x60\n        /* \"SolRsaVerify/src/RsaVerify.sol\":1639:1782  uint8[15] memory sha256ImplicitNullParam = [... */\n      0xff\n      and\n      dup2\n      mstore\n      0x20\n      add\n        /* \"SolRsaVerify/src/RsaVerify.sol\":1732:1736  0x86 */\n      0x86\n        /* \"SolRsaVerify/src/RsaVerify.sol\":1639:1782  uint8[15] memory sha256ImplicitNullParam = [... */\n      0xff\n      and\n      dup2\n      mstore\n      0x20\n      add\n        /* \"SolRsaVerify/src/RsaVerify.sol\":1737:1741  0x48 */\n      0x48\n        /* \"SolRsaVerify/src/RsaVerify.sol\":1639:1782  uint8[15] memory sha256ImplicitNullParam = [... */\n      0xff\n      and\n      dup2\n      mstore\n      0x20\n      add\n        /* \"SolRsaVerify/src/RsaVerify.sol\":1742:1746  0x01 */\n      0x01\n        /* \"SolRsaVerify/src/RsaVerify.sol\":1639:1782  uint8[15] memory sha256ImplicitNullParam = [... */\n      0xff\n      and\n      dup2\n      mstore\n      0x20\n      add\n        /* \"SolRsaVerify/src/RsaVerify.sol\":1747:1751  0x65 */\n      0x65\n        /* \"SolRsaVerify/src/RsaVerify.sol\":1639:1782  uint8[15] memory sha256ImplicitNullParam = [... */\n      0xff\n      and\n      dup2\n      mstore\n      0x20\n      add\n        /* \"SolRsaVerify/src/RsaVerify.sol\":1752:1756  0x03 */\n      0x03\n        /* \"SolRsaVerify/src/RsaVerify.sol\":1639:1782  uint8[15] memory sha256ImplicitNullParam = [... */\n      0xff\n      and\n      dup2\n      mstore\n      0x20\n      add\n        /* \"SolRsaVerify/src/RsaVerify.sol\":1757:1761  0x04 */\n      0x04\n        /* \"SolRsaVerify/src/RsaVerify.sol\":1639:1782  uint8[15] memory sha256ImplicitNullParam = [... */\n      0xff\n      and\n      dup2\n      mstore\n      0x20\n      add\n        /* \"SolRsaVerify/src/RsaVerify.sol\":1762:1766  0x02 */\n      0x02\n        /* \"SolRsaVerify/src/RsaVerify.sol\":1639:1782  uint8[15] memory sha256ImplicitNullParam = [... */\n      0xff\n      and\n      dup2\n      mstore\n      0x20\n      add\n        /* \"SolRsaVerify/src/RsaVerify.sol\":1767:1771  0x01 */\n      0x01\n        /* \"SolRsaVerify/src/RsaVerify.sol\":1639:1782  uint8[15] memory sha256ImplicitNullParam = [... */\n      0xff\n      and\n      dup2\n      mstore\n      pop\n      swap1\n      pop\n        /* \"SolRsaVerify/src/RsaVerify.sol\":1826:1844  bytes memory input */\n      0x00\n        /* \"SolRsaVerify/src/RsaVerify.sol\":1882:1884  _s */\n      dup7\n        /* \"SolRsaVerify/src/RsaVerify.sol\":1882:1891  _s.length */\n      mload\n        /* \"SolRsaVerify/src/RsaVerify.sol\":1874:1892  bytes32(_s.length) */\n      0x00\n      shl\n        /* \"SolRsaVerify/src/RsaVerify.sol\":1915:1917  _e */\n      dup7\n        /* \"SolRsaVerify/src/RsaVerify.sol\":1915:1924  _e.length */\n      mload\n        /* \"SolRsaVerify/src/RsaVerify.sol\":1907:1925  bytes32(_e.length) */\n      0x00\n      shl\n        /* \"SolRsaVerify/src/RsaVerify.sol\":1948:1950  _m */\n      dup7\n        /* \"SolRsaVerify/src/RsaVerify.sol\":1948:1957  _m.length */\n      mload\n        /* \"SolRsaVerify/src/RsaVerify.sol\":1940:1958  bytes32(_m.length) */\n      0x00\n      shl\n        /* \"SolRsaVerify/src/RsaVerify.sol\":1973:1975  _s */\n      dup10\n        /* \"SolRsaVerify/src/RsaVerify.sol\":1976:1978  _e */\n      dup10\n        /* \"SolRsaVerify/src/RsaVerify.sol\":1979:1981  _m */\n      dup10\n        /* \"SolRsaVerify/src/RsaVerify.sol\":1847:1992  bytes.concat(... */\n      add(0x20, mload(0x40))\n      tag_24\n      swap7\n      swap6\n      swap5\n      swap4\n      swap3\n      swap2\n      swap1\n      tag_25\n      jump\t// in\n    tag_24:\n      mload(0x40)\n      0x20\n      dup2\n      dup4\n      sub\n      sub\n      dup2\n      mstore\n      swap1\n      0x40\n      mstore\n        /* \"SolRsaVerify/src/RsaVerify.sol\":1826:1992  bytes memory input = bytes.concat(... */\n      swap1\n      pop\n        /* \"SolRsaVerify/src/RsaVerify.sol\":2003:2016  uint inputlen */\n      0x00\n        /* \"SolRsaVerify/src/RsaVerify.sol\":2019:2024  input */\n      dup2\n        /* \"SolRsaVerify/src/RsaVerify.sol\":2019:2031  input.length */\n      mload\n        /* \"SolRsaVerify/src/RsaVerify.sol\":2003:2031  uint inputlen = input.length */\n      swap1\n      pop\n        /* \"SolRsaVerify/src/RsaVerify.sol\":2044:2060  uint decipherlen */\n      0x00\n        /* \"SolRsaVerify/src/RsaVerify.sol\":2063:2065  _m */\n      dup7\n        /* \"SolRsaVerify/src/RsaVerify.sol\":2063:2072  _m.length */\n      mload\n        /* \"SolRsaVerify/src/RsaVerify.sol\":2044:2072  uint decipherlen = _m.length */\n      swap1\n      pop\n        /* \"SolRsaVerify/src/RsaVerify.sol\":2083:2104  bytes memory decipher */\n      0x00\n        /* \"SolRsaVerify/src/RsaVerify.sol\":2117:2128  decipherlen */\n      dup2\n        /* \"SolRsaVerify/src/RsaVerify.sol\":2107:2129  new bytes(decipherlen) */\n      0xffffffffffffffff\n      dup2\n      gt\n      iszero\n      tag_26\n      jumpi\n      tag_27\n      tag_28\n      jump\t// in\n    tag_27:\n    tag_26:\n      mload(0x40)\n      swap1\n      dup1\n      dup3\n      mstore\n      dup1\n      0x1f\n      add\n      not(0x1f)\n      and\n      0x20\n      add\n      dup3\n      add\n      0x40\n      mstore\n      dup1\n      iszero\n      tag_29\n      jumpi\n      dup2\n      0x20\n      add\n      0x01\n      dup3\n      mul\n      dup1\n      calldatasize\n      dup4\n      calldatacopy\n      dup1\n      dup3\n      add\n      swap2\n      pop\n      pop\n      swap1\n      pop\n    tag_29:\n      pop\n        /* \"SolRsaVerify/src/RsaVerify.sol\":2083:2129  bytes memory decipher = new bytes(decipherlen) */\n      swap1\n      pop\n        /* \"SolRsaVerify/src/RsaVerify.sol\":2247:2258  decipherlen */\n      dup2\n        /* \"SolRsaVerify/src/RsaVerify.sol\":2240:2244  0x20 */\n      0x20\n        /* \"SolRsaVerify/src/RsaVerify.sol\":2231:2239  decipher */\n      dup3\n        /* \"SolRsaVerify/src/RsaVerify.sol\":2227:2245  add(decipher,0x20) */\n      add\n        /* \"SolRsaVerify/src/RsaVerify.sol\":2217:2225  inputlen */\n      dup5\n        /* \"SolRsaVerify/src/RsaVerify.sol\":2210:2214  0x20 */\n      0x20\n        /* \"SolRsaVerify/src/RsaVerify.sol\":2204:2209  input */\n      dup8\n        /* \"SolRsaVerify/src/RsaVerify.sol\":2200:2215  add(input,0x20) */\n      add\n        /* \"SolRsaVerify/src/RsaVerify.sol\":2197:2198  5 */\n      0x05\n        /* \"SolRsaVerify/src/RsaVerify.sol\":2190:2194  2000 */\n      0x07d0\n        /* \"SolRsaVerify/src/RsaVerify.sol\":2183:2188  gas() */\n      gas\n        /* \"SolRsaVerify/src/RsaVerify.sol\":2179:2195  sub(gas(), 2000) */\n      sub\n        /* \"SolRsaVerify/src/RsaVerify.sol\":2168:2259  staticcall(sub(gas(), 2000), 5, add(input,0x20), inputlen, add(decipher,0x20), decipherlen) */\n      staticcall\n        /* \"SolRsaVerify/src/RsaVerify.sol\":2164:2260  pop(staticcall(sub(gas(), 2000), 5, add(input,0x20), inputlen, add(decipher,0x20), decipherlen)) */\n      pop\n        /* \"SolRsaVerify/src/RsaVerify.sol\":2618:2635  bool hasNullParam */\n      0x00\n        /* \"SolRsaVerify/src/RsaVerify.sol\":2646:2673  uint digestAlgoWithParamLen */\n      dup1\n        /* \"SolRsaVerify/src/RsaVerify.sol\":2723:2727  0x31 */\n      0x31\n        /* \"SolRsaVerify/src/RsaVerify.sol\":2696:2704  decipher */\n      dup4\n        /* \"SolRsaVerify/src/RsaVerify.sol\":2717:2719  50 */\n      0x32\n        /* \"SolRsaVerify/src/RsaVerify.sol\":2705:2716  decipherlen */\n      dup7\n        /* \"SolRsaVerify/src/RsaVerify.sol\":2705:2719  decipherlen-50 */\n      tag_30\n      swap2\n      swap1\n      tag_31\n      jump\t// in\n    tag_30:\n        /* \"SolRsaVerify/src/RsaVerify.sol\":2696:2720  decipher[decipherlen-50] */\n      dup2\n      mload\n      dup2\n      lt\n      tag_32\n      jumpi\n      tag_33\n      tag_34\n      jump\t// in\n    tag_33:\n    tag_32:\n      0x20\n      add\n      add\n      mload\n      0xf8\n      shr\n      0xf8\n      shl\n        /* \"SolRsaVerify/src/RsaVerify.sol\":2690:2721  uint8(decipher[decipherlen-50]) */\n      0xf8\n      shr\n        /* \"SolRsaVerify/src/RsaVerify.sol\":2690:2727  uint8(decipher[decipherlen-50])==0x31 */\n      0xff\n      and\n      sub\n        /* \"SolRsaVerify/src/RsaVerify.sol\":2686:3058  if (uint8(decipher[decipherlen-50])==0x31) {... */\n      tag_35\n      jumpi\n        /* \"SolRsaVerify/src/RsaVerify.sol\":2759:2763  true */\n      0x01\n        /* \"SolRsaVerify/src/RsaVerify.sol\":2744:2763  hasNullParam = true */\n      swap2\n      pop\n        /* \"SolRsaVerify/src/RsaVerify.sol\":2804:2834  sha256ExplicitNullParam.length */\n      0x11\n        /* \"SolRsaVerify/src/RsaVerify.sol\":2779:2834  digestAlgoWithParamLen = sha256ExplicitNullParam.length */\n      swap1\n      pop\n        /* \"SolRsaVerify/src/RsaVerify.sol\":2686:3058  if (uint8(decipher[decipherlen-50])==0x31) {... */\n      jump(tag_36)\n    tag_35:\n        /* \"SolRsaVerify/src/RsaVerify.sol\":2890:2894  0x2f */\n      0x2f\n        /* \"SolRsaVerify/src/RsaVerify.sol\":2863:2871  decipher */\n      dup4\n        /* \"SolRsaVerify/src/RsaVerify.sol\":2884:2886  48 */\n      0x30\n        /* \"SolRsaVerify/src/RsaVerify.sol\":2872:2883  decipherlen */\n      dup7\n        /* \"SolRsaVerify/src/RsaVerify.sol\":2872:2886  decipherlen-48 */\n      tag_37\n      swap2\n      swap1\n      tag_31\n      jump\t// in\n    tag_37:\n        /* \"SolRsaVerify/src/RsaVerify.sol\":2863:2887  decipher[decipherlen-48] */\n      dup2\n      mload\n      dup2\n      lt\n      tag_38\n      jumpi\n      tag_39\n      tag_34\n      jump\t// in\n    tag_39:\n    tag_38:\n      0x20\n      add\n      add\n      mload\n      0xf8\n      shr\n      0xf8\n      shl\n        /* \"SolRsaVerify/src/RsaVerify.sol\":2857:2888  uint8(decipher[decipherlen-48]) */\n      0xf8\n      shr\n        /* \"SolRsaVerify/src/RsaVerify.sol\":2857:2894  uint8(decipher[decipherlen-48])==0x2f */\n      0xff\n      and\n      sub\n        /* \"SolRsaVerify/src/RsaVerify.sol\":2852:3058  if  (uint8(decipher[decipherlen-48])==0x2f) {... */\n      tag_40\n      jumpi\n        /* \"SolRsaVerify/src/RsaVerify.sol\":2926:2931  false */\n      0x00\n        /* \"SolRsaVerify/src/RsaVerify.sol\":2911:2931  hasNullParam = false */\n      swap2\n      pop\n        /* \"SolRsaVerify/src/RsaVerify.sol\":2971:3001  sha256ImplicitNullParam.length */\n      0x0f\n        /* \"SolRsaVerify/src/RsaVerify.sol\":2946:3001  digestAlgoWithParamLen = sha256ImplicitNullParam.length */\n      swap1\n      pop\n        /* \"SolRsaVerify/src/RsaVerify.sol\":2852:3058  if  (uint8(decipher[decipherlen-48])==0x2f) {... */\n      jump(tag_41)\n    tag_40:\n        /* \"SolRsaVerify/src/RsaVerify.sol\":3041:3046  false */\n      0x00\n        /* \"SolRsaVerify/src/RsaVerify.sol\":3034:3046  return false */\n      swap9\n      pop\n      pop\n      pop\n      pop\n      pop\n      pop\n      pop\n      pop\n      pop\n      jump(tag_23)\n        /* \"SolRsaVerify/src/RsaVerify.sol\":2852:3058  if  (uint8(decipher[decipherlen-48])==0x2f) {... */\n    tag_41:\n        /* \"SolRsaVerify/src/RsaVerify.sol\":2686:3058  if (uint8(decipher[decipherlen-50])==0x31) {... */\n    tag_36:\n        /* \"SolRsaVerify/src/RsaVerify.sol\":3070:3085  uint paddingLen */\n      0x00\n        /* \"SolRsaVerify/src/RsaVerify.sol\":3132:3134  32 */\n      0x20\n        /* \"SolRsaVerify/src/RsaVerify.sol\":3106:3128  digestAlgoWithParamLen */\n      dup3\n        /* \"SolRsaVerify/src/RsaVerify.sol\":3102:3103  5 */\n      0x05\n        /* \"SolRsaVerify/src/RsaVerify.sol\":3088:3099  decipherlen */\n      dup8\n        /* \"SolRsaVerify/src/RsaVerify.sol\":3088:3103  decipherlen - 5 */\n      tag_42\n      swap2\n      swap1\n      tag_31\n      jump\t// in\n    tag_42:\n        /* \"SolRsaVerify/src/RsaVerify.sol\":3088:3128  decipherlen - 5 - digestAlgoWithParamLen */\n      tag_43\n      swap2\n      swap1\n      tag_31\n      jump\t// in\n    tag_43:\n        /* \"SolRsaVerify/src/RsaVerify.sol\":3088:3134  decipherlen - 5 - digestAlgoWithParamLen -  32 */\n      tag_44\n      swap2\n      swap1\n      tag_31\n      jump\t// in\n    tag_44:\n        /* \"SolRsaVerify/src/RsaVerify.sol\":3070:3134  uint paddingLen = decipherlen - 5 - digestAlgoWithParamLen -  32 */\n      swap1\n      pop\n        /* \"SolRsaVerify/src/RsaVerify.sol\":3167:3168  0 */\n      0x00\n        /* \"SolRsaVerify/src/RsaVerify.sol\":3152:3168  decipher[0] != 0 */\n      0xf8\n      shl\n        /* \"SolRsaVerify/src/RsaVerify.sol\":3152:3160  decipher */\n      dup5\n        /* \"SolRsaVerify/src/RsaVerify.sol\":3161:3162  0 */\n      0x00\n        /* \"SolRsaVerify/src/RsaVerify.sol\":3152:3163  decipher[0] */\n      dup2\n      mload\n      dup2\n      lt\n      tag_45\n      jumpi\n      tag_46\n      tag_34\n      jump\t// in\n    tag_46:\n    tag_45:\n      0x20\n      add\n      add\n      mload\n      0xf8\n      shr\n      0xf8\n      shl\n        /* \"SolRsaVerify/src/RsaVerify.sol\":3152:3168  decipher[0] != 0 */\n      not(0xffffffffffffffffffffffffffffffffffffffffffffffffffffffffffffff)\n      and\n      eq\n      iszero\n        /* \"SolRsaVerify/src/RsaVerify.sol\":3152:3191  decipher[0] != 0 || decipher[1] != 0x01 */\n      dup1\n      tag_47\n      jumpi\n      pop\n        /* \"SolRsaVerify/src/RsaVerify.sol\":3187:3191  0x01 */\n      0x01\n        /* \"SolRsaVerify/src/RsaVerify.sol\":3172:3191  decipher[1] != 0x01 */\n      0xf8\n      shl\n        /* \"SolRsaVerify/src/RsaVerify.sol\":3172:3180  decipher */\n      dup5\n        /* \"SolRsaVerify/src/RsaVerify.sol\":3181:3182  1 */\n      0x01\n        /* \"SolRsaVerify/src/RsaVerify.sol\":3172:3183  decipher[1] */\n      dup2\n      mload\n      dup2\n      lt\n      tag_48\n      jumpi\n      tag_49\n      tag_34\n      jump\t// in\n    tag_49:\n    tag_48:\n      0x20\n      add\n      add\n      mload\n      0xf8\n      shr\n      0xf8\n      shl\n        /* \"SolRsaVerify/src/RsaVerify.sol\":3172:3191  decipher[1] != 0x01 */\n      not(0xffffffffffffffffffffffffffffffffffffffffffffffffffffffffffffff)\n      and\n      eq\n      iszero\n        /* \"SolRsaVerify/src/RsaVerify.sol\":3152:3191  decipher[0] != 0 || decipher[1] != 0x01 */\n    tag_47:\n        /* \"SolRsaVerify/src/RsaVerify.sol\":3148:3232  if (decipher[0] != 0 || decipher[1] != 0x01) {... */\n      iszero\n      tag_50\n      jumpi\n        /* \"SolRsaVerify/src/RsaVerify.sol\":3215:3220  false */\n      0x00\n        /* \"SolRsaVerify/src/RsaVerify.sol\":3208:3220  return false */\n      swap10\n      pop\n      pop\n      pop\n      pop\n      pop\n      pop\n      pop\n      pop\n      pop\n      pop\n      jump(tag_23)\n        /* \"SolRsaVerify/src/RsaVerify.sol\":3148:3232  if (decipher[0] != 0 || decipher[1] != 0x01) {... */\n    tag_50:\n        /* \"SolRsaVerify/src/RsaVerify.sol\":3247:3253  uint i */\n      0x00\n        /* \"SolRsaVerify/src/RsaVerify.sol\":3256:3257  2 */\n      0x02\n        /* \"SolRsaVerify/src/RsaVerify.sol\":3247:3257  uint i = 2 */\n      swap1\n      pop\n        /* \"SolRsaVerify/src/RsaVerify.sol\":3242:3376  for (uint i = 2;i<2+paddingLen;i++) {... */\n    tag_51:\n        /* \"SolRsaVerify/src/RsaVerify.sol\":3262:3272  paddingLen */\n      dup2\n        /* \"SolRsaVerify/src/RsaVerify.sol\":3260:3261  2 */\n      0x02\n        /* \"SolRsaVerify/src/RsaVerify.sol\":3260:3272  2+paddingLen */\n      tag_54\n      swap2\n      swap1\n      tag_55\n      jump\t// in\n    tag_54:\n        /* \"SolRsaVerify/src/RsaVerify.sol\":3258:3259  i */\n      dup2\n        /* \"SolRsaVerify/src/RsaVerify.sol\":3258:3272  i<2+paddingLen */\n      lt\n        /* \"SolRsaVerify/src/RsaVerify.sol\":3242:3376  for (uint i = 2;i<2+paddingLen;i++) {... */\n      iszero\n      tag_52\n      jumpi\n        /* \"SolRsaVerify/src/RsaVerify.sol\":3312:3316  0xff */\n      0xff\n        /* \"SolRsaVerify/src/RsaVerify.sol\":3297:3316  decipher[i] != 0xff */\n      0xf8\n      shl\n        /* \"SolRsaVerify/src/RsaVerify.sol\":3297:3305  decipher */\n      dup6\n        /* \"SolRsaVerify/src/RsaVerify.sol\":3306:3307  i */\n      dup3\n        /* \"SolRsaVerify/src/RsaVerify.sol\":3297:3308  decipher[i] */\n      dup2\n      mload\n      dup2\n      lt\n      tag_56\n      jumpi\n      tag_57\n      tag_34\n      jump\t// in\n    tag_57:\n    tag_56:\n      0x20\n      add\n      add\n      mload\n      0xf8\n      shr\n      0xf8\n      shl\n        /* \"SolRsaVerify/src/RsaVerify.sol\":3297:3316  decipher[i] != 0xff */\n      not(0xffffffffffffffffffffffffffffffffffffffffffffffffffffffffffffff)\n      and\n      eq\n        /* \"SolRsaVerify/src/RsaVerify.sol\":3293:3365  if (decipher[i] != 0xff) {... */\n      tag_58\n      jumpi\n        /* \"SolRsaVerify/src/RsaVerify.sol\":3344:3349  false */\n      0x00\n        /* \"SolRsaVerify/src/RsaVerify.sol\":3337:3349  return false */\n      swap11\n      pop\n      pop\n      pop\n      pop\n      pop\n      pop\n      pop\n      pop\n      pop\n      pop\n      pop\n      jump(tag_23)\n        /* \"SolRsaVerify/src/RsaVerify.sol\":3293:3365  if (decipher[i] != 0xff) {... */\n    tag_58:\n        /* \"SolRsaVerify/src/RsaVerify.sol\":3273:3276  i++ */\n      dup1\n      dup1\n      0x01\n      add\n      swap2\n      pop\n      pop\n        /* \"SolRsaVerify/src/RsaVerify.sol\":3242:3376  for (uint i = 2;i<2+paddingLen;i++) {... */\n      jump(tag_51)\n    tag_52:\n      pop\n        /* \"SolRsaVerify/src/RsaVerify.sol\":3416:3417  0 */\n      0x00\n        /* \"SolRsaVerify/src/RsaVerify.sol\":3390:3417  decipher[2+paddingLen] != 0 */\n      0xf8\n      shl\n        /* \"SolRsaVerify/src/RsaVerify.sol\":3390:3398  decipher */\n      dup5\n        /* \"SolRsaVerify/src/RsaVerify.sol\":3401:3411  paddingLen */\n      dup3\n        /* \"SolRsaVerify/src/RsaVerify.sol\":3399:3400  2 */\n      0x02\n        /* \"SolRsaVerify/src/RsaVerify.sol\":3399:3411  2+paddingLen */\n      tag_59\n      swap2\n      swap1\n      tag_55\n      jump\t// in\n    tag_59:\n        /* \"SolRsaVerify/src/RsaVerify.sol\":3390:3412  decipher[2+paddingLen] */\n      dup2\n      mload\n      dup2\n      lt\n      tag_60\n      jumpi\n      tag_61\n      tag_34\n      jump\t// in\n    tag_61:\n    tag_60:\n      0x20\n      add\n      add\n      mload\n      0xf8\n      shr\n      0xf8\n      shl\n        /* \"SolRsaVerify/src/RsaVerify.sol\":3390:3417  decipher[2+paddingLen] != 0 */\n      not(0xffffffffffffffffffffffffffffffffffffffffffffffffffffffffffffff)\n      and\n      eq\n        /* \"SolRsaVerify/src/RsaVerify.sol\":3386:3458  if (decipher[2+paddingLen] != 0) {... */\n      tag_62\n      jumpi\n        /* \"SolRsaVerify/src/RsaVerify.sol\":3441:3446  false */\n      0x00\n        /* \"SolRsaVerify/src/RsaVerify.sol\":3434:3446  return false */\n      swap10\n      pop\n      pop\n      pop\n      pop\n      pop\n      pop\n      pop\n      pop\n      pop\n      pop\n      jump(tag_23)\n        /* \"SolRsaVerify/src/RsaVerify.sol\":3386:3458  if (decipher[2+paddingLen] != 0) {... */\n    tag_62:\n        /* \"SolRsaVerify/src/RsaVerify.sol\":3537:3567  sha256ExplicitNullParam.length */\n      0x11\n        /* \"SolRsaVerify/src/RsaVerify.sol\":3511:3533  digestAlgoWithParamLen */\n      dup3\n        /* \"SolRsaVerify/src/RsaVerify.sol\":3511:3567  digestAlgoWithParamLen == sha256ExplicitNullParam.length */\n      sub\n        /* \"SolRsaVerify/src/RsaVerify.sol\":3507:4029  if (digestAlgoWithParamLen == sha256ExplicitNullParam.length) {... */\n      tag_63\n      jumpi\n        /* \"SolRsaVerify/src/RsaVerify.sol\":3589:3595  uint i */\n      0x00\n        /* \"SolRsaVerify/src/RsaVerify.sol\":3584:3785  for (uint i = 0;i<digestAlgoWithParamLen;i++) {... */\n    tag_64:\n        /* \"SolRsaVerify/src/RsaVerify.sol\":3602:3624  digestAlgoWithParamLen */\n      dup3\n        /* \"SolRsaVerify/src/RsaVerify.sol\":3600:3601  i */\n      dup2\n        /* \"SolRsaVerify/src/RsaVerify.sol\":3600:3624  i<digestAlgoWithParamLen */\n      lt\n        /* \"SolRsaVerify/src/RsaVerify.sol\":3584:3785  for (uint i = 0;i<digestAlgoWithParamLen;i++) {... */\n      iszero\n      tag_65\n      jumpi\n        /* \"SolRsaVerify/src/RsaVerify.sol\":3686:3709  sha256ExplicitNullParam */\n      dup10\n        /* \"SolRsaVerify/src/RsaVerify.sol\":3710:3711  i */\n      dup2\n        /* \"SolRsaVerify/src/RsaVerify.sol\":3686:3712  sha256ExplicitNullParam[i] */\n      0x11\n      dup2\n      lt\n      tag_67\n      jumpi\n      tag_68\n      tag_34\n      jump\t// in\n    tag_68:\n    tag_67:\n      0x20\n      mul\n      add\n      mload\n        /* \"SolRsaVerify/src/RsaVerify.sol\":3679:3713  bytes1(sha256ExplicitNullParam[i]) */\n      0xf8\n      shl\n        /* \"SolRsaVerify/src/RsaVerify.sol\":3653:3713  decipher[3+paddingLen+i]!=bytes1(sha256ExplicitNullParam[i]) */\n      not(0xffffffffffffffffffffffffffffffffffffffffffffffffffffffffffffff)\n      and\n        /* \"SolRsaVerify/src/RsaVerify.sol\":3653:3661  decipher */\n      dup6\n        /* \"SolRsaVerify/src/RsaVerify.sol\":3675:3676  i */\n      dup3\n        /* \"SolRsaVerify/src/RsaVerify.sol\":3664:3674  paddingLen */\n      dup5\n        /* \"SolRsaVerify/src/RsaVerify.sol\":3662:3663  3 */\n      0x03\n        /* \"SolRsaVerify/src/RsaVerify.sol\":3662:3674  3+paddingLen */\n      tag_69\n      swap2\n      swap1\n      tag_55\n      jump\t// in\n    tag_69:\n        /* \"SolRsaVerify/src/RsaVerify.sol\":3662:3676  3+paddingLen+i */\n      tag_70\n      swap2\n      swap1\n      tag_55\n      jump\t// in\n    tag_70:\n        /* \"SolRsaVerify/src/RsaVerify.sol\":3653:3677  decipher[3+paddingLen+i] */\n      dup2\n      mload\n      dup2\n      lt\n      tag_71\n      jumpi\n      tag_72\n      tag_34\n      jump\t// in\n    tag_72:\n    tag_71:\n      0x20\n      add\n      add\n      mload\n      0xf8\n      shr\n      0xf8\n      shl\n        /* \"SolRsaVerify/src/RsaVerify.sol\":3653:3713  decipher[3+paddingLen+i]!=bytes1(sha256ExplicitNullParam[i]) */\n      not(0xffffffffffffffffffffffffffffffffffffffffffffffffffffffffffffff)\n      and\n      eq\n        /* \"SolRsaVerify/src/RsaVerify.sol\":3649:3770  if (decipher[3+paddingLen+i]!=bytes1(sha256ExplicitNullParam[i])) {... */\n      tag_73\n      jumpi\n        /* \"SolRsaVerify/src/RsaVerify.sol\":3745:3750  false */\n      0x00\n        /* \"SolRsaVerify/src/RsaVerify.sol\":3738:3750  return false */\n      swap11\n      pop\n      pop\n      pop\n      pop\n      pop\n      pop\n      pop\n      pop\n      pop\n      pop\n      pop\n      jump(tag_23)\n        /* \"SolRsaVerify/src/RsaVerify.sol\":3649:3770  if (decipher[3+paddingLen+i]!=bytes1(sha256ExplicitNullParam[i])) {... */\n    tag_73:\n        /* \"SolRsaVerify/src/RsaVerify.sol\":3625:3628  i++ */\n      dup1\n      dup1\n      0x01\n      add\n      swap2\n      pop\n      pop\n        /* \"SolRsaVerify/src/RsaVerify.sol\":3584:3785  for (uint i = 0;i<digestAlgoWithParamLen;i++) {... */\n      jump(tag_64)\n    tag_65:\n      pop\n        /* \"SolRsaVerify/src/RsaVerify.sol\":3507:4029  if (digestAlgoWithParamLen == sha256ExplicitNullParam.length) {... */\n      jump(tag_74)\n    tag_63:\n        /* \"SolRsaVerify/src/RsaVerify.sol\":3822:3828  uint i */\n      0x00\n        /* \"SolRsaVerify/src/RsaVerify.sol\":3817:4018  for (uint i = 0;i<digestAlgoWithParamLen;i++) {... */\n    tag_75:\n        /* \"SolRsaVerify/src/RsaVerify.sol\":3835:3857  digestAlgoWithParamLen */\n      dup3\n        /* \"SolRsaVerify/src/RsaVerify.sol\":3833:3834  i */\n      dup2\n        /* \"SolRsaVerify/src/RsaVerify.sol\":3833:3857  i<digestAlgoWithParamLen */\n      lt\n        /* \"SolRsaVerify/src/RsaVerify.sol\":3817:4018  for (uint i = 0;i<digestAlgoWithParamLen;i++) {... */\n      iszero\n      tag_76\n      jumpi\n        /* \"SolRsaVerify/src/RsaVerify.sol\":3919:3942  sha256ImplicitNullParam */\n      dup9\n        /* \"SolRsaVerify/src/RsaVerify.sol\":3943:3944  i */\n      dup2\n        /* \"SolRsaVerify/src/RsaVerify.sol\":3919:3945  sha256ImplicitNullParam[i] */\n      0x0f\n      dup2\n      lt\n      tag_78\n      jumpi\n      tag_79\n      tag_34\n      jump\t// in\n    tag_79:\n    tag_78:\n      0x20\n      mul\n      add\n      mload\n        /* \"SolRsaVerify/src/RsaVerify.sol\":3912:3946  bytes1(sha256ImplicitNullParam[i]) */\n      0xf8\n      shl\n        /* \"SolRsaVerify/src/RsaVerify.sol\":3886:3946  decipher[3+paddingLen+i]!=bytes1(sha256ImplicitNullParam[i]) */\n      not(0xffffffffffffffffffffffffffffffffffffffffffffffffffffffffffffff)\n      and\n        /* \"SolRsaVerify/src/RsaVerify.sol\":3886:3894  decipher */\n      dup6\n        /* \"SolRsaVerify/src/RsaVerify.sol\":3908:3909  i */\n      dup3\n        /* \"SolRsaVerify/src/RsaVerify.sol\":3897:3907  paddingLen */\n      dup5\n        /* \"SolRsaVerify/src/RsaVerify.sol\":3895:3896  3 */\n      0x03\n        /* \"SolRsaVerify/src/RsaVerify.sol\":3895:3907  3+paddingLen */\n      tag_80\n      swap2\n      swap1\n      tag_55\n      jump\t// in\n    tag_80:\n        /* \"SolRsaVerify/src/RsaVerify.sol\":3895:3909  3+paddingLen+i */\n      tag_81\n      swap2\n      swap1\n      tag_55\n      jump\t// in\n    tag_81:\n        /* \"SolRsaVerify/src/RsaVerify.sol\":3886:3910  decipher[3+paddingLen+i] */\n      dup2\n      mload\n      dup2\n      lt\n      tag_82\n      jumpi\n      tag_83\n      tag_34\n      jump\t// in\n    tag_83:\n    tag_82:\n      0x20\n      add\n      add\n      mload\n      0xf8\n      shr\n      0xf8\n      shl\n        /* \"SolRsaVerify/src/RsaVerify.sol\":3886:3946  decipher[3+paddingLen+i]!=bytes1(sha256ImplicitNullParam[i]) */\n      not(0xffffffffffffffffffffffffffffffffffffffffffffffffffffffffffffff)\n      and\n      eq\n        /* \"SolRsaVerify/src/RsaVerify.sol\":3882:4003  if (decipher[3+paddingLen+i]!=bytes1(sha256ImplicitNullParam[i])) {... */\n      tag_84\n      jumpi\n        /* \"SolRsaVerify/src/RsaVerify.sol\":3978:3983  false */\n      0x00\n        /* \"SolRsaVerify/src/RsaVerify.sol\":3971:3983  return false */\n      swap11\n      pop\n      pop\n      pop\n      pop\n      pop\n      pop\n      pop\n      pop\n      pop\n      pop\n      pop\n      jump(tag_23)\n        /* \"SolRsaVerify/src/RsaVerify.sol\":3882:4003  if (decipher[3+paddingLen+i]!=bytes1(sha256ImplicitNullParam[i])) {... */\n    tag_84:\n        /* \"SolRsaVerify/src/RsaVerify.sol\":3858:3861  i++ */\n      dup1\n      dup1\n      0x01\n      add\n      swap2\n      pop\n      pop\n        /* \"SolRsaVerify/src/RsaVerify.sol\":3817:4018  for (uint i = 0;i<digestAlgoWithParamLen;i++) {... */\n      jump(tag_75)\n    tag_76:\n      pop\n        /* \"SolRsaVerify/src/RsaVerify.sol\":3507:4029  if (digestAlgoWithParamLen == sha256ExplicitNullParam.length) {... */\n    tag_74:\n        /* \"SolRsaVerify/src/RsaVerify.sol\":4121:4125  0x04 */\n      0x04\n        /* \"SolRsaVerify/src/RsaVerify.sol\":4072:4125  decipher[3+paddingLen+digestAlgoWithParamLen] != 0x04 */\n      0xf8\n      shl\n        /* \"SolRsaVerify/src/RsaVerify.sol\":4072:4080  decipher */\n      dup5\n        /* \"SolRsaVerify/src/RsaVerify.sol\":4094:4116  digestAlgoWithParamLen */\n      dup4\n        /* \"SolRsaVerify/src/RsaVerify.sol\":4083:4093  paddingLen */\n      dup4\n        /* \"SolRsaVerify/src/RsaVerify.sol\":4081:4082  3 */\n      0x03\n        /* \"SolRsaVerify/src/RsaVerify.sol\":4081:4093  3+paddingLen */\n      tag_85\n      swap2\n      swap1\n      tag_55\n      jump\t// in\n    tag_85:\n        /* \"SolRsaVerify/src/RsaVerify.sol\":4081:4116  3+paddingLen+digestAlgoWithParamLen */\n      tag_86\n      swap2\n      swap1\n      tag_55\n      jump\t// in\n    tag_86:\n        /* \"SolRsaVerify/src/RsaVerify.sol\":4072:4117  decipher[3+paddingLen+digestAlgoWithParamLen] */\n      dup2\n      mload\n      dup2\n      lt\n      tag_87\n      jumpi\n      tag_88\n      tag_34\n      jump\t// in\n    tag_88:\n    tag_87:\n      0x20\n      add\n      add\n      mload\n      0xf8\n      shr\n      0xf8\n      shl\n        /* \"SolRsaVerify/src/RsaVerify.sol\":4072:4125  decipher[3+paddingLen+digestAlgoWithParamLen] != 0x04 */\n      not(0xffffffffffffffffffffffffffffffffffffffffffffffffffffffffffffff)\n      and\n      eq\n      iszero\n        /* \"SolRsaVerify/src/RsaVerify.sol\":4072:4195  decipher[3+paddingLen+digestAlgoWithParamLen] != 0x04... */\n      dup1\n      tag_89\n      jumpi\n      pop\n        /* \"SolRsaVerify/src/RsaVerify.sol\":4191:4195  0x20 */\n      0x20\n        /* \"SolRsaVerify/src/RsaVerify.sol\":4142:4195  decipher[4+paddingLen+digestAlgoWithParamLen] != 0x20 */\n      0xf8\n      shl\n        /* \"SolRsaVerify/src/RsaVerify.sol\":4142:4150  decipher */\n      dup5\n        /* \"SolRsaVerify/src/RsaVerify.sol\":4164:4186  digestAlgoWithParamLen */\n      dup4\n        /* \"SolRsaVerify/src/RsaVerify.sol\":4153:4163  paddingLen */\n      dup4\n        /* \"SolRsaVerify/src/RsaVerify.sol\":4151:4152  4 */\n      0x04\n        /* \"SolRsaVerify/src/RsaVerify.sol\":4151:4163  4+paddingLen */\n      tag_90\n      swap2\n      swap1\n      tag_55\n      jump\t// in\n    tag_90:\n        /* \"SolRsaVerify/src/RsaVerify.sol\":4151:4186  4+paddingLen+digestAlgoWithParamLen */\n      tag_91\n      swap2\n      swap1\n      tag_55\n      jump\t// in\n    tag_91:\n        /* \"SolRsaVerify/src/RsaVerify.sol\":4142:4187  decipher[4+paddingLen+digestAlgoWithParamLen] */\n      dup2\n      mload\n      dup2\n      lt\n      tag_92\n      jumpi\n      tag_93\n      tag_34\n      jump\t// in\n    tag_93:\n    tag_92:\n      0x20\n      add\n      add\n      mload\n      0xf8\n      shr\n      0xf8\n      shl\n        /* \"SolRsaVerify/src/RsaVerify.sol\":4142:4195  decipher[4+paddingLen+digestAlgoWithParamLen] != 0x20 */\n      not(0xffffffffffffffffffffffffffffffffffffffffffffffffffffffffffffff)\n      and\n      eq\n      iszero\n        /* \"SolRsaVerify/src/RsaVerify.sol\":4072:4195  decipher[3+paddingLen+digestAlgoWithParamLen] != 0x04... */\n    tag_89:\n        /* \"SolRsaVerify/src/RsaVerify.sol\":4068:4236  if (decipher[3+paddingLen+digestAlgoWithParamLen] != 0x04... */\n      iszero\n      tag_94\n      jumpi\n        /* \"SolRsaVerify/src/RsaVerify.sol\":4219:4224  false */\n      0x00\n        /* \"SolRsaVerify/src/RsaVerify.sol\":4212:4224  return false */\n      swap10\n      pop\n      pop\n      pop\n      pop\n      pop\n      pop\n      pop\n      pop\n      pop\n      pop\n      jump(tag_23)\n        /* \"SolRsaVerify/src/RsaVerify.sol\":4068:4236  if (decipher[3+paddingLen+digestAlgoWithParamLen] != 0x04... */\n    tag_94:\n        /* \"SolRsaVerify/src/RsaVerify.sol\":4253:4259  uint i */\n      0x00\n        /* \"SolRsaVerify/src/RsaVerify.sol\":4248:4424  for (uint i = 0;i<_sha256.length;i++) {... */\n    tag_95:\n        /* \"SolRsaVerify/src/RsaVerify.sol\":4266:4280  _sha256.length */\n      0x20\n        /* \"SolRsaVerify/src/RsaVerify.sol\":4264:4280  i<_sha256.length */\n      0xff\n      and\n        /* \"SolRsaVerify/src/RsaVerify.sol\":4264:4265  i */\n      dup2\n        /* \"SolRsaVerify/src/RsaVerify.sol\":4264:4280  i<_sha256.length */\n      lt\n        /* \"SolRsaVerify/src/RsaVerify.sol\":4248:4424  for (uint i = 0;i<_sha256.length;i++) {... */\n      iszero\n      tag_96\n      jumpi\n        /* \"SolRsaVerify/src/RsaVerify.sol\":4354:4361  _sha256 */\n      dup15\n        /* \"SolRsaVerify/src/RsaVerify.sol\":4362:4363  i */\n      dup2\n        /* \"SolRsaVerify/src/RsaVerify.sol\":4354:4364  _sha256[i] */\n      0x20\n      dup2\n      lt\n      tag_98\n      jumpi\n      tag_99\n      tag_34\n      jump\t// in\n    tag_99:\n    tag_98:\n      byte\n      0xf8\n      shl\n        /* \"SolRsaVerify/src/RsaVerify.sol\":4305:4364  decipher[5+paddingLen+digestAlgoWithParamLen+i]!=_sha256[i] */\n      not(0xffffffffffffffffffffffffffffffffffffffffffffffffffffffffffffff)\n      and\n        /* \"SolRsaVerify/src/RsaVerify.sol\":4305:4313  decipher */\n      dup6\n        /* \"SolRsaVerify/src/RsaVerify.sol\":4350:4351  i */\n      dup3\n        /* \"SolRsaVerify/src/RsaVerify.sol\":4327:4349  digestAlgoWithParamLen */\n      dup6\n        /* \"SolRsaVerify/src/RsaVerify.sol\":4316:4326  paddingLen */\n      dup6\n        /* \"SolRsaVerify/src/RsaVerify.sol\":4314:4315  5 */\n      0x05\n        /* \"SolRsaVerify/src/RsaVerify.sol\":4314:4326  5+paddingLen */\n      tag_100\n      swap2\n      swap1\n      tag_55\n      jump\t// in\n    tag_100:\n        /* \"SolRsaVerify/src/RsaVerify.sol\":4314:4349  5+paddingLen+digestAlgoWithParamLen */\n      tag_101\n      swap2\n      swap1\n      tag_55\n      jump\t// in\n    tag_101:\n        /* \"SolRsaVerify/src/RsaVerify.sol\":4314:4351  5+paddingLen+digestAlgoWithParamLen+i */\n      tag_102\n      swap2\n      swap1\n      tag_55\n      jump\t// in\n    tag_102:\n        /* \"SolRsaVerify/src/RsaVerify.sol\":4305:4352  decipher[5+paddingLen+digestAlgoWithParamLen+i] */\n      dup2\n      mload\n      dup2\n      lt\n      tag_103\n      jumpi\n      tag_104\n      tag_34\n      jump\t// in\n    tag_104:\n    tag_103:\n      0x20\n      add\n      add\n      mload\n      0xf8\n      shr\n      0xf8\n      shl\n        /* \"SolRsaVerify/src/RsaVerify.sol\":4305:4364  decipher[5+paddingLen+digestAlgoWithParamLen+i]!=_sha256[i] */\n      not(0xffffffffffffffffffffffffffffffffffffffffffffffffffffffffffffff)\n      and\n      eq\n        /* \"SolRsaVerify/src/RsaVerify.sol\":4301:4413  if (decipher[5+paddingLen+digestAlgoWithParamLen+i]!=_sha256[i]) {... */\n      tag_105\n      jumpi\n        /* \"SolRsaVerify/src/RsaVerify.sol\":4392:4397  false */\n      0x00\n        /* \"SolRsaVerify/src/RsaVerify.sol\":4385:4397  return false */\n      swap11\n      pop\n      pop\n      pop\n      pop\n      pop\n      pop\n      pop\n      pop\n      pop\n      pop\n      pop\n      jump(tag_23)\n        /* \"SolRsaVerify/src/RsaVerify.sol\":4301:4413  if (decipher[5+paddingLen+digestAlgoWithParamLen+i]!=_sha256[i]) {... */\n    tag_105:\n        /* \"SolRsaVerify/src/RsaVerify.sol\":4281:4284  i++ */\n      dup1\n      dup1\n      0x01\n      add\n      swap2\n      pop\n      pop\n        /* \"SolRsaVerify/src/RsaVerify.sol\":4248:4424  for (uint i = 0;i<_sha256.length;i++) {... */\n      jump(tag_95)\n    tag_96:\n      pop\n        /* \"SolRsaVerify/src/RsaVerify.sol\":4443:4447  true */\n      0x01\n        /* \"SolRsaVerify/src/RsaVerify.sol\":4436:4447  return true */\n      swap10\n      pop\n      pop\n      pop\n      pop\n      pop\n      pop\n      pop\n      pop\n      pop\n      pop\n        /* \"SolRsaVerify/src/RsaVerify.sol\":1295:4455  function pkcs1Sha256(... */\n    tag_23:\n      swap5\n      swap4\n      pop\n      pop\n      pop\n      pop\n      jump\t// out\n        /* \"#utility.yul\":7:82   */\n    tag_106:\n        /* \"#utility.yul\":40:46   */\n      0x00\n        /* \"#utility.yul\":73:75   */\n      0x40\n        /* \"#utility.yul\":67:76   */\n      mload\n        /* \"#utility.yul\":57:76   */\n      swap1\n      pop\n        /* \"#utility.yul\":7:82   */\n      swap1\n      jump\t// out\n        /* \"#utility.yul\":88:205   */\n    tag_107:\n        /* \"#utility.yul\":197:198   */\n      0x00\n        /* \"#utility.yul\":194:195   */\n      dup1\n        /* \"#utility.yul\":187:199   */\n      revert\n        /* \"#utility.yul\":211:328   */\n    tag_108:\n        /* \"#utility.yul\":320:321   */\n      0x00\n        /* \"#utility.yul\":317:318   */\n      dup1\n        /* \"#utility.yul\":310:322   */\n      revert\n        /* \"#utility.yul\":334:451   */\n    tag_109:\n        /* \"#utility.yul\":443:444   */\n      0x00\n        /* \"#utility.yul\":440:441   */\n      dup1\n        /* \"#utility.yul\":433:445   */\n      revert\n        /* \"#utility.yul\":457:574   */\n    tag_110:\n        /* \"#utility.yul\":566:567   */\n      0x00\n        /* \"#utility.yul\":563:564   */\n      dup1\n        /* \"#utility.yul\":556:568   */\n      revert\n        /* \"#utility.yul\":580:682   */\n    tag_111:\n        /* \"#utility.yul\":621:627   */\n      0x00\n        /* \"#utility.yul\":672:674   */\n      0x1f\n        /* \"#utility.yul\":668:675   */\n      not\n        /* \"#utility.yul\":663:665   */\n      0x1f\n        /* \"#utility.yul\":656:661   */\n      dup4\n        /* \"#utility.yul\":652:666   */\n      add\n        /* \"#utility.yul\":648:676   */\n      and\n        /* \"#utility.yul\":638:676   */\n      swap1\n      pop\n        /* \"#utility.yul\":580:682   */\n      swap2\n      swap1\n      pop\n      jump\t// out\n        /* \"#utility.yul\":688:868   */\n    tag_28:\n        /* \"#utility.yul\":736:813   */\n      0x4e487b7100000000000000000000000000000000000000000000000000000000\n        /* \"#utility.yul\":733:734   */\n      0x00\n        /* \"#utility.yul\":726:814   */\n      mstore\n        /* \"#utility.yul\":833:837   */\n      0x41\n        /* \"#utility.yul\":830:831   */\n      0x04\n        /* \"#utility.yul\":823:838   */\n      mstore\n        /* \"#utility.yul\":857:861   */\n      0x24\n        /* \"#utility.yul\":854:855   */\n      0x00\n        /* \"#utility.yul\":847:862   */\n      revert\n        /* \"#utility.yul\":874:1155   */\n    tag_112:\n        /* \"#utility.yul\":957:984   */\n      tag_141\n        /* \"#utility.yul\":979:983   */\n      dup3\n        /* \"#utility.yul\":957:984   */\n      tag_111\n      jump\t// in\n    tag_141:\n        /* \"#utility.yul\":949:955   */\n      dup2\n        /* \"#utility.yul\":945:985   */\n      add\n        /* \"#utility.yul\":1087:1093   */\n      dup2\n        /* \"#utility.yul\":1075:1085   */\n      dup2\n        /* \"#utility.yul\":1072:1094   */\n      lt\n        /* \"#utility.yul\":1051:1069   */\n      0xffffffffffffffff\n        /* \"#utility.yul\":1039:1049   */\n      dup3\n        /* \"#utility.yul\":1036:1070   */\n      gt\n        /* \"#utility.yul\":1033:1095   */\n      or\n        /* \"#utility.yul\":1030:1118   */\n      iszero\n      tag_142\n      jumpi\n        /* \"#utility.yul\":1098:1116   */\n      tag_143\n      tag_28\n      jump\t// in\n    tag_143:\n        /* \"#utility.yul\":1030:1118   */\n    tag_142:\n        /* \"#utility.yul\":1138:1148   */\n      dup1\n        /* \"#utility.yul\":1134:1136   */\n      0x40\n        /* \"#utility.yul\":1127:1149   */\n      mstore\n        /* \"#utility.yul\":917:1155   */\n      pop\n        /* \"#utility.yul\":874:1155   */\n      pop\n      pop\n      jump\t// out\n        /* \"#utility.yul\":1161:1290   */\n    tag_113:\n        /* \"#utility.yul\":1195:1201   */\n      0x00\n        /* \"#utility.yul\":1222:1242   */\n      tag_145\n      tag_106\n      jump\t// in\n    tag_145:\n        /* \"#utility.yul\":1212:1242   */\n      swap1\n      pop\n        /* \"#utility.yul\":1251:1284   */\n      tag_146\n        /* \"#utility.yul\":1279:1283   */\n      dup3\n        /* \"#utility.yul\":1271:1277   */\n      dup3\n        /* \"#utility.yul\":1251:1284   */\n      tag_112\n      jump\t// in\n    tag_146:\n        /* \"#utility.yul\":1161:1290   */\n      swap2\n      swap1\n      pop\n      jump\t// out\n        /* \"#utility.yul\":1296:1603   */\n    tag_114:\n        /* \"#utility.yul\":1357:1361   */\n      0x00\n        /* \"#utility.yul\":1447:1465   */\n      0xffffffffffffffff\n        /* \"#utility.yul\":1439:1445   */\n      dup3\n        /* \"#utility.yul\":1436:1466   */\n      gt\n        /* \"#utility.yul\":1433:1489   */\n      iszero\n      tag_148\n      jumpi\n        /* \"#utility.yul\":1469:1487   */\n      tag_149\n      tag_28\n      jump\t// in\n    tag_149:\n        /* \"#utility.yul\":1433:1489   */\n    tag_148:\n        /* \"#utility.yul\":1507:1536   */\n      tag_150\n        /* \"#utility.yul\":1529:1535   */\n      dup3\n        /* \"#utility.yul\":1507:1536   */\n      tag_111\n      jump\t// in\n    tag_150:\n        /* \"#utility.yul\":1499:1536   */\n      swap1\n      pop\n        /* \"#utility.yul\":1591:1595   */\n      0x20\n        /* \"#utility.yul\":1585:1589   */\n      dup2\n        /* \"#utility.yul\":1581:1596   */\n      add\n        /* \"#utility.yul\":1573:1596   */\n      swap1\n      pop\n        /* \"#utility.yul\":1296:1603   */\n      swap2\n      swap1\n      pop\n      jump\t// out\n        /* \"#utility.yul\":1609:1757   */\n    tag_115:\n        /* \"#utility.yul\":1707:1713   */\n      dup3\n        /* \"#utility.yul\":1702:1705   */\n      dup2\n        /* \"#utility.yul\":1697:1700   */\n      dup4\n        /* \"#utility.yul\":1684:1714   */\n      calldatacopy\n        /* \"#utility.yul\":1748:1749   */\n      0x00\n        /* \"#utility.yul\":1739:1745   */\n      dup4\n        /* \"#utility.yul\":1734:1737   */\n      dup4\n        /* \"#utility.yul\":1730:1746   */\n      add\n        /* \"#utility.yul\":1723:1750   */\n      mstore\n        /* \"#utility.yul\":1609:1757   */\n      pop\n      pop\n      pop\n      jump\t// out\n        /* \"#utility.yul\":1763:2186   */\n    tag_116:\n        /* \"#utility.yul\":1840:1845   */\n      0x00\n        /* \"#utility.yul\":1865:1930   */\n      tag_153\n        /* \"#utility.yul\":1881:1929   */\n      tag_154\n        /* \"#utility.yul\":1922:1928   */\n      dup5\n        /* \"#utility.yul\":1881:1929   */\n      tag_114\n      jump\t// in\n    tag_154:\n        /* \"#utility.yul\":1865:1930   */\n      tag_113\n      jump\t// in\n    tag_153:\n        /* \"#utility.yul\":1856:1930   */\n      swap1\n      pop\n        /* \"#utility.yul\":1953:1959   */\n      dup3\n        /* \"#utility.yul\":1946:1951   */\n      dup2\n        /* \"#utility.yul\":1939:1960   */\n      mstore\n        /* \"#utility.yul\":1991:1995   */\n      0x20\n        /* \"#utility.yul\":1984:1989   */\n      dup2\n        /* \"#utility.yul\":1980:1996   */\n      add\n        /* \"#utility.yul\":2029:2032   */\n      dup5\n        /* \"#utility.yul\":2020:2026   */\n      dup5\n        /* \"#utility.yul\":2015:2018   */\n      dup5\n        /* \"#utility.yul\":2011:2027   */\n      add\n        /* \"#utility.yul\":2008:2033   */\n      gt\n        /* \"#utility.yul\":2005:2117   */\n      iszero\n      tag_155\n      jumpi\n        /* \"#utility.yul\":2036:2115   */\n      tag_156\n      tag_110\n      jump\t// in\n    tag_156:\n        /* \"#utility.yul\":2005:2117   */\n    tag_155:\n        /* \"#utility.yul\":2126:2180   */\n      tag_157\n        /* \"#utility.yul\":2173:2179   */\n      dup5\n        /* \"#utility.yul\":2168:2171   */\n      dup3\n        /* \"#utility.yul\":2163:2166   */\n      dup6\n        /* \"#utility.yul\":2126:2180   */\n      tag_115\n      jump\t// in\n    tag_157:\n        /* \"#utility.yul\":1846:2186   */\n      pop\n        /* \"#utility.yul\":1763:2186   */\n      swap4\n      swap3\n      pop\n      pop\n      pop\n      jump\t// out\n        /* \"#utility.yul\":2205:2543   */\n    tag_117:\n        /* \"#utility.yul\":2260:2265   */\n      0x00\n        /* \"#utility.yul\":2309:2312   */\n      dup3\n        /* \"#utility.yul\":2302:2306   */\n      0x1f\n        /* \"#utility.yul\":2294:2300   */\n      dup4\n        /* \"#utility.yul\":2290:2307   */\n      add\n        /* \"#utility.yul\":2286:2313   */\n      slt\n        /* \"#utility.yul\":2276:2398   */\n      tag_159\n      jumpi\n        /* \"#utility.yul\":2317:2396   */\n      tag_160\n      tag_109\n      jump\t// in\n    tag_160:\n        /* \"#utility.yul\":2276:2398   */\n    tag_159:\n        /* \"#utility.yul\":2434:2440   */\n      dup2\n        /* \"#utility.yul\":2421:2441   */\n      calldataload\n        /* \"#utility.yul\":2459:2537   */\n      tag_161\n        /* \"#utility.yul\":2533:2536   */\n      dup5\n        /* \"#utility.yul\":2525:2531   */\n      dup3\n        /* \"#utility.yul\":2518:2522   */\n      0x20\n        /* \"#utility.yul\":2510:2516   */\n      dup7\n        /* \"#utility.yul\":2506:2523   */\n      add\n        /* \"#utility.yul\":2459:2537   */\n      tag_116\n      jump\t// in\n    tag_161:\n        /* \"#utility.yul\":2450:2537   */\n      swap2\n      pop\n        /* \"#utility.yul\":2266:2543   */\n      pop\n        /* \"#utility.yul\":2205:2543   */\n      swap3\n      swap2\n      pop\n      pop\n      jump\t// out\n        /* \"#utility.yul\":2549:4026   */\n    tag_6:\n        /* \"#utility.yul\":2671:2677   */\n      0x00\n        /* \"#utility.yul\":2679:2685   */\n      dup1\n        /* \"#utility.yul\":2687:2693   */\n      0x00\n        /* \"#utility.yul\":2695:2701   */\n      dup1\n        /* \"#utility.yul\":2744:2747   */\n      0x80\n        /* \"#utility.yul\":2732:2741   */\n      dup6\n        /* \"#utility.yul\":2723:2730   */\n      dup8\n        /* \"#utility.yul\":2719:2742   */\n      sub\n        /* \"#utility.yul\":2715:2748   */\n      slt\n        /* \"#utility.yul\":2712:2832   */\n      iszero\n      tag_163\n      jumpi\n        /* \"#utility.yul\":2751:2830   */\n      tag_164\n      tag_107\n      jump\t// in\n    tag_164:\n        /* \"#utility.yul\":2712:2832   */\n    tag_163:\n        /* \"#utility.yul\":2899:2900   */\n      0x00\n        /* \"#utility.yul\":2888:2897   */\n      dup6\n        /* \"#utility.yul\":2884:2901   */\n      add\n        /* \"#utility.yul\":2871:2902   */\n      calldataload\n        /* \"#utility.yul\":2929:2947   */\n      0xffffffffffffffff\n        /* \"#utility.yul\":2921:2927   */\n      dup2\n        /* \"#utility.yul\":2918:2948   */\n      gt\n        /* \"#utility.yul\":2915:3032   */\n      iszero\n      tag_165\n      jumpi\n        /* \"#utility.yul\":2951:3030   */\n      tag_166\n      tag_108\n      jump\t// in\n    tag_166:\n        /* \"#utility.yul\":2915:3032   */\n    tag_165:\n        /* \"#utility.yul\":3056:3118   */\n      tag_167\n        /* \"#utility.yul\":3110:3117   */\n      dup8\n        /* \"#utility.yul\":3101:3107   */\n      dup3\n        /* \"#utility.yul\":3090:3099   */\n      dup9\n        /* \"#utility.yul\":3086:3108   */\n      add\n        /* \"#utility.yul\":3056:3118   */\n      tag_117\n      jump\t// in\n    tag_167:\n        /* \"#utility.yul\":3046:3118   */\n      swap5\n      pop\n        /* \"#utility.yul\":2842:3128   */\n      pop\n        /* \"#utility.yul\":3195:3197   */\n      0x20\n        /* \"#utility.yul\":3184:3193   */\n      dup6\n        /* \"#utility.yul\":3180:3198   */\n      add\n        /* \"#utility.yul\":3167:3199   */\n      calldataload\n        /* \"#utility.yul\":3226:3244   */\n      0xffffffffffffffff\n        /* \"#utility.yul\":3218:3224   */\n      dup2\n        /* \"#utility.yul\":3215:3245   */\n      gt\n        /* \"#utility.yul\":3212:3329   */\n      iszero\n      tag_168\n      jumpi\n        /* \"#utility.yul\":3248:3327   */\n      tag_169\n      tag_108\n      jump\t// in\n    tag_169:\n        /* \"#utility.yul\":3212:3329   */\n    tag_168:\n        /* \"#utility.yul\":3353:3415   */\n      tag_170\n        /* \"#utility.yul\":3407:3414   */\n      dup8\n        /* \"#utility.yul\":3398:3404   */\n      dup3\n        /* \"#utility.yul\":3387:3396   */\n      dup9\n        /* \"#utility.yul\":3383:3405   */\n      add\n        /* \"#utility.yul\":3353:3415   */\n      tag_117\n      jump\t// in\n    tag_170:\n        /* \"#utility.yul\":3343:3415   */\n      swap4\n      pop\n        /* \"#utility.yul\":3138:3425   */\n      pop\n        /* \"#utility.yul\":3492:3494   */\n      0x40\n        /* \"#utility.yul\":3481:3490   */\n      dup6\n        /* \"#utility.yul\":3477:3495   */\n      add\n        /* \"#utility.yul\":3464:3496   */\n      calldataload\n        /* \"#utility.yul\":3523:3541   */\n      0xffffffffffffffff\n        /* \"#utility.yul\":3515:3521   */\n      dup2\n        /* \"#utility.yul\":3512:3542   */\n      gt\n        /* \"#utility.yul\":3509:3626   */\n      iszero\n      tag_171\n      jumpi\n        /* \"#utility.yul\":3545:3624   */\n      tag_172\n      tag_108\n      jump\t// in\n    tag_172:\n        /* \"#utility.yul\":3509:3626   */\n    tag_171:\n        /* \"#utility.yul\":3650:3712   */\n      tag_173\n        /* \"#utility.yul\":3704:3711   */\n      dup8\n        /* \"#utility.yul\":3695:3701   */\n      dup3\n        /* \"#utility.yul\":3684:3693   */\n      dup9\n        /* \"#utility.yul\":3680:3702   */\n      add\n        /* \"#utility.yul\":3650:3712   */\n      tag_117\n      jump\t// in\n    tag_173:\n        /* \"#utility.yul\":3640:3712   */\n      swap3\n      pop\n        /* \"#utility.yul\":3435:3722   */\n      pop\n        /* \"#utility.yul\":3789:3791   */\n      0x60\n        /* \"#utility.yul\":3778:3787   */\n      dup6\n        /* \"#utility.yul\":3774:3792   */\n      add\n        /* \"#utility.yul\":3761:3793   */\n      calldataload\n        /* \"#utility.yul\":3820:3838   */\n      0xffffffffffffffff\n        /* \"#utility.yul\":3812:3818   */\n      dup2\n        /* \"#utility.yul\":3809:3839   */\n      gt\n        /* \"#utility.yul\":3806:3923   */\n      iszero\n      tag_174\n      jumpi\n        /* \"#utility.yul\":3842:3921   */\n      tag_175\n      tag_108\n      jump\t// in\n    tag_175:\n        /* \"#utility.yul\":3806:3923   */\n    tag_174:\n        /* \"#utility.yul\":3947:4009   */\n      tag_176\n        /* \"#utility.yul\":4001:4008   */\n      dup8\n        /* \"#utility.yul\":3992:3998   */\n      dup3\n        /* \"#utility.yul\":3981:3990   */\n      dup9\n        /* \"#utility.yul\":3977:3999   */\n      add\n        /* \"#utility.yul\":3947:4009   */\n      tag_117\n      jump\t// in\n    tag_176:\n        /* \"#utility.yul\":3937:4009   */\n      swap2\n      pop\n        /* \"#utility.yul\":3732:4019   */\n      pop\n        /* \"#utility.yul\":2549:4026   */\n      swap3\n      swap6\n      swap2\n      swap5\n      pop\n      swap3\n      pop\n      jump\t// out\n        /* \"#utility.yul\":4032:4122   */\n    tag_118:\n        /* \"#utility.yul\":4066:4073   */\n      0x00\n        /* \"#utility.yul\":4109:4114   */\n      dup2\n        /* \"#utility.yul\":4102:4115   */\n      iszero\n        /* \"#utility.yul\":4095:4116   */\n      iszero\n        /* \"#utility.yul\":4084:4116   */\n      swap1\n      pop\n        /* \"#utility.yul\":4032:4122   */\n      swap2\n      swap1\n      pop\n      jump\t// out\n        /* \"#utility.yul\":4128:4245   */\n    tag_119:\n        /* \"#utility.yul\":4217:4238   */\n      tag_179\n        /* \"#utility.yul\":4232:4237   */\n      dup2\n        /* \"#utility.yul\":4217:4238   */\n      tag_118\n      jump\t// in\n    tag_179:\n        /* \"#utility.yul\":4212:4215   */\n      dup3\n        /* \"#utility.yul\":4205:4239   */\n      mstore\n        /* \"#utility.yul\":4128:4245   */\n      pop\n      pop\n      jump\t// out\n        /* \"#utility.yul\":4251:4477   */\n    tag_9:\n        /* \"#utility.yul\":4346:4350   */\n      0x00\n        /* \"#utility.yul\":4384:4386   */\n      0x20\n        /* \"#utility.yul\":4373:4382   */\n      dup3\n        /* \"#utility.yul\":4369:4387   */\n      add\n        /* \"#utility.yul\":4361:4387   */\n      swap1\n      pop\n        /* \"#utility.yul\":4397:4470   */\n      tag_181\n        /* \"#utility.yul\":4467:4468   */\n      0x00\n        /* \"#utility.yul\":4456:4465   */\n      dup4\n        /* \"#utility.yul\":4452:4469   */\n      add\n        /* \"#utility.yul\":4443:4449   */\n      dup5\n        /* \"#utility.yul\":4397:4470   */\n      tag_119\n      jump\t// in\n    tag_181:\n        /* \"#utility.yul\":4251:4477   */\n      swap3\n      swap2\n      pop\n      pop\n      jump\t// out\n        /* \"#utility.yul\":4483:4560   */\n    tag_120:\n        /* \"#utility.yul\":4520:4527   */\n      0x00\n        /* \"#utility.yul\":4549:4554   */\n      dup2\n        /* \"#utility.yul\":4538:4554   */\n      swap1\n      pop\n        /* \"#utility.yul\":4483:4560   */\n      swap2\n      swap1\n      pop\n      jump\t// out\n        /* \"#utility.yul\":4566:4688   */\n    tag_121:\n        /* \"#utility.yul\":4639:4663   */\n      tag_184\n        /* \"#utility.yul\":4657:4662   */\n      dup2\n        /* \"#utility.yul\":4639:4663   */\n      tag_120\n      jump\t// in\n    tag_184:\n        /* \"#utility.yul\":4632:4637   */\n      dup2\n        /* \"#utility.yul\":4629:4664   */\n      eq\n        /* \"#utility.yul\":4619:4682   */\n      tag_185\n      jumpi\n        /* \"#utility.yul\":4678:4679   */\n      0x00\n        /* \"#utility.yul\":4675:4676   */\n      dup1\n        /* \"#utility.yul\":4668:4680   */\n      revert\n        /* \"#utility.yul\":4619:4682   */\n    tag_185:\n        /* \"#utility.yul\":4566:4688   */\n      pop\n      jump\t// out\n        /* \"#utility.yul\":4694:4833   */\n    tag_122:\n        /* \"#utility.yul\":4740:4745   */\n      0x00\n        /* \"#utility.yul\":4778:4784   */\n      dup2\n        /* \"#utility.yul\":4765:4785   */\n      calldataload\n        /* \"#utility.yul\":4756:4785   */\n      swap1\n      pop\n        /* \"#utility.yul\":4794:4827   */\n      tag_187\n        /* \"#utility.yul\":4821:4826   */\n      dup2\n        /* \"#utility.yul\":4794:4827   */\n      tag_121\n      jump\t// in\n    tag_187:\n        /* \"#utility.yul\":4694:4833   */\n      swap3\n      swap2\n      pop\n      pop\n      jump\t// out\n        /* \"#utility.yul\":4839:6138   */\n    tag_12:\n        /* \"#utility.yul\":4952:4958   */\n      0x00\n        /* \"#utility.yul\":4960:4966   */\n      dup1\n        /* \"#utility.yul\":4968:4974   */\n      0x00\n        /* \"#utility.yul\":4976:4982   */\n      dup1\n        /* \"#utility.yul\":5025:5028   */\n      0x80\n        /* \"#utility.yul\":5013:5022   */\n      dup6\n        /* \"#utility.yul\":5004:5011   */\n      dup8\n        /* \"#utility.yul\":5000:5023   */\n      sub\n        /* \"#utility.yul\":4996:5029   */\n      slt\n        /* \"#utility.yul\":4993:5113   */\n      iszero\n      tag_189\n      jumpi\n        /* \"#utility.yul\":5032:5111   */\n      tag_190\n      tag_107\n      jump\t// in\n    tag_190:\n        /* \"#utility.yul\":4993:5113   */\n    tag_189:\n        /* \"#utility.yul\":5152:5153   */\n      0x00\n        /* \"#utility.yul\":5177:5230   */\n      tag_191\n        /* \"#utility.yul\":5222:5229   */\n      dup8\n        /* \"#utility.yul\":5213:5219   */\n      dup3\n        /* \"#utility.yul\":5202:5211   */\n      dup9\n        /* \"#utility.yul\":5198:5220   */\n      add\n        /* \"#utility.yul\":5177:5230   */\n      tag_122\n      jump\t// in\n    tag_191:\n        /* \"#utility.yul\":5167:5230   */\n      swap5\n      pop\n        /* \"#utility.yul\":5123:5240   */\n      pop\n        /* \"#utility.yul\":5307:5309   */\n      0x20\n        /* \"#utility.yul\":5296:5305   */\n      dup6\n        /* \"#utility.yul\":5292:5310   */\n      add\n        /* \"#utility.yul\":5279:5311   */\n      calldataload\n        /* \"#utility.yul\":5338:5356   */\n      0xffffffffffffffff\n        /* \"#utility.yul\":5330:5336   */\n      dup2\n        /* \"#utility.yul\":5327:5357   */\n      gt\n        /* \"#utility.yul\":5324:5441   */\n      iszero\n      tag_192\n      jumpi\n        /* \"#utility.yul\":5360:5439   */\n      tag_193\n      tag_108\n      jump\t// in\n    tag_193:\n        /* \"#utility.yul\":5324:5441   */\n    tag_192:\n        /* \"#utility.yul\":5465:5527   */\n      tag_194\n        /* \"#utility.yul\":5519:5526   */\n      dup8\n        /* \"#utility.yul\":5510:5516   */\n      dup3\n        /* \"#utility.yul\":5499:5508   */\n      dup9\n        /* \"#utility.yul\":5495:5517   */\n      add\n        /* \"#utility.yul\":5465:5527   */\n      tag_117\n      jump\t// in\n    tag_194:\n        /* \"#utility.yul\":5455:5527   */\n      swap4\n      pop\n        /* \"#utility.yul\":5250:5537   */\n      pop\n        /* \"#utility.yul\":5604:5606   */\n      0x40\n        /* \"#utility.yul\":5593:5602   */\n      dup6\n        /* \"#utility.yul\":5589:5607   */\n      add\n        /* \"#utility.yul\":5576:5608   */\n      calldataload\n        /* \"#utility.yul\":5635:5653   */\n      0xffffffffffffffff\n        /* \"#utility.yul\":5627:5633   */\n      dup2\n        /* \"#utility.yul\":5624:5654   */\n      gt\n        /* \"#utility.yul\":5621:5738   */\n      iszero\n      tag_195\n      jumpi\n        /* \"#utility.yul\":5657:5736   */\n      tag_196\n      tag_108\n      jump\t// in\n    tag_196:\n        /* \"#utility.yul\":5621:5738   */\n    tag_195:\n        /* \"#utility.yul\":5762:5824   */\n      tag_197\n        /* \"#utility.yul\":5816:5823   */\n      dup8\n        /* \"#utility.yul\":5807:5813   */\n      dup3\n        /* \"#utility.yul\":5796:5805   */\n      dup9\n        /* \"#utility.yul\":5792:5814   */\n      add\n        /* \"#utility.yul\":5762:5824   */\n      tag_117\n      jump\t// in\n    tag_197:\n        /* \"#utility.yul\":5752:5824   */\n      swap3\n      pop\n        /* \"#utility.yul\":5547:5834   */\n      pop\n        /* \"#utility.yul\":5901:5903   */\n      0x60\n        /* \"#utility.yul\":5890:5899   */\n      dup6\n        /* \"#utility.yul\":5886:5904   */\n      add\n        /* \"#utility.yul\":5873:5905   */\n      calldataload\n        /* \"#utility.yul\":5932:5950   */\n      0xffffffffffffffff\n        /* \"#utility.yul\":5924:5930   */\n      dup2\n        /* \"#utility.yul\":5921:5951   */\n      gt\n        /* \"#utility.yul\":5918:6035   */\n      iszero\n      tag_198\n      jumpi\n        /* \"#utility.yul\":5954:6033   */\n      tag_199\n      tag_108\n      jump\t// in\n    tag_199:\n        /* \"#utility.yul\":5918:6035   */\n    tag_198:\n        /* \"#utility.yul\":6059:6121   */\n      tag_200\n        /* \"#utility.yul\":6113:6120   */\n      dup8\n        /* \"#utility.yul\":6104:6110   */\n      dup3\n        /* \"#utility.yul\":6093:6102   */\n      dup9\n        /* \"#utility.yul\":6089:6111   */\n      add\n        /* \"#utility.yul\":6059:6121   */\n      tag_117\n      jump\t// in\n    tag_200:\n        /* \"#utility.yul\":6049:6121   */\n      swap2\n      pop\n        /* \"#utility.yul\":5844:6131   */\n      pop\n        /* \"#utility.yul\":4839:6138   */\n      swap3\n      swap6\n      swap2\n      swap5\n      pop\n      swap3\n      pop\n      jump\t// out\n        /* \"#utility.yul\":6144:6242   */\n    tag_123:\n        /* \"#utility.yul\":6195:6201   */\n      0x00\n        /* \"#utility.yul\":6229:6234   */\n      dup2\n        /* \"#utility.yul\":6223:6235   */\n      mload\n        /* \"#utility.yul\":6213:6235   */\n      swap1\n      pop\n        /* \"#utility.yul\":6144:6242   */\n      swap2\n      swap1\n      pop\n      jump\t// out\n        /* \"#utility.yul\":6248:6395   */\n    tag_124:\n        /* \"#utility.yul\":6349:6360   */\n      0x00\n        /* \"#utility.yul\":6386:6389   */\n      dup2\n        /* \"#utility.yul\":6371:6389   */\n      swap1\n      pop\n        /* \"#utility.yul\":6248:6395   */\n      swap3\n      swap2\n      pop\n      pop\n      jump\t// out\n        /* \"#utility.yul\":6401:6540   */\n    tag_125:\n        /* \"#utility.yul\":6490:6496   */\n      dup3\n        /* \"#utility.yul\":6485:6488   */\n      dup2\n        /* \"#utility.yul\":6480:6483   */\n      dup4\n        /* \"#utility.yul\":6474:6497   */\n      mcopy\n        /* \"#utility.yul\":6531:6532   */\n      0x00\n        /* \"#utility.yul\":6522:6528   */\n      dup4\n        /* \"#utility.yul\":6517:6520   */\n      dup4\n        /* \"#utility.yul\":6513:6529   */\n      add\n        /* \"#utility.yul\":6506:6533   */\n      mstore\n        /* \"#utility.yul\":6401:6540   */\n      pop\n      pop\n      pop\n      jump\t// out\n        /* \"#utility.yul\":6546:6932   */\n    tag_126:\n        /* \"#utility.yul\":6650:6653   */\n      0x00\n        /* \"#utility.yul\":6678:6716   */\n      tag_205\n        /* \"#utility.yul\":6710:6715   */\n      dup3\n        /* \"#utility.yul\":6678:6716   */\n      tag_123\n      jump\t// in\n    tag_205:\n        /* \"#utility.yul\":6732:6820   */\n      tag_206\n        /* \"#utility.yul\":6813:6819   */\n      dup2\n        /* \"#utility.yul\":6808:6811   */\n      dup6\n        /* \"#utility.yul\":6732:6820   */\n      tag_124\n      jump\t// in\n    tag_206:\n        /* \"#utility.yul\":6725:6820   */\n      swap4\n      pop\n        /* \"#utility.yul\":6829:6894   */\n      tag_207\n        /* \"#utility.yul\":6887:6893   */\n      dup2\n        /* \"#utility.yul\":6882:6885   */\n      dup6\n        /* \"#utility.yul\":6875:6879   */\n      0x20\n        /* \"#utility.yul\":6868:6873   */\n      dup7\n        /* \"#utility.yul\":6864:6880   */\n      add\n        /* \"#utility.yul\":6829:6894   */\n      tag_125\n      jump\t// in\n    tag_207:\n        /* \"#utility.yul\":6919:6925   */\n      dup1\n        /* \"#utility.yul\":6914:6917   */\n      dup5\n        /* \"#utility.yul\":6910:6926   */\n      add\n        /* \"#utility.yul\":6903:6926   */\n      swap2\n      pop\n        /* \"#utility.yul\":6654:6932   */\n      pop\n        /* \"#utility.yul\":6546:6932   */\n      swap3\n      swap2\n      pop\n      pop\n      jump\t// out\n        /* \"#utility.yul\":6938:7209   */\n    tag_18:\n        /* \"#utility.yul\":7068:7071   */\n      0x00\n        /* \"#utility.yul\":7090:7183   */\n      tag_209\n        /* \"#utility.yul\":7179:7182   */\n      dup3\n        /* \"#utility.yul\":7170:7176   */\n      dup5\n        /* \"#utility.yul\":7090:7183   */\n      tag_126\n      jump\t// in\n    tag_209:\n        /* \"#utility.yul\":7083:7183   */\n      swap2\n      pop\n        /* \"#utility.yul\":7200:7203   */\n      dup2\n        /* \"#utility.yul\":7193:7203   */\n      swap1\n      pop\n        /* \"#utility.yul\":6938:7209   */\n      swap3\n      swap2\n      pop\n      pop\n      jump\t// out\n        /* \"#utility.yul\":7215:7358   */\n    tag_127:\n        /* \"#utility.yul\":7272:7277   */\n      0x00\n        /* \"#utility.yul\":7303:7309   */\n      dup2\n        /* \"#utility.yul\":7297:7310   */\n      mload\n        /* \"#utility.yul\":7288:7310   */\n      swap1\n      pop\n        /* \"#utility.yul\":7319:7352   */\n      tag_211\n        /* \"#utility.yul\":7346:7351   */\n      dup2\n        /* \"#utility.yul\":7319:7352   */\n      tag_121\n      jump\t// in\n    tag_211:\n        /* \"#utility.yul\":7215:7358   */\n      swap3\n      swap2\n      pop\n      pop\n      jump\t// out\n        /* \"#utility.yul\":7364:7715   */\n    tag_22:\n        /* \"#utility.yul\":7434:7440   */\n      0x00\n        /* \"#utility.yul\":7483:7485   */\n      0x20\n        /* \"#utility.yul\":7471:7480   */\n      dup3\n        /* \"#utility.yul\":7462:7469   */\n      dup5\n        /* \"#utility.yul\":7458:7481   */\n      sub\n        /* \"#utility.yul\":7454:7486   */\n      slt\n        /* \"#utility.yul\":7451:7570   */\n      iszero\n      tag_213\n      jumpi\n        /* \"#utility.yul\":7489:7568   */\n      tag_214\n      tag_107\n      jump\t// in\n    tag_214:\n        /* \"#utility.yul\":7451:7570   */\n    tag_213:\n        /* \"#utility.yul\":7609:7610   */\n      0x00\n        /* \"#utility.yul\":7634:7698   */\n      tag_215\n        /* \"#utility.yul\":7690:7697   */\n      dup5\n        /* \"#utility.yul\":7681:7687   */\n      dup3\n        /* \"#utility.yul\":7670:7679   */\n      dup6\n        /* \"#utility.yul\":7666:7688   */\n      add\n        /* \"#utility.yul\":7634:7698   */\n      tag_127\n      jump\t// in\n    tag_215:\n        /* \"#utility.yul\":7624:7698   */\n      swap2\n      pop\n        /* \"#utility.yul\":7580:7708   */\n      pop\n        /* \"#utility.yul\":7364:7715   */\n      swap3\n      swap2\n      pop\n      pop\n      jump\t// out\n        /* \"#utility.yul\":7721:7800   */\n    tag_128:\n        /* \"#utility.yul\":7760:7767   */\n      0x00\n        /* \"#utility.yul\":7789:7794   */\n      dup2\n        /* \"#utility.yul\":7778:7794   */\n      swap1\n      pop\n        /* \"#utility.yul\":7721:7800   */\n      swap2\n      swap1\n      pop\n      jump\t// out\n        /* \"#utility.yul\":7806:7963   */\n    tag_129:\n        /* \"#utility.yul\":7911:7956   */\n      tag_218\n        /* \"#utility.yul\":7931:7955   */\n      tag_219\n        /* \"#utility.yul\":7949:7954   */\n      dup3\n        /* \"#utility.yul\":7931:7955   */\n      tag_120\n      jump\t// in\n    tag_219:\n        /* \"#utility.yul\":7911:7956   */\n      tag_128\n      jump\t// in\n    tag_218:\n        /* \"#utility.yul\":7906:7909   */\n      dup3\n        /* \"#utility.yul\":7899:7957   */\n      mstore\n        /* \"#utility.yul\":7806:7963   */\n      pop\n      pop\n      jump\t// out\n        /* \"#utility.yul\":7969:8975   */\n    tag_25:\n        /* \"#utility.yul\":8275:8278   */\n      0x00\n        /* \"#utility.yul\":8290:8365   */\n      tag_221\n        /* \"#utility.yul\":8361:8364   */\n      dup3\n        /* \"#utility.yul\":8352:8358   */\n      dup10\n        /* \"#utility.yul\":8290:8365   */\n      tag_129\n      jump\t// in\n    tag_221:\n        /* \"#utility.yul\":8390:8392   */\n      0x20\n        /* \"#utility.yul\":8385:8388   */\n      dup3\n        /* \"#utility.yul\":8381:8393   */\n      add\n        /* \"#utility.yul\":8374:8393   */\n      swap2\n      pop\n        /* \"#utility.yul\":8403:8478   */\n      tag_222\n        /* \"#utility.yul\":8474:8477   */\n      dup3\n        /* \"#utility.yul\":8465:8471   */\n      dup9\n        /* \"#utility.yul\":8403:8478   */\n      tag_129\n      jump\t// in\n    tag_222:\n        /* \"#utility.yul\":8503:8505   */\n      0x20\n        /* \"#utility.yul\":8498:8501   */\n      dup3\n        /* \"#utility.yul\":8494:8506   */\n      add\n        /* \"#utility.yul\":8487:8506   */\n      swap2\n      pop\n        /* \"#utility.yul\":8516:8591   */\n      tag_223\n        /* \"#utility.yul\":8587:8590   */\n      dup3\n        /* \"#utility.yul\":8578:8584   */\n      dup8\n        /* \"#utility.yul\":8516:8591   */\n      tag_129\n      jump\t// in\n    tag_223:\n        /* \"#utility.yul\":8616:8618   */\n      0x20\n        /* \"#utility.yul\":8611:8614   */\n      dup3\n        /* \"#utility.yul\":8607:8619   */\n      add\n        /* \"#utility.yul\":8600:8619   */\n      swap2\n      pop\n        /* \"#utility.yul\":8636:8729   */\n      tag_224\n        /* \"#utility.yul\":8725:8728   */\n      dup3\n        /* \"#utility.yul\":8716:8722   */\n      dup7\n        /* \"#utility.yul\":8636:8729   */\n      tag_126\n      jump\t// in\n    tag_224:\n        /* \"#utility.yul\":8629:8729   */\n      swap2\n      pop\n        /* \"#utility.yul\":8746:8839   */\n      tag_225\n        /* \"#utility.yul\":8835:8838   */\n      dup3\n        /* \"#utility.yul\":8826:8832   */\n      dup6\n        /* \"#utility.yul\":8746:8839   */\n      tag_126\n      jump\t// in\n    tag_225:\n        /* \"#utility.yul\":8739:8839   */\n      swap2\n      pop\n        /* \"#utility.yul\":8856:8949   */\n      tag_226\n        /* \"#utility.yul\":8945:8948   */\n      dup3\n        /* \"#utility.yul\":8936:8942   */\n      dup5\n        /* \"#utility.yul\":8856:8949   */\n      tag_126\n      jump\t// in\n    tag_226:\n        /* \"#utility.yul\":8849:8949   */\n      swap2\n      pop\n        /* \"#utility.yul\":8966:8969   */\n      dup2\n        /* \"#utility.yul\":8959:8969   */\n      swap1\n      pop\n        /* \"#utility.yul\":7969:8975   */\n      swap8\n      swap7\n      pop\n      pop\n      pop\n      pop\n      pop\n      pop\n      pop\n      jump\t// out\n        /* \"#utility.yul\":8981:9058   */\n    tag_130:\n        /* \"#utility.yul\":9018:9025   */\n      0x00\n        /* \"#utility.yul\":9047:9052   */\n      dup2\n        /* \"#utility.yul\":9036:9052   */\n      swap1\n      pop\n        /* \"#utility.yul\":8981:9058   */\n      swap2\n      swap1\n      pop\n      jump\t// out\n        /* \"#utility.yul\":9064:9244   */\n    tag_131:\n        /* \"#utility.yul\":9112:9189   */\n      0x4e487b7100000000000000000000000000000000000000000000000000000000\n        /* \"#utility.yul\":9109:9110   */\n      0x00\n        /* \"#utility.yul\":9102:9190   */\n      mstore\n        /* \"#utility.yul\":9209:9213   */\n      0x11\n        /* \"#utility.yul\":9206:9207   */\n      0x04\n        /* \"#utility.yul\":9199:9214   */\n      mstore\n        /* \"#utility.yul\":9233:9237   */\n      0x24\n        /* \"#utility.yul\":9230:9231   */\n      0x00\n        /* \"#utility.yul\":9223:9238   */\n      revert\n        /* \"#utility.yul\":9250:9444   */\n    tag_31:\n        /* \"#utility.yul\":9290:9294   */\n      0x00\n        /* \"#utility.yul\":9310:9330   */\n      tag_230\n        /* \"#utility.yul\":9328:9329   */\n      dup3\n        /* \"#utility.yul\":9310:9330   */\n      tag_130\n      jump\t// in\n    tag_230:\n        /* \"#utility.yul\":9305:9330   */\n      swap2\n      pop\n        /* \"#utility.yul\":9344:9364   */\n      tag_231\n        /* \"#utility.yul\":9362:9363   */\n      dup4\n        /* \"#utility.yul\":9344:9364   */\n      tag_130\n      jump\t// in\n    tag_231:\n        /* \"#utility.yul\":9339:9364   */\n      swap3\n      pop\n        /* \"#utility.yul\":9388:9389   */\n      dup3\n        /* \"#utility.yul\":9385:9386   */\n      dup3\n        /* \"#utility.yul\":9381:9390   */\n      sub\n        /* \"#utility.yul\":9373:9390   */\n      swap1\n      pop\n        /* \"#utility.yul\":9412:9413   */\n      dup2\n        /* \"#utility.yul\":9406:9410   */\n      dup2\n        /* \"#utility.yul\":9403:9414   */\n      gt\n        /* \"#utility.yul\":9400:9437   */\n      iszero\n      tag_232\n      jumpi\n        /* \"#utility.yul\":9417:9435   */\n      tag_233\n      tag_131\n      jump\t// in\n    tag_233:\n        /* \"#utility.yul\":9400:9437   */\n    tag_232:\n        /* \"#utility.yul\":9250:9444   */\n      swap3\n      swap2\n      pop\n      pop\n      jump\t// out\n        /* \"#utility.yul\":9450:9630   */\n    tag_34:\n        /* \"#utility.yul\":9498:9575   */\n      0x4e487b7100000000000000000000000000000000000000000000000000000000\n        /* \"#utility.yul\":9495:9496   */\n      0x00\n        /* \"#utility.yul\":9488:9576   */\n      mstore\n        /* \"#utility.yul\":9595:9599   */\n      0x32\n        /* \"#utility.yul\":9592:9593   */\n      0x04\n        /* \"#utility.yul\":9585:9600   */\n      mstore\n        /* \"#utility.yul\":9619:9623   */\n      0x24\n        /* \"#utility.yul\":9616:9617   */\n      0x00\n        /* \"#utility.yul\":9609:9624   */\n      revert\n        /* \"#utility.yul\":9636:9827   */\n    tag_55:\n        /* \"#utility.yul\":9676:9679   */\n      0x00\n        /* \"#utility.yul\":9695:9715   */\n      tag_236\n        /* \"#utility.yul\":9713:9714   */\n      dup3\n        /* \"#utility.yul\":9695:9715   */\n      tag_130\n      jump\t// in\n    tag_236:\n        /* \"#utility.yul\":9690:9715   */\n      swap2\n      pop\n        /* \"#utility.yul\":9729:9749   */\n      tag_237\n        /* \"#utility.yul\":9747:9748   */\n      dup4\n        /* \"#utility.yul\":9729:9749   */\n      tag_130\n      jump\t// in\n    tag_237:\n        /* \"#utility.yul\":9724:9749   */\n      swap3\n      pop\n        /* \"#utility.yul\":9772:9773   */\n      dup3\n        /* \"#utility.yul\":9769:9770   */\n      dup3\n        /* \"#utility.yul\":9765:9774   */\n      add\n        /* \"#utility.yul\":9758:9774   */\n      swap1\n      pop\n        /* \"#utility.yul\":9793:9796   */\n      dup1\n        /* \"#utility.yul\":9790:9791   */\n      dup3\n        /* \"#utility.yul\":9787:9797   */\n      gt\n        /* \"#utility.yul\":9784:9820   */\n      iszero\n      tag_238\n      jumpi\n        /* \"#utility.yul\":9800:9818   */\n      tag_239\n      tag_131\n      jump\t// in\n    tag_239:\n        /* \"#utility.yul\":9784:9820   */\n    tag_238:\n        /* \"#utility.yul\":9636:9827   */\n      swap3\n      swap2\n      pop\n      pop\n      jump\t// out\n\n    auxdata: 0xa2646970667358221220a872eb2ec372f93aca43cea2c36ac7ee503bcc6023533188312d489a2999e90864736f6c63430008190033\n}\n",
				"bytecode": {
					"linkReferences": {},
					"object": "610e1361004d600b8282823980515f1a6073146041577f4e487b71000000000000000000000000000000000000000000000000000000005f525f60045260245ffd5b305f52607381538281f3fe730000000000000000000000000000000000000000301460806040526004361061003f575f3560e01c80631e8dc888146100435780633a8d43b314610073575b5f80fd5b61005d600480360381019061005891906109f8565b6100a3565b60405161006a9190610ae6565b60405180910390f35b61008d60048036038101906100889190610b32565b610107565b60405161009a9190610ae6565b60405180910390f35b5f6100fd6002866040516100b79190610c3c565b602060405180830381855afa1580156100d2573d5f803e3d5ffd5b5050506040513d601f19601f820116820180604052508101906100f59190610c66565b858585610107565b9050949350505050565b5f80604051806102200160405280603060ff168152602001603160ff168152602001603060ff168152602001600d60ff168152602001600660ff168152602001600960ff168152602001606060ff168152602001608660ff168152602001604860ff168152602001600160ff168152602001606560ff168152602001600360ff168152602001600460ff168152602001600260ff168152602001600160ff168152602001600560ff1681526020015f60ff1681525090505f604051806101e00160405280603060ff168152602001602f60ff168152602001603060ff168152602001600b60ff168152602001600660ff168152602001600960ff168152602001606060ff168152602001608660ff168152602001604860ff168152602001600160ff168152602001606560ff168152602001600360ff168152602001600460ff168152602001600260ff168152602001600160ff1681525090505f86515f1b86515f1b86515f1b89898960405160200161028696959493929190610cb1565b60405160208183030381529060405290505f815190505f865190505f8167ffffffffffffffff8111156102bc576102bb6108d4565b5b6040519080825280601f01601f1916602001820160405280156102ee5781602001600182028036833780820191505090505b5090508160208201846020870160056107d05a03fa505f806031836032866103169190610d4a565b8151811061032757610326610d7d565b5b602001015160f81c60f81b60f81c60ff160361034a57600191506011905061039e565b602f8360308661035a9190610d4a565b8151811061036b5761036a610d7d565b5b602001015160f81c60f81b60f81c60ff160361038d575f9150600f905061039d565b5f985050505050505050506108a3565b5b5f6020826005876103af9190610d4a565b6103b99190610d4a565b6103c39190610d4a565b90505f60f81b845f815181106103dc576103db610d7d565b5b602001015160f81c60f81b7effffffffffffffffffffffffffffffffffffffffffffffffffffffffffffff191614158061045a5750600160f81b8460018151811061042a57610429610d7d565b5b602001015160f81c60f81b7effffffffffffffffffffffffffffffffffffffffffffffffffffffffffffff191614155b15610470575f99505050505050505050506108a3565b5f600290505b8160026104839190610daa565b8110156104f35760ff60f81b8582815181106104a2576104a1610d7d565b5b602001015160f81c60f81b7effffffffffffffffffffffffffffffffffffffffffffffffffffffffffffff1916146104e6575f9a50505050505050505050506108a3565b8080600101915050610476565b505f60f81b848260026105069190610daa565b8151811061051757610516610d7d565b5b602001015160f81c60f81b7effffffffffffffffffffffffffffffffffffffffffffffffffffffffffffff19161461055a575f99505050505050505050506108a3565b6011820361062a575f5b828110156106245789816011811061057f5761057e610d7d565b5b602002015160f81b7effffffffffffffffffffffffffffffffffffffffffffffffffffffffffffff191685828460036105b89190610daa565b6105c29190610daa565b815181106105d3576105d2610d7d565b5b602001015160f81c60f81b7effffffffffffffffffffffffffffffffffffffffffffffffffffffffffffff191614610617575f9a50505050505050505050506108a3565b8080600101915050610564565b506106ee565b5f5b828110156106ec578881600f811061064757610646610d7d565b5b602002015160f81b7effffffffffffffffffffffffffffffffffffffffffffffffffffffffffffff191685828460036106809190610daa565b61068a9190610daa565b8151811061069b5761069a610d7d565b5b602001015160f81c60f81b7effffffffffffffffffffffffffffffffffffffffffffffffffffffffffffff1916146106df575f9a50505050505050505050506108a3565b808060010191505061062c565b505b600460f81b84838360036107029190610daa565b61070c9190610daa565b8151811061071d5761071c610d7d565b5b602001015160f81c60f81b7effffffffffffffffffffffffffffffffffffffffffffffffffffffffffffff19161415806107b15750602060f81b84838360046107669190610daa565b6107709190610daa565b8151811061078157610780610d7d565b5b602001015160f81c60f81b7effffffffffffffffffffffffffffffffffffffffffffffffffffffffffffff191614155b156107c7575f99505050505050505050506108a3565b5f5b602060ff16811015610894578e81602081106107e8576107e7610d7d565b5b1a60f81b7effffffffffffffffffffffffffffffffffffffffffffffffffffffffffffff191685828585600561081e9190610daa565b6108289190610daa565b6108329190610daa565b8151811061084357610842610d7d565b5b602001015160f81c60f81b7effffffffffffffffffffffffffffffffffffffffffffffffffffffffffffff191614610887575f9a50505050505050505050506108a3565b80806001019150506107c9565b50600199505050505050505050505b949350505050565b5f604051905090565b5f80fd5b5f80fd5b5f80fd5b5f80fd5b5f601f19601f8301169050919050565b7f4e487b71000000000000000000000000000000000000000000000000000000005f52604160045260245ffd5b61090a826108c4565b810181811067ffffffffffffffff82111715610929576109286108d4565b5b80604052505050565b5f61093b6108ab565b90506109478282610901565b919050565b5f67ffffffffffffffff821115610966576109656108d4565b5b61096f826108c4565b9050602081019050919050565b828183375f83830152505050565b5f61099c6109978461094c565b610932565b9050828152602081018484840111156109b8576109b76108c0565b5b6109c384828561097c565b509392505050565b5f82601f8301126109df576109de6108bc565b5b81356109ef84826020860161098a565b91505092915050565b5f805f8060808587031215610a1057610a0f6108b4565b5b5f85013567ffffffffffffffff811115610a2d57610a2c6108b8565b5b610a39878288016109cb565b945050602085013567ffffffffffffffff811115610a5a57610a596108b8565b5b610a66878288016109cb565b935050604085013567ffffffffffffffff811115610a8757610a866108b8565b5b610a93878288016109cb565b925050606085013567ffffffffffffffff811115610ab457610ab36108b8565b5b610ac0878288016109cb565b91505092959194509250565b5f8115159050919050565b610ae081610acc565b82525050565b5f602082019050610af95f830184610ad7565b92915050565b5f819050919050565b610b1181610aff565b8114610b1b575f80fd5b50565b5f81359050610b2c81610b08565b92915050565b5f805f8060808587031215610b4a57610b496108b4565b5b5f610b5787828801610b1e565b945050602085013567ffffffffffffffff811115610b7857610b776108b8565b5b610b84878288016109cb565b935050604085013567ffffffffffffffff811115610ba557610ba46108b8565b5b610bb1878288016109cb565b925050606085013567ffffffffffffffff811115610bd257610bd16108b8565b5b610bde878288016109cb565b91505092959194509250565b5f81519050919050565b5f81905092915050565b8281835e5f83830152505050565b5f610c1682610bea565b610c208185610bf4565b9350610c30818560208601610bfe565b80840191505092915050565b5f610c478284610c0c565b915081905092915050565b5f81519050610c6081610b08565b92915050565b5f60208284031215610c7b57610c7a6108b4565b5b5f610c8884828501610c52565b91505092915050565b5f819050919050565b610cab610ca682610aff565b610c91565b82525050565b5f610cbc8289610c9a565b602082019150610ccc8288610c9a565b602082019150610cdc8287610c9a565b602082019150610cec8286610c0c565b9150610cf88285610c0c565b9150610d048284610c0c565b9150819050979650505050505050565b5f819050919050565b7f4e487b71000000000000000000000000000000000000000000000000000000005f52601160045260245ffd5b5f610d5482610d14565b9150610d5f83610d14565b9250828203905081811115610d7757610d76610d1d565b5b92915050565b7f4e487b71000000000000000000000000000000000000000000000000000000005f52603260045260245ffd5b5f610db482610d14565b9150610dbf83610d14565b9250828201905080821115610dd757610dd6610d1d565b5b9291505056fea2646970667358221220a872eb2ec372f93aca43cea2c36ac7ee503bcc6023533188312d489a2999e90864736f6c63430008190033",
					"opcodes": "PUSH2 0xE13 PUSH2 0x4D PUSH1 0xB DUP3 DUP3 DUP3 CODECOPY DUP1 MLOAD PUSH0 BYTE PUSH1 0x73 EQ PUSH1 0x41 JUMPI PUSH32 0x4E487B7100000000000000000000000000000000000000000000000000000000 PUSH0 MSTORE PUSH0 PUSH1 0x4 MSTORE PUSH1 0x24 PUSH0 REVERT JUMPDEST ADDRESS PUSH0 MSTORE PUSH1 0x73 DUP2 MSTORE8 DUP3 DUP2 RETURN INVALID PUSH20 0x0 ADDRESS EQ PUSH1 0x80 PUSH1 0x40 MSTORE PUSH1 0x4 CALLDATASIZE LT PUSH2 0x3F JUMPI PUSH0 CALLDATALOAD PUSH1 0xE0 SHR DUP1 PUSH4 0x1E8DC888 EQ PUSH2 0x43 JUMPI DUP1 PUSH4 0x3A8D43B3 EQ PUSH2 0x73 JUMPI JUMPDEST PUSH0 DUP1 REVERT JUMPDEST PUSH2 0x5D PUSH1 0x4 DUP1 CALLDATASIZE SUB DUP2 ADD SWAP1 PUSH2 0x58 SWAP2 SWAP1 PUSH2 0x9F8 JUMP JUMPDEST PUSH2 0xA3 JUMP JUMPDEST PUSH1 0x40 MLOAD PUSH2 0x6A SWAP2 SWAP1 PUSH2 0xAE6 JUMP JUMPDEST PUSH1 0x40 MLOAD DUP1 SWAP2 SUB SWAP1 RETURN JUMPDEST PUSH2 0x8D PUSH1 0x4 DUP1 CALLDATASIZE SUB DUP2 ADD SWAP1 PUSH2 0x88 SWAP2 SWAP1 PUSH2 0xB32 JUMP JUMPDEST PUSH2 0x107 JUMP JUMPDEST PUSH1 0x40 MLOAD PUSH2 0x9A SWAP2 SWAP1 PUSH2 0xAE6 JUMP JUMPDEST PUSH1 0x40 MLOAD DUP1 SWAP2 SUB SWAP1 RETURN JUMPDEST PUSH0 PUSH2 0xFD PUSH1 0x2 DUP7 PUSH1 0x40 MLOAD PUSH2 0xB7 SWAP2 SWAP1 PUSH2 0xC3C JUMP JUMPDEST PUSH1 0x20 PUSH1 0x40 MLOAD DUP1 DUP4 SUB DUP2 DUP6 GAS STATICCALL ISZERO DUP1 ISZERO PUSH2 0xD2 JUMPI RETURNDATASIZE PUSH0 DUP1 RETURNDATACOPY RETURNDATASIZE PUSH0 REVERT JUMPDEST POP POP POP PUSH1 0x40 MLOAD RETURNDATASIZE PUSH1 0x1F NOT PUSH1 0x1F DUP3 ADD AND DUP3 ADD DUP1 PUSH1 0x40 MSTORE POP DUP2 ADD SWAP1 PUSH2 0xF5 SWAP2 SWAP1 PUSH2 0xC66 JUMP JUMPDEST DUP6 DUP6 DUP6 PUSH2 0x107 JUMP JUMPDEST SWAP1 POP SWAP5 SWAP4 POP POP POP POP JUMP JUMPDEST PUSH0 DUP1 PUSH1 0x40 MLOAD DUP1 PUSH2 0x220 ADD PUSH1 0x40 MSTORE DUP1 PUSH1 0x30 PUSH1 0xFF AND DUP2 MSTORE PUSH1 0x20 ADD PUSH1 0x31 PUSH1 0xFF AND DUP2 MSTORE PUSH1 0x20 ADD PUSH1 0x30 PUSH1 0xFF AND DUP2 MSTORE PUSH1 0x20 ADD PUSH1 0xD PUSH1 0xFF AND DUP2 MSTORE PUSH1 0x20 ADD PUSH1 0x6 PUSH1 0xFF AND DUP2 MSTORE PUSH1 0x20 ADD PUSH1 0x9 PUSH1 0xFF AND DUP2 MSTORE PUSH1 0x20 ADD PUSH1 0x60 PUSH1 0xFF AND DUP2 MSTORE PUSH1 0x20 ADD PUSH1 0x86 PUSH1 0xFF AND DUP2 MSTORE PUSH1 0x20 ADD PUSH1 0x48 PUSH1 0xFF AND DUP2 MSTORE PUSH1 0x20 ADD PUSH1 0x1 PUSH1 0xFF AND DUP2 MSTORE PUSH1 0x20 ADD PUSH1 0x65 PUSH1 0xFF AND DUP2 MSTORE PUSH1 0x20 ADD PUSH1 0x3 PUSH1 0xFF AND DUP2 MSTORE PUSH1 0x20 ADD PUSH1 0x4 PUSH1 0xFF AND DUP2 MSTORE PUSH1 0x20 ADD PUSH1 0x2 PUSH1 0xFF AND DUP2 MSTORE PUSH1 0x20 ADD PUSH1 0x1 PUSH1 0xFF AND DUP2 MSTORE PUSH1 0x20 ADD PUSH1 0x5 PUSH1 0xFF AND DUP2 MSTORE PUSH1 0x20 ADD PUSH0 PUSH1 0xFF AND DUP2 MSTORE POP SWAP1 POP PUSH0 PUSH1 0x40 MLOAD DUP1 PUSH2 0x1E0 ADD PUSH1 0x40 MSTORE DUP1 PUSH1 0x30 PUSH1 0xFF AND DUP2 MSTORE PUSH1 0x20 ADD PUSH1 0x2F PUSH1 0xFF AND DUP2 MSTORE PUSH1 0x20 ADD PUSH1 0x30 PUSH1 0xFF AND DUP2 MSTORE PUSH1 0x20 ADD PUSH1 0xB PUSH1 0xFF AND DUP2 MSTORE PUSH1 0x20 ADD PUSH1 0x6 PUSH1 0xFF AND DUP2 MSTORE PUSH1 0x20 ADD PUSH1 0x9 PUSH1 0xFF AND DUP2 MSTORE PUSH1 0x20 ADD PUSH1 0x60 PUSH1 0xFF AND DUP2 MSTORE PUSH1 0x20 ADD PUSH1 0x86 PUSH1 0xFF AND DUP2 MSTORE PUSH1 0x20 ADD PUSH1 0x48 PUSH1 0xFF AND DUP2 MSTORE PUSH1 0x20 ADD PUSH1 0x1 PUSH1 0xFF AND DUP2 MSTORE PUSH1 0x20 ADD PUSH1 0x65 PUSH1 0xFF AND DUP2 MSTORE PUSH1 0x20 ADD PUSH1 0x3 PUSH1 0xFF AND DUP2 MSTORE PUSH1 0x20 ADD PUSH1 0x4 PUSH1 0xFF AND DUP2 MSTORE PUSH1 0x20 ADD PUSH1 0x2 PUSH1 0xFF AND DUP2 MSTORE PUSH1 0x20 ADD PUSH1 0x1 PUSH1 0xFF AND DUP2 MSTORE POP SWAP1 POP PUSH0 DUP7 MLOAD PUSH0 SHL DUP7 MLOAD PUSH0 SHL DUP7 MLOAD PUSH0 SHL DUP10 DUP10 DUP10 PUSH1 0x40 MLOAD PUSH1 0x20 ADD PUSH2 0x286 SWAP7 SWAP6 SWAP5 SWAP4 SWAP3 SWAP2 SWAP1 PUSH2 0xCB1 JUMP JUMPDEST PUSH1 0x40 MLOAD PUSH1 0x20 DUP2 DUP4 SUB SUB DUP2 MSTORE SWAP1 PUSH1 0x40 MSTORE SWAP1 POP PUSH0 DUP2 MLOAD SWAP1 POP PUSH0 DUP7 MLOAD SWAP1 POP PUSH0 DUP2 PUSH8 0xFFFFFFFFFFFFFFFF DUP2 GT ISZERO PUSH2 0x2BC JUMPI PUSH2 0x2BB PUSH2 0x8D4 JUMP JUMPDEST JUMPDEST PUSH1 0x40 MLOAD SWAP1 DUP1 DUP3 MSTORE DUP1 PUSH1 0x1F ADD PUSH1 0x1F NOT AND PUSH1 0x20 ADD DUP3 ADD PUSH1 0x40 MSTORE DUP1 ISZERO PUSH2 0x2EE JUMPI DUP2 PUSH1 0x20 ADD PUSH1 0x1 DUP3 MUL DUP1 CALLDATASIZE DUP4 CALLDATACOPY DUP1 DUP3 ADD SWAP2 POP POP SWAP1 POP JUMPDEST POP SWAP1 POP DUP2 PUSH1 0x20 DUP3 ADD DUP5 PUSH1 0x20 DUP8 ADD PUSH1 0x5 PUSH2 0x7D0 GAS SUB STATICCALL POP PUSH0 DUP1 PUSH1 0x31 DUP4 PUSH1 0x32 DUP7 PUSH2 0x316 SWAP2 SWAP1 PUSH2 0xD4A JUMP JUMPDEST DUP2 MLOAD DUP2 LT PUSH2 0x327 JUMPI PUSH2 0x326 PUSH2 0xD7D JUMP JUMPDEST JUMPDEST PUSH1 0x20 ADD ADD MLOAD PUSH1 0xF8 SHR PUSH1 0xF8 SHL PUSH1 0xF8 SHR PUSH1 0xFF AND SUB PUSH2 0x34A JUMPI PUSH1 0x1 SWAP2 POP PUSH1 0x11 SWAP1 POP PUSH2 0x39E JUMP JUMPDEST PUSH1 0x2F DUP4 PUSH1 0x30 DUP7 PUSH2 0x35A SWAP2 SWAP1 PUSH2 0xD4A JUMP JUMPDEST DUP2 MLOAD DUP2 LT PUSH2 0x36B JUMPI PUSH2 0x36A PUSH2 0xD7D JUMP JUMPDEST JUMPDEST PUSH1 0x20 ADD ADD MLOAD PUSH1 0xF8 SHR PUSH1 0xF8 SHL PUSH1 0xF8 SHR PUSH1 0xFF AND SUB PUSH2 0x38D JUMPI PUSH0 SWAP2 POP PUSH1 0xF SWAP1 POP PUSH2 0x39D JUMP JUMPDEST PUSH0 SWAP9 POP POP POP POP POP POP POP POP POP PUSH2 0x8A3 JUMP JUMPDEST JUMPDEST PUSH0 PUSH1 0x20 DUP3 PUSH1 0x5 DUP8 PUSH2 0x3AF SWAP2 SWAP1 PUSH2 0xD4A JUMP JUMPDEST PUSH2 0x3B9 SWAP2 SWAP1 PUSH2 0xD4A JUMP JUMPDEST PUSH2 0x3C3 SWAP2 SWAP1 PUSH2 0xD4A JUMP JUMPDEST SWAP1 POP PUSH0 PUSH1 0xF8 SHL DUP5 PUSH0 DUP2 MLOAD DUP2 LT PUSH2 0x3DC JUMPI PUSH2 0x3DB PUSH2 0xD7D JUMP JUMPDEST JUMPDEST PUSH1 0x20 ADD ADD MLOAD PUSH1 0xF8 SHR PUSH1 0xF8 SHL PUSH31 0xFFFFFFFFFFFFFFFFFFFFFFFFFFFFFFFFFFFFFFFFFFFFFFFFFFFFFFFFFFFFFF NOT AND EQ ISZERO DUP1 PUSH2 0x45A JUMPI POP PUSH1 0x1 PUSH1 0xF8 SHL DUP5 PUSH1 0x1 DUP2 MLOAD DUP2 LT PUSH2 0x42A JUMPI PUSH2 0x429 PUSH2 0xD7D JUMP JUMPDEST JUMPDEST PUSH1 0x20 ADD ADD MLOAD PUSH1 0xF8 SHR PUSH1 0xF8 SHL PUSH31 0xFFFFFFFFFFFFFFFFFFFFFFFFFFFFFFFFFFFFFFFFFFFFFFFFFFFFFFFFFFFFFF NOT AND EQ ISZERO JUMPDEST ISZERO PUSH2 0x470 JUMPI PUSH0 SWAP10 POP POP POP POP POP POP POP POP POP POP PUSH2 0x8A3 JUMP JUMPDEST PUSH0 PUSH1 0x2 SWAP1 POP JUMPDEST DUP2 PUSH1 0x2 PUSH2 0x483 SWAP2 SWAP1 PUSH2 0xDAA JUMP JUMPDEST DUP2 LT ISZERO PUSH2 0x4F3 JUMPI PUSH1 0xFF PUSH1 0xF8 SHL DUP6 DUP3 DUP2 MLOAD DUP2 LT PUSH2 0x4A2 JUMPI PUSH2 0x4A1 PUSH2 0xD7D JUMP JUMPDEST JUMPDEST PUSH1 0x20 ADD ADD MLOAD PUSH1 0xF8 SHR PUSH1 0xF8 SHL PUSH31 0xFFFFFFFFFFFFFFFFFFFFFFFFFFFFFFFFFFFFFFFFFFFFFFFFFFFFFFFFFFFFFF NOT AND EQ PUSH2 0x4E6 JUMPI PUSH0 SWAP11 POP POP POP POP POP POP POP POP POP POP POP PUSH2 0x8A3 JUMP JUMPDEST DUP1 DUP1 PUSH1 0x1 ADD SWAP2 POP POP PUSH2 0x476 JUMP JUMPDEST POP PUSH0 PUSH1 0xF8 SHL DUP5 DUP3 PUSH1 0x2 PUSH2 0x506 SWAP2 SWAP1 PUSH2 0xDAA JUMP JUMPDEST DUP2 MLOAD DUP2 LT PUSH2 0x517 JUMPI PUSH2 0x516 PUSH2 0xD7D JUMP JUMPDEST JUMPDEST PUSH1 0x20 ADD ADD MLOAD PUSH1 0xF8 SHR PUSH1 0xF8 SHL PUSH31 0xFFFFFFFFFFFFFFFFFFFFFFFFFFFFFFFFFFFFFFFFFFFFFFFFFFFFFFFFFFFFFF NOT AND EQ PUSH2 0x55A JUMPI PUSH0 SWAP10 POP POP POP POP POP POP POP POP POP POP PUSH2 0x8A3 JUMP JUMPDEST PUSH1 0x11 DUP3 SUB PUSH2 0x62A JUMPI PUSH0 JUMPDEST DUP3 DUP2 LT ISZERO PUSH2 0x624 JUMPI DUP10 DUP2 PUSH1 0x11 DUP2 LT PUSH2 0x57F JUMPI PUSH2 0x57E PUSH2 0xD7D JUMP JUMPDEST JUMPDEST PUSH1 0x20 MUL ADD MLOAD PUSH1 0xF8 SHL PUSH31 0xFFFFFFFFFFFFFFFFFFFFFFFFFFFFFFFFFFFFFFFFFFFFFFFFFFFFFFFFFFFFFF NOT AND DUP6 DUP3 DUP5 PUSH1 0x3 PUSH2 0x5B8 SWAP2 SWAP1 PUSH2 0xDAA JUMP JUMPDEST PUSH2 0x5C2 SWAP2 SWAP1 PUSH2 0xDAA JUMP JUMPDEST DUP2 MLOAD DUP2 LT PUSH2 0x5D3 JUMPI PUSH2 0x5D2 PUSH2 0xD7D JUMP JUMPDEST JUMPDEST PUSH1 0x20 ADD ADD MLOAD PUSH1 0xF8 SHR PUSH1 0xF8 SHL PUSH31 0xFFFFFFFFFFFFFFFFFFFFFFFFFFFFFFFFFFFFFFFFFFFFFFFFFFFFFFFFFFFFFF NOT AND EQ PUSH2 0x617 JUMPI PUSH0 SWAP11 POP POP POP POP POP POP POP POP POP POP POP PUSH2 0x8A3 JUMP JUMPDEST DUP1 DUP1 PUSH1 0x1 ADD SWAP2 POP POP PUSH2 0x564 JUMP JUMPDEST POP PUSH2 0x6EE JUMP JUMPDEST PUSH0 JUMPDEST DUP3 DUP2 LT ISZERO PUSH2 0x6EC JUMPI DUP9 DUP2 PUSH1 0xF DUP2 LT PUSH2 0x647 JUMPI PUSH2 0x646 PUSH2 0xD7D JUMP JUMPDEST JUMPDEST PUSH1 0x20 MUL ADD MLOAD PUSH1 0xF8 SHL PUSH31 0xFFFFFFFFFFFFFFFFFFFFFFFFFFFFFFFFFFFFFFFFFFFFFFFFFFFFFFFFFFFFFF NOT AND DUP6 DUP3 DUP5 PUSH1 0x3 PUSH2 0x680 SWAP2 SWAP1 PUSH2 0xDAA JUMP JUMPDEST PUSH2 0x68A SWAP2 SWAP1 PUSH2 0xDAA JUMP JUMPDEST DUP2 MLOAD DUP2 LT PUSH2 0x69B JUMPI PUSH2 0x69A PUSH2 0xD7D JUMP JUMPDEST JUMPDEST PUSH1 0x20 ADD ADD MLOAD PUSH1 0xF8 SHR PUSH1 0xF8 SHL PUSH31 0xFFFFFFFFFFFFFFFFFFFFFFFFFFFFFFFFFFFFFFFFFFFFFFFFFFFFFFFFFFFFFF NOT AND EQ PUSH2 0x6DF JUMPI PUSH0 SWAP11 POP POP POP POP POP POP POP POP POP POP POP PUSH2 0x8A3 JUMP JUMPDEST DUP1 DUP1 PUSH1 0x1 ADD SWAP2 POP POP PUSH2 0x62C JUMP JUMPDEST POP JUMPDEST PUSH1 0x4 PUSH1 0xF8 SHL DUP5 DUP4 DUP4 PUSH1 0x3 PUSH2 0x702 SWAP2 SWAP1 PUSH2 0xDAA JUMP JUMPDEST PUSH2 0x70C SWAP2 SWAP1 PUSH2 0xDAA JUMP JUMPDEST DUP2 MLOAD DUP2 LT PUSH2 0x71D JUMPI PUSH2 0x71C PUSH2 0xD7D JUMP JUMPDEST JUMPDEST PUSH1 0x20 ADD ADD MLOAD PUSH1 0xF8 SHR PUSH1 0xF8 SHL PUSH31 0xFFFFFFFFFFFFFFFFFFFFFFFFFFFFFFFFFFFFFFFFFFFFFFFFFFFFFFFFFFFFFF NOT AND EQ ISZERO DUP1 PUSH2 0x7B1 JUMPI POP PUSH1 0x20 PUSH1 0xF8 SHL DUP5 DUP4 DUP4 PUSH1 0x4 PUSH2 0x766 SWAP2 SWAP1 PUSH2 0xDAA JUMP JUMPDEST PUSH2 0x770 SWAP2 SWAP1 PUSH2 0xDAA JUMP JUMPDEST DUP2 MLOAD DUP2 LT PUSH2 0x781 JUMPI PUSH2 0x780 PUSH2 0xD7D JUMP JUMPDEST JUMPDEST PUSH1 0x20 ADD ADD MLOAD PUSH1 0xF8 SHR PUSH1 0xF8 SHL PUSH31 0xFFFFFFFFFFFFFFFFFFFFFFFFFFFFFFFFFFFFFFFFFFFFFFFFFFFFFFFFFFFFFF NOT AND EQ ISZERO JUMPDEST ISZERO PUSH2 0x7C7 JUMPI PUSH0 SWAP10 POP POP POP POP POP POP POP POP POP POP PUSH2 0x8A3 JUMP JUMPDEST PUSH0 JUMPDEST PUSH1 0x20 PUSH1 0xFF AND DUP2 LT ISZERO PUSH2 0x894 JUMPI DUP15 DUP2 PUSH1 0x20 DUP2 LT PUSH2 0x7E8 JUMPI PUSH2 0x7E7 PUSH2 0xD7D JUMP JUMPDEST JUMPDEST BYTE PUSH1 0xF8 SHL PUSH31 0xFFFFFFFFFFFFFFFFFFFFFFFFFFFFFFFFFFFFFFFFFFFFFFFFFFFFFFFFFFFFFF NOT AND DUP6 DUP3 DUP6 DUP6 PUSH1 0x5 PUSH2 0x81E SWAP2 SWAP1 PUSH2 0xDAA JUMP JUMPDEST PUSH2 0x828 SWAP2 SWAP1 PUSH2 0xDAA JUMP JUMPDEST PUSH2 0x832 SWAP2 SWAP1 PUSH2 0xDAA JUMP JUMPDEST DUP2 MLOAD DUP2 LT PUSH2 0x843 JUMPI PUSH2 0x842 PUSH2 0xD7D JUMP JUMPDEST JUMPDEST PUSH1 0x20 ADD ADD MLOAD PUSH1 0xF8 SHR PUSH1 0xF8 SHL PUSH31 0xFFFFFFFFFFFFFFFFFFFFFFFFFFFFFFFFFFFFFFFFFFFFFFFFFFFFFFFFFFFFFF NOT AND EQ PUSH2 0x887 JUMPI PUSH0 SWAP11 POP POP POP POP POP POP POP POP POP POP POP PUSH2 0x8A3 JUMP JUMPDEST DUP1 DUP1 PUSH1 0x1 ADD SWAP2 POP POP PUSH2 0x7C9 JUMP JUMPDEST POP PUSH1 0x1 SWAP10 POP POP POP POP POP POP POP POP POP POP JUMPDEST SWAP5 SWAP4 POP POP POP POP JUMP JUMPDEST PUSH0 PUSH1 0x40 MLOAD SWAP1 POP SWAP1 JUMP JUMPDEST PUSH0 DUP1 REVERT JUMPDEST PUSH0 DUP1 REVERT JUMPDEST PUSH0 DUP1 REVERT JUMPDEST PUSH0 DUP1 REVERT JUMPDEST PUSH0 PUSH1 0x1F NOT PUSH1 0x1F DUP4 ADD AND SWAP1 POP SWAP2 SWAP1 POP JUMP JUMPDEST PUSH32 0x4E487B7100000000000000000000000000000000000000000000000000000000 PUSH0 MSTORE PUSH1 0x41 PUSH1 0x4 MSTORE PUSH1 0x24 PUSH0 REVERT JUMPDEST PUSH2 0x90A DUP3 PUSH2 0x8C4 JUMP JUMPDEST DUP2 ADD DUP2 DUP2 LT PUSH8 0xFFFFFFFFFFFFFFFF DUP3 GT OR ISZERO PUSH2 0x929 JUMPI PUSH2 0x928 PUSH2 0x8D4 JUMP JUMPDEST JUMPDEST DUP1 PUSH1 0x40 MSTORE POP POP POP JUMP JUMPDEST PUSH0 PUSH2 0x93B PUSH2 0x8AB JUMP JUMPDEST SWAP1 POP PUSH2 0x947 DUP3 DUP3 PUSH2 0x901 JUMP JUMPDEST SWAP2 SWAP1 POP JUMP JUMPDEST PUSH0 PUSH8 0xFFFFFFFFFFFFFFFF DUP3 GT ISZERO PUSH2 0x966 JUMPI PUSH2 0x965 PUSH2 0x8D4 JUMP JUMPDEST JUMPDEST PUSH2 0x96F DUP3 PUSH2 0x8C4 JUMP JUMPDEST SWAP1 POP PUSH1 0x20 DUP2 ADD SWAP1 POP SWAP2 SWAP1 POP JUMP JUMPDEST DUP3 DUP2 DUP4 CALLDATACOPY PUSH0 DUP4 DUP4 ADD MSTORE POP POP POP JUMP JUMPDEST PUSH0 PUSH2 0x99C PUSH2 0x997 DUP5 PUSH2 0x94C JUMP JUMPDEST PUSH2 0x932 JUMP JUMPDEST SWAP1 POP DUP3 DUP2 MSTORE PUSH1 0x20 DUP2 ADD DUP5 DUP5 DUP5 ADD GT ISZERO PUSH2 0x9B8 JUMPI PUSH2 0x9B7 PUSH2 0x8C0 JUMP JUMPDEST JUMPDEST PUSH2 0x9C3 DUP5 DUP3 DUP6 PUSH2 0x97C JUMP JUMPDEST POP SWAP4 SWAP3 POP POP POP JUMP JUMPDEST PUSH0 DUP3 PUSH1 0x1F DUP4 ADD SLT PUSH2 0x9DF JUMPI PUSH2 0x9DE PUSH2 0x8BC JUMP JUMPDEST JUMPDEST DUP2 CALLDATALOAD PUSH2 0x9EF DUP5 DUP3 PUSH1 0x20 DUP7 ADD PUSH2 0x98A JUMP JUMPDEST SWAP2 POP POP SWAP3 SWAP2 POP POP JUMP JUMPDEST PUSH0 DUP1 PUSH0 DUP1 PUSH1 0x80 DUP6 DUP8 SUB SLT ISZERO PUSH2 0xA10 JUMPI PUSH2 0xA0F PUSH2 0x8B4 JUMP JUMPDEST JUMPDEST PUSH0 DUP6 ADD CALLDATALOAD PUSH8 0xFFFFFFFFFFFFFFFF DUP2 GT ISZERO PUSH2 0xA2D JUMPI PUSH2 0xA2C PUSH2 0x8B8 JUMP JUMPDEST JUMPDEST PUSH2 0xA39 DUP8 DUP3 DUP9 ADD PUSH2 0x9CB JUMP JUMPDEST SWAP5 POP POP PUSH1 0x20 DUP6 ADD CALLDATALOAD PUSH8 0xFFFFFFFFFFFFFFFF DUP2 GT ISZERO PUSH2 0xA5A JUMPI PUSH2 0xA59 PUSH2 0x8B8 JUMP JUMPDEST JUMPDEST PUSH2 0xA66 DUP8 DUP3 DUP9 ADD PUSH2 0x9CB JUMP JUMPDEST SWAP4 POP POP PUSH1 0x40 DUP6 ADD CALLDATALOAD PUSH8 0xFFFFFFFFFFFFFFFF DUP2 GT ISZERO PUSH2 0xA87 JUMPI PUSH2 0xA86 PUSH2 0x8B8 JUMP JUMPDEST JUMPDEST PUSH2 0xA93 DUP8 DUP3 DUP9 ADD PUSH2 0x9CB JUMP JUMPDEST SWAP3 POP POP PUSH1 0x60 DUP6 ADD CALLDATALOAD PUSH8 0xFFFFFFFFFFFFFFFF DUP2 GT ISZERO PUSH2 0xAB4 JUMPI PUSH2 0xAB3 PUSH2 0x8B8 JUMP JUMPDEST JUMPDEST PUSH2 0xAC0 DUP8 DUP3 DUP9 ADD PUSH2 0x9CB JUMP JUMPDEST SWAP2 POP POP SWAP3 SWAP6 SWAP2 SWAP5 POP SWAP3 POP JUMP JUMPDEST PUSH0 DUP2 ISZERO ISZERO SWAP1 POP SWAP2 SWAP1 POP JUMP JUMPDEST PUSH2 0xAE0 DUP2 PUSH2 0xACC JUMP JUMPDEST DUP3 MSTORE POP POP JUMP JUMPDEST PUSH0 PUSH1 0x20 DUP3 ADD SWAP1 POP PUSH2 0xAF9 PUSH0 DUP4 ADD DUP5 PUSH2 0xAD7 JUMP JUMPDEST SWAP3 SWAP2 POP POP JUMP JUMPDEST PUSH0 DUP2 SWAP1 POP SWAP2 SWAP1 POP JUMP JUMPDEST PUSH2 0xB11 DUP2 PUSH2 0xAFF JUMP JUMPDEST DUP2 EQ PUSH2 0xB1B JUMPI PUSH0 DUP1 REVERT JUMPDEST POP JUMP JUMPDEST PUSH0 DUP2 CALLDATALOAD SWAP1 POP PUSH2 0xB2C DUP2 PUSH2 0xB08 JUMP JUMPDEST SWAP3 SWAP2 POP POP JUMP JUMPDEST PUSH0 DUP1 PUSH0 DUP1 PUSH1 0x80 DUP6 DUP8 SUB SLT ISZERO PUSH2 0xB4A JUMPI PUSH2 0xB49 PUSH2 0x8B4 JUMP JUMPDEST JUMPDEST PUSH0 PUSH2 0xB57 DUP8 DUP3 DUP9 ADD PUSH2 0xB1E JUMP JUMPDEST SWAP5 POP POP PUSH1 0x20 DUP6 ADD CALLDATALOAD PUSH8 0xFFFFFFFFFFFFFFFF DUP2 GT ISZERO PUSH2 0xB78 JUMPI PUSH2 0xB77 PUSH2 0x8B8 JUMP JUMPDEST JUMPDEST PUSH2 0xB84 DUP8 DUP3 DUP9 ADD PUSH2 0x9CB JUMP JUMPDEST SWAP4 POP POP PUSH1 0x40 DUP6 ADD CALLDATALOAD PUSH8 0xFFFFFFFFFFFFFFFF DUP2 GT ISZERO PUSH2 0xBA5 JUMPI PUSH2 0xBA4 PUSH2 0x8B8 JUMP JUMPDEST JUMPDEST PUSH2 0xBB1 DUP8 DUP3 DUP9 ADD PUSH2 0x9CB JUMP JUMPDEST SWAP3 POP POP PUSH1 0x60 DUP6 ADD CALLDATALOAD PUSH8 0xFFFFFFFFFFFFFFFF DUP2 GT ISZERO PUSH2 0xBD2 JUMPI PUSH2 0xBD1 PUSH2 0x8B8 JUMP JUMPDEST JUMPDEST PUSH2 0xBDE DUP8 DUP3 DUP9 ADD PUSH2 0x9CB JUMP JUMPDEST SWAP2 POP POP SWAP3 SWAP6 SWAP2 SWAP5 POP SWAP3 POP JUMP JUMPDEST PUSH0 DUP2 MLOAD SWAP1 POP SWAP2 SWAP1 POP JUMP JUMPDEST PUSH0 DUP2 SWAP1 POP SWAP3 SWAP2 POP POP JUMP JUMPDEST DUP3 DUP2 DUP4 MCOPY PUSH0 DUP4 DUP4 ADD MSTORE POP POP POP JUMP JUMPDEST PUSH0 PUSH2 0xC16 DUP3 PUSH2 0xBEA JUMP JUMPDEST PUSH2 0xC20 DUP2 DUP6 PUSH2 0xBF4 JUMP JUMPDEST SWAP4 POP PUSH2 0xC30 DUP2 DUP6 PUSH1 0x20 DUP7 ADD PUSH2 0xBFE JUMP JUMPDEST DUP1 DUP5 ADD SWAP2 POP POP SWAP3 SWAP2 POP POP JUMP JUMPDEST PUSH0 PUSH2 0xC47 DUP3 DUP5 PUSH2 0xC0C JUMP JUMPDEST SWAP2 POP DUP2 SWAP1 POP SWAP3 SWAP2 POP POP JUMP JUMPDEST PUSH0 DUP2 MLOAD SWAP1 POP PUSH2 0xC60 DUP2 PUSH2 0xB08 JUMP JUMPDEST SWAP3 SWAP2 POP POP JUMP JUMPDEST PUSH0 PUSH1 0x20 DUP3 DUP5 SUB SLT ISZERO PUSH2 0xC7B JUMPI PUSH2 0xC7A PUSH2 0x8B4 JUMP JUMPDEST JUMPDEST PUSH0 PUSH2 0xC88 DUP5 DUP3 DUP6 ADD PUSH2 0xC52 JUMP JUMPDEST SWAP2 POP POP SWAP3 SWAP2 POP POP JUMP JUMPDEST PUSH0 DUP2 SWAP1 POP SWAP2 SWAP1 POP JUMP JUMPDEST PUSH2 0xCAB PUSH2 0xCA6 DUP3 PUSH2 0xAFF JUMP JUMPDEST PUSH2 0xC91 JUMP JUMPDEST DUP3 MSTORE POP POP JUMP JUMPDEST PUSH0 PUSH2 0xCBC DUP3 DUP10 PUSH2 0xC9A JUMP JUMPDEST PUSH1 0x20 DUP3 ADD SWAP2 POP PUSH2 0xCCC DUP3 DUP9 PUSH2 0xC9A JUMP JUMPDEST PUSH1 0x20 DUP3 ADD SWAP2 POP PUSH2 0xCDC DUP3 DUP8 PUSH2 0xC9A JUMP JUMPDEST PUSH1 0x20 DUP3 ADD SWAP2 POP PUSH2 0xCEC DUP3 DUP7 PUSH2 0xC0C JUMP JUMPDEST SWAP2 POP PUSH2 0xCF8 DUP3 DUP6 PUSH2 0xC0C JUMP JUMPDEST SWAP2 POP PUSH2 0xD04 DUP3 DUP5 PUSH2 0xC0C JUMP JUMPDEST SWAP2 POP DUP2 SWAP1 POP SWAP8 SWAP7 POP POP POP POP POP POP POP JUMP JUMPDEST PUSH0 DUP2 SWAP1 POP SWAP2 SWAP1 POP JUMP JUMPDEST PUSH32 0x4E487B7100000000000000000000000000000000000000000000000000000000 PUSH0 MSTORE PUSH1 0x11 PUSH1 0x4 MSTORE PUSH1 0x24 PUSH0 REVERT JUMPDEST PUSH0 PUSH2 0xD54 DUP3 PUSH2 0xD14 JUMP JUMPDEST SWAP2 POP PUSH2 0xD5F DUP4 PUSH2 0xD14 JUMP JUMPDEST SWAP3 POP DUP3 DUP3 SUB SWAP1 POP DUP2 DUP2 GT ISZERO PUSH2 0xD77 JUMPI PUSH2 0xD76 PUSH2 0xD1D JUMP JUMPDEST JUMPDEST SWAP3 SWAP2 POP POP JUMP JUMPDEST PUSH32 0x4E487B7100000000000000000000000000000000000000000000000000000000 PUSH0 MSTORE PUSH1 0x32 PUSH1 0x4 MSTORE PUSH1 0x24 PUSH0 REVERT JUMPDEST PUSH0 PUSH2 0xDB4 DUP3 PUSH2 0xD14 JUMP JUMPDEST SWAP2 POP PUSH2 0xDBF DUP4 PUSH2 0xD14 JUMP JUMPDEST SWAP3 POP DUP3 DUP3 ADD SWAP1 POP DUP1 DUP3 GT ISZERO PUSH2 0xDD7 JUMPI PUSH2 0xDD6 PUSH2 0xD1D JUMP JUMPDEST JUMPDEST SWAP3 SWAP2 POP POP JUMP INVALID LOG2 PUSH5 0x6970667358 0x22 SLT KECCAK256 0xA8 PUSH19 0xEB2EC372F93ACA43CEA2C36AC7EE503BCC6023 MSTORE8 BALANCE DUP9 BALANCE 0x2D BASEFEE SWAP11 0x29 SWAP10 0xE9 ADDMOD PUSH5 0x736F6C6343 STOP ADDMOD NOT STOP CALLER "
				},
				"gasEstimates": {
					"creation": {
						"codeDepositCost": "720600",
						"executionCost": "776",
						"totalCost": "721376"
					},
					"external": {
						"pkcs1Sha256(bytes32,bytes,bytes,bytes)": "infinite",
						"pkcs1Sha256Raw(bytes,bytes,bytes,bytes)": "infinite"
					}
				},
				"methodIdentifiers": {
					"pkcs1Sha256(bytes32,bytes,bytes,bytes)": "3a8d43b3",
					"pkcs1Sha256Raw(bytes,bytes,bytes,bytes)": "1e8dc888"
				}
			},
			"storageLayout": {
				"storage": [],
				"types": null
			},
			"userdoc": {
				"kind": "user",
				"methods": {},
				"version": 1
			}
		}
	}
}